{"abi":[{"type":"constructor","inputs":[{"name":"config","type":"tuple","internalType":"struct OrderBookV4ArbConfigV2","components":[{"name":"orderBook","type":"address","internalType":"address"},{"name":"task","type":"tuple","internalType":"struct TaskV1","components":[{"name":"evaluable","type":"tuple","internalType":"struct EvaluableV3","components":[{"name":"interpreter","type":"address","internalType":"contract IInterpreterV3"},{"name":"store","type":"address","internalType":"contract IInterpreterStoreV2"},{"name":"bytecode","type":"bytes","internalType":"bytes"}]},{"name":"signedContext","type":"tuple[]","internalType":"struct SignedContextV1[]","components":[{"name":"signer","type":"address","internalType":"address"},{"name":"context","type":"uint256[]","internalType":"uint256[]"},{"name":"signature","type":"bytes","internalType":"bytes"}]}]},{"name":"implementationData","type":"bytes","internalType":"bytes"}]}],"stateMutability":"nonpayable"},{"type":"fallback","stateMutability":"nonpayable"},{"type":"function","name":"arb3","inputs":[{"name":"orderBook","type":"address","internalType":"contract IOrderBookV4"},{"name":"takeOrders","type":"tuple","internalType":"struct TakeOrdersConfigV3","components":[{"name":"minimumInput","type":"uint256","internalType":"uint256"},{"name":"maximumInput","type":"uint256","internalType":"uint256"},{"name":"maximumIORatio","type":"uint256","internalType":"uint256"},{"name":"orders","type":"tuple[]","internalType":"struct TakeOrderConfigV3[]","components":[{"name":"order","type":"tuple","internalType":"struct OrderV3","components":[{"name":"owner","type":"address","internalType":"address"},{"name":"evaluable","type":"tuple","internalType":"struct EvaluableV3","components":[{"name":"interpreter","type":"address","internalType":"contract IInterpreterV3"},{"name":"store","type":"address","internalType":"contract IInterpreterStoreV2"},{"name":"bytecode","type":"bytes","internalType":"bytes"}]},{"name":"validInputs","type":"tuple[]","internalType":"struct IO[]","components":[{"name":"token","type":"address","internalType":"address"},{"name":"decimals","type":"uint8","internalType":"uint8"},{"name":"vaultId","type":"uint256","internalType":"uint256"}]},{"name":"validOutputs","type":"tuple[]","internalType":"struct IO[]","components":[{"name":"token","type":"address","internalType":"address"},{"name":"decimals","type":"uint8","internalType":"uint8"},{"name":"vaultId","type":"uint256","internalType":"uint256"}]},{"name":"nonce","type":"bytes32","internalType":"bytes32"}]},{"name":"inputIOIndex","type":"uint256","internalType":"uint256"},{"name":"outputIOIndex","type":"uint256","internalType":"uint256"},{"name":"signedContext","type":"tuple[]","internalType":"struct SignedContextV1[]","components":[{"name":"signer","type":"address","internalType":"address"},{"name":"context","type":"uint256[]","internalType":"uint256[]"},{"name":"signature","type":"bytes","internalType":"bytes"}]}]},{"name":"data","type":"bytes","internalType":"bytes"}]},{"name":"task","type":"tuple","internalType":"struct TaskV1","components":[{"name":"evaluable","type":"tuple","internalType":"struct EvaluableV3","components":[{"name":"interpreter","type":"address","internalType":"contract IInterpreterV3"},{"name":"store","type":"address","internalType":"contract IInterpreterStoreV2"},{"name":"bytecode","type":"bytes","internalType":"bytes"}]},{"name":"signedContext","type":"tuple[]","internalType":"struct SignedContextV1[]","components":[{"name":"signer","type":"address","internalType":"address"},{"name":"context","type":"uint256[]","internalType":"uint256[]"},{"name":"signature","type":"bytes","internalType":"bytes"}]}]}],"outputs":[],"stateMutability":"payable"},{"type":"function","name":"iPermit2","inputs":[],"outputs":[{"name":"","type":"address","internalType":"contract IPermit2"}],"stateMutability":"view"},{"type":"function","name":"iTaskHash","inputs":[],"outputs":[{"name":"","type":"bytes32","internalType":"bytes32"}],"stateMutability":"view"},{"type":"function","name":"onTakeOrders","inputs":[{"name":"inputToken","type":"address","internalType":"address"},{"name":"outputToken","type":"address","internalType":"address"},{"name":"inputAmountSent","type":"uint256","internalType":"uint256"},{"name":"totalOutputAmount","type":"uint256","internalType":"uint256"},{"name":"takeOrdersData","type":"bytes","internalType":"bytes"}],"outputs":[],"stateMutability":"nonpayable"},{"type":"function","name":"supportsInterface","inputs":[{"name":"interfaceId","type":"bytes4","internalType":"bytes4"}],"outputs":[{"name":"","type":"bool","internalType":"bool"}],"stateMutability":"view"},{"type":"event","name":"Construct","inputs":[{"name":"sender","type":"address","indexed":false,"internalType":"address"},{"name":"config","type":"tuple","indexed":false,"internalType":"struct OrderBookV4ArbConfigV2","components":[{"name":"orderBook","type":"address","internalType":"address"},{"name":"task","type":"tuple","internalType":"struct TaskV1","components":[{"name":"evaluable","type":"tuple","internalType":"struct EvaluableV3","components":[{"name":"interpreter","type":"address","internalType":"contract IInterpreterV3"},{"name":"store","type":"address","internalType":"contract IInterpreterStoreV2"},{"name":"bytecode","type":"bytes","internalType":"bytes"}]},{"name":"signedContext","type":"tuple[]","internalType":"struct SignedContextV1[]","components":[{"name":"signer","type":"address","internalType":"address"},{"name":"context","type":"uint256[]","internalType":"uint256[]"},{"name":"signature","type":"bytes","internalType":"bytes"}]}]},{"name":"implementationData","type":"bytes","internalType":"bytes"}]}],"anonymous":false},{"type":"error","name":"InvalidSignature","inputs":[{"name":"i","type":"uint256","internalType":"uint256"}]},{"type":"error","name":"NoOrders","inputs":[]},{"type":"error","name":"WrongTask","inputs":[]}],"bytecode":{"object":"0x60c060405260006080526e22d473030f116ddee9f6b43ac78ba360a05234801561002857600080fd5b50604051613a1a380380613a1a83398101604081905261004791610381565b808060016000819055507f584f220334313e589a42a75ac60d4fa6ed5b02329a7255af822a0e4ac9cd5f1d33826040516100829291906105fa565b60405180910390a16020810151516040015151156100c9576020808201516040516100ad920161065a565b60408051601f1981840301815291905280516020909101206080525b505050610674565b634e487b7160e01b600052604160045260246000fd5b604051606081016001600160401b0381118282101715610109576101096100d1565b60405290565b604080519081016001600160401b0381118282101715610109576101096100d1565b604051601f8201601f191681016001600160401b0381118282101715610159576101596100d1565b604052919050565b6001600160a01b038116811461017657600080fd5b50565b60005b8381101561019457818101518382015260200161017c565b50506000910152565b600082601f8301126101ae57600080fd5b81516001600160401b038111156101c7576101c76100d1565b6101da601f8201601f1916602001610131565b8181528460208386010111156101ef57600080fd5b610200826020830160208701610179565b949350505050565b60006001600160401b03821115610221576102216100d1565b5060051b60200190565b600082601f83011261023c57600080fd5b8151602061025161024c83610208565b610131565b82815260059290921b8401810191818101908684111561027057600080fd5b8286015b848110156103765780516001600160401b038082111561029357600080fd5b908801906060828b03601f190112156102ac5760008081fd5b6102b46100e7565b868301516102c181610161565b8152604083810151838111156102d75760008081fd5b8401603f81018d136102e95760008081fd5b888101516102f961024c82610208565b81815260059190911b82018301908a8101908f8311156103195760008081fd5b928401925b828410156103375783518252928b0192908b019061031e565b858c01525050506060840151838111156103515760008081fd5b61035f8d8a8388010161019d565b918301919091525085525050918301918301610274565b509695505050505050565b6000602080838503121561039457600080fd5b82516001600160401b03808211156103ab57600080fd5b90840190606082870312156103bf57600080fd5b6103c76100e7565b82516103d281610161565b815282840151828111156103e557600080fd5b8301604081890312156103f757600080fd5b6103ff61010f565b81518481111561040e57600080fd5b82016060818b03121561042057600080fd5b6104286100e7565b815161043381610161565b81528188015161044281610161565b8189015260408201518681111561045857600080fd5b6104648c82850161019d565b604083015250825250818601518481111561047e57600080fd5b61048a8a82850161022b565b87830152508086840152505060408301519350818411156104aa57600080fd5b6104b68785850161019d565b60408201529695505050505050565b600081518084526104dd816020860160208601610179565b601f01601f19169290920160200192915050565b6000604082516040855260018060a01b03808251166040870152602080830151606083821660608a015260408501519450606060808a015261053660a08a01866104c5565b888401518a82038b86015280518083529196508401925083860190600581901b870185016000805b838110156105e857898303601f19018552865180518a168452888101518985018890528051888601819052908a0190849060808701905b808310156105b55783518252928c019260019290920191908c0190610595565b508e84015193508681038f8801526105cd81856104c5565b9650505050508787019650878501945060018101905061055e565b50909c9b505050505050505050505050565b6001600160a01b0383811682526040602080840182905284519092169083015282015160608083015260009061063360a08401826104f1565b90506040840151603f1984830301608085015261065082826104c5565b9695505050505050565b60208152600061066d60208301846104f1565b9392505050565b60805160a05161335f6106bb6000396000818160cf0152818161029c0152818161037c01526106a001526000818161013b015281816107480152610799015261335f6000f3fe60806040526004361061005a5760003560e01c806369e5049b1161004357806369e5049b146100bd5780637ea0b76a1461011657806393be095e146101295761005a565b806301ffc9a714610068578063059bebe61461009d575b34801561006657600080fd5b005b34801561007457600080fd5b50610088610083366004611ef8565b61016b565b60405190151581526020015b60405180910390f35b3480156100a957600080fd5b506100666100b8366004611f5f565b610250565b3480156100c957600080fd5b506100f17f000000000000000000000000000000000000000000000000000000000000000081565b60405173ffffffffffffffffffffffffffffffffffffffff9091168152602001610094565b610066610124366004612009565b610735565b34801561013557600080fd5b5061015d7f000000000000000000000000000000000000000000000000000000000000000081565b604051908152602001610094565b60007fffffffff0000000000000000000000000000000000000000000000000000000082167f059bebe60000000000000000000000000000000000000000000000000000000014806101fe57507fffffffff0000000000000000000000000000000000000000000000000000000082167f7ea0b76a00000000000000000000000000000000000000000000000000000000145b8061024a57507f01ffc9a7000000000000000000000000000000000000000000000000000000007fffffffff000000000000000000000000000000000000000000000000000000008316145b92915050565b60008061025f8385018561218f565b6040517f095ea7b300000000000000000000000000000000000000000000000000000000815273ffffffffffffffffffffffffffffffffffffffff7f00000000000000000000000000000000000000000000000000000000000000008116600483015260001960248301529294509092509089169063095ea7b3906044016020604051808303816000875af11580156102fc573d6000803e3d6000fd5b505050506040513d601f19601f8201168201806040525081019061032091906122da565b506040517f87517c4500000000000000000000000000000000000000000000000000000000815273ffffffffffffffffffffffffffffffffffffffff8981166004830152838116602483015260448201819052600060648301527f000000000000000000000000000000000000000000000000000000000000000016906387517c4590608401600060405180830381600087803b1580156103c057600080fd5b505af11580156103d4573d6000803e3d6000fd5b505050508773ffffffffffffffffffffffffffffffffffffffff16816000015173ffffffffffffffffffffffffffffffffffffffff1614610476576040517f08c379a000000000000000000000000000000000000000000000000000000000815260206004820152601360248201527f496e76616c696420696e70757420746f6b656e0000000000000000000000000060448201526064015b60405180910390fd5b6020810151805173ffffffffffffffffffffffffffffffffffffffff891691906104a290600190612326565b815181106104b2576104b2612339565b60200260200101516020015173ffffffffffffffffffffffffffffffffffffffff161461053b576040517f08c379a000000000000000000000000000000000000000000000000000000000815260206004820152601460248201527f496e76616c6964206f757470757420746f6b656e000000000000000000000000604482015260640161046d565b60408181018790526060820186905280516001808252818301909252839160009190816020015b6105a36040518060800160405280600073ffffffffffffffffffffffffffffffffffffffff1681526020016060815260200160008152602001600081525090565b81526020019060019003908161056257905050905082816000815181106105cc576105cc612339565b602002602001018190525060008060008473ffffffffffffffffffffffffffffffffffffffff1663286f580d8560001960006040518463ffffffff1660e01b815260040161061c93929190612368565b6000604051808303816000875af115801561063b573d6000803e3d6000fd5b505050506040513d6000823e601f3d908101601f191682016040526106639190810190612526565b6040517f095ea7b300000000000000000000000000000000000000000000000000000000815273ffffffffffffffffffffffffffffffffffffffff7f000000000000000000000000000000000000000000000000000000000000000081166004830152600060248301529396509194509250908e169063095ea7b3906044016020604051808303816000875af1158015610701573d6000803e3d6000fd5b505050506040513d601f19601f8201168201806040525081019061072591906122da565b5050505050505050505050505050565b61073d610a9d565b610746816127c3565b7f0000000000000000000000000000000000000000000000000000000000000000158015906107bb5750806040516020016107819190612911565b604051602081830303815290604052805190602001207f000000000000000000000000000000000000000000000000000000000000000014155b156107f2576040517f8812562900000000000000000000000000000000000000000000000000000000815260040160405180910390fd5b6107ff60608401846129fe565b905060000361083a576040517f9c95219f00000000000000000000000000000000000000000000000000000000815260040160405180910390fd5b600061084960608501856129fe565b600081811061085a5761085a612339565b905060200281019061086c9190612a48565b6108769080612a86565b610884906040810190612aba565b61089160608701876129fe565b60008181106108a2576108a2612339565b90506020028101906108b49190612a48565b602001358181106108c7576108c7612339565b6108dd9260206060909202019081019150612b03565b905060006108ee60608601866129fe565b60008181106108ff576108ff612339565b90506020028101906109119190612a48565b61091b9080612a86565b610929906060810190612aba565b61093660608801886129fe565b600081811061094757610947612339565b90506020028101906109599190612a48565b6040013581811061096c5761096c612339565b6109829260206060909202019081019150612b03565b90506109a673ffffffffffffffffffffffffffffffffffffffff8316876000610b10565b6109c973ffffffffffffffffffffffffffffffffffffffff831687600019610b10565b6000808773ffffffffffffffffffffffffffffffffffffffff16630997c4a0886040518263ffffffff1660e01b8152600401610a059190612dd1565b60408051808303816000875af1158015610a23573d6000803e3d6000fd5b505050506040513d601f19601f82011682018060405250810190610a479190613035565b9092509050610a6e73ffffffffffffffffffffffffffffffffffffffff8516896000610b10565b610a81610a7a876127c3565b8585610cf2565b5050505050610a906001600055565b505050565b505050505050565b600260005403610b09576040517f08c379a000000000000000000000000000000000000000000000000000000000815260206004820152601f60248201527f5265656e7472616e637947756172643a207265656e7472616e742063616c6c00604482015260640161046d565b6002600055565b801580610bb057506040517fdd62ed3e00000000000000000000000000000000000000000000000000000000815230600482015273ffffffffffffffffffffffffffffffffffffffff838116602483015284169063dd62ed3e90604401602060405180830381865afa158015610b8a573d6000803e3d6000fd5b505050506040513d601f19601f82011682018060405250810190610bae9190613059565b155b610c3c576040517f08c379a000000000000000000000000000000000000000000000000000000000815260206004820152603660248201527f5361666545524332303a20617070726f76652066726f6d206e6f6e2d7a65726f60448201527f20746f206e6f6e2d7a65726f20616c6c6f77616e636500000000000000000000606482015260840161046d565b60405173ffffffffffffffffffffffffffffffffffffffff8316602482015260448101829052610a909084907f095ea7b300000000000000000000000000000000000000000000000000000000906064015b60408051601f198184030181529190526020810180517bffffffffffffffffffffffffffffffffffffffffffffffffffffffff167fffffffff00000000000000000000000000000000000000000000000000000000909316929092179091526110ca565b604080516001808252818301909252600091816020015b6060815260200190600190039081610d09575050604080516003808252608082019092529192506000919060208201606080368337019050506040517f70a0823100000000000000000000000000000000000000000000000000000000815230600482015290915060009073ffffffffffffffffffffffffffffffffffffffff8616906370a0823190602401602060405180830381865afa158015610db2573d6000803e3d6000fd5b505050506040513d601f19601f82011682018060405250810190610dd69190613059565b90508015610dff57610dff73ffffffffffffffffffffffffffffffffffffffff861633836111d9565b60008573ffffffffffffffffffffffffffffffffffffffff1663313ce5676040518163ffffffff1660e01b8152600401602060405180830381865afa158015610e4c573d6000803e3d6000fd5b505050506040513d601f19601f82011682018060405250810190610e709190613072565b60ff169050610e818282600061122f565b83600081518110610e9457610e94612339565b602090810291909101015250506040517f70a0823100000000000000000000000000000000000000000000000000000000815230600482015260009073ffffffffffffffffffffffffffffffffffffffff8516906370a0823190602401602060405180830381865afa158015610f0e573d6000803e3d6000fd5b505050506040513d601f19601f82011682018060405250810190610f329190613059565b90508015610f5b57610f5b73ffffffffffffffffffffffffffffffffffffffff851633836111d9565b60008473ffffffffffffffffffffffffffffffffffffffff1663313ce5676040518163ffffffff1660e01b8152600401602060405180830381865afa158015610fa8573d6000803e3d6000fd5b505050506040513d601f19601f82011682018060405250810190610fcc9190613072565b60ff169050610fdd8282600061122f565b83600181518110610ff057610ff0612339565b60209081029190910101525047905061100933826112b7565b808260028151811061101d5761101d612339565b60200260200101818152505050808260008151811061103e5761103e612339565b6020908102919091010152604080516001808252818301909252600091816020015b6040805160a0810182526000918101828152606080830193909352608082018390528152602081019190915281526020019060019003908161106057905050905085816000815181106110b5576110b5612339565b6020026020010181905250610a958382611411565b600061112c826040518060400160405280602081526020017f5361666545524332303a206c6f772d6c6576656c2063616c6c206661696c65648152508573ffffffffffffffffffffffffffffffffffffffff1661160a9092919063ffffffff16565b905080516000148061114d57508080602001905181019061114d91906122da565b610a90576040517f08c379a000000000000000000000000000000000000000000000000000000000815260206004820152602a60248201527f5361666545524332303a204552433230206f7065726174696f6e20646964206e60448201527f6f74207375636365656400000000000000000000000000000000000000000000606482015260840161046d565b60405173ffffffffffffffffffffffffffffffffffffffff8316602482015260448101829052610a909084907fa9059cbb0000000000000000000000000000000000000000000000000000000090606401610c8e565b60008260121115611264576012839003600283161561125a576112528582611621565b9150506112b0565b6112528582611672565b60128311156112ad577fffffffffffffffffffffffffffffffffffffffffffffffffffffffffffffffee830160018316156112a35761125285826116aa565b61125285826116f8565b50825b9392505050565b80471015611321576040517f08c379a000000000000000000000000000000000000000000000000000000000815260206004820152601d60248201527f416464726573733a20696e73756666696369656e742062616c616e6365000000604482015260640161046d565b60008273ffffffffffffffffffffffffffffffffffffffff168260405160006040518083038185875af1925050503d806000811461137b576040519150601f19603f3d011682016040523d82523d6000602084013e611380565b606091505b5050905080610a90576040517f08c379a000000000000000000000000000000000000000000000000000000000815260206004820152603a60248201527f416464726573733a20756e61626c6520746f2073656e642076616c75652c207260448201527f6563697069656e74206d61792068617665207265766572746564000000000000606482015260840161046d565b336114446040805160a0810182526000918101828152606080830193909352608082018390528152602081019190915290565b60005b83518110156116035783818151811061146257611462612339565b6020026020010151915060008260000151604001515111156115fb578151805160209182015160008681523090935260408320839273ffffffffffffffffffffffffffffffffffffffff169163d6e3357a9187600001516040015160006114cd8d8b6020015161171b565b604080516000815260208101918290527fffffffff0000000000000000000000000000000000000000000000000000000060e089901b169091526115199594939291906024810161308f565b600060405180830381865afa158015611536573d6000803e3d6000fd5b505050506040513d6000823e601f3d908101601f1916820160405261155e919081019061313f565b80519193509150156115f8578351602001516040517f946aadc600000000000000000000000000000000000000000000000000000000815273ffffffffffffffffffffffffffffffffffffffff9091169063946aadc6906115c590889085906004016131a3565b600060405180830381600087803b1580156115df57600080fd5b505af11580156115f3573d6000803e3d6000fd5b505050505b50505b600101611447565b5050505050565b60606116198484600085611a2b565b949350505050565b6000604e82106116435782156116395760001961163c565b60005b905061024a565b50600a81900a828102908381838161165d5761165d6131bc565b041461166b57600019611619565b5092915050565b600a81900a61168181846131eb565b9050604e821061024a5782156116a15761169c82600a6132e6565b6112b0565b60009392505050565b6000604e82106116ce5782156116c15760016116c4565b60005b60ff16905061024a565b600a82900a8084816116e2576116e26131bc565b049150808202841461166b575060010192915050565b6000604e8210156116a15781600a0a8381611715576117156131bc565b046112b0565b60606000825167ffffffffffffffff8111156117395761173961208e565b604051908082528060200260200182016040528015611762578160200160208202803683370190505b50905060008084511161177657600061177c565b83516001015b855160010101905060008167ffffffffffffffff81111561179f5761179f61208e565b6040519080825280602002602001820160405280156117d257816020015b60608152602001906001900390816117bd5790505b50905060006117f7604080516002815233602082015230818301526060810190915290565b82828151811061180957611809612339565b602002602001018190525060005b875181101561186757818060010192505087818151811061183a5761183a612339565b602002602001015183838151811061185457611854612339565b6020908102919091010152600101611817565b50855115611a215780806001019150508382828151811061188a5761188a612339565b602002602001018190525060005b8651811015611a1f576119498782815181106118b6576118b6612339565b6020026020010151600001516119266118f38a85815181106118da576118da612339565b6020026020010151602001518051602090810291012090565b7f19457468657265756d205369676e6564204d6573736167653a0a3332000000006000908152601c91909152603c902090565b89848151811061193857611938612339565b602002602001015160400151611b44565b611982576040517f52bf98480000000000000000000000000000000000000000000000000000000081526004810182905260240161046d565b86818151811061199457611994612339565b60200260200101516000015173ffffffffffffffffffffffffffffffffffffffff168582815181106119c8576119c8612339565b60200260200101818152505081806001019250508681815181106119ee576119ee612339565b602002602001015160200151838381518110611a0c57611a0c612339565b6020908102919091010152600101611898565b505b5095945050505050565b606082471015611abd576040517f08c379a000000000000000000000000000000000000000000000000000000000815260206004820152602660248201527f416464726573733a20696e73756666696369656e742062616c616e636520666f60448201527f722063616c6c0000000000000000000000000000000000000000000000000000606482015260840161046d565b6000808673ffffffffffffffffffffffffffffffffffffffff168587604051611ae691906132f2565b60006040518083038185875af1925050503d8060008114611b23576040519150601f19603f3d011682016040523d82523d6000602084013e611b28565b606091505b5091509150611b3987838387611bbf565b979650505050505050565b6000806000611b538585611c5f565b90925090506000816004811115611b6c57611b6c613304565b148015611ba457508573ffffffffffffffffffffffffffffffffffffffff168273ffffffffffffffffffffffffffffffffffffffff16145b80611bb55750611bb5868686611ca4565b9695505050505050565b60608315611c55578251600003611c4e5773ffffffffffffffffffffffffffffffffffffffff85163b611c4e576040517f08c379a000000000000000000000000000000000000000000000000000000000815260206004820152601d60248201527f416464726573733a2063616c6c20746f206e6f6e2d636f6e7472616374000000604482015260640161046d565b5081611619565b6116198383611de3565b6000808251604103611c955760208301516040840151606085015160001a611c8987828585611e27565b94509450505050611c9d565b506000905060025b9250929050565b60008060008573ffffffffffffffffffffffffffffffffffffffff16631626ba7e60e01b8686604051602401611cdb929190613333565b60408051601f198184030181529181526020820180517bffffffffffffffffffffffffffffffffffffffffffffffffffffffff167fffffffff00000000000000000000000000000000000000000000000000000000909416939093179092529051611d4691906132f2565b600060405180830381855afa9150503d8060008114611d81576040519150601f19603f3d011682016040523d82523d6000602084013e611d86565b606091505b5091509150818015611d9a57506020815110155b8015611bb5575080517f1626ba7e0000000000000000000000000000000000000000000000000000000090611dd89083016020908101908401613059565b149695505050505050565b815115611df35781518083602001fd5b806040517f08c379a000000000000000000000000000000000000000000000000000000000815260040161046d919061334c565b6000807f7fffffffffffffffffffffffffffffff5d576e7357a4501ddfe92f46681b20a0831115611e5e5750600090506003611eef565b6040805160008082526020820180845289905260ff881692820192909252606081018690526080810185905260019060a0016020604051602081039080840390855afa158015611eb2573d6000803e3d6000fd5b5050604051601f19015191505073ffffffffffffffffffffffffffffffffffffffff8116611ee857600060019250925050611eef565b9150600090505b94509492505050565b600060208284031215611f0a57600080fd5b81357fffffffff00000000000000000000000000000000000000000000000000000000811681146112b057600080fd5b73ffffffffffffffffffffffffffffffffffffffff81168114611f5c57600080fd5b50565b60008060008060008060a08789031215611f7857600080fd5b8635611f8381611f3a565b95506020870135611f9381611f3a565b94506040870135935060608701359250608087013567ffffffffffffffff80821115611fbe57600080fd5b818901915089601f830112611fd257600080fd5b813581811115611fe157600080fd5b8a6020828501011115611ff357600080fd5b6020830194508093505050509295509295509295565b60008060006060848603121561201e57600080fd5b833561202981611f3a565b9250602084013567ffffffffffffffff8082111561204657600080fd5b9085019060a0828803121561205a57600080fd5b9092506040850135908082111561207057600080fd5b5084016040818703121561208357600080fd5b809150509250925092565b7f4e487b7100000000000000000000000000000000000000000000000000000000600052604160045260246000fd5b6040516080810167ffffffffffffffff811182821017156120e0576120e061208e565b60405290565b6040516060810167ffffffffffffffff811182821017156120e0576120e061208e565b6040805190810167ffffffffffffffff811182821017156120e0576120e061208e565b604051601f8201601f1916810167ffffffffffffffff811182821017156121555761215561208e565b604052919050565b600067ffffffffffffffff8211156121775761217761208e565b5060051b60200190565b8015158114611f5c57600080fd5b60008060408084860312156121a357600080fd5b83356121ae81611f3a565b925060208481013567ffffffffffffffff808211156121cc57600080fd5b90860190608082890312156121e057600080fd5b6121e86120bd565b82356121f381611f3a565b8152828401358281111561220657600080fd5b83019150601f8201891361221957600080fd5b813561222c6122278261215d565b61212c565b8181526060918202840186019186820191908c84111561224b57600080fd5b948701945b838610156122ae5780868e0312156122685760008081fd5b6122706120e6565b863561227b81611f3a565b81528689013561228a81611f3a565b818a0152868a013561229b81612181565b818b015283529485019491870191612250565b508087850152505050604083013560408201526060830135606082015280955050505050509250929050565b6000602082840312156122ec57600080fd5b81516112b081612181565b7f4e487b7100000000000000000000000000000000000000000000000000000000600052601160045260246000fd5b8181038181111561024a5761024a6122f7565b7f4e487b7100000000000000000000000000000000000000000000000000000000600052603260045260246000fd5b600060808083016080845280875180835260a0925060a08601915060a08160051b8701016020808b016000805b85811015612468578a85037fffffffffffffffffffffffffffffffffffffffffffffffffffffffffffffff600187528251805173ffffffffffffffffffffffffffffffffffffffff9081168752858201518688018c905280518c8901819052908701919085908c8a01905b8083101561243c5784518051851683528a81015185168b8401526040908101511515908301529389019360019290920191606090910190612400565b50604085810151908b015260609485015194909901939093525050509583019591830191600101612395565b505050870189905287151560408801528681036060880152600281527f30780000000000000000000000000000000000000000000000000000000000006020820152604081019a9950505050505050505050565b600082601f8301126124cd57600080fd5b815160206124dd6122278361215d565b8083825260208201915060208460051b8701019350868411156124ff57600080fd5b602086015b8481101561251b5780518352918301918301612504565b509695505050505050565b60008060006060848603121561253b57600080fd5b835167ffffffffffffffff8082111561255357600080fd5b61255f878388016124bc565b945060209150818601518181111561257657600080fd5b8601601f8101881361258757600080fd5b80516125956122278261215d565b81815260059190911b8201840190848101908a8311156125b457600080fd5b928501925b828410156125db5783516125cc81611f3a565b825292850192908501906125b9565b60408a01519097509450505050808211156125f557600080fd5b50612602868287016124bc565b9150509250925092565b600082601f83011261261d57600080fd5b813567ffffffffffffffff8111156126375761263761208e565b61264a6020601f19601f8401160161212c565b81815284602083860101111561265f57600080fd5b816020850160208301376000918101602001919091529392505050565b600082601f83011261268d57600080fd5b8135602061269d6122278361215d565b82815260059290921b840181019181810190868411156126bc57600080fd5b8286015b8481101561251b57803567ffffffffffffffff808211156126e057600080fd5b908801906060828b03601f190112156126f95760008081fd5b6127016120e6565b8683013561270e81611f3a565b8152604083810135838111156127245760008081fd5b8401603f81018d136127365760008081fd5b888101356127466122278261215d565b81815260059190911b82018301908a8101908f8311156127665760008081fd5b928401925b828410156127845783358252928b0192908b019061276b565b858c015250505060608401358381111561279e5760008081fd5b6127ac8d8a8388010161260c565b9183019190915250855250509183019183016126c0565b6000604082360312156127d557600080fd5b6127dd612109565b823567ffffffffffffffff808211156127f557600080fd5b81850191506060823603121561280a57600080fd5b6128126120e6565b823561281d81611f3a565b8152602083013561282d81611f3a565b602082015260408301358281111561284457600080fd5b6128503682860161260c565b6040830152508352602085013591508082111561286c57600080fd5b506128793682860161267c565b60208301525092915050565b60005b838110156128a0578181015183820152602001612888565b50506000910152565b600081518084526128c1816020860160208601612885565b601f01601f19169290920160200192915050565b60008151808452602080850194506020840160005b83811015612906578151875295820195908201906001016128ea565b509495945050505050565b60006020808352606084516040808487015273ffffffffffffffffffffffffffffffffffffffff808351166060880152808584015116608088015260408301519250606060a088015261296760c08801846128a9565b925084880151601f19808986030160408a01528482518087528887019150888160051b880101898501945060005b828110156129ed578489830301845285518781511683528b8101518b8d8501526129c18c8501826128d5565b918a0151848303858c01529190506129d981836128a9565b978d0197958d019593505050600101612995565b509c9b505050505050505050505050565b6000808335601e19843603018112612a1557600080fd5b83018035915067ffffffffffffffff821115612a3057600080fd5b6020019150600581901b3603821315611c9d57600080fd5b600082357fffffffffffffffffffffffffffffffffffffffffffffffffffffffffffffff81833603018112612a7c57600080fd5b9190910192915050565b600082357fffffffffffffffffffffffffffffffffffffffffffffffffffffffffffffff61833603018112612a7c57600080fd5b6000808335601e19843603018112612ad157600080fd5b83018035915067ffffffffffffffff821115612aec57600080fd5b6020019150606081023603821315611c9d57600080fd5b600060208284031215612b1557600080fd5b81356112b081611f3a565b6000808335601e19843603018112612b3757600080fd5b830160208101925035905067ffffffffffffffff811115612b5757600080fd5b8060051b3603821315611c9d57600080fd5b600082357fffffffffffffffffffffffffffffffffffffffffffffffffffffffffffffffa1833603018112612b9d57600080fd5b90910192915050565b6000808335601e19843603018112612bbd57600080fd5b830160208101925035905067ffffffffffffffff811115612bdd57600080fd5b803603821315611c9d57600080fd5b818352818160208501375060006020828401015260006020601f19601f840116840101905092915050565b6000808335601e19843603018112612c2e57600080fd5b830160208101925035905067ffffffffffffffff811115612c4e57600080fd5b606081023603821315611c9d57600080fd5b60ff81168114611f5c57600080fd5b8183526000602080850194508260005b85811015612906578135612c9281611f3a565b73ffffffffffffffffffffffffffffffffffffffff16875281830135612cb781612c60565b60ff16878401526040828101359088015260609687019690910190600101612c7f565b818352602080840193600091600585811b830182018585805b89811015612dc257601f19878503018b52612d0e838a612b69565b60608135612d1b81611f3a565b73ffffffffffffffffffffffffffffffffffffffff168652612d3f82890183612b20565b828a8901528083890152608092507f07ffffffffffffffffffffffffffffffffffffffffffffffffffffffffffffff811115612d79578586fd5b881b808289850137870190506040612d9384820185612ba6565b94508389840301828a0152612dab8484018683612bec565b9f8b019f9850505094880194505050600101612cf3565b50919998505050505050505050565b6000602080835260c083018435828501526040828601358186015260608187013581870152612e0281880188612b20565b60a060808901528481865260e08901905060e08260051b8a010195508260005b83811015613008577fffffffffffffffffffffffffffffffffffffffffffffffffffffffffffffff208b890301835281357fffffffffffffffffffffffffffffffffffffffffffffffffffffffffffffff81863603018112612e8357600080fd5b85018035368290037fffffffffffffffffffffffffffffffffffffffffffffffffffffffffffffff61018112612eb857600080fd5b60808a5281018035612ec981611f3a565b73ffffffffffffffffffffffffffffffffffffffff80821660808d0152612ef28d840184612b69565b915060a0808d01528135612f0581611f3a565b81166101208d0152818d0135612f1a81611f3a565b166101408c0152612f2d818b0182612ba6565b9150896101608d0152612f456101808d018383612bec565b915050612f548a830183612c17565b7fffffffffffffffffffffffffffffffffffffffffffffffffffffffffffffff80808e85030160c08f0152612f8a848385612c6f565b9350612f988c860186612c17565b93509150808e85030160e08f015250612fb2838383612c6f565b9250505060808201356101008c01528b8301358c8c0152898301358a8c0152612fdd89840184612b20565b935091508a8103898c0152612ff3818484612cda565b9a505050928901925090880190600101612e22565b5050505050505061301c6080860186612ba6565b9250601f198583030160a0860152611bb5828483612bec565b6000806040838503121561304857600080fd5b505080516020909101519092909150565b60006020828403121561306b57600080fd5b5051919050565b60006020828403121561308457600080fd5b81516112b081612c60565b73ffffffffffffffffffffffffffffffffffffffff8716815260006020878184015260c060408401526130c560c08401886128a9565b86606085015283810360808501528086518083528383019150838160051b84010184890160005b8381101561311a57601f198684030185526131088383516128d5565b948701949250908601906001016130ec565b505086810360a088015261312e81896128d5565b9d9c50505050505050505050505050565b6000806040838503121561315257600080fd5b825167ffffffffffffffff8082111561316a57600080fd5b613176868387016124bc565b9350602085015191508082111561318c57600080fd5b50613199858286016124bc565b9150509250929050565b82815260406020820152600061161960408301846128d5565b7f4e487b7100000000000000000000000000000000000000000000000000000000600052601260045260246000fd5b808202811582820484141761024a5761024a6122f7565b600181815b8085111561323d578160001904821115613223576132236122f7565b8085161561323057918102915b93841c9390800290613207565b509250929050565b6000826132545750600161024a565b816132615750600061024a565b816001811461327757600281146132815761329d565b600191505061024a565b60ff841115613292576132926122f7565b50506001821b61024a565b5060208310610133831016604e8410600b84101617156132c0575081810a61024a565b6132ca8383613202565b80600019048211156132de576132de6122f7565b029392505050565b60006112b08383613245565b60008251612a7c818460208701612885565b7f4e487b7100000000000000000000000000000000000000000000000000000000600052602160045260246000fd5b82815260406020820152600061161960408301846128a9565b6020815260006112b060208301846128a956","linkReferences":{}},"methodIdentifiers":{"arb3(address,(uint256,uint256,uint256,((address,(address,address,bytes),(address,uint8,uint256)[],(address,uint8,uint256)[],bytes32),uint256,uint256,(address,uint256[],bytes)[])[],bytes),((address,address,bytes),(address,uint256[],bytes)[]))":"7ea0b76a","iPermit2()":"69e5049b","iTaskHash()":"93be095e","onTakeOrders(address,address,uint256,uint256,bytes)":"059bebe6","supportsInterface(bytes4)":"01ffc9a7"},"id":53}