{"abi":[{"type":"constructor","inputs":[{"name":"config","type":"tuple","internalType":"struct OrderBookV4ArbConfigV2","components":[{"name":"orderBook","type":"address","internalType":"address"},{"name":"task","type":"tuple","internalType":"struct TaskV1","components":[{"name":"evaluable","type":"tuple","internalType":"struct EvaluableV3","components":[{"name":"interpreter","type":"address","internalType":"contract IInterpreterV3"},{"name":"store","type":"address","internalType":"contract IInterpreterStoreV2"},{"name":"bytecode","type":"bytes","internalType":"bytes"}]},{"name":"signedContext","type":"tuple[]","internalType":"struct SignedContextV1[]","components":[{"name":"signer","type":"address","internalType":"address"},{"name":"context","type":"uint256[]","internalType":"uint256[]"},{"name":"signature","type":"bytes","internalType":"bytes"}]}]},{"name":"implementationData","type":"bytes","internalType":"bytes"}]}],"stateMutability":"nonpayable"},{"type":"fallback","stateMutability":"nonpayable"},{"type":"function","name":"arb3","inputs":[{"name":"orderBook","type":"address","internalType":"contract IOrderBookV4"},{"name":"takeOrders","type":"tuple","internalType":"struct TakeOrdersConfigV3","components":[{"name":"minimumInput","type":"uint256","internalType":"uint256"},{"name":"maximumInput","type":"uint256","internalType":"uint256"},{"name":"maximumIORatio","type":"uint256","internalType":"uint256"},{"name":"orders","type":"tuple[]","internalType":"struct TakeOrderConfigV3[]","components":[{"name":"order","type":"tuple","internalType":"struct OrderV3","components":[{"name":"owner","type":"address","internalType":"address"},{"name":"evaluable","type":"tuple","internalType":"struct EvaluableV3","components":[{"name":"interpreter","type":"address","internalType":"contract IInterpreterV3"},{"name":"store","type":"address","internalType":"contract IInterpreterStoreV2"},{"name":"bytecode","type":"bytes","internalType":"bytes"}]},{"name":"validInputs","type":"tuple[]","internalType":"struct IO[]","components":[{"name":"token","type":"address","internalType":"address"},{"name":"decimals","type":"uint8","internalType":"uint8"},{"name":"vaultId","type":"uint256","internalType":"uint256"}]},{"name":"validOutputs","type":"tuple[]","internalType":"struct IO[]","components":[{"name":"token","type":"address","internalType":"address"},{"name":"decimals","type":"uint8","internalType":"uint8"},{"name":"vaultId","type":"uint256","internalType":"uint256"}]},{"name":"nonce","type":"bytes32","internalType":"bytes32"}]},{"name":"inputIOIndex","type":"uint256","internalType":"uint256"},{"name":"outputIOIndex","type":"uint256","internalType":"uint256"},{"name":"signedContext","type":"tuple[]","internalType":"struct SignedContextV1[]","components":[{"name":"signer","type":"address","internalType":"address"},{"name":"context","type":"uint256[]","internalType":"uint256[]"},{"name":"signature","type":"bytes","internalType":"bytes"}]}]},{"name":"data","type":"bytes","internalType":"bytes"}]},{"name":"task","type":"tuple","internalType":"struct TaskV1","components":[{"name":"evaluable","type":"tuple","internalType":"struct EvaluableV3","components":[{"name":"interpreter","type":"address","internalType":"contract IInterpreterV3"},{"name":"store","type":"address","internalType":"contract IInterpreterStoreV2"},{"name":"bytecode","type":"bytes","internalType":"bytes"}]},{"name":"signedContext","type":"tuple[]","internalType":"struct SignedContextV1[]","components":[{"name":"signer","type":"address","internalType":"address"},{"name":"context","type":"uint256[]","internalType":"uint256[]"},{"name":"signature","type":"bytes","internalType":"bytes"}]}]}],"outputs":[],"stateMutability":"payable"},{"type":"function","name":"iTaskHash","inputs":[],"outputs":[{"name":"","type":"bytes32","internalType":"bytes32"}],"stateMutability":"view"},{"type":"function","name":"onTakeOrders","inputs":[{"name":"inputToken","type":"address","internalType":"address"},{"name":"outputToken","type":"address","internalType":"address"},{"name":"inputAmountSent","type":"uint256","internalType":"uint256"},{"name":"totalOutputAmount","type":"uint256","internalType":"uint256"},{"name":"takeOrdersData","type":"bytes","internalType":"bytes"}],"outputs":[],"stateMutability":"nonpayable"},{"type":"function","name":"supportsInterface","inputs":[{"name":"interfaceId","type":"bytes4","internalType":"bytes4"}],"outputs":[{"name":"","type":"bool","internalType":"bool"}],"stateMutability":"view"},{"type":"function","name":"x","inputs":[{"name":"token","type":"address","internalType":"address"}],"outputs":[],"stateMutability":"payable"},{"type":"event","name":"Construct","inputs":[{"name":"sender","type":"address","indexed":false,"internalType":"address"},{"name":"config","type":"tuple","indexed":false,"internalType":"struct OrderBookV4ArbConfigV2","components":[{"name":"orderBook","type":"address","internalType":"address"},{"name":"task","type":"tuple","internalType":"struct TaskV1","components":[{"name":"evaluable","type":"tuple","internalType":"struct EvaluableV3","components":[{"name":"interpreter","type":"address","internalType":"contract IInterpreterV3"},{"name":"store","type":"address","internalType":"contract IInterpreterStoreV2"},{"name":"bytecode","type":"bytes","internalType":"bytes"}]},{"name":"signedContext","type":"tuple[]","internalType":"struct SignedContextV1[]","components":[{"name":"signer","type":"address","internalType":"address"},{"name":"context","type":"uint256[]","internalType":"uint256[]"},{"name":"signature","type":"bytes","internalType":"bytes"}]}]},{"name":"implementationData","type":"bytes","internalType":"bytes"}]}],"anonymous":false},{"type":"error","name":"InvalidSignature","inputs":[{"name":"i","type":"uint256","internalType":"uint256"}]},{"type":"error","name":"NoOrders","inputs":[]},{"type":"error","name":"WrongTask","inputs":[]}],"bytecode":{"object":"0x60a0604052600060805234801561001557600080fd5b50604051613a38380380613a388339810160408190526100349161036e565b808060016000819055507f584f220334313e589a42a75ac60d4fa6ed5b02329a7255af822a0e4ac9cd5f1d338260405161006f9291906105e7565b60405180910390a16020810151516040015151156100b65760208082015160405161009a9201610647565b60408051601f1981840301815291905280516020909101206080525b505050610661565b634e487b7160e01b600052604160045260246000fd5b604051606081016001600160401b03811182821017156100f6576100f66100be565b60405290565b604080519081016001600160401b03811182821017156100f6576100f66100be565b604051601f8201601f191681016001600160401b0381118282101715610146576101466100be565b604052919050565b6001600160a01b038116811461016357600080fd5b50565b60005b83811015610181578181015183820152602001610169565b50506000910152565b600082601f83011261019b57600080fd5b81516001600160401b038111156101b4576101b46100be565b6101c7601f8201601f191660200161011e565b8181528460208386010111156101dc57600080fd5b6101ed826020830160208701610166565b949350505050565b60006001600160401b0382111561020e5761020e6100be565b5060051b60200190565b600082601f83011261022957600080fd5b8151602061023e610239836101f5565b61011e565b82815260059290921b8401810191818101908684111561025d57600080fd5b8286015b848110156103635780516001600160401b038082111561028057600080fd5b908801906060828b03601f190112156102995760008081fd5b6102a16100d4565b868301516102ae8161014e565b8152604083810151838111156102c45760008081fd5b8401603f81018d136102d65760008081fd5b888101516102e6610239826101f5565b81815260059190911b82018301908a8101908f8311156103065760008081fd5b928401925b828410156103245783518252928b0192908b019061030b565b858c015250505060608401518381111561033e5760008081fd5b61034c8d8a8388010161018a565b918301919091525085525050918301918301610261565b509695505050505050565b6000602080838503121561038157600080fd5b82516001600160401b038082111561039857600080fd5b90840190606082870312156103ac57600080fd5b6103b46100d4565b82516103bf8161014e565b815282840151828111156103d257600080fd5b8301604081890312156103e457600080fd5b6103ec6100fc565b8151848111156103fb57600080fd5b82016060818b03121561040d57600080fd5b6104156100d4565b81516104208161014e565b81528188015161042f8161014e565b8189015260408201518681111561044557600080fd5b6104518c82850161018a565b604083015250825250818601518481111561046b57600080fd5b6104778a828501610218565b878301525080868401525050604083015193508184111561049757600080fd5b6104a38785850161018a565b60408201529695505050505050565b600081518084526104ca816020860160208601610166565b601f01601f19169290920160200192915050565b6000604082516040855260018060a01b03808251166040870152602080830151606083821660608a015260408501519450606060808a015261052360a08a01866104b2565b888401518a82038b86015280518083529196508401925083860190600581901b870185016000805b838110156105d557898303601f19018552865180518a168452888101518985018890528051888601819052908a0190849060808701905b808310156105a25783518252928c019260019290920191908c0190610582565b508e84015193508681038f8801526105ba81856104b2565b9650505050508787019650878501945060018101905061054b565b50909c9b505050505050505050505050565b6001600160a01b0383811682526040602080840182905284519092169083015282015160608083015260009061062060a08401826104de565b90506040840151603f1984830301608085015261063d82826104b2565b9695505050505050565b60208152600061065a60208301846104de565b9392505050565b6080516133af6106896000396000818160e20152818161070d015261075e01526133af6000f3fe60806040526004361061005a5760003560e01c80637ea0b76a116100435780637ea0b76a146100bd57806393be095e146100d0578063f037e4e3146101125761005a565b806301ffc9a714610068578063059bebe61461009d575b34801561006657600080fd5b005b34801561007457600080fd5b50610088610083366004611e97565b610125565b60405190151581526020015b60405180910390f35b3480156100a957600080fd5b506100666100b8366004611efe565b61020a565b6100666100cb366004611fa8565b6106fa565b3480156100dc57600080fd5b506101047f000000000000000000000000000000000000000000000000000000000000000081565b604051908152602001610094565b61006661012036600461202d565b610a5a565b60007fffffffff0000000000000000000000000000000000000000000000000000000082167f059bebe60000000000000000000000000000000000000000000000000000000014806101b857507fffffffff0000000000000000000000000000000000000000000000000000000082167f7ea0b76a00000000000000000000000000000000000000000000000000000000145b8061020457507f01ffc9a7000000000000000000000000000000000000000000000000000000007fffffffff000000000000000000000000000000000000000000000000000000008316145b92915050565b6000806102198385018561214b565b6040517f095ea7b30000000000000000000000000000000000000000000000000000000081526e22d473030f116ddee9f6b43ac78ba3600482018190526000196024830152929450909250819073ffffffffffffffffffffffffffffffffffffffff8b169063095ea7b3906044016020604051808303816000875af11580156102a6573d6000803e3d6000fd5b505050506040513d601f19601f820116820180604052508101906102ca9190612347565b5082516001146103215760405162461bcd60e51b815260206004820152601860248201527f496e76616c696420737761702070617468206c656e677468000000000000000060448201526064015b60405180910390fd5b8973ffffffffffffffffffffffffffffffffffffffff168360008151811061034b5761034b612364565b60200260200101516000015173ffffffffffffffffffffffffffffffffffffffff16146103ba5760405162461bcd60e51b815260206004820152601360248201527f496e76616c696420696e70757420746f6b656e000000000000000000000000006044820152606401610318565b8873ffffffffffffffffffffffffffffffffffffffff16836000815181106103e4576103e4612364565b60200260200101516020015160018560008151811061040557610405612364565b6020026020010151602001515161041c91906123c2565b8151811061042c5761042c612364565b60200260200101516020015173ffffffffffffffffffffffffffffffffffffffff161461049b5760405162461bcd60e51b815260206004820152601460248201527f496e76616c6964206f757470757420746f6b656e0000000000000000000000006044820152606401610318565b6040517f70a0823100000000000000000000000000000000000000000000000000000000815230600482015273ffffffffffffffffffffffffffffffffffffffff8b16906370a0823190602401602060405180830381865afa158015610505573d6000803e3d6000fd5b505050506040513d601f19601f8201168201806040525081019061052991906123d5565b8811156105785760405162461bcd60e51b815260206004820181905260248201527f496e73756666696369656e7420696e70757420746f6b656e2062616c616e63656044820152606401610318565b6040517f87517c4500000000000000000000000000000000000000000000000000000000815273ffffffffffffffffffffffffffffffffffffffff8b81166004830152808616602483015260448201819052600060648301528591908416906387517c4590608401600060405180830381600087803b1580156105fa57600080fd5b505af115801561060e573d6000803e3d6000fd5b50505050888460008151811061062657610626612364565b6020026020010151604001818152505060008460008151811061064b5761064b612364565b6020026020010151606001818152505060008060008373ffffffffffffffffffffffffffffffffffffffff1663286f580d8860001960006040518463ffffffff1660e01b81526004016106a0939291906123ee565b6000604051808303816000875af11580156106bf573d6000803e3d6000fd5b505050506040513d6000823e601f3d908101601f191682016040526106e791908101906125ac565b5050505050505050505050505050505050565b610702610b0c565b61070b81612849565b7f0000000000000000000000000000000000000000000000000000000000000000158015906107805750806040516020016107469190612997565b604051602081830303815290604052805190602001207f000000000000000000000000000000000000000000000000000000000000000014155b156107b7576040517f8812562900000000000000000000000000000000000000000000000000000000815260040160405180910390fd5b6107c46060840184612a84565b90506000036107ff576040517f9c95219f00000000000000000000000000000000000000000000000000000000815260040160405180910390fd5b600061080e6060850185612a84565b600081811061081f5761081f612364565b90506020028101906108319190612ace565b61083b9080612b0c565b610849906040810190612b40565b6108566060870187612a84565b600081811061086757610867612364565b90506020028101906108799190612ace565b6020013581811061088c5761088c612364565b6108a2926020606090920201908101915061202d565b905060006108b36060860186612a84565b60008181106108c4576108c4612364565b90506020028101906108d69190612ace565b6108e09080612b0c565b6108ee906060810190612b40565b6108fb6060880188612a84565b600081811061090c5761090c612364565b905060200281019061091e9190612ace565b6040013581811061093157610931612364565b610947926020606090920201908101915061202d565b905061096b73ffffffffffffffffffffffffffffffffffffffff8316876000610b65565b61098e73ffffffffffffffffffffffffffffffffffffffff831687600019610b65565b6000808773ffffffffffffffffffffffffffffffffffffffff16630997c4a0886040518263ffffffff1660e01b81526004016109ca9190612e3a565b60408051808303816000875af11580156109e8573d6000803e3d6000fd5b505050506040513d601f19601f82011682018060405250810190610a0c919061309e565b9092509050610a3373ffffffffffffffffffffffffffffffffffffffff8516896000610b65565b610a46610a3f87612849565b8585610d2d565b5050505050610a556001600055565b505050565b6040517f095ea7b30000000000000000000000000000000000000000000000000000000081526e22d473030f116ddee9f6b43ac78ba36004820181905260001960248301529073ffffffffffffffffffffffffffffffffffffffff83169063095ea7b3906044016020604051808303816000875af1158015610ae0573d6000803e3d6000fd5b505050506040513d601f19601f82011682018060405250810190610a559190612347565b505050505050565b600260005403610b5e5760405162461bcd60e51b815260206004820152601f60248201527f5265656e7472616e637947756172643a207265656e7472616e742063616c6c006044820152606401610318565b6002600055565b801580610c0557506040517fdd62ed3e00000000000000000000000000000000000000000000000000000000815230600482015273ffffffffffffffffffffffffffffffffffffffff838116602483015284169063dd62ed3e90604401602060405180830381865afa158015610bdf573d6000803e3d6000fd5b505050506040513d601f19601f82011682018060405250810190610c0391906123d5565b155b610c775760405162461bcd60e51b815260206004820152603660248201527f5361666545524332303a20617070726f76652066726f6d206e6f6e2d7a65726f60448201527f20746f206e6f6e2d7a65726f20616c6c6f77616e6365000000000000000000006064820152608401610318565b60405173ffffffffffffffffffffffffffffffffffffffff8316602482015260448101829052610a559084907f095ea7b300000000000000000000000000000000000000000000000000000000906064015b60408051601f198184030181529190526020810180517bffffffffffffffffffffffffffffffffffffffffffffffffffffffff167fffffffff0000000000000000000000000000000000000000000000000000000090931692909217909152611105565b604080516001808252818301909252600091816020015b6060815260200190600190039081610d44575050604080516003808252608082019092529192506000919060208201606080368337019050506040517f70a0823100000000000000000000000000000000000000000000000000000000815230600482015290915060009073ffffffffffffffffffffffffffffffffffffffff8616906370a0823190602401602060405180830381865afa158015610ded573d6000803e3d6000fd5b505050506040513d601f19601f82011682018060405250810190610e1191906123d5565b90508015610e3a57610e3a73ffffffffffffffffffffffffffffffffffffffff861633836111fa565b60008573ffffffffffffffffffffffffffffffffffffffff1663313ce5676040518163ffffffff1660e01b8152600401602060405180830381865afa158015610e87573d6000803e3d6000fd5b505050506040513d601f19601f82011682018060405250810190610eab91906130c2565b60ff169050610ebc82826000611250565b83600081518110610ecf57610ecf612364565b602090810291909101015250506040517f70a0823100000000000000000000000000000000000000000000000000000000815230600482015260009073ffffffffffffffffffffffffffffffffffffffff8516906370a0823190602401602060405180830381865afa158015610f49573d6000803e3d6000fd5b505050506040513d601f19601f82011682018060405250810190610f6d91906123d5565b90508015610f9657610f9673ffffffffffffffffffffffffffffffffffffffff851633836111fa565b60008473ffffffffffffffffffffffffffffffffffffffff1663313ce5676040518163ffffffff1660e01b8152600401602060405180830381865afa158015610fe3573d6000803e3d6000fd5b505050506040513d601f19601f8201168201806040525081019061100791906130c2565b60ff16905061101882826000611250565b8360018151811061102b5761102b612364565b60209081029190910101525047905061104433826112d8565b808260028151811061105857611058612364565b60200260200101818152505050808260008151811061107957611079612364565b6020908102919091010152604080516001808252818301909252600091816020015b6040805160a0810182526000918101828152606080830193909352608082018390528152602081019190915281526020019060019003908161109b57905050905085816000815181106110f0576110f0612364565b6020026020010181905250610b0483826113fe565b6000611167826040518060400160405280602081526020017f5361666545524332303a206c6f772d6c6576656c2063616c6c206661696c65648152508573ffffffffffffffffffffffffffffffffffffffff166115f79092919063ffffffff16565b90508051600014806111885750808060200190518101906111889190612347565b610a555760405162461bcd60e51b815260206004820152602a60248201527f5361666545524332303a204552433230206f7065726174696f6e20646964206e60448201527f6f742073756363656564000000000000000000000000000000000000000000006064820152608401610318565b60405173ffffffffffffffffffffffffffffffffffffffff8316602482015260448101829052610a559084907fa9059cbb0000000000000000000000000000000000000000000000000000000090606401610cc9565b60008260121115611285576012839003600283161561127b57611273858261160e565b9150506112d1565b611273858261165f565b60128311156112ce577fffffffffffffffffffffffffffffffffffffffffffffffffffffffffffffffee830160018316156112c4576112738582611697565b61127385826116e5565b50825b9392505050565b804710156113285760405162461bcd60e51b815260206004820152601d60248201527f416464726573733a20696e73756666696369656e742062616c616e63650000006044820152606401610318565b60008273ffffffffffffffffffffffffffffffffffffffff168260405160006040518083038185875af1925050503d8060008114611382576040519150601f19603f3d011682016040523d82523d6000602084013e611387565b606091505b5050905080610a555760405162461bcd60e51b815260206004820152603a60248201527f416464726573733a20756e61626c6520746f2073656e642076616c75652c207260448201527f6563697069656e74206d617920686176652072657665727465640000000000006064820152608401610318565b336114316040805160a0810182526000918101828152606080830193909352608082018390528152602081019190915290565b60005b83518110156115f05783818151811061144f5761144f612364565b6020026020010151915060008260000151604001515111156115e8578151805160209182015160008681523090935260408320839273ffffffffffffffffffffffffffffffffffffffff169163d6e3357a9187600001516040015160006114ba8d8b60200151611708565b604080516000815260208101918290527fffffffff0000000000000000000000000000000000000000000000000000000060e089901b16909152611506959493929190602481016130df565b600060405180830381865afa158015611523573d6000803e3d6000fd5b505050506040513d6000823e601f3d908101601f1916820160405261154b919081019061318f565b80519193509150156115e5578351602001516040517f946aadc600000000000000000000000000000000000000000000000000000000815273ffffffffffffffffffffffffffffffffffffffff9091169063946aadc6906115b290889085906004016131f3565b600060405180830381600087803b1580156115cc57600080fd5b505af11580156115e0573d6000803e3d6000fd5b505050505b50505b600101611434565b5050505050565b60606116068484600085611a18565b949350505050565b6000604e821061163057821561162657600019611629565b60005b9050610204565b50600a81900a828102908381838161164a5761164a61320c565b041461165857600019611606565b5092915050565b600a81900a61166e818461323b565b9050604e821061020457821561168e5761168982600a613336565b6112d1565b60009392505050565b6000604e82106116bb5782156116ae5760016116b1565b60005b60ff169050610204565b600a82900a8084816116cf576116cf61320c565b0491508082028414611658575060010192915050565b6000604e82101561168e5781600a0a83816117025761170261320c565b046112d1565b60606000825167ffffffffffffffff8111156117265761172661204a565b60405190808252806020026020018201604052801561174f578160200160208202803683370190505b509050600080845111611763576000611769565b83516001015b855160010101905060008167ffffffffffffffff81111561178c5761178c61204a565b6040519080825280602002602001820160405280156117bf57816020015b60608152602001906001900390816117aa5790505b50905060006117e4604080516002815233602082015230818301526060810190915290565b8282815181106117f6576117f6612364565b602002602001018190525060005b875181101561185457818060010192505087818151811061182757611827612364565b602002602001015183838151811061184157611841612364565b6020908102919091010152600101611804565b50855115611a0e5780806001019150508382828151811061187757611877612364565b602002602001018190525060005b8651811015611a0c576119368782815181106118a3576118a3612364565b6020026020010151600001516119136118e08a85815181106118c7576118c7612364565b6020026020010151602001518051602090810291012090565b7f19457468657265756d205369676e6564204d6573736167653a0a3332000000006000908152601c91909152603c902090565b89848151811061192557611925612364565b602002602001015160400151611b17565b61196f576040517f52bf984800000000000000000000000000000000000000000000000000000000815260048101829052602401610318565b86818151811061198157611981612364565b60200260200101516000015173ffffffffffffffffffffffffffffffffffffffff168582815181106119b5576119b5612364565b60200260200101818152505081806001019250508681815181106119db576119db612364565b6020026020010151602001518383815181106119f9576119f9612364565b6020908102919091010152600101611885565b505b5095945050505050565b606082471015611a905760405162461bcd60e51b815260206004820152602660248201527f416464726573733a20696e73756666696369656e742062616c616e636520666f60448201527f722063616c6c00000000000000000000000000000000000000000000000000006064820152608401610318565b6000808673ffffffffffffffffffffffffffffffffffffffff168587604051611ab99190613342565b60006040518083038185875af1925050503d8060008114611af6576040519150601f19603f3d011682016040523d82523d6000602084013e611afb565b606091505b5091509150611b0c87838387611b92565b979650505050505050565b6000806000611b268585611c18565b90925090506000816004811115611b3f57611b3f613354565b148015611b7757508573ffffffffffffffffffffffffffffffffffffffff168273ffffffffffffffffffffffffffffffffffffffff16145b80611b885750611b88868686611c5d565b9695505050505050565b60608315611c0e578251600003611c075773ffffffffffffffffffffffffffffffffffffffff85163b611c075760405162461bcd60e51b815260206004820152601d60248201527f416464726573733a2063616c6c20746f206e6f6e2d636f6e74726163740000006044820152606401610318565b5081611606565b6116068383611d9c565b6000808251604103611c4e5760208301516040840151606085015160001a611c4287828585611dc6565b94509450505050611c56565b506000905060025b9250929050565b60008060008573ffffffffffffffffffffffffffffffffffffffff16631626ba7e60e01b8686604051602401611c94929190613383565b60408051601f198184030181529181526020820180517bffffffffffffffffffffffffffffffffffffffffffffffffffffffff167fffffffff00000000000000000000000000000000000000000000000000000000909416939093179092529051611cff9190613342565b600060405180830381855afa9150503d8060008114611d3a576040519150601f19603f3d011682016040523d82523d6000602084013e611d3f565b606091505b5091509150818015611d5357506020815110155b8015611b88575080517f1626ba7e0000000000000000000000000000000000000000000000000000000090611d9190830160209081019084016123d5565b149695505050505050565b815115611dac5781518083602001fd5b8060405162461bcd60e51b8152600401610318919061339c565b6000807f7fffffffffffffffffffffffffffffff5d576e7357a4501ddfe92f46681b20a0831115611dfd5750600090506003611e8e565b6040805160008082526020820180845289905260ff881692820192909252606081018690526080810185905260019060a0016020604051602081039080840390855afa158015611e51573d6000803e3d6000fd5b5050604051601f19015191505073ffffffffffffffffffffffffffffffffffffffff8116611e8757600060019250925050611e8e565b9150600090505b94509492505050565b600060208284031215611ea957600080fd5b81357fffffffff00000000000000000000000000000000000000000000000000000000811681146112d157600080fd5b73ffffffffffffffffffffffffffffffffffffffff81168114611efb57600080fd5b50565b60008060008060008060a08789031215611f1757600080fd5b8635611f2281611ed9565b95506020870135611f3281611ed9565b94506040870135935060608701359250608087013567ffffffffffffffff80821115611f5d57600080fd5b818901915089601f830112611f7157600080fd5b813581811115611f8057600080fd5b8a6020828501011115611f9257600080fd5b6020830194508093505050509295509295509295565b600080600060608486031215611fbd57600080fd5b8335611fc881611ed9565b9250602084013567ffffffffffffffff80821115611fe557600080fd5b9085019060a08288031215611ff957600080fd5b9092506040850135908082111561200f57600080fd5b5084016040818703121561202257600080fd5b809150509250925092565b60006020828403121561203f57600080fd5b81356112d181611ed9565b7f4e487b7100000000000000000000000000000000000000000000000000000000600052604160045260246000fd5b6040516080810167ffffffffffffffff8111828210171561209c5761209c61204a565b60405290565b6040516060810167ffffffffffffffff8111828210171561209c5761209c61204a565b6040805190810167ffffffffffffffff8111828210171561209c5761209c61204a565b604051601f8201601f1916810167ffffffffffffffff811182821017156121115761211161204a565b604052919050565b600067ffffffffffffffff8211156121335761213361204a565b5060051b60200190565b8015158114611efb57600080fd5b6000806040838503121561215e57600080fd5b6121688335611ed9565b8235915067ffffffffffffffff6020840135111561218557600080fd5b6020830135830184601f82011261219b57600080fd5b6121ad6121a88235612119565b6120e8565b81358082526020808301929160051b8401018710156121cb57600080fd5b602083015b6020843560051b8501018110156123395767ffffffffffffffff813511156121f757600080fd5b803584016080601f19828b0301121561220f57600080fd5b612217612079565b6122246020830135611ed9565b6020820135815267ffffffffffffffff6040830135111561224457600080fd5b604082013582018a603f82011261225a57600080fd5b61226a6121a86020830135612119565b602082810135808352908201919060600283016040018d101561228c57600080fd5b604083015b60406060602086013502850101811015612309576060818f0312156122b557600080fd5b6122bd6120a2565b6122c78235611ed9565b813581526122d86020830135611ed9565b602082013560208201526122ef604083013561213d565b604082810135908201528352602090920191606001612291565b506020848101919091526060858101356040860152608090950135948401949094525050845292830192016121d0565b508093505050509250929050565b60006020828403121561235957600080fd5b81516112d18161213d565b7f4e487b7100000000000000000000000000000000000000000000000000000000600052603260045260246000fd5b7f4e487b7100000000000000000000000000000000000000000000000000000000600052601160045260246000fd5b8181038181111561020457610204612393565b6000602082840312156123e757600080fd5b5051919050565b600060808083016080845280875180835260a0925060a08601915060a08160051b8701016020808b016000805b858110156124ee578a85037fffffffffffffffffffffffffffffffffffffffffffffffffffffffffffffff600187528251805173ffffffffffffffffffffffffffffffffffffffff9081168752858201518688018c905280518c8901819052908701919085908c8a01905b808310156124c25784518051851683528a81015185168b8401526040908101511515908301529389019360019290920191606090910190612486565b50604085810151908b01526060948501519490990193909352505050958301959183019160010161241b565b505050870189905287151560408801528681036060880152600281527f30780000000000000000000000000000000000000000000000000000000000006020820152604081019a9950505050505050505050565b600082601f83011261255357600080fd5b815160206125636121a883612119565b8083825260208201915060208460051b87010193508684111561258557600080fd5b602086015b848110156125a1578051835291830191830161258a565b509695505050505050565b6000806000606084860312156125c157600080fd5b835167ffffffffffffffff808211156125d957600080fd5b6125e587838801612542565b94506020915081860151818111156125fc57600080fd5b8601601f8101881361260d57600080fd5b805161261b6121a882612119565b81815260059190911b8201840190848101908a83111561263a57600080fd5b928501925b8284101561266157835161265281611ed9565b8252928501929085019061263f565b60408a015190975094505050508082111561267b57600080fd5b5061268886828701612542565b9150509250925092565b600082601f8301126126a357600080fd5b813567ffffffffffffffff8111156126bd576126bd61204a565b6126d06020601f19601f840116016120e8565b8181528460208386010111156126e557600080fd5b816020850160208301376000918101602001919091529392505050565b600082601f83011261271357600080fd5b813560206127236121a883612119565b82815260059290921b8401810191818101908684111561274257600080fd5b8286015b848110156125a157803567ffffffffffffffff8082111561276657600080fd5b908801906060828b03601f1901121561277f5760008081fd5b6127876120a2565b8683013561279481611ed9565b8152604083810135838111156127aa5760008081fd5b8401603f81018d136127bc5760008081fd5b888101356127cc6121a882612119565b81815260059190911b82018301908a8101908f8311156127ec5760008081fd5b928401925b8284101561280a5783358252928b0192908b01906127f1565b858c01525050506060840135838111156128245760008081fd5b6128328d8a83880101612692565b918301919091525085525050918301918301612746565b60006040823603121561285b57600080fd5b6128636120c5565b823567ffffffffffffffff8082111561287b57600080fd5b81850191506060823603121561289057600080fd5b6128986120a2565b82356128a381611ed9565b815260208301356128b381611ed9565b60208201526040830135828111156128ca57600080fd5b6128d636828601612692565b604083015250835260208501359150808211156128f257600080fd5b506128ff36828601612702565b60208301525092915050565b60005b8381101561292657818101518382015260200161290e565b50506000910152565b6000815180845261294781602086016020860161290b565b601f01601f19169290920160200192915050565b60008151808452602080850194506020840160005b8381101561298c57815187529582019590820190600101612970565b509495945050505050565b60006020808352606084516040808487015273ffffffffffffffffffffffffffffffffffffffff808351166060880152808584015116608088015260408301519250606060a08801526129ed60c088018461292f565b925084880151601f19808986030160408a01528482518087528887019150888160051b880101898501945060005b82811015612a73578489830301845285518781511683528b8101518b8d850152612a478c85018261295b565b918a0151848303858c0152919050612a5f818361292f565b978d0197958d019593505050600101612a1b565b509c9b505050505050505050505050565b6000808335601e19843603018112612a9b57600080fd5b83018035915067ffffffffffffffff821115612ab657600080fd5b6020019150600581901b3603821315611c5657600080fd5b600082357fffffffffffffffffffffffffffffffffffffffffffffffffffffffffffffff81833603018112612b0257600080fd5b9190910192915050565b600082357fffffffffffffffffffffffffffffffffffffffffffffffffffffffffffffff61833603018112612b0257600080fd5b6000808335601e19843603018112612b5757600080fd5b83018035915067ffffffffffffffff821115612b7257600080fd5b6020019150606081023603821315611c5657600080fd5b6000808335601e19843603018112612ba057600080fd5b830160208101925035905067ffffffffffffffff811115612bc057600080fd5b8060051b3603821315611c5657600080fd5b600082357fffffffffffffffffffffffffffffffffffffffffffffffffffffffffffffffa1833603018112612c0657600080fd5b90910192915050565b6000808335601e19843603018112612c2657600080fd5b830160208101925035905067ffffffffffffffff811115612c4657600080fd5b803603821315611c5657600080fd5b818352818160208501375060006020828401015260006020601f19601f840116840101905092915050565b6000808335601e19843603018112612c9757600080fd5b830160208101925035905067ffffffffffffffff811115612cb757600080fd5b606081023603821315611c5657600080fd5b60ff81168114611efb57600080fd5b8183526000602080850194508260005b8581101561298c578135612cfb81611ed9565b73ffffffffffffffffffffffffffffffffffffffff16875281830135612d2081612cc9565b60ff16878401526040828101359088015260609687019690910190600101612ce8565b818352602080840193600091600585811b830182018585805b89811015612e2b57601f19878503018b52612d77838a612bd2565b60608135612d8481611ed9565b73ffffffffffffffffffffffffffffffffffffffff168652612da882890183612b89565b828a8901528083890152608092507f07ffffffffffffffffffffffffffffffffffffffffffffffffffffffffffffff811115612de2578586fd5b881b808289850137870190506040612dfc84820185612c0f565b94508389840301828a0152612e148484018683612c55565b9f8b019f9850505094880194505050600101612d5c565b50919998505050505050505050565b6000602080835260c083018435828501526040828601358186015260608187013581870152612e6b81880188612b89565b60a060808901528481865260e08901905060e08260051b8a010195508260005b83811015613071577fffffffffffffffffffffffffffffffffffffffffffffffffffffffffffffff208b890301835281357fffffffffffffffffffffffffffffffffffffffffffffffffffffffffffffff81863603018112612eec57600080fd5b85018035368290037fffffffffffffffffffffffffffffffffffffffffffffffffffffffffffffff61018112612f2157600080fd5b60808a5281018035612f3281611ed9565b73ffffffffffffffffffffffffffffffffffffffff80821660808d0152612f5b8d840184612bd2565b915060a0808d01528135612f6e81611ed9565b81166101208d0152818d0135612f8381611ed9565b166101408c0152612f96818b0182612c0f565b9150896101608d0152612fae6101808d018383612c55565b915050612fbd8a830183612c80565b7fffffffffffffffffffffffffffffffffffffffffffffffffffffffffffffff80808e85030160c08f0152612ff3848385612cd8565b93506130018c860186612c80565b93509150808e85030160e08f01525061301b838383612cd8565b9250505060808201356101008c01528b8301358c8c0152898301358a8c015261304689840184612b89565b935091508a8103898c015261305c818484612d43565b9a505050928901925090880190600101612e8b565b505050505050506130856080860186612c0f565b9250601f198583030160a0860152611b88828483612c55565b600080604083850312156130b157600080fd5b505080516020909101519092909150565b6000602082840312156130d457600080fd5b81516112d181612cc9565b73ffffffffffffffffffffffffffffffffffffffff8716815260006020878184015260c0604084015261311560c084018861292f565b86606085015283810360808501528086518083528383019150838160051b84010184890160005b8381101561316a57601f1986840301855261315883835161295b565b9487019492509086019060010161313c565b505086810360a088015261317e818961295b565b9d9c50505050505050505050505050565b600080604083850312156131a257600080fd5b825167ffffffffffffffff808211156131ba57600080fd5b6131c686838701612542565b935060208501519150808211156131dc57600080fd5b506131e985828601612542565b9150509250929050565b828152604060208201526000611606604083018461295b565b7f4e487b7100000000000000000000000000000000000000000000000000000000600052601260045260246000fd5b808202811582820484141761020457610204612393565b600181815b8085111561328d57816000190482111561327357613273612393565b8085161561328057918102915b93841c9390800290613257565b509250929050565b6000826132a457506001610204565b816132b157506000610204565b81600181146132c757600281146132d1576132ed565b6001915050610204565b60ff8411156132e2576132e2612393565b50506001821b610204565b5060208310610133831016604e8410600b8410161715613310575081810a610204565b61331a8383613252565b806000190482111561332e5761332e612393565b029392505050565b60006112d18383613295565b60008251612b0281846020870161290b565b7f4e487b7100000000000000000000000000000000000000000000000000000000600052602160045260246000fd5b828152604060208201526000611606604083018461292f565b6020815260006112d1602083018461292f56","linkReferences":{}},"methodIdentifiers":{"arb3(address,(uint256,uint256,uint256,((address,(address,address,bytes),(address,uint8,uint256)[],(address,uint8,uint256)[],bytes32),uint256,uint256,(address,uint256[],bytes)[])[],bytes),((address,address,bytes),(address,uint256[],bytes)[]))":"7ea0b76a","iTaskHash()":"93be095e","onTakeOrders(address,address,uint256,uint256,bytes)":"059bebe6","supportsInterface(bytes4)":"01ffc9a7","x(address)":"f037e4e3"},"id":53}