{"abi":[{"type":"constructor","inputs":[{"name":"config","type":"tuple","internalType":"struct OrderBookV5ArbConfig","components":[{"name":"orderBook","type":"address","internalType":"address"},{"name":"task","type":"tuple","internalType":"struct TaskV2","components":[{"name":"evaluable","type":"tuple","internalType":"struct EvaluableV4","components":[{"name":"interpreter","type":"address","internalType":"contract IInterpreterV4"},{"name":"store","type":"address","internalType":"contract IInterpreterStoreV3"},{"name":"bytecode","type":"bytes","internalType":"bytes"}]},{"name":"signedContext","type":"tuple[]","internalType":"struct SignedContextV1[]","components":[{"name":"signer","type":"address","internalType":"address"},{"name":"context","type":"bytes32[]","internalType":"bytes32[]"},{"name":"signature","type":"bytes","internalType":"bytes"}]}]},{"name":"implementationData","type":"bytes","internalType":"bytes"}]}],"stateMutability":"nonpayable"},{"type":"fallback","stateMutability":"nonpayable"},{"type":"function","name":"arb4","inputs":[{"name":"orderBook","type":"address","internalType":"contract IOrderBookV5"},{"name":"takeOrders","type":"tuple","internalType":"struct TakeOrdersConfigV4","components":[{"name":"minimumInput","type":"bytes32","internalType":"Float"},{"name":"maximumInput","type":"bytes32","internalType":"Float"},{"name":"maximumIORatio","type":"bytes32","internalType":"Float"},{"name":"orders","type":"tuple[]","internalType":"struct TakeOrderConfigV4[]","components":[{"name":"order","type":"tuple","internalType":"struct OrderV4","components":[{"name":"owner","type":"address","internalType":"address"},{"name":"evaluable","type":"tuple","internalType":"struct EvaluableV4","components":[{"name":"interpreter","type":"address","internalType":"contract IInterpreterV4"},{"name":"store","type":"address","internalType":"contract IInterpreterStoreV3"},{"name":"bytecode","type":"bytes","internalType":"bytes"}]},{"name":"validInputs","type":"tuple[]","internalType":"struct IOV2[]","components":[{"name":"token","type":"address","internalType":"address"},{"name":"vaultId","type":"bytes32","internalType":"bytes32"}]},{"name":"validOutputs","type":"tuple[]","internalType":"struct IOV2[]","components":[{"name":"token","type":"address","internalType":"address"},{"name":"vaultId","type":"bytes32","internalType":"bytes32"}]},{"name":"nonce","type":"bytes32","internalType":"bytes32"}]},{"name":"inputIOIndex","type":"uint256","internalType":"uint256"},{"name":"outputIOIndex","type":"uint256","internalType":"uint256"},{"name":"signedContext","type":"tuple[]","internalType":"struct SignedContextV1[]","components":[{"name":"signer","type":"address","internalType":"address"},{"name":"context","type":"bytes32[]","internalType":"bytes32[]"},{"name":"signature","type":"bytes","internalType":"bytes"}]}]},{"name":"data","type":"bytes","internalType":"bytes"}]},{"name":"task","type":"tuple","internalType":"struct TaskV2","components":[{"name":"evaluable","type":"tuple","internalType":"struct EvaluableV4","components":[{"name":"interpreter","type":"address","internalType":"contract IInterpreterV4"},{"name":"store","type":"address","internalType":"contract IInterpreterStoreV3"},{"name":"bytecode","type":"bytes","internalType":"bytes"}]},{"name":"signedContext","type":"tuple[]","internalType":"struct SignedContextV1[]","components":[{"name":"signer","type":"address","internalType":"address"},{"name":"context","type":"bytes32[]","internalType":"bytes32[]"},{"name":"signature","type":"bytes","internalType":"bytes"}]}]}],"outputs":[],"stateMutability":"payable"},{"type":"function","name":"iPermit2","inputs":[],"outputs":[{"name":"","type":"address","internalType":"contract IPermit2"}],"stateMutability":"view"},{"type":"function","name":"iTaskHash","inputs":[],"outputs":[{"name":"","type":"bytes32","internalType":"bytes32"}],"stateMutability":"view"},{"type":"function","name":"onTakeOrders2","inputs":[{"name":"inputToken","type":"address","internalType":"address"},{"name":"outputToken","type":"address","internalType":"address"},{"name":"inputAmountSent","type":"bytes32","internalType":"Float"},{"name":"totalOutputAmount","type":"bytes32","internalType":"Float"},{"name":"takeOrdersData","type":"bytes","internalType":"bytes"}],"outputs":[],"stateMutability":"nonpayable"},{"type":"function","name":"supportsInterface","inputs":[{"name":"interfaceId","type":"bytes4","internalType":"bytes4"}],"outputs":[{"name":"","type":"bool","internalType":"bool"}],"stateMutability":"view"},{"type":"event","name":"Construct","inputs":[{"name":"sender","type":"address","indexed":false,"internalType":"address"},{"name":"config","type":"tuple","indexed":false,"internalType":"struct OrderBookV5ArbConfig","components":[{"name":"orderBook","type":"address","internalType":"address"},{"name":"task","type":"tuple","internalType":"struct TaskV2","components":[{"name":"evaluable","type":"tuple","internalType":"struct EvaluableV4","components":[{"name":"interpreter","type":"address","internalType":"contract IInterpreterV4"},{"name":"store","type":"address","internalType":"contract IInterpreterStoreV3"},{"name":"bytecode","type":"bytes","internalType":"bytes"}]},{"name":"signedContext","type":"tuple[]","internalType":"struct SignedContextV1[]","components":[{"name":"signer","type":"address","internalType":"address"},{"name":"context","type":"bytes32[]","internalType":"bytes32[]"},{"name":"signature","type":"bytes","internalType":"bytes"}]}]},{"name":"implementationData","type":"bytes","internalType":"bytes"}]}],"anonymous":false},{"type":"error","name":"CoefficientOverflow","inputs":[{"name":"signedCoefficient","type":"int256","internalType":"int256"},{"name":"exponent","type":"int256","internalType":"int256"}]},{"type":"error","name":"ExponentOverflow","inputs":[{"name":"signedCoefficient","type":"int256","internalType":"int256"},{"name":"exponent","type":"int256","internalType":"int256"}]},{"type":"error","name":"InvalidSignature","inputs":[{"name":"i","type":"uint256","internalType":"uint256"}]},{"type":"error","name":"LossyConversionFromFloat","inputs":[{"name":"signedCoefficient","type":"int256","internalType":"int256"},{"name":"exponent","type":"int256","internalType":"int256"}]},{"type":"error","name":"NegativeFixedDecimalConversion","inputs":[{"name":"signedCoefficient","type":"int256","internalType":"int256"},{"name":"exponent","type":"int256","internalType":"int256"}]},{"type":"error","name":"NoOrders","inputs":[]},{"type":"error","name":"TokenDecimalsReadFailure","inputs":[{"name":"token","type":"address","internalType":"address"},{"name":"tofuOutcome","type":"uint8","internalType":"enum TOFUOutcome"}]},{"type":"error","name":"WrongTask","inputs":[]}],"bytecode":{"object":"0x60c060405260006080526e22d473030f116ddee9f6b43ac78ba360a05234801561002857600080fd5b50604051613eba380380613eba83398101604081905261004791610381565b808060016000819055507f3a5f92e1700a303557ddae1bed800da2d50036e5b24950a948611540f0928e7933826040516100829291906105fa565b60405180910390a16020810151516040015151156100c9576020808201516040516100ad920161065a565b60408051601f1981840301815291905280516020909101206080525b505050610674565b634e487b7160e01b600052604160045260246000fd5b604051606081016001600160401b0381118282101715610109576101096100d1565b60405290565b604080519081016001600160401b0381118282101715610109576101096100d1565b604051601f8201601f191681016001600160401b0381118282101715610159576101596100d1565b604052919050565b6001600160a01b038116811461017657600080fd5b50565b60005b8381101561019457818101518382015260200161017c565b50506000910152565b600082601f8301126101ae57600080fd5b81516001600160401b038111156101c7576101c76100d1565b6101da601f8201601f1916602001610131565b8181528460208386010111156101ef57600080fd5b610200826020830160208701610179565b949350505050565b60006001600160401b03821115610221576102216100d1565b5060051b60200190565b600082601f83011261023c57600080fd5b8151602061025161024c83610208565b610131565b82815260059290921b8401810191818101908684111561027057600080fd5b8286015b848110156103765780516001600160401b038082111561029357600080fd5b908801906060828b03601f190112156102ac5760008081fd5b6102b46100e7565b868301516102c181610161565b8152604083810151838111156102d75760008081fd5b8401603f81018d136102e95760008081fd5b888101516102f961024c82610208565b81815260059190911b82018301908a8101908f8311156103195760008081fd5b928401925b828410156103375783518252928b0192908b019061031e565b858c01525050506060840151838111156103515760008081fd5b61035f8d8a8388010161019d565b918301919091525085525050918301918301610274565b509695505050505050565b6000602080838503121561039457600080fd5b82516001600160401b03808211156103ab57600080fd5b90840190606082870312156103bf57600080fd5b6103c76100e7565b82516103d281610161565b815282840151828111156103e557600080fd5b8301604081890312156103f757600080fd5b6103ff61010f565b81518481111561040e57600080fd5b82016060818b03121561042057600080fd5b6104286100e7565b815161043381610161565b81528188015161044281610161565b8189015260408201518681111561045857600080fd5b6104648c82850161019d565b604083015250825250818601518481111561047e57600080fd5b61048a8a82850161022b565b87830152508086840152505060408301519350818411156104aa57600080fd5b6104b68785850161019d565b60408201529695505050505050565b600081518084526104dd816020860160208601610179565b601f01601f19169290920160200192915050565b6000604082516040855260018060a01b03808251166040870152602080830151606083821660608a015260408501519450606060808a015261053660a08a01866104c5565b888401518a82038b86015280518083529196508401925083860190600581901b870185016000805b838110156105e857898303601f19018552865180518a168452888101518985018890528051888601819052908a0190849060808701905b808310156105b55783518252928c019260019290920191908c0190610595565b508e84015193508681038f8801526105cd81856104c5565b9650505050508787019650878501945060018101905061055e565b50909c9b505050505050505050505050565b6001600160a01b0383811682526040602080840182905284519092169083015282015160608083015260009061063360a08401826104f1565b90506040840151603f1984830301608085015261065082826104c5565b9695505050505050565b60208152600061066d60208301846104f1565b9392505050565b60805160a0516137ff6106bb6000396000818160e2015281816107900152818161085c0152610aa601526000818161012e0152818161025601526102a701526137ff6000f3fe60806040526004361061005a5760003560e01c8063691f9ed711610043578063691f9ed7146100b057806369e5049b146100d057806393be095e1461011c5761005a565b806301ffc9a7146100685780634ed394611461009d575b34801561006657600080fd5b005b34801561007457600080fd5b5061008861008336600461230a565b61015e565b60405190151581526020015b60405180910390f35b6100666100ab36600461236b565b610243565b3480156100bc57600080fd5b506100666100cb3660046123f0565b610585565b3480156100dc57600080fd5b506101047f000000000000000000000000000000000000000000000000000000000000000081565b6040516001600160a01b039091168152602001610094565b34801561012857600080fd5b506101507f000000000000000000000000000000000000000000000000000000000000000081565b604051908152602001610094565b60007fffffffff0000000000000000000000000000000000000000000000000000000082167f691f9ed70000000000000000000000000000000000000000000000000000000014806101f157507fffffffff0000000000000000000000000000000000000000000000000000000082167f4ed3946100000000000000000000000000000000000000000000000000000000145b8061023d57507f01ffc9a7000000000000000000000000000000000000000000000000000000007fffffffff000000000000000000000000000000000000000000000000000000008316145b92915050565b61024b610b3b565b61025481612754565b7f0000000000000000000000000000000000000000000000000000000000000000158015906102c957508060405160200161028f91906128a2565b604051602081830303815290604052805190602001207f000000000000000000000000000000000000000000000000000000000000000014155b15610300576040517f8812562900000000000000000000000000000000000000000000000000000000815260040160405180910390fd5b61030d6060840184612982565b9050600003610348576040517f9c95219f00000000000000000000000000000000000000000000000000000000815260040160405180910390fd5b60006103576060850185612982565b6000818110610368576103686129cc565b905060200281019061037a91906129fb565b6103849080612a39565b610392906040810190612a6d565b61039f6060870187612982565b60008181106103b0576103b06129cc565b90506020028101906103c291906129fb565b602001358181106103d5576103d56129cc565b6103eb9260206040909202019081019150612ab7565b905060006103fc6060860186612982565b600081811061040d5761040d6129cc565b905060200281019061041f91906129fb565b6104299080612a39565b610437906060810190612a6d565b6104446060880188612982565b6000818110610455576104556129cc565b905060200281019061046791906129fb565b6040013581811061047a5761047a6129cc565b6104909260206040909202019081019150612ab7565b90506104a76001600160a01b038316876000610bae565b6104bd6001600160a01b03831687600019610bae565b600080876001600160a01b031663d0f7a862886040518263ffffffff1660e01b81526004016104ec9190612d46565b60408051808303816000875af115801561050a573d6000803e3d6000fd5b505050506040513d601f19601f8201168201806040525081019061052e9190612f9d565b90925090506105486001600160a01b038516896000610bae565b61057161055487612754565b85610560600188610d76565b8661056c600189610d76565b610e01565b50505050506105806001600055565b505050565b60008061059483850185612fcf565b91509150876001600160a01b031681600001516001600160a01b031614610668576040517f08c379a000000000000000000000000000000000000000000000000000000000815260206004820152604360248201527f496e70757420746f6b656e206f662074686520676976656e2062616c616e636560448201527f7220726f75746520646f65736e74206d6174636820746865206f72646572277360648201527f20494f0000000000000000000000000000000000000000000000000000000000608482015260a4015b60405180910390fd5b602081015180516001600160a01b038916919061068790600190613144565b81518110610697576106976129cc565b6020026020010151602001516001600160a01b031614610760576040517f08c379a0000000000000000000000000000000000000000000000000000000008152602060048201526044602482018190527f4f757470757420746f6b656e206f662074686520676976656e2062616c616e63908201527f657220726f75746520646f65736e74206d6174636820746865206f726465722760648201527f7320494f00000000000000000000000000000000000000000000000000000000608482015260a40161065f565b6040517f095ea7b30000000000000000000000000000000000000000000000000000000081526001600160a01b037f000000000000000000000000000000000000000000000000000000000000000081166004830152600019602483015289169063095ea7b3906044016020604051808303816000875af11580156107e9573d6000803e3d6000fd5b505050506040513d601f19601f8201168201806040525081019061080d9190613157565b506040517f87517c450000000000000000000000000000000000000000000000000000000081526001600160a01b038981166004830152838116602483015260448201819052600060648301527f000000000000000000000000000000000000000000000000000000000000000016906387517c4590608401600060405180830381600087803b1580156108a057600080fd5b505af11580156108b4573d6000803e3d6000fd5b505050506000829050610928878a6001600160a01b031663313ce5676040518163ffffffff1660e01b8152600401602060405180830381865afa1580156108ff573d6000803e3d6000fd5b505050506040513d601f19601f820116820180604052508101906109239190613174565b6110fb565b82604001818152505061097386896001600160a01b031663313ce5676040518163ffffffff1660e01b8152600401602060405180830381865afa1580156108ff573d6000803e3d6000fd5b6060830152604080516001808252818301909252600091816020015b6109c3604051806080016040528060006001600160a01b031681526020016060815260200160008152602001600081525090565b81526020019060019003908161098f57905050905082816000815181106109ec576109ec6129cc565b60200260200101819052506000806000846001600160a01b031663286f580d8560001960006040518463ffffffff1660e01b8152600401610a2f93929190613197565b6000604051808303816000875af1158015610a4e573d6000803e3d6000fd5b505050506040513d6000823e601f3d908101601f19168201604052610a76919081019061333d565b6040517f095ea7b30000000000000000000000000000000000000000000000000000000081526001600160a01b037f000000000000000000000000000000000000000000000000000000000000000081166004830152600060248301529396509194509250908e169063095ea7b3906044016020604051808303816000875af1158015610b07573d6000803e3d6000fd5b505050506040513d601f19601f82011682018060405250810190610b2b9190613157565b5050505050505050505050505050565b600260005403610ba7576040517f08c379a000000000000000000000000000000000000000000000000000000000815260206004820152601f60248201527f5265656e7472616e637947756172643a207265656e7472616e742063616c6c00604482015260640161065f565b6002600055565b801580610c4157506040517fdd62ed3e0000000000000000000000000000000000000000000000000000000081523060048201526001600160a01b03838116602483015284169063dd62ed3e90604401602060405180830381865afa158015610c1b573d6000803e3d6000fd5b505050506040513d601f19601f82011682018060405250810190610c3f9190613423565b155b610ccd576040517f08c379a000000000000000000000000000000000000000000000000000000000815260206004820152603660248201527f5361666545524332303a20617070726f76652066726f6d206e6f6e2d7a65726f60448201527f20746f206e6f6e2d7a65726f20616c6c6f77616e636500000000000000000000606482015260840161065f565b6040516001600160a01b0383166024820152604481018290526105809084907f095ea7b300000000000000000000000000000000000000000000000000000000906064015b60408051601f198184030181529190526020810180517bffffffffffffffffffffffffffffffffffffffffffffffffffffffff167fffffffff0000000000000000000000000000000000000000000000000000000090931692909217909152611138565b6000806000610d85858561123a565b90925090506001826003811115610d9e57610d9e61343c565b14158015610dbe57506000826003811115610dbb57610dbb61343c565b14155b15610df95783826040517fee07877f00000000000000000000000000000000000000000000000000000000815260040161065f92919061346b565b949350505050565b604080516001808252818301909252600091816020015b6060815260200190600190039081610e18575050604080516003808252608082019092529192506000919060208201606080368337019050506040517f70a082310000000000000000000000000000000000000000000000000000000081523060048201529091506000906001600160a01b038816906370a0823190602401602060405180830381865afa158015610eb4573d6000803e3d6000fd5b505050506040513d601f19601f82011682018060405250810190610ed89190613423565b90508015610ef457610ef46001600160a01b0388163383611308565b600080610f018389611351565b915091508184600081518110610f1957610f196129cc565b602090810291909101015250506040517f70a08231000000000000000000000000000000000000000000000000000000008152306004820152600091506001600160a01b038616906370a0823190602401602060405180830381865afa158015610f87573d6000803e3d6000fd5b505050506040513d601f19601f82011682018060405250810190610fab9190613423565b90508015610fc757610fc76001600160a01b0386163383611308565b600080610fd48387611351565b915091508184600181518110610fec57610fec6129cc565b60209081029190910101525047915061100790503382611395565b611031817fffffffffffffffffffffffffffffffffffffffffffffffffffffffffffffffee6114e2565b82600281518110611044576110446129cc565b602002602001018181525050508082600081518110611065576110656129cc565b6020908102919091010152604080516001808252818301909252600091816020015b6040805160a0810182526000918101828152606080830193909352608082018390528152602081019190915281526020019060019003908161108757905050905087816000815181106110dc576110dc6129cc565b60200260200101819052506110f1838261153e565b5050505050505050565b60007bffffffffffffffffffffffffffffffffffffffffffffffffffffffff8316601b0b60e084901d61112f82828661172f565b95945050505050565b600061118d826040518060400160405280602081526020017f5361666545524332303a206c6f772d6c6576656c2063616c6c206661696c6564815250856001600160a01b031661178d9092919063ffffffff16565b90508051600014806111ae5750808060200190518101906111ae9190613157565b610580576040517f08c379a000000000000000000000000000000000000000000000000000000000815260206004820152602a60248201527f5361666545524332303a204552433230206f7065726174696f6e20646964206e60448201527f6f74207375636365656400000000000000000000000000000000000000000000606482015260840161065f565b60008060008061124a868661179c565b909250905060008260038111156112635761126361343c565b036112fb576040805180820182526001815260ff83811660208084019182526001600160a01b038a166000908152908b9052939093209151825493517fffffffffffffffffffffffffffffffffffffffffffffffffffffffffffff00009094169015157fffffffffffffffffffffffffffffffffffffffffffffffffffffffffffff00ff161761010093909116929092029190911790555b90925090505b9250929050565b6040516001600160a01b0383166024820152604481018290526105809084907fa9059cbb0000000000000000000000000000000000000000000000000000000090606401610d12565b600080600080600061136387876118fe565b925092509250600080611376858561195c565b91509150818380156113855750815b9650965050505050509250929050565b804710156113ff576040517f08c379a000000000000000000000000000000000000000000000000000000000815260206004820152601d60248201527f416464726573733a20696e73756666696369656e742062616c616e6365000000604482015260640161065f565b6000826001600160a01b03168260405160006040518083038185875af1925050503d806000811461144c576040519150601f19603f3d011682016040523d82523d6000602084013e611451565b606091505b5050905080610580576040517f08c379a000000000000000000000000000000000000000000000000000000000815260206004820152603a60248201527f416464726573733a20756e61626c6520746f2073656e642076616c75652c207260448201527f6563697069656e74206d61792068617665207265766572746564000000000000606482015260840161065f565b60008060006114f1858561195c565b9150915080611536576040517f22c9f7bb000000000000000000000000000000000000000000000000000000008152600481018690526024810185905260440161065f565b509392505050565b3360008181523060209081526040808320815160a0810183528083018581526060808301879052608083018190529082528185015282518581529384018581528484019093529093909291905b86518110156110f1578681815181106115a6576115a66129cc565b602002602001015193506000846000015160400151511115611727576000808560000151600001516001600160a01b031663d04dfe236040518060e001604052808960000151602001516001600160a01b031681526020018a81526020018960000151604001518152602001600081526020016116278e8b60200151611a30565b8152602001888152602001878152506040518263ffffffff1660e01b81526004016116529190613519565b600060405180830381865afa15801561166f573d6000803e3d6000fd5b505050506040513d6000823e601f3d908101601f1916820160405261169791908101906135b6565b8051919350915015611724578551602001516040517f04b19db40000000000000000000000000000000000000000000000000000000081526001600160a01b03909116906304b19db4906116f1908b908590600401613672565b600060405180830381600087803b15801561170b57600080fd5b505af115801561171f573d6000803e3d6000fd5b505050505b50505b60010161158b565b600080600061173f868686611d36565b9150915080611784576040517f05e47678000000000000000000000000000000000000000000000000000000008152600481018790526024810186905260440161065f565b50949350505050565b6060610df98484600085611e8e565b6001600160a01b03811660008181526020848152604080832081518083018352905460ff80821615158352610100909104168184015281518083018352600481527f313ce56700000000000000000000000000000000000000000000000000000000938101939093529051929384939192849283929161181b9161368b565b600060405180830381855afa9150503d8060008114611856576040519150601f19603f3d011682016040523d82523d6000602084013e61185b565b606091505b509150915081158061186f57508051602014155b1561188557505060200151600392509050611301565b60008180602001905181019061189b9190613423565b905060ff8111156118b85750505060200151600392509050611301565b835181906118d0576000965094506113019350505050565b846020015160ff168160ff16146118e85760026118eb565b60015b8560200151965096505050505050611301565b6000808060ff841681037f7fffffffffffffffffffffffffffffffffffffffffffffffffffffffffffffff86111561194b57600a860460018201600a880660001493509350935050611955565b8593509150600190505b9250925092565b6000601b83900b8314806119ba577d90e40fbeea1d3a4abc8955e946fe31cdcf66f634e100000000000000000084051561199f57620186a0840593506005830192505b8384601b0b146119ba57600a8405935082600101925061199f565b828360030b14611a00576040517fd556b111000000000000000000000000000000000000000000000000000000008152600481018590526024810184905260440161065f565b7bffffffffffffffffffffffffffffffffffffffffffffffffffffffff9390931660e09290921b91909117929050565b60606000825167ffffffffffffffff811115611a4e57611a4e61249a565b604051908082528060200260200182016040528015611a77578160200160208202803683370190505b509050600080845111611a8b576000611a91565b83516001015b855160010101905060008167ffffffffffffffff811115611ab457611ab461249a565b604051908082528060200260200182016040528015611ae757816020015b6060815260200190600190039081611ad25790505b5090506000611b0c604080516002815233602082015230818301526060810190915290565b828281518110611b1e57611b1e6129cc565b602002602001018190525060005b8751811015611b7c578180600101925050878181518110611b4f57611b4f6129cc565b6020026020010151838381518110611b6957611b696129cc565b6020908102919091010152600101611b2c565b50855115611d2c57808060010191505083828281518110611b9f57611b9f6129cc565b602002602001018190525060005b8651811015611d2a57611c5e878281518110611bcb57611bcb6129cc565b602002602001015160000151611c3b611c088a8581518110611bef57611bef6129cc565b6020026020010151602001518051602090810291012090565b7f19457468657265756d205369676e6564204d6573736167653a0a3332000000006000908152601c91909152603c902090565b898481518110611c4d57611c4d6129cc565b602002602001015160400151611f9a565b611c97576040517f52bf98480000000000000000000000000000000000000000000000000000000081526004810182905260240161065f565b868181518110611ca957611ca96129cc565b6020026020010151600001516001600160a01b031660001b858281518110611cd357611cd36129cc565b6020026020010181815250508180600101925050868181518110611cf957611cf96129cc565b602002602001015160200151838381518110611d1757611d176129cc565b6020908102919091010152600101611bad565b505b5095945050505050565b6000806000851215611d7e576040517f4a7d166b000000000000000000000000000000000000000000000000000000008152600481018690526024810185905260440161065f565b84600003611d925750600090506001611e86565b8460ff8416850185811215611ddd576040517fd556b111000000000000000000000000000000000000000000000000000000008152600481018890526024810187905260440161065f565b6000806000831215611e4b577fffffffffffffffffffffffffffffffffffffffffffffffffffffffffffffffb3831215611e21576000809550955050505050611e86565b82600003600a0a9150818481611e3957611e3961369d565b0495505084029091149150611e869050565b6000831315611e7b57611e5f83600a6137b0565b9150611e6b82856137bc565b955060019450611e869350505050565b509193506001925050505b935093915050565b606082471015611f20576040517f08c379a000000000000000000000000000000000000000000000000000000000815260206004820152602660248201527f416464726573733a20696e73756666696369656e742062616c616e636520666f60448201527f722063616c6c0000000000000000000000000000000000000000000000000000606482015260840161065f565b600080866001600160a01b03168587604051611f3c919061368b565b60006040518083038185875af1925050503d8060008114611f79576040519150601f19603f3d011682016040523d82523d6000602084013e611f7e565b606091505b5091509150611f8f87838387611ffb565b979650505050505050565b6000806000611fa9858561208e565b90925090506000816004811115611fc257611fc261343c565b148015611fe05750856001600160a01b0316826001600160a01b0316145b80611ff15750611ff18686866120d0565b9695505050505050565b6060831561208457825160000361207d576001600160a01b0385163b61207d576040517f08c379a000000000000000000000000000000000000000000000000000000000815260206004820152601d60248201527f416464726573733a2063616c6c20746f206e6f6e2d636f6e7472616374000000604482015260640161065f565b5081610df9565b610df98383612202565b60008082516041036120c45760208301516040840151606085015160001a6120b887828585612246565b94509450505050611301565b50600090506002611301565b6000806000856001600160a01b0316631626ba7e60e01b86866040516024016120fa9291906137d3565b60408051601f198184030181529181526020820180517bffffffffffffffffffffffffffffffffffffffffffffffffffffffff167fffffffff00000000000000000000000000000000000000000000000000000000909416939093179092529051612165919061368b565b600060405180830381855afa9150503d80600081146121a0576040519150601f19603f3d011682016040523d82523d6000602084013e6121a5565b606091505b50915091508180156121b957506020815110155b8015611ff1575080517f1626ba7e00000000000000000000000000000000000000000000000000000000906121f79083016020908101908401613423565b149695505050505050565b8151156122125781518083602001fd5b806040517f08c379a000000000000000000000000000000000000000000000000000000000815260040161065f91906137ec565b6000807f7fffffffffffffffffffffffffffffff5d576e7357a4501ddfe92f46681b20a083111561227d5750600090506003612301565b6040805160008082526020820180845289905260ff881692820192909252606081018690526080810185905260019060a0016020604051602081039080840390855afa1580156122d1573d6000803e3d6000fd5b5050604051601f1901519150506001600160a01b0381166122fa57600060019250925050612301565b9150600090505b94509492505050565b60006020828403121561231c57600080fd5b81357fffffffff000000000000000000000000000000000000000000000000000000008116811461234c57600080fd5b9392505050565b6001600160a01b038116811461236857600080fd5b50565b60008060006060848603121561238057600080fd5b833561238b81612353565b9250602084013567ffffffffffffffff808211156123a857600080fd5b9085019060a082880312156123bc57600080fd5b909250604085013590808211156123d257600080fd5b508401604081870312156123e557600080fd5b809150509250925092565b60008060008060008060a0878903121561240957600080fd5b863561241481612353565b9550602087013561242481612353565b94506040870135935060608701359250608087013567ffffffffffffffff8082111561244f57600080fd5b818901915089601f83011261246357600080fd5b81358181111561247257600080fd5b8a602082850101111561248457600080fd5b6020830194508093505050509295509295509295565b7f4e487b7100000000000000000000000000000000000000000000000000000000600052604160045260246000fd5b6040516060810167ffffffffffffffff811182821017156124ec576124ec61249a565b60405290565b6040805190810167ffffffffffffffff811182821017156124ec576124ec61249a565b6040516080810167ffffffffffffffff811182821017156124ec576124ec61249a565b604051601f8201601f1916810167ffffffffffffffff811182821017156125615761256161249a565b604052919050565b600082601f83011261257a57600080fd5b813567ffffffffffffffff8111156125945761259461249a565b6125a76020601f19601f84011601612538565b8181528460208386010111156125bc57600080fd5b816020850160208301376000918101602001919091529392505050565b600067ffffffffffffffff8211156125f3576125f361249a565b5060051b60200190565b600082601f83011261260e57600080fd5b8135602061262361261e836125d9565b612538565b82815260059290921b8401810191818101908684111561264257600080fd5b8286015b8481101561274957803567ffffffffffffffff8082111561266657600080fd5b908801906060828b03601f1901121561267f5760008081fd5b6126876124c9565b8683013561269481612353565b8152604083810135838111156126aa5760008081fd5b8401603f81018d136126bc5760008081fd5b888101356126cc61261e826125d9565b81815260059190911b82018301908a8101908f8311156126ec5760008081fd5b928401925b8284101561270a5783358252928b0192908b01906126f1565b858c01525050506060840135838111156127245760008081fd5b6127328d8a83880101612569565b918301919091525085525050918301918301612646565b509695505050505050565b60006040823603121561276657600080fd5b61276e6124f2565b823567ffffffffffffffff8082111561278657600080fd5b81850191506060823603121561279b57600080fd5b6127a36124c9565b82356127ae81612353565b815260208301356127be81612353565b60208201526040830135828111156127d557600080fd5b6127e136828601612569565b604083015250835260208501359150808211156127fd57600080fd5b5061280a368286016125fd565b60208301525092915050565b60005b83811015612831578181015183820152602001612819565b50506000910152565b60008151808452612852816020860160208601612816565b601f01601f19169290920160200192915050565b60008151808452602080850194506020840160005b838110156128975781518752958201959082019060010161287b565b509495945050505050565b6000602080835260608451604080848701526001600160a01b03808351166060880152808584015116608088015260408301519250606060a08801526128eb60c088018461283a565b925084880151601f19808986030160408a01528482518087528887019150888160051b880101898501945060005b82811015612971578489830301845285518781511683528b8101518b8d8501526129458c850182612866565b918a0151848303858c015291905061295d818361283a565b978d0197958d019593505050600101612919565b509c9b505050505050505050505050565b6000808335601e1984360301811261299957600080fd5b83018035915067ffffffffffffffff8211156129b457600080fd5b6020019150600581901b360382131561130157600080fd5b7f4e487b7100000000000000000000000000000000000000000000000000000000600052603260045260246000fd5b600082357fffffffffffffffffffffffffffffffffffffffffffffffffffffffffffffff81833603018112612a2f57600080fd5b9190910192915050565b600082357fffffffffffffffffffffffffffffffffffffffffffffffffffffffffffffff61833603018112612a2f57600080fd5b6000808335601e19843603018112612a8457600080fd5b83018035915067ffffffffffffffff821115612a9f57600080fd5b6020019150600681901b360382131561130157600080fd5b600060208284031215612ac957600080fd5b813561234c81612353565b6000808335601e19843603018112612aeb57600080fd5b830160208101925035905067ffffffffffffffff811115612b0b57600080fd5b8060051b360382131561130157600080fd5b600082357fffffffffffffffffffffffffffffffffffffffffffffffffffffffffffffffa1833603018112612b5157600080fd5b90910192915050565b6000808335601e19843603018112612b7157600080fd5b830160208101925035905067ffffffffffffffff811115612b9157600080fd5b80360382131561130157600080fd5b818352818160208501375060006020828401015260006020601f19601f840116840101905092915050565b6000808335601e19843603018112612be257600080fd5b830160208101925035905067ffffffffffffffff811115612c0257600080fd5b8060061b360382131561130157600080fd5b8183526000602080850194508260005b85811015612897578135612c3781612353565b6001600160a01b03168752818301358388015260409687019690910190600101612c24565b818352602080840193600091600585811b830182018585805b89811015612d3757601f19878503018b52612c90838a612b1d565b60608135612c9d81612353565b6001600160a01b03168652612cb482890183612ad4565b828a8901528083890152608092507f07ffffffffffffffffffffffffffffffffffffffffffffffffffffffffffffff811115612cee578586fd5b881b808289850137870190506040612d0884820185612b5a565b94508389840301828a0152612d208484018683612ba0565b9f8b019f9850505094880194505050600101612c75565b50919998505050505050505050565b6000602080835260c083018435828501526040828601358186015260608187013581870152612d7781880188612ad4565b60a060808901528481865260e08901905060e08260051b8a010195508260005b83811015612f70577fffffffffffffffffffffffffffffffffffffffffffffffffffffffffffffff208b890301835281357fffffffffffffffffffffffffffffffffffffffffffffffffffffffffffffff81863603018112612df857600080fd5b85018035368290037fffffffffffffffffffffffffffffffffffffffffffffffffffffffffffffff61018112612e2d57600080fd5b60808a5281018035612e3e81612353565b6001600160a01b0380821660808d0152612e5a8d840184612b1d565b915060a0808d01528135612e6d81612353565b81166101208d0152818d0135612e8281612353565b166101408c0152612e95818b0182612b5a565b9150896101608d0152612ead6101808d018383612ba0565b915050612ebc8a830183612bcb565b7fffffffffffffffffffffffffffffffffffffffffffffffffffffffffffffff80808e85030160c08f0152612ef2848385612c14565b9350612f008c860186612bcb565b93509150808e85030160e08f015250612f1a838383612c14565b9250505060808201356101008c01528b8301358c8c0152898301358a8c0152612f4589840184612ad4565b935091508a8103898c0152612f5b818484612c5c565b9a505050928901925090880190600101612d97565b50505050505050612f846080860186612b5a565b9250601f198583030160a0860152611ff1828483612ba0565b60008060408385031215612fb057600080fd5b505080516020909101519092909150565b801515811461236857600080fd5b6000806040808486031215612fe357600080fd5b8335612fee81612353565b925060208481013567ffffffffffffffff8082111561300c57600080fd5b908601906080828903121561302057600080fd5b613028612515565b823561303381612353565b8152828401358281111561304657600080fd5b83019150601f8201891361305957600080fd5b813561306761261e826125d9565b8181526060918202840186019186820191908c84111561308657600080fd5b948701945b838610156130e95780868e0312156130a35760008081fd5b6130ab6124c9565b86356130b681612353565b8152868901356130c581612353565b818a0152868a01356130d681612fc1565b818b01528352948501949187019161308b565b508087850152505050604083013560408201526060830135606082015280955050505050509250929050565b7f4e487b7100000000000000000000000000000000000000000000000000000000600052601160045260246000fd5b8181038181111561023d5761023d613115565b60006020828403121561316957600080fd5b815161234c81612fc1565b60006020828403121561318657600080fd5b815160ff8116811461234c57600080fd5b600060808083016080845280875180835260a0925060a08601915060a08160051b8701016020808b016000805b8581101561328a578a85037fffffffffffffffffffffffffffffffffffffffffffffffffffffffffffffff60018752825180516001600160a01b039081168752858201518688018c905280518c8901819052908701919085908c8a01905b8083101561325e5784518051851683528a81015185168b8401526040908101511515908301529389019360019290920191606090910190613222565b50604085810151908b0152606094850151949099019390935250505095830195918301916001016131c4565b505050870189905287151560408801528681036060880152600281527f30780000000000000000000000000000000000000000000000000000000000006020820152604081019a9950505050505050505050565b600082601f8301126132ef57600080fd5b815160206132ff61261e836125d9565b8083825260208201915060208460051b87010193508684111561332157600080fd5b602086015b848110156127495780518352918301918301613326565b60008060006060848603121561335257600080fd5b835167ffffffffffffffff8082111561336a57600080fd5b613376878388016132de565b945060209150818601518181111561338d57600080fd5b8601601f8101881361339e57600080fd5b80516133ac61261e826125d9565b81815260059190911b8201840190848101908a8311156133cb57600080fd5b928501925b828410156133f25783516133e381612353565b825292850192908501906133d0565b60408a015190975094505050508082111561340c57600080fd5b50613419868287016132de565b9150509250925092565b60006020828403121561343557600080fd5b5051919050565b7f4e487b7100000000000000000000000000000000000000000000000000000000600052602160045260246000fd5b6001600160a01b038316815260408101600483106134b2577f4e487b7100000000000000000000000000000000000000000000000000000000600052602160045260246000fd5b8260208301529392505050565b60008282518085526020808601955060208260051b8401016020860160005b8481101561350c57601f198684030189526134fa838351612866565b988401989250908301906001016134de565b5090979650505050505050565b602081526001600160a01b038251166020820152602082015160408201526000604083015160e0606084015261355361010084018261283a565b9050606084015160808401526080840151601f19808584030160a086015261357b83836134bf565b925060a08601519150808584030160c08601526135988383612866565b925060c08601519150808584030160e08601525061112f8282612866565b600080604083850312156135c957600080fd5b825167ffffffffffffffff808211156135e157600080fd5b818501915085601f8301126135f557600080fd5b8151602061360561261e836125d9565b82815260059290921b8401810191818101908984111561362457600080fd5b948201945b8386101561364257855182529482019490820190613629565b9188015191965090935050508082111561365b57600080fd5b50613668858286016132de565b9150509250929050565b828152604060208201526000610df96040830184612866565b60008251612a2f818460208701612816565b7f4e487b7100000000000000000000000000000000000000000000000000000000600052601260045260246000fd5b600181815b808511156137075781600019048211156136ed576136ed613115565b808516156136fa57918102915b93841c93908002906136d1565b509250929050565b60008261371e5750600161023d565b8161372b5750600061023d565b8160018114613741576002811461374b57613767565b600191505061023d565b60ff84111561375c5761375c613115565b50506001821b61023d565b5060208310610133831016604e8410600b841016171561378a575081810a61023d565b61379483836136cc565b80600019048211156137a8576137a8613115565b029392505050565b600061234c838361370f565b808202811582820484141761023d5761023d613115565b828152604060208201526000610df9604083018461283a565b60208152600061234c602083018461283a56","linkReferences":{}},"methodIdentifiers":{"arb4(address,(bytes32,bytes32,bytes32,((address,(address,address,bytes),(address,bytes32)[],(address,bytes32)[],bytes32),uint256,uint256,(address,bytes32[],bytes)[])[],bytes),((address,address,bytes),(address,bytes32[],bytes)[]))":"4ed39461","iPermit2()":"69e5049b","iTaskHash()":"93be095e","onTakeOrders2(address,address,bytes32,bytes32,bytes)":"691f9ed7","supportsInterface(bytes4)":"01ffc9a7"},"id":344}