{"abi":[{"type":"function","name":"addOrder3","inputs":[{"name":"orderConfig","type":"tuple","internalType":"struct OrderConfigV4","components":[{"name":"evaluable","type":"tuple","internalType":"struct EvaluableV4","components":[{"name":"interpreter","type":"address","internalType":"contract IInterpreterV4"},{"name":"store","type":"address","internalType":"contract IInterpreterStoreV3"},{"name":"bytecode","type":"bytes","internalType":"bytes"}]},{"name":"validInputs","type":"tuple[]","internalType":"struct IOV2[]","components":[{"name":"token","type":"address","internalType":"address"},{"name":"vaultId","type":"bytes32","internalType":"bytes32"}]},{"name":"validOutputs","type":"tuple[]","internalType":"struct IOV2[]","components":[{"name":"token","type":"address","internalType":"address"},{"name":"vaultId","type":"bytes32","internalType":"bytes32"}]},{"name":"nonce","type":"bytes32","internalType":"bytes32"},{"name":"secret","type":"bytes32","internalType":"bytes32"},{"name":"meta","type":"bytes","internalType":"bytes"}]},{"name":"post","type":"tuple[]","internalType":"struct TaskV2[]","components":[{"name":"evaluable","type":"tuple","internalType":"struct EvaluableV4","components":[{"name":"interpreter","type":"address","internalType":"contract IInterpreterV4"},{"name":"store","type":"address","internalType":"contract IInterpreterStoreV3"},{"name":"bytecode","type":"bytes","internalType":"bytes"}]},{"name":"signedContext","type":"tuple[]","internalType":"struct SignedContextV1[]","components":[{"name":"signer","type":"address","internalType":"address"},{"name":"context","type":"bytes32[]","internalType":"bytes32[]"},{"name":"signature","type":"bytes","internalType":"bytes"}]}]}],"outputs":[{"name":"","type":"bool","internalType":"bool"}],"stateMutability":"nonpayable"},{"type":"function","name":"clear3","inputs":[{"name":"aliceOrder","type":"tuple","internalType":"struct OrderV4","components":[{"name":"owner","type":"address","internalType":"address"},{"name":"evaluable","type":"tuple","internalType":"struct EvaluableV4","components":[{"name":"interpreter","type":"address","internalType":"contract IInterpreterV4"},{"name":"store","type":"address","internalType":"contract IInterpreterStoreV3"},{"name":"bytecode","type":"bytes","internalType":"bytes"}]},{"name":"validInputs","type":"tuple[]","internalType":"struct IOV2[]","components":[{"name":"token","type":"address","internalType":"address"},{"name":"vaultId","type":"bytes32","internalType":"bytes32"}]},{"name":"validOutputs","type":"tuple[]","internalType":"struct IOV2[]","components":[{"name":"token","type":"address","internalType":"address"},{"name":"vaultId","type":"bytes32","internalType":"bytes32"}]},{"name":"nonce","type":"bytes32","internalType":"bytes32"}]},{"name":"bobOrder","type":"tuple","internalType":"struct OrderV4","components":[{"name":"owner","type":"address","internalType":"address"},{"name":"evaluable","type":"tuple","internalType":"struct EvaluableV4","components":[{"name":"interpreter","type":"address","internalType":"contract IInterpreterV4"},{"name":"store","type":"address","internalType":"contract IInterpreterStoreV3"},{"name":"bytecode","type":"bytes","internalType":"bytes"}]},{"name":"validInputs","type":"tuple[]","internalType":"struct IOV2[]","components":[{"name":"token","type":"address","internalType":"address"},{"name":"vaultId","type":"bytes32","internalType":"bytes32"}]},{"name":"validOutputs","type":"tuple[]","internalType":"struct IOV2[]","components":[{"name":"token","type":"address","internalType":"address"},{"name":"vaultId","type":"bytes32","internalType":"bytes32"}]},{"name":"nonce","type":"bytes32","internalType":"bytes32"}]},{"name":"clearConfig","type":"tuple","internalType":"struct ClearConfigV2","components":[{"name":"aliceInputIOIndex","type":"uint256","internalType":"uint256"},{"name":"aliceOutputIOIndex","type":"uint256","internalType":"uint256"},{"name":"bobInputIOIndex","type":"uint256","internalType":"uint256"},{"name":"bobOutputIOIndex","type":"uint256","internalType":"uint256"},{"name":"aliceBountyVaultId","type":"bytes32","internalType":"bytes32"},{"name":"bobBountyVaultId","type":"bytes32","internalType":"bytes32"}]},{"name":"aliceSignedContext","type":"tuple[]","internalType":"struct SignedContextV1[]","components":[{"name":"signer","type":"address","internalType":"address"},{"name":"context","type":"bytes32[]","internalType":"bytes32[]"},{"name":"signature","type":"bytes","internalType":"bytes"}]},{"name":"bobSignedContext","type":"tuple[]","internalType":"struct SignedContextV1[]","components":[{"name":"signer","type":"address","internalType":"address"},{"name":"context","type":"bytes32[]","internalType":"bytes32[]"},{"name":"signature","type":"bytes","internalType":"bytes"}]}],"outputs":[],"stateMutability":"nonpayable"},{"type":"function","name":"deposit3","inputs":[{"name":"token","type":"address","internalType":"address"},{"name":"vaultId","type":"bytes32","internalType":"bytes32"},{"name":"depositAmount","type":"bytes32","internalType":"Float"},{"name":"post","type":"tuple[]","internalType":"struct TaskV2[]","components":[{"name":"evaluable","type":"tuple","internalType":"struct EvaluableV4","components":[{"name":"interpreter","type":"address","internalType":"contract IInterpreterV4"},{"name":"store","type":"address","internalType":"contract IInterpreterStoreV3"},{"name":"bytecode","type":"bytes","internalType":"bytes"}]},{"name":"signedContext","type":"tuple[]","internalType":"struct SignedContextV1[]","components":[{"name":"signer","type":"address","internalType":"address"},{"name":"context","type":"bytes32[]","internalType":"bytes32[]"},{"name":"signature","type":"bytes","internalType":"bytes"}]}]}],"outputs":[],"stateMutability":"nonpayable"},{"type":"function","name":"entask2","inputs":[{"name":"post","type":"tuple[]","internalType":"struct TaskV2[]","components":[{"name":"evaluable","type":"tuple","internalType":"struct EvaluableV4","components":[{"name":"interpreter","type":"address","internalType":"contract IInterpreterV4"},{"name":"store","type":"address","internalType":"contract IInterpreterStoreV3"},{"name":"bytecode","type":"bytes","internalType":"bytes"}]},{"name":"signedContext","type":"tuple[]","internalType":"struct SignedContextV1[]","components":[{"name":"signer","type":"address","internalType":"address"},{"name":"context","type":"bytes32[]","internalType":"bytes32[]"},{"name":"signature","type":"bytes","internalType":"bytes"}]}]}],"outputs":[],"stateMutability":"nonpayable"},{"type":"function","name":"flashFee","inputs":[{"name":"","type":"address","internalType":"address"},{"name":"","type":"uint256","internalType":"uint256"}],"outputs":[{"name":"","type":"uint256","internalType":"uint256"}],"stateMutability":"pure"},{"type":"function","name":"flashLoan","inputs":[{"name":"receiver","type":"address","internalType":"contract IERC3156FlashBorrower"},{"name":"token","type":"address","internalType":"address"},{"name":"amount","type":"uint256","internalType":"uint256"},{"name":"data","type":"bytes","internalType":"bytes"}],"outputs":[{"name":"","type":"bool","internalType":"bool"}],"stateMutability":"nonpayable"},{"type":"function","name":"maxFlashLoan","inputs":[{"name":"token","type":"address","internalType":"address"}],"outputs":[{"name":"","type":"uint256","internalType":"uint256"}],"stateMutability":"view"},{"type":"function","name":"multicall","inputs":[{"name":"data","type":"bytes[]","internalType":"bytes[]"}],"outputs":[{"name":"results","type":"bytes[]","internalType":"bytes[]"}],"stateMutability":"nonpayable"},{"type":"function","name":"orderExists","inputs":[{"name":"orderHash","type":"bytes32","internalType":"bytes32"}],"outputs":[{"name":"","type":"bool","internalType":"bool"}],"stateMutability":"view"},{"type":"function","name":"quote2","inputs":[{"name":"quoteConfig","type":"tuple","internalType":"struct QuoteV2","components":[{"name":"order","type":"tuple","internalType":"struct OrderV4","components":[{"name":"owner","type":"address","internalType":"address"},{"name":"evaluable","type":"tuple","internalType":"struct EvaluableV4","components":[{"name":"interpreter","type":"address","internalType":"contract IInterpreterV4"},{"name":"store","type":"address","internalType":"contract IInterpreterStoreV3"},{"name":"bytecode","type":"bytes","internalType":"bytes"}]},{"name":"validInputs","type":"tuple[]","internalType":"struct IOV2[]","components":[{"name":"token","type":"address","internalType":"address"},{"name":"vaultId","type":"bytes32","internalType":"bytes32"}]},{"name":"validOutputs","type":"tuple[]","internalType":"struct IOV2[]","components":[{"name":"token","type":"address","internalType":"address"},{"name":"vaultId","type":"bytes32","internalType":"bytes32"}]},{"name":"nonce","type":"bytes32","internalType":"bytes32"}]},{"name":"inputIOIndex","type":"uint256","internalType":"uint256"},{"name":"outputIOIndex","type":"uint256","internalType":"uint256"},{"name":"signedContext","type":"tuple[]","internalType":"struct SignedContextV1[]","components":[{"name":"signer","type":"address","internalType":"address"},{"name":"context","type":"bytes32[]","internalType":"bytes32[]"},{"name":"signature","type":"bytes","internalType":"bytes"}]}]}],"outputs":[{"name":"","type":"bool","internalType":"bool"},{"name":"","type":"bytes32","internalType":"Float"},{"name":"","type":"bytes32","internalType":"Float"}],"stateMutability":"view"},{"type":"function","name":"removeOrder3","inputs":[{"name":"order","type":"tuple","internalType":"struct OrderV4","components":[{"name":"owner","type":"address","internalType":"address"},{"name":"evaluable","type":"tuple","internalType":"struct EvaluableV4","components":[{"name":"interpreter","type":"address","internalType":"contract IInterpreterV4"},{"name":"store","type":"address","internalType":"contract IInterpreterStoreV3"},{"name":"bytecode","type":"bytes","internalType":"bytes"}]},{"name":"validInputs","type":"tuple[]","internalType":"struct IOV2[]","components":[{"name":"token","type":"address","internalType":"address"},{"name":"vaultId","type":"bytes32","internalType":"bytes32"}]},{"name":"validOutputs","type":"tuple[]","internalType":"struct IOV2[]","components":[{"name":"token","type":"address","internalType":"address"},{"name":"vaultId","type":"bytes32","internalType":"bytes32"}]},{"name":"nonce","type":"bytes32","internalType":"bytes32"}]},{"name":"post","type":"tuple[]","internalType":"struct TaskV2[]","components":[{"name":"evaluable","type":"tuple","internalType":"struct EvaluableV4","components":[{"name":"interpreter","type":"address","internalType":"contract IInterpreterV4"},{"name":"store","type":"address","internalType":"contract IInterpreterStoreV3"},{"name":"bytecode","type":"bytes","internalType":"bytes"}]},{"name":"signedContext","type":"tuple[]","internalType":"struct SignedContextV1[]","components":[{"name":"signer","type":"address","internalType":"address"},{"name":"context","type":"bytes32[]","internalType":"bytes32[]"},{"name":"signature","type":"bytes","internalType":"bytes"}]}]}],"outputs":[{"name":"stateChanged","type":"bool","internalType":"bool"}],"stateMutability":"nonpayable"},{"type":"function","name":"supportsInterface","inputs":[{"name":"interfaceId","type":"bytes4","internalType":"bytes4"}],"outputs":[{"name":"","type":"bool","internalType":"bool"}],"stateMutability":"view"},{"type":"function","name":"takeOrders3","inputs":[{"name":"config","type":"tuple","internalType":"struct TakeOrdersConfigV4","components":[{"name":"minimumInput","type":"bytes32","internalType":"Float"},{"name":"maximumInput","type":"bytes32","internalType":"Float"},{"name":"maximumIORatio","type":"bytes32","internalType":"Float"},{"name":"orders","type":"tuple[]","internalType":"struct TakeOrderConfigV4[]","components":[{"name":"order","type":"tuple","internalType":"struct OrderV4","components":[{"name":"owner","type":"address","internalType":"address"},{"name":"evaluable","type":"tuple","internalType":"struct EvaluableV4","components":[{"name":"interpreter","type":"address","internalType":"contract IInterpreterV4"},{"name":"store","type":"address","internalType":"contract IInterpreterStoreV3"},{"name":"bytecode","type":"bytes","internalType":"bytes"}]},{"name":"validInputs","type":"tuple[]","internalType":"struct IOV2[]","components":[{"name":"token","type":"address","internalType":"address"},{"name":"vaultId","type":"bytes32","internalType":"bytes32"}]},{"name":"validOutputs","type":"tuple[]","internalType":"struct IOV2[]","components":[{"name":"token","type":"address","internalType":"address"},{"name":"vaultId","type":"bytes32","internalType":"bytes32"}]},{"name":"nonce","type":"bytes32","internalType":"bytes32"}]},{"name":"inputIOIndex","type":"uint256","internalType":"uint256"},{"name":"outputIOIndex","type":"uint256","internalType":"uint256"},{"name":"signedContext","type":"tuple[]","internalType":"struct SignedContextV1[]","components":[{"name":"signer","type":"address","internalType":"address"},{"name":"context","type":"bytes32[]","internalType":"bytes32[]"},{"name":"signature","type":"bytes","internalType":"bytes"}]}]},{"name":"data","type":"bytes","internalType":"bytes"}]}],"outputs":[{"name":"totalTakerInput","type":"bytes32","internalType":"Float"},{"name":"totalTakerOutput","type":"bytes32","internalType":"Float"}],"stateMutability":"nonpayable"},{"type":"function","name":"vaultBalance2","inputs":[{"name":"owner","type":"address","internalType":"address"},{"name":"token","type":"address","internalType":"address"},{"name":"vaultId","type":"bytes32","internalType":"bytes32"}],"outputs":[{"name":"","type":"bytes32","internalType":"Float"}],"stateMutability":"view"},{"type":"function","name":"withdraw3","inputs":[{"name":"token","type":"address","internalType":"address"},{"name":"vaultId","type":"bytes32","internalType":"bytes32"},{"name":"targetAmount","type":"bytes32","internalType":"Float"},{"name":"post","type":"tuple[]","internalType":"struct TaskV2[]","components":[{"name":"evaluable","type":"tuple","internalType":"struct EvaluableV4","components":[{"name":"interpreter","type":"address","internalType":"contract IInterpreterV4"},{"name":"store","type":"address","internalType":"contract IInterpreterStoreV3"},{"name":"bytecode","type":"bytes","internalType":"bytes"}]},{"name":"signedContext","type":"tuple[]","internalType":"struct SignedContextV1[]","components":[{"name":"signer","type":"address","internalType":"address"},{"name":"context","type":"bytes32[]","internalType":"bytes32[]"},{"name":"signature","type":"bytes","internalType":"bytes"}]}]}],"outputs":[],"stateMutability":"nonpayable"},{"type":"event","name":"AddOrderV3","inputs":[{"name":"sender","type":"address","indexed":false,"internalType":"address"},{"name":"orderHash","type":"bytes32","indexed":false,"internalType":"bytes32"},{"name":"order","type":"tuple","indexed":false,"internalType":"struct OrderV4","components":[{"name":"owner","type":"address","internalType":"address"},{"name":"evaluable","type":"tuple","internalType":"struct EvaluableV4","components":[{"name":"interpreter","type":"address","internalType":"contract IInterpreterV4"},{"name":"store","type":"address","internalType":"contract IInterpreterStoreV3"},{"name":"bytecode","type":"bytes","internalType":"bytes"}]},{"name":"validInputs","type":"tuple[]","internalType":"struct IOV2[]","components":[{"name":"token","type":"address","internalType":"address"},{"name":"vaultId","type":"bytes32","internalType":"bytes32"}]},{"name":"validOutputs","type":"tuple[]","internalType":"struct IOV2[]","components":[{"name":"token","type":"address","internalType":"address"},{"name":"vaultId","type":"bytes32","internalType":"bytes32"}]},{"name":"nonce","type":"bytes32","internalType":"bytes32"}]}],"anonymous":false},{"type":"event","name":"AfterClearV2","inputs":[{"name":"sender","type":"address","indexed":false,"internalType":"address"},{"name":"clearStateChange","type":"tuple","indexed":false,"internalType":"struct ClearStateChangeV2","components":[{"name":"aliceOutput","type":"bytes32","internalType":"Float"},{"name":"bobOutput","type":"bytes32","internalType":"Float"},{"name":"aliceInput","type":"bytes32","internalType":"Float"},{"name":"bobInput","type":"bytes32","internalType":"Float"}]}],"anonymous":false},{"type":"event","name":"ClearV3","inputs":[{"name":"sender","type":"address","indexed":false,"internalType":"address"},{"name":"alice","type":"tuple","indexed":false,"internalType":"struct OrderV4","components":[{"name":"owner","type":"address","internalType":"address"},{"name":"evaluable","type":"tuple","internalType":"struct EvaluableV4","components":[{"name":"interpreter","type":"address","internalType":"contract IInterpreterV4"},{"name":"store","type":"address","internalType":"contract IInterpreterStoreV3"},{"name":"bytecode","type":"bytes","internalType":"bytes"}]},{"name":"validInputs","type":"tuple[]","internalType":"struct IOV2[]","components":[{"name":"token","type":"address","internalType":"address"},{"name":"vaultId","type":"bytes32","internalType":"bytes32"}]},{"name":"validOutputs","type":"tuple[]","internalType":"struct IOV2[]","components":[{"name":"token","type":"address","internalType":"address"},{"name":"vaultId","type":"bytes32","internalType":"bytes32"}]},{"name":"nonce","type":"bytes32","internalType":"bytes32"}]},{"name":"bob","type":"tuple","indexed":false,"internalType":"struct OrderV4","components":[{"name":"owner","type":"address","internalType":"address"},{"name":"evaluable","type":"tuple","internalType":"struct EvaluableV4","components":[{"name":"interpreter","type":"address","internalType":"contract IInterpreterV4"},{"name":"store","type":"address","internalType":"contract IInterpreterStoreV3"},{"name":"bytecode","type":"bytes","internalType":"bytes"}]},{"name":"validInputs","type":"tuple[]","internalType":"struct IOV2[]","components":[{"name":"token","type":"address","internalType":"address"},{"name":"vaultId","type":"bytes32","internalType":"bytes32"}]},{"name":"validOutputs","type":"tuple[]","internalType":"struct IOV2[]","components":[{"name":"token","type":"address","internalType":"address"},{"name":"vaultId","type":"bytes32","internalType":"bytes32"}]},{"name":"nonce","type":"bytes32","internalType":"bytes32"}]},{"name":"clearConfig","type":"tuple","indexed":false,"internalType":"struct ClearConfigV2","components":[{"name":"aliceInputIOIndex","type":"uint256","internalType":"uint256"},{"name":"aliceOutputIOIndex","type":"uint256","internalType":"uint256"},{"name":"bobInputIOIndex","type":"uint256","internalType":"uint256"},{"name":"bobOutputIOIndex","type":"uint256","internalType":"uint256"},{"name":"aliceBountyVaultId","type":"bytes32","internalType":"bytes32"},{"name":"bobBountyVaultId","type":"bytes32","internalType":"bytes32"}]}],"anonymous":false},{"type":"event","name":"ContextV2","inputs":[{"name":"sender","type":"address","indexed":false,"internalType":"address"},{"name":"context","type":"bytes32[][]","indexed":false,"internalType":"bytes32[][]"}],"anonymous":false},{"type":"event","name":"DepositV2","inputs":[{"name":"sender","type":"address","indexed":false,"internalType":"address"},{"name":"token","type":"address","indexed":false,"internalType":"address"},{"name":"vaultId","type":"bytes32","indexed":false,"internalType":"bytes32"},{"name":"depositAmountUint256","type":"uint256","indexed":false,"internalType":"uint256"}],"anonymous":false},{"type":"event","name":"MetaV1_2","inputs":[{"name":"sender","type":"address","indexed":false,"internalType":"address"},{"name":"subject","type":"bytes32","indexed":false,"internalType":"bytes32"},{"name":"meta","type":"bytes","indexed":false,"internalType":"bytes"}],"anonymous":false},{"type":"event","name":"OrderExceedsMaxRatio","inputs":[{"name":"sender","type":"address","indexed":false,"internalType":"address"},{"name":"owner","type":"address","indexed":false,"internalType":"address"},{"name":"orderHash","type":"bytes32","indexed":false,"internalType":"bytes32"}],"anonymous":false},{"type":"event","name":"OrderNotFound","inputs":[{"name":"sender","type":"address","indexed":false,"internalType":"address"},{"name":"owner","type":"address","indexed":false,"internalType":"address"},{"name":"orderHash","type":"bytes32","indexed":false,"internalType":"bytes32"}],"anonymous":false},{"type":"event","name":"OrderZeroAmount","inputs":[{"name":"sender","type":"address","indexed":false,"internalType":"address"},{"name":"owner","type":"address","indexed":false,"internalType":"address"},{"name":"orderHash","type":"bytes32","indexed":false,"internalType":"bytes32"}],"anonymous":false},{"type":"event","name":"RemoveOrderV3","inputs":[{"name":"sender","type":"address","indexed":false,"internalType":"address"},{"name":"orderHash","type":"bytes32","indexed":false,"internalType":"bytes32"},{"name":"order","type":"tuple","indexed":false,"internalType":"struct OrderV4","components":[{"name":"owner","type":"address","internalType":"address"},{"name":"evaluable","type":"tuple","internalType":"struct EvaluableV4","components":[{"name":"interpreter","type":"address","internalType":"contract IInterpreterV4"},{"name":"store","type":"address","internalType":"contract IInterpreterStoreV3"},{"name":"bytecode","type":"bytes","internalType":"bytes"}]},{"name":"validInputs","type":"tuple[]","internalType":"struct IOV2[]","components":[{"name":"token","type":"address","internalType":"address"},{"name":"vaultId","type":"bytes32","internalType":"bytes32"}]},{"name":"validOutputs","type":"tuple[]","internalType":"struct IOV2[]","components":[{"name":"token","type":"address","internalType":"address"},{"name":"vaultId","type":"bytes32","internalType":"bytes32"}]},{"name":"nonce","type":"bytes32","internalType":"bytes32"}]}],"anonymous":false},{"type":"event","name":"TakeOrderV3","inputs":[{"name":"sender","type":"address","indexed":false,"internalType":"address"},{"name":"config","type":"tuple","indexed":false,"internalType":"struct TakeOrderConfigV4","components":[{"name":"order","type":"tuple","internalType":"struct OrderV4","components":[{"name":"owner","type":"address","internalType":"address"},{"name":"evaluable","type":"tuple","internalType":"struct EvaluableV4","components":[{"name":"interpreter","type":"address","internalType":"contract IInterpreterV4"},{"name":"store","type":"address","internalType":"contract IInterpreterStoreV3"},{"name":"bytecode","type":"bytes","internalType":"bytes"}]},{"name":"validInputs","type":"tuple[]","internalType":"struct IOV2[]","components":[{"name":"token","type":"address","internalType":"address"},{"name":"vaultId","type":"bytes32","internalType":"bytes32"}]},{"name":"validOutputs","type":"tuple[]","internalType":"struct IOV2[]","components":[{"name":"token","type":"address","internalType":"address"},{"name":"vaultId","type":"bytes32","internalType":"bytes32"}]},{"name":"nonce","type":"bytes32","internalType":"bytes32"}]},{"name":"inputIOIndex","type":"uint256","internalType":"uint256"},{"name":"outputIOIndex","type":"uint256","internalType":"uint256"},{"name":"signedContext","type":"tuple[]","internalType":"struct SignedContextV1[]","components":[{"name":"signer","type":"address","internalType":"address"},{"name":"context","type":"bytes32[]","internalType":"bytes32[]"},{"name":"signature","type":"bytes","internalType":"bytes"}]}]},{"name":"input","type":"bytes32","indexed":false,"internalType":"Float"},{"name":"output","type":"bytes32","indexed":false,"internalType":"Float"}],"anonymous":false},{"type":"event","name":"WithdrawV2","inputs":[{"name":"sender","type":"address","indexed":false,"internalType":"address"},{"name":"token","type":"address","indexed":false,"internalType":"address"},{"name":"vaultId","type":"bytes32","indexed":false,"internalType":"bytes32"},{"name":"targetAmount","type":"bytes32","indexed":false,"internalType":"Float"},{"name":"withdrawAmount","type":"bytes32","indexed":false,"internalType":"Float"},{"name":"withdrawAmountUint256","type":"uint256","indexed":false,"internalType":"uint256"}],"anonymous":false},{"type":"error","name":"ClearZeroAmount","inputs":[]},{"type":"error","name":"ExponentOverflow","inputs":[{"name":"signedCoefficient","type":"int256","internalType":"int256"},{"name":"exponent","type":"int256","internalType":"int256"}]},{"type":"error","name":"FlashLenderCallbackFailed","inputs":[{"name":"result","type":"bytes32","internalType":"bytes32"}]},{"type":"error","name":"InvalidSignature","inputs":[{"name":"i","type":"uint256","internalType":"uint256"}]},{"type":"error","name":"MinimumInput","inputs":[{"name":"minimumInput","type":"bytes32","internalType":"Float"},{"name":"input","type":"bytes32","internalType":"Float"}]},{"type":"error","name":"NegativeBounty","inputs":[]},{"type":"error","name":"NegativeFixedDecimalConversion","inputs":[{"name":"signedCoefficient","type":"int256","internalType":"int256"},{"name":"exponent","type":"int256","internalType":"int256"}]},{"type":"error","name":"NegativePull","inputs":[]},{"type":"error","name":"NegativePush","inputs":[]},{"type":"error","name":"NegativeVaultBalance","inputs":[{"name":"vaultBalance","type":"bytes32","internalType":"Float"}]},{"type":"error","name":"NegativeVaultBalanceChange","inputs":[{"name":"amount","type":"bytes32","internalType":"Float"}]},{"type":"error","name":"NoOrders","inputs":[]},{"type":"error","name":"NotOrderOwner","inputs":[{"name":"sender","type":"address","internalType":"address"},{"name":"owner","type":"address","internalType":"address"}]},{"type":"error","name":"NotRainMetaV1","inputs":[{"name":"unmeta","type":"bytes","internalType":"bytes"}]},{"type":"error","name":"OrderNoHandleIO","inputs":[]},{"type":"error","name":"OrderNoInputs","inputs":[]},{"type":"error","name":"OrderNoOutputs","inputs":[]},{"type":"error","name":"OrderNoSources","inputs":[]},{"type":"error","name":"SameOwner","inputs":[]},{"type":"error","name":"TokenDecimalsReadFailure","inputs":[{"name":"token","type":"address","internalType":"address"},{"name":"tofuOutcome","type":"uint8","internalType":"enum TOFUOutcome"}]},{"type":"error","name":"TokenMismatch","inputs":[]},{"type":"error","name":"TokenSelfTrade","inputs":[]},{"type":"error","name":"UnsupportedCalculateOutputs","inputs":[{"name":"outputs","type":"uint256","internalType":"uint256"}]},{"type":"error","name":"ZeroDepositAmount","inputs":[{"name":"sender","type":"address","internalType":"address"},{"name":"token","type":"address","internalType":"address"},{"name":"vaultId","type":"bytes32","internalType":"bytes32"}]},{"type":"error","name":"ZeroMaximumInput","inputs":[]},{"type":"error","name":"ZeroWithdrawTargetAmount","inputs":[{"name":"sender","type":"address","internalType":"address"},{"name":"token","type":"address","internalType":"address"},{"name":"vaultId","type":"bytes32","internalType":"bytes32"}]}],"bytecode":{"object":"0x6080604052348015600f57600080fd5b506001600055616043806100246000396000f3fe608060405234801561001057600080fd5b50600436106100f55760003560e01c8063613255ab11610097578063d0f7a86211610066578063d0f7a86214610258578063d7e442ec14610280578063d9d98ce414610293578063fa501182146102a957600080fd5b8063613255ab146101e25780637921a962146101f55780639235084d14610208578063ac9650d81461023857600080fd5b806323a455b5116100d357806323a455b51461014a5780632cb77e9f1461015d57806341d1514f146101815780635cffe9de146101cf57600080fd5b806301ffc9a7146100fa5780630cb49ba3146101225780631f69cb7514610137575b600080fd5b61010d610108366004614797565b6102bc565b60405190151581526020015b60405180910390f35b610135610130366004614843565b610355565b005b61010d6101453660046148c5565b610505565b61010d610158366004614940565b610669565b61010d61016b366004614979565b6000908152600160208190526040909120541490565b6101c161018f366004614992565b6001600160a01b0392831660009081526003602090815260408083209490951682529283528381209181529152205490565b604051908152602001610119565b61010d6101dd3660046149d3565b610962565b6101c16101f0366004614a72565b610a9a565b610135610203366004614843565b610b1e565b61021b610216366004614a8f565b610c51565b604080519315158452602084019290925290820152606001610119565b61024b610246366004614aca565b610dbf565b6040516101199190614b5c565b61026b610266366004614bde565b610ea7565b60408051928352602083019190915201610119565b61013561028e366004614aca565b61183d565b6101c16102a1366004614c13565b600092915050565b6101356102b73660046150c4565b61188c565b60007fffffffff0000000000000000000000000000000000000000000000000000000082167fe414309100000000000000000000000000000000000000000000000000000000148061034f57507f01ffc9a7000000000000000000000000000000000000000000000000000000007fffffffff000000000000000000000000000000000000000000000000000000008316145b92915050565b61035d611de4565b610368836000611e57565b6103ba576040517ee8e9340000000000000000000000000000000000000000000000000000000081523360048201526001600160a01b0386166024820152604481018590526064015b60405180910390fd5b3360009081526003602090815260408083206001600160a01b03891684528252808320878452909152812054906103f18583611ea7565b9050600080610402338a8a86611ec4565b915091506000806104138b86611fcc565b604080513381526001600160a01b038f1660208201529081018d9052606081018c90526080810188905260a0810183905291935091507f8045c25080b0868951141ed0a91720bcad09a8364a2b3109ee1fd49c1f0bc8b89060c00160405180910390a186156104ee5760408051600681526001600160a01b038d1660208201528082018c9052606081018690526080810185905260a081018b905260ff831660c082015260e081019091526104ee906104df905b60408051600181526020810192909252818101905290565b6104e9898b615186565b6120cd565b5050505050506104fe6001600055565b5050505050565b600061050f611de4565b61051c6020850185614a72565b6001600160a01b0316336001600160a01b03161461058757336105426020860186614a72565b6040517f4702b9140000000000000000000000000000000000000000000000000000000081526001600160a01b039283166004820152911660248201526044016103b1565b600061059a61059586615250565b6122c8565b6000818152600160205260409020549091507fffffffffffffffffffffffffffffffffffffffffffffffffffffffffffffffff016106575760008181526001602081905260408083209290925590519092507f09d18501db0080ca2d6cd7c17fa7255daff4b2d503ea93b76ff68b6752ea8e639061061d903390849089906153b4565b60405180910390a16040805160028152602081018390523381830152606081019091526106579061064d906104c7565b6104e98587615186565b506106626001600055565b9392505050565b6000610673611de4565b61068060208501856154b6565b90506000036106bb576040517f6c44ef8f00000000000000000000000000000000000000000000000000000000815260040160405180910390fd5b6106c860408501856154b6565b9050600003610703576040517f540e5f0b00000000000000000000000000000000000000000000000000000000815260040160405180910390fd5b6040805160a08101909152338152600090602081016107228780615500565b61072b9061553e565b815260200186806020019061074091906154b6565b808060200260200160405190810160405280939291908181526020016000905b8282101561078c5761077d6040830286013681900381019061554a565b81526020019060010190610760565b50505091835250506020016107a460408801886154b6565b808060200260200160405190810160405280939291908181526020016000905b828210156107f0576107e16040830286013681900381019061554a565b815260200190600101906107c4565b5050505050815260200186606001358152509050600061080f826122c8565b6000818152600160205260409020549091501580156109545760008281526001602081905260409182902055835190517f87491344dfbcf91f6cbbc610cbbeedc85313d37a02df0c93527f7ea5f8db717f9161086e9185908790615643565b60405180910390a1600061088560a089018961566b565b90501115610922576108d761089d60a089018961566b565b8080601f0160208091040260200160405190810160405280939291908181526020018383808284376000920191909152506122f892505050565b82517fd46c2c56b35c8210e9e712ec3f02242d5fc90187c0ac8ed80cc33626846ec369908361090960a08b018b61566b565b60405161091994939291906156b2565b60405180910390a15b6040805160028152602081018490523381830152606081019091526109549061094a906104c7565b6104e98789615186565b925050506106626001600055565b60006109786001600160a01b038616878661233c565b6040517f23e30c8b0000000000000000000000000000000000000000000000000000000081526000906001600160a01b038816906323e30c8b906109ca9033908a908a9087908b908b906004016156db565b6020604051808303816000875af11580156109e9573d6000803e3d6000fd5b505050506040513d601f19601f82011682018060405250810190610a0d9190615720565b90507f439148f0bbc682ca079e46d6e2c2f0c1e3b820f1a291b069d8882abf8cf18dd98114610a6b576040517f5b62c548000000000000000000000000000000000000000000000000000000008152600481018290526024016103b1565b610a8d8730610a7b600089615768565b6001600160a01b038a169291906123ea565b5060019695505050505050565b6040517f70a082310000000000000000000000000000000000000000000000000000000081523060048201526000906001600160a01b038316906370a0823190602401602060405180830381865afa158015610afa573d6000803e3d6000fd5b505050506040513d601f19601f8201168201806040525081019061034f9190615720565b610b26611de4565b610b31836000611e57565b610b7f576040517f6dde9c300000000000000000000000000000000000000000000000000000000081523360048201526001600160a01b0386166024820152604481018590526064016103b1565b600080610b8c8786612441565b604080513381526001600160a01b038b1660208201529081018990526060810183905291935091507f7f9dfa19cf1cc2f806f2f860fbc9c056b601fb1afc0e9b843dfe5c63616268e69060800160405180910390a1600080610bf0338a8a8a612545565b90925090508415610c435760408051600581526001600160a01b038b1660208201528082018a9052606081018490526080810183905260ff851660a082015260c08101909152610c439061094a906104c7565b505050506104fe6001600055565b6000808080610c6c610c63868061577b565b61059590615250565b60008181526001602081905260409091205491925014610c96575060009250829150819050610db8565b610ca0858061577b565b610cae9060608101906154b6565b8660400135818110610cc257610cc26157af565b610cd89260206040909202019081019150614a72565b6001600160a01b0316610ceb868061577b565b610cf99060408101906154b6565b8760200135818110610d0d57610d0d6157af565b610d239260206040909202019081019150614a72565b6001600160a01b031603610d63576040517f734bc71c00000000000000000000000000000000000000000000000000000000815260040160405180910390fd5b6000610da1610d72878061577b565b610d7b90615250565b6020880135604089013533610d9360608c018c6157de565b610d9c91615828565b6125c7565b905060018160400151826060015194509450945050505b9193909250565b6040805160008152602081019091526060908267ffffffffffffffff811115610dea57610dea614c3f565b604051908082528060200260200182016040528015610e1d57816020015b6060815260200190600190039081610e085790505b50915060005b83811015610e9f57610e7a30868684818110610e4157610e416157af565b9050602002810190610e53919061566b565b85604051602001610e6693929190615835565b604051602081830303815290604052612cca565b838281518110610e8c57610e8c6157af565b6020908102919091010152600101610e23565b505092915050565b600080610eb2611de4565b610ebf60608401846157de565b9050600003610efa576040517f9c95219f00000000000000000000000000000000000000000000000000000000815260040160405180910390fd5b610f026146b5565b610f0a6146e3565b60606000610f1a878301886157de565b6040805160206001939093018302810190915293508801359150610f419050816000611e57565b610f77576040517fc2ee700900000000000000000000000000000000000000000000000000000000815260040160405180910390fd5b60005b610f8760608901896157de565b905081108015610f9d5750610f9d826000611e57565b1561148a57610faf60608901896157de565b82818110610fbf57610fbf6157af565b9050602002810190610fd1919061585c565b610fda90615890565b80519095509350610fee60608901896157de565b6000818110610fff57610fff6157af565b9050602002810190611011919061585c565b61101b908061577b565b6110299060408101906154b6565b61103660608b018b6157de565b6000818110611047576110476157af565b9050602002810190611059919061585c565b6020013581811061106c5761106c6157af565b6110829260206040909202019081019150614a72565b6001600160a01b031684604001518660200151815181106110a5576110a56157af565b6020026020010151600001516001600160a01b031614158061119e57506110cf60608901896157de565b60008181106110e0576110e06157af565b90506020028101906110f2919061585c565b6110fc908061577b565b61110a9060608101906154b6565b61111760608b018b6157de565b6000818110611128576111286157af565b905060200281019061113a919061585c565b6040013581811061114d5761114d6157af565b6111639260206040909202019081019150614a72565b6001600160a01b03168460600151866040015181518110611186576111866157af565b6020026020010151600001516001600160a01b031614155b156111d5576040517f936bb5ad00000000000000000000000000000000000000000000000000000000815260040160405180910390fd5b83606001518560400151815181106111ef576111ef6157af565b6020026020010151600001516001600160a01b0316846040015186602001518151811061121e5761121e6157af565b6020026020010151600001516001600160a01b03160361126a576040517f734bc71c00000000000000000000000000000000000000000000000000000000815260040160405180910390fd5b6000611275856122c8565b6000818152600160205260409020549091506112db578451604080513381526001600160a01b03909216602083015281018290527fb70c12fa453793fa6818ec07c91e74363a47aa6a6829dcd9533937fdf30314f39060600160405180910390a1611481565b60006112f68688602001518960400151338b606001516125c7565b606081015190915061130c9060408c0135611e57565b15611362578551604080513381526001600160a01b03909216602083015281018390527fe3151dc8cb7a54ffc4baabd28c1f241c94d510b5e5b502491ac3cad6c16316d5906060015b60405180910390a161147f565b60408101517bffffffffffffffffffffffffffffffffffffffffffffffffffffffff166113d1578551604080513381526001600160a01b03909216602083015281018390527f500b713857325f9e6dcb52ae832eca9109d107ed1aae9cb4928b4c1e13f051aa90606001611355565b60408101516000906113e39086611ea7565b905060006113fe828460600151612cef90919063ffffffff16565b905061140a8683612d56565b95506114168a82612d9c565b99506114228b83612d9c565b9a5061142f818385612de2565b7f194f1feb3b4d7076a2c272e774e792e0c48bb8c7aa1a9a3671c1cd6da9e6b4c1338a8484604051611464949392919061595b565b60405180910390a15050845160010180865260200285018190525b505b50600101610f7a565b506114989050858735612fb2565b156114d9576040517fe609bc4900000000000000000000000000000000000000000000000000000000815286356004820152602481018690526044016103b1565b6115836114e960608801886157de565b60008181106114fa576114fa6157af565b905060200281019061150c919061585c565b611516908061577b565b6115249060608101906154b6565b61153160608a018a6157de565b6000818110611542576115426157af565b9050602002810190611554919061585c565b60400135818110611567576115676157af565b61157d9260206040909202019081019150614a72565b86611fcc565b5060009050611595608088018861566b565b90501115611748573363691f9ed76115b060608901896157de565b60008181106115c1576115c16157af565b90506020028101906115d3919061585c565b6115dd908061577b565b6115eb9060608101906154b6565b6115f860608b018b6157de565b6000818110611609576116096157af565b905060200281019061161b919061585c565b6040013581811061162e5761162e6157af565b6116449260206040909202019081019150614a72565b61165160608a018a6157de565b6000818110611662576116626157af565b9050602002810190611674919061585c565b61167e908061577b565b61168c9060408101906154b6565b61169960608c018c6157de565b60008181106116aa576116aa6157af565b90506020028101906116bc919061585c565b602001358181106116cf576116cf6157af565b6116e59260206040909202019081019150614a72565b88886116f460808d018d61566b565b6040518763ffffffff1660e01b8152600401611715969594939291906156db565b600060405180830381600087803b15801561172f57600080fd5b505af1158015611743573d6000803e3d6000fd5b505050505b6117f261175860608801886157de565b6000818110611769576117696157af565b905060200281019061177b919061585c565b611785908061577b565b6117939060408101906154b6565b6117a060608a018a6157de565b60008181106117b1576117b16157af565b90506020028101906117c3919061585c565b602001358181106117d6576117d66157af565b6117ec9260206040909202019081019150614a72565b85612441565b505060005b815181101561182a57611822828281518110611815576118156157af565b6020026020010151613002565b6001016117f7565b505050506118386001600055565b915091565b611845611de4565b6040805160008082526020820190925261187e91611873565b606081526020019060019003908161185e5790505b506104e98385615186565b6118886001600055565b5050565b611894611de4565b835185516001600160a01b039182169116036118dc576040517f2a63c7cc00000000000000000000000000000000000000000000000000000000815260040160405180910390fd5b83604001518360400135815181106118f6576118f66157af565b6020026020010151600001516001600160a01b03168560600151846020013581518110611925576119256157af565b6020026020010151600001516001600160a01b03161415806119a1575060408501518051843590811061195a5761195a6157af565b6020026020010151600001516001600160a01b03168460600151846060013581518110611989576119896157af565b6020026020010151600001516001600160a01b031614155b156119d8576040517f936bb5ad00000000000000000000000000000000000000000000000000000000815260040160405180910390fd5b84606001518360200135815181106119f2576119f26157af565b6020026020010151600001516001600160a01b03168560400151846000013581518110611a2157611a216157af565b6020026020010151600001516001600160a01b031603611a6d576040517f734bc71c00000000000000000000000000000000000000000000000000000000815260040160405180910390fd5b600060016000611a7c886122c8565b81526020019081526020016000205403611aee577fb70c12fa453793fa6818ec07c91e74363a47aa6a6829dcd9533937fdf30314f3338660000151611ac0886122c8565b604080516001600160a01b0394851681529390921660208401529082015260600160405180910390a1611dda565b600060016000611afd876122c8565b81526020019081526020016000205403611b41577fb70c12fa453793fa6818ec07c91e74363a47aa6a6829dcd9533937fdf30314f3338560000151611ac0876122c8565b7f6fa7f4c28634b0a9d6831401c45ae468195fb63aed07308935c35374ff5d9e3933868686604051611b769493929190615a65565b60405180910390a16000611b9986856000013586602001358860000151866125c7565b90506000611bb686866040013587606001358a60000151886125c7565b90506000611bc4838361328f565b9050611bd98160400151826000015185612de2565b611bec8160600151826020015184612de2565b60608101518151600091611c009190612d56565b90506000611c1f83604001518460200151612d5690919063ffffffff16565b9050611c2c826000612fb2565b80611c3d5750611c3d816000612fb2565b15611c74576040517f0d86822100000000000000000000000000000000000000000000000000000000815260040160405180910390fd5b611ca9338b606001518a6020013581518110611c9257611c926157af565b6020026020010151600001518a6080013585612545565b5050611ce0338a606001518a6060013581518110611cc957611cc96157af565b6020026020010151600001518a60a0013584612545565b5050604080513381528451602080830191909152850151818301529084015160608083019190915284015160808201527fd9fa84dd790c969daa5c33d8050dc06b4a9b59d5b42e2be5f5e8ae20447f618d925060a001905060405180910390a1611d4983613002565b611d5282613002565b80517bffffffffffffffffffffffffffffffffffffffffffffffffffffffff16158015611d9f575060208101517bffffffffffffffffffffffffffffffffffffffffffffffffffffffff16155b15611dd6576040517f21badf1f00000000000000000000000000000000000000000000000000000000815260040160405180910390fd5b5050505b6104fe6001600055565b600260005403611e50576040517f08c379a000000000000000000000000000000000000000000000000000000000815260206004820152601f60248201527f5265656e7472616e637947756172643a207265656e7472616e742063616c6c0060448201526064016103b1565b6002600055565b60007bffffffffffffffffffffffffffffffffffffffffffffffffffffffff838116601b90810b9160e086811d9291861690910b9085901d611e9b848484846132de565b12979650505050505050565b6000611eb38383612fb2565b611ebd5781610662565b5090919050565b600080611ed18382612fb2565b15611f0b576040517f793a8f55000000000000000000000000000000000000000000000000000000008152600481018490526024016103b1565b6001600160a01b038087166000908152600360209081526040808320938916835292815282822087835290529081205490611f468286612d56565b9050611f53816000612fb2565b15611f8d576040517fc5e12af5000000000000000000000000000000000000000000000000000000008152600481018290526024016103b1565b6001600160a01b038089166000908152600360209081526040808320938b16835292815282822089835290522081905590925090505b94509492505050565b600080600080611fdd6002876133b9565b90925090506001826003811115611ff657611ff6615ae2565b141580156120165750600082600381111561201357612013615ae2565b14155b156120515785826040517fee07877f0000000000000000000000000000000000000000000000000000000081526004016103b1929190615b11565b61205c856000612fb2565b15612093576040517f5a2ce34600000000000000000000000000000000000000000000000000000000815260040160405180910390fd5b6000806120a08784613485565b909250905081156120bf576120bf6001600160a01b038916338461233c565b5093509150505b9250929050565b3360008181523060209081526040808320815160a0810183528083018581526060808301879052608083018190529082528185015282518581529384018581528484019093529093909291905b86518110156122be57868181518110612135576121356157af565b6020026020010151935060008460000151604001515111156122b6576000808560000151600001516001600160a01b031663d04dfe236040518060e001604052808960000151602001516001600160a01b031681526020018a81526020018960000151604001518152602001600081526020016121b68e8b602001516134c7565b8152602001888152602001878152506040518263ffffffff1660e01b81526004016121e19190615bbf565b600060405180830381865afa1580156121fe573d6000803e3d6000fd5b505050506040513d6000823e601f3d908101601f191682016040526122269190810190615cbb565b80519193509150156122b3578551602001516040517f04b19db40000000000000000000000000000000000000000000000000000000081526001600160a01b03909116906304b19db490612280908b908590600401615d77565b600060405180830381600087803b15801561229a57600080fd5b505af11580156122ae573d6000803e3d6000fd5b505050505b50505b60010161211a565b5050505050505050565b6000816040516020016122db9190615d90565b604051602081830303815290604052805190602001209050919050565b612301816137cd565b61233957806040517f644cc2580000000000000000000000000000000000000000000000000000000081526004016103b19190615da3565b50565b6040516001600160a01b0383166024820152604481018290526123e59084907fa9059cbb00000000000000000000000000000000000000000000000000000000906064015b60408051601f198184030181529190526020810180517bffffffffffffffffffffffffffffffffffffffffffffffffffffffff167fffffffff00000000000000000000000000000000000000000000000000000000909316929092179091526137fd565b505050565b6040516001600160a01b038085166024830152831660448201526064810182905261243b9085907f23b872dd0000000000000000000000000000000000000000000000000000000090608401612381565b50505050565b6000806000806124526002876133b9565b9092509050600182600381111561246b5761246b615ae2565b1415801561248b5750600082600381111561248857612488615ae2565b14155b156124c65785826040517fee07877f0000000000000000000000000000000000000000000000000000000081526004016103b1929190615b11565b6124d1856000612fb2565b15612508576040517fbabbeb0c00000000000000000000000000000000000000000000000000000000815260040160405180910390fd5b6000806125158784613485565b915091508061252a5761252782615db6565b91505b81156120bf576120bf6001600160a01b0389163330856123ea565b6000806125528382612fb2565b1561258c576040517f793a8f55000000000000000000000000000000000000000000000000000000008152600481018490526024016103b1565b6001600160a01b038087166000908152600360209081526040808320938916835292815282822087835290529081205490611f468286612d9c565b6125cf61474e565b60006125da876122c8565b60408051600480825260a08201909252919250606091600091816020015b60608152602001906001900390816125f85790505089516040805160038152602081018790526001600160a01b03928316818301529189166060830152608082019052909150816001800381518110612653576126536157af565b602002602001018190525060008061268d60028c604001518c8151811061267c5761267c6157af565b6020026020010151600001516138ff565b909250905060018260038111156126a6576126a6615ae2565b141580156126c6575060008260038111156126c3576126c3615ae2565b14155b15612722578a604001518a815181106126e1576126e16157af565b602002602001015160000151826040517fee07877f0000000000000000000000000000000000000000000000000000000081526004016103b1929190615b11565b8a516001600160a01b0316600090815260036020526040808220908d015180518391908e908110612755576127556157af565b6020026020010151600001516001600160a01b03166001600160a01b0316815260200190815260200160002060008d604001518d81518110612799576127996157af565b60200260200101516020015181526020019081526020016000205490506128478c604001518c815181106127cf576127cf6157af565b6020026020010151600001516001600160a01b031660001b8360ff1660001b8e604001518e81518110612804576128046157af565b602002602001015160200151846000801b60408051600581526020810196909652858101949094526060850192909252608084015260a083015260c08201905290565b8460016003038151811061285d5761285d6157af565b602002602001018190525050505060008061288960028c606001518b8151811061267c5761267c6157af565b909250905060018260038111156128a2576128a2615ae2565b141580156128c2575060008260038111156128bf576128bf615ae2565b14155b156128dd578a6060015189815181106126e1576126e16157af565b8a516001600160a01b0316600090815260036020526040812060608d015180518391908d908110612910576129106157af565b6020026020010151600001516001600160a01b03166001600160a01b0316815260200190815260200160002060008d606001518c81518110612954576129546157af565b60200260200101516020015181526020019081526020016000205490506129bf8c606001518b8151811061298a5761298a6157af565b6020026020010151600001516001600160a01b031660001b8360ff1660001b8e606001518d81518110612804576128046157af565b846001600403815181106129d5576129d56157af565b60200260200101819052505050506129ed81866134c7565b915050600088600001516001600160a01b031690506000808a60200151600001516001600160a01b031663d04dfe236040518060e001604052808e60200151602001516001600160a01b03168152602001612a52873060009182526020526040902090565b81526020018e6020015160400151815260200160008152602001878152602001600067ffffffffffffffff811115612a8c57612a8c614c3f565b604051908082528060200260200182016040528015612ab5578160200160208202803683370190505b5081526020016000604051908082528060200260200182016040528015612ae6578160200160208202803683370190505b508152506040518263ffffffff1660e01b8152600401612b069190615bbf565b600060405180830381865afa158015612b23573d6000803e3d6000fd5b505050506040513d6000823e601f3d908101601f19168201604052612b4b9190810190615cbb565b91509150600282511015612b905781516040517f3eee39540000000000000000000000000000000000000000000000000000000081526004016103b191815260200190565b6020828101516040808501518e516001600160a01b03166000908152600390945290832060608f01518051939492938391908f908110612bd257612bd26157af565b6020026020010151600001516001600160a01b03166001600160a01b0316815260200190815260200160002060008f606001518e81518110612c1657612c166157af565b6020026020010151602001518152602001908152602001600020549050612c468183611ea790919063ffffffff16565b60408051600281526020810183905280820186905260608101909152909250905086600281518110612c7a57612c7a6157af565b60200260200101819052506040518060e001604052808e81526020018c81526020018281526020018381526020018781526020018681526020018481525097505050505050505095945050505050565b6060610662838360405180606001604052806027815260200161601c60279139613a61565b60007bffffffffffffffffffffffffffffffffffffffffffffffffffffffff838116601b90810b9160e086811d9291861690910b9085901d8480612d3586868686613ad9565b91509150600080612d468484613b4d565b509b9a5050505050505050505050565b60007bffffffffffffffffffffffffffffffffffffffffffffffffffffffff838116601b90810b9160e086811d9291861690910b9085901d8480612d3586868686613c21565b60007bffffffffffffffffffffffffffffffffffffffffffffffffffffffff838116601b90810b9160e086811d9291861690910b9085901d8480612d3586868686613c4c565b828160800151600381518110612dfa57612dfa6157af565b6020026020010151600481518110612e1457612e146157af565b602002602001018181525050818160800151600481518110612e3857612e386157af565b6020026020010151600481518110612e5257612e526157af565b602002602001018181525050612ee58160000151600001518260800151600381518110612e8157612e816157af565b6020026020010151600081518110612e9b57612e9b6157af565b602002602001015160001c8360800151600381518110612ebd57612ebd6157af565b6020026020010151600281518110612ed757612ed76157af565b602002602001015186612545565b5050612f6e8160000151600001518260800151600481518110612f0a57612f0a6157af565b6020026020010151600081518110612f2457612f246157af565b602002602001015160001c8360800151600481518110612f4657612f466157af565b6020026020010151600281518110612f6057612f606157af565b602002602001015185611ec4565b50507f4cb6e22a3e7e651d7cf0376cff48f20f5007a54147777865be7f5f6c38c50f4a338260800151604051612fa5929190615dee565b60405180910390a1505050565b60007bffffffffffffffffffffffffffffffffffffffffffffffffffffffff838116601b90810b9160e086811d9291861690910b9085901d612ff6848484846132de565b13979650505050505050565b60c0810151511561309a578051602090810151015160a082015160c08301516040517f04b19db40000000000000000000000000000000000000000000000000000000081526001600160a01b03909316926304b19db492613067929091600401615d77565b600060405180830381600087803b15801561308157600080fd5b505af1158015613095573d6000803e3d6000fd5b505050505b600080826000015160200151600001516001600160a01b031663d04dfe236040518060e00160405280866000015160200151602001516001600160a01b031681526020016130f68760a001513060009182526020526040902090565b81526020018660000151602001516040015181526020016001815260200186608001518152602001600067ffffffffffffffff81111561313857613138614c3f565b604051908082528060200260200182016040528015613161578160200160208202803683370190505b5081526020016000604051908082528060200260200182016040528015613192578160200160208202803683370190505b508152506040518263ffffffff1660e01b81526004016131b29190615bbf565b600060405180830381865afa1580156131cf573d6000803e3d6000fd5b505050506040513d6000823e601f3d908101601f191682016040526131f79190810190615cbb565b80519193509150156123e5578251602090810151015160a08401516040517f04b19db40000000000000000000000000000000000000000000000000000000081526001600160a01b03909216916304b19db491613258918590600401615d77565b600060405180830381600087803b15801561327257600080fd5b505af1158015613286573d6000803e3d6000fd5b50505050505050565b6040805160808101825260008082526020820181905291810182905260608101919091526132bd8383613ce2565b825260408201526132ce8284613ce2565b6020830152606082015292915050565b600080851584151781871282861218178584141780156133045786859250925050611fc3565b50600085841315613319575092949193919260015b83860360008112604c821317801561334f5782156133405760008994509450505050611fc3565b88600094509450505050611fc3565b600a82900a8981028a82828161336757613367615e10565b05146133955784156133845760008b965096505050505050611fc3565b8a6000965096505050505050611fc3565b84156133aa578896509450611fc39350505050565b9550879450611fc39350505050565b6000806000806133c986866138ff565b909250905060008260038111156133e2576133e2615ae2565b0361347a576040805180820182526001815260ff83811660208084019182526001600160a01b038a166000908152908b9052939093209151825493517fffffffffffffffffffffffffffffffffffffffffffffffffffffffffffff00009094169015157fffffffffffffffffffffffffffffffffffffffffffffffffffffffffffff00ff161761010093909116929092029190911790555b909590945092505050565b6000807bffffffffffffffffffffffffffffffffffffffffffffffffffffffff8416601b0b60e085901d6134ba828287613d4c565b9350935050509250929050565b60606000825167ffffffffffffffff8111156134e5576134e5614c3f565b60405190808252806020026020018201604052801561350e578160200160208202803683370190505b509050600080845111613522576000613528565b83516001015b855160010101905060008167ffffffffffffffff81111561354b5761354b614c3f565b60405190808252806020026020018201604052801561357e57816020015b60608152602001906001900390816135695790505b50905060006135a3604080516002815233602082015230818301526060810190915290565b8282815181106135b5576135b56157af565b602002602001018190525060005b87518110156136135781806001019250508781815181106135e6576135e66157af565b6020026020010151838381518110613600576136006157af565b60209081029190910101526001016135c3565b508551156137c357808060010191505083828281518110613636576136366157af565b602002602001018190525060005b86518110156137c1576136f5878281518110613662576136626157af565b6020026020010151600001516136d261369f8a8581518110613686576136866157af565b6020026020010151602001518051602090810291012090565b7f19457468657265756d205369676e6564204d6573736167653a0a3332000000006000908152601c91909152603c902090565b8984815181106136e4576136e46157af565b602002602001015160400151613ea4565b61372e576040517f52bf9848000000000000000000000000000000000000000000000000000000008152600481018290526024016103b1565b868181518110613740576137406157af565b6020026020010151600001516001600160a01b031660001b85828151811061376a5761376a6157af565b6020026020010181815250508180600101925050868181518110613790576137906157af565b6020026020010151602001518383815181106137ae576137ae6157af565b6020908102919091010152600101613644565b505b5095945050505050565b60006008825110156137e157506000919050565b506008015167ffffffffffffffff1667ff0a89c674ee78741490565b6000613852826040518060400160405280602081526020017f5361666545524332303a206c6f772d6c6576656c2063616c6c206661696c6564815250856001600160a01b0316613efb9092919063ffffffff16565b90508051600014806138735750808060200190518101906138739190615e3f565b6123e5576040517f08c379a000000000000000000000000000000000000000000000000000000000815260206004820152602a60248201527f5361666545524332303a204552433230206f7065726174696f6e20646964206e60448201527f6f7420737563636565640000000000000000000000000000000000000000000060648201526084016103b1565b6001600160a01b03811660008181526020848152604080832081518083018352905460ff80821615158352610100909104168184015281518083018352600481527f313ce56700000000000000000000000000000000000000000000000000000000938101939093529051929384939192849283929161397e91615e61565b600060405180830381855afa9150503d80600081146139b9576040519150601f19603f3d011682016040523d82523d6000602084013e6139be565b606091505b50915091508115806139d257508051602014155b156139e8575050602001516003925090506120c6565b6000818060200190518101906139fe9190615720565b905060ff811115613a1b57505050602001516003925090506120c6565b83518190613a33576000965094506120c69350505050565b846020015160ff168160ff1614613a4b576002613a4e565b60015b85602001519650965050505050506120c6565b6060600080856001600160a01b031685604051613a7e9190615e61565b600060405180830381855af49150503d8060008114613ab9576040519150601f19603f3d011682016040523d82523d6000602084013e613abe565b606091505b5091509150613acf86838387613f12565b9695505050505050565b600080858402808203613af3576000809250925050611fc3565b858401878205861415878203861415178015613b3f57613b138989613fa5565b9099509750613b228787613fa5565b9097509550613b3389898989613ad9565b94509450505050611fc3565b509097909650945050505050565b6000601b83900b831480613bab577d90e40fbeea1d3a4abc8955e946fe31cdcf66f634e1000000000000000000840515613b9057620186a0840593506005830192505b8384601b0b14613bab57600a84059350826001019250613b90565b828360030b14613bf1576040517fd556b11100000000000000000000000000000000000000000000000000000000815260048101859052602481018490526044016103b1565b7bffffffffffffffffffffffffffffffffffffffffffffffffffffffff9390931660e09290921b91909117929050565b600080613c2e84846141cf565b9094509250613c3f86868686613c4c565b9150915094509492505050565b60008085158415178015613c7a5786600003613c6e5784849250925050611fc3565b86869250925050611fc3565b613c848787613fa5565b9097509550613c938585613fa5565b909550935085841315613ca7579395929492935b60008487036025811115613cc357888894509450505050611fc3565b600a0a9050613cd28189615e73565b9095019793965092945050505050565b600080613d0084606001518560400151612cef90919063ffffffff16565b915083604001519050613d20836040015183611e5790919063ffffffff16565b156120c65782604001519150613d4384606001518361427490919063ffffffff16565b90509250929050565b6000806000851215613d94576040517f4a7d166b00000000000000000000000000000000000000000000000000000000815260048101869052602481018590526044016103b1565b84600003613da85750600090506001613e9c565b8460ff8416850185811215613df3576040517fd556b11100000000000000000000000000000000000000000000000000000000815260048101889052602481018790526044016103b1565b6000806000831215613e61577fffffffffffffffffffffffffffffffffffffffffffffffffffffffffffffffb3831215613e37576000809550955050505050613e9c565b82600003600a0a9150818481613e4f57613e4f615e10565b0495505084029091149150613e9c9050565b6000831315613e9157613e7583600a615fdf565b9150613e818285615feb565b955060019450613e9c9350505050565b509193506001925050505b935093915050565b6000806000613eb385856142ba565b90925090506000816004811115613ecc57613ecc615ae2565b148015613eea5750856001600160a01b0316826001600160a01b0316145b80613acf5750613acf8686866142fc565b6060613f0a848460008561442e565b949350505050565b60608315613f9b578251600003613f94576001600160a01b0385163b613f94576040517f08c379a000000000000000000000000000000000000000000000000000000000815260206004820152601d60248201527f416464726573733a2063616c6c20746f206e6f6e2d636f6e747261637400000060448201526064016103b1565b5081613f0a565b613f0a838361453a565b60008082158415166f0785ee10d5da46d900f436a000000000850515156f4b3b4ca85a86c47a098a224000000000860515161715613fe75750829050816120c6565b83600003613ffa575060009050806120c6565b7f400000000000000000000000000000000000000000000000000000000000000083051561405e576040517fd556b11100000000000000000000000000000000000000000000000000000000815260048101859052602481018490526044016103b1565b6f4b3b4ca85a86c47a098a22400000000084051561412a577704140c78940f6a24fdffc78873d4490d21000000000000008405156140aa57678ac7230489e80000840593506013830192505b7301c06a5ec5433c60ddaa16406f5a4000000000008405156140d657633b9aca00840593506009830192505b7002f050fe938943acc45f65568000000000840515614100576064840593506002830192506140d6565b6f4b3b4ca85a86c47a098a22400000000084051561412557600a840593506001830192505b6141c7565b670de0b6b3a7640000840560000361415057678ac7230489e80000840293506013830392505b6b204fce5e3e25026110000000840560000361417657633b9aca00840293506009830392505b6ec097ce7bc90715b34b9f100000000084056000036141a057606484029350600283039250614176565b6f0785ee10d5da46d900f436a00000000084056000036141c757600a840293506001830392505b509192909150565b6000807f80000000000000000000000000000000000000000000000000000000000000008403614269577f7fffffffffffffffffffffffffffffffffffffffffffffffffffffffffffffff830361425c576040517fd556b11100000000000000000000000000000000000000000000000000000000815260048101859052602481018490526044016103b1565b600a840593508260010192505b505060009190910391565b60007bffffffffffffffffffffffffffffffffffffffffffffffffffffffff838116601b90810b9160e086811d9291861690910b9085901d8480612d358686868661457e565b60008082516041036142f05760208301516040840151606085015160001a6142e4878285856145f4565b945094505050506120c6565b506000905060026120c6565b6000806000856001600160a01b0316631626ba7e60e01b8686604051602401614326929190616002565b60408051601f198184030181529181526020820180517bffffffffffffffffffffffffffffffffffffffffffffffffffffffff167fffffffff000000000000000000000000000000000000000000000000000000009094169390931790925290516143919190615e61565b600060405180830381855afa9150503d80600081146143cc576040519150601f19603f3d011682016040523d82523d6000602084013e6143d1565b606091505b50915091508180156143e557506020815110155b8015613acf575080517f1626ba7e00000000000000000000000000000000000000000000000000000000906144239083016020908101908401615720565b149695505050505050565b6060824710156144c0576040517f08c379a000000000000000000000000000000000000000000000000000000000815260206004820152602660248201527f416464726573733a20696e73756666696369656e742062616c616e636520666f60448201527f722063616c6c000000000000000000000000000000000000000000000000000060648201526084016103b1565b600080866001600160a01b031685876040516144dc9190615e61565b60006040518083038185875af1925050503d8060008114614519576040519150601f19603f3d011682016040523d82523d6000602084013e61451e565b606091505b509150915061452f87838387613f12565b979650505050505050565b81511561454a5781518083602001fd5b806040517f08c379a00000000000000000000000000000000000000000000000000000000081526004016103b19190615da3565b60008061458b8686613fa5565b909650945061459a8484613fa5565b90945092506000846f4b3b4ca85a86c47a098a2240000000008802816145c2576145c2615e10565b0597939095037fffffffffffffffffffffffffffffffffffffffffffffffffffffffffffffffda019550919350505050565b6000807f7fffffffffffffffffffffffffffffff5d576e7357a4501ddfe92f46681b20a083111561462b5750600090506003611fc3565b6040805160008082526020820180845289905260ff881692820192909252606081018690526080810185905260019060a0016020604051602081039080840390855afa15801561467f573d6000803e3d6000fd5b5050604051601f1901519150506001600160a01b0381166146a857600060019250925050611fc3565b9660009650945050505050565b60405180608001604052806146c86146e3565b81526020016000815260200160008152602001606081525090565b6040518060a0016040528060006001600160a01b03168152602001614734604051806060016040528060006001600160a01b0316815260200160006001600160a01b03168152602001606081525090565b815260606020820181905260408201819052600091015290565b6040518060e001604052806147616146e3565b81526020016000815260200160008019168152602001600080191681526020016060815260200160008152602001606081525090565b6000602082840312156147a957600080fd5b81357fffffffff000000000000000000000000000000000000000000000000000000008116811461066257600080fd5b6001600160a01b038116811461233957600080fd5b80356147f9816147d9565b919050565b60008083601f84011261481057600080fd5b50813567ffffffffffffffff81111561482857600080fd5b6020830191508360208260051b85010111156120c657600080fd5b60008060008060006080868803121561485b57600080fd5b8535614866816147d9565b94506020860135935060408601359250606086013567ffffffffffffffff81111561489057600080fd5b61489c888289016147fe565b969995985093965092949392505050565b600060a082840312156148bf57600080fd5b50919050565b6000806000604084860312156148da57600080fd5b833567ffffffffffffffff808211156148f257600080fd5b6148fe878388016148ad565b9450602086013591508082111561491457600080fd5b50614921868287016147fe565b9497909650939450505050565b600060c082840312156148bf57600080fd5b60008060006040848603121561495557600080fd5b833567ffffffffffffffff8082111561496d57600080fd5b6148fe8783880161492e565b60006020828403121561498b57600080fd5b5035919050565b6000806000606084860312156149a757600080fd5b83356149b2816147d9565b925060208401356149c2816147d9565b929592945050506040919091013590565b6000806000806000608086880312156149eb57600080fd5b85356149f6816147d9565b94506020860135614a06816147d9565b935060408601359250606086013567ffffffffffffffff80821115614a2a57600080fd5b818801915088601f830112614a3e57600080fd5b813581811115614a4d57600080fd5b896020828501011115614a5f57600080fd5b9699959850939650602001949392505050565b600060208284031215614a8457600080fd5b8135610662816147d9565b600060208284031215614aa157600080fd5b813567ffffffffffffffff811115614ab857600080fd5b82016080818503121561066257600080fd5b60008060208385031215614add57600080fd5b823567ffffffffffffffff811115614af457600080fd5b614b00858286016147fe565b90969095509350505050565b60005b83811015614b27578181015183820152602001614b0f565b50506000910152565b60008151808452614b48816020860160208601614b0c565b601f01601f19169290920160200192915050565b600060208083016020845280855180835260408601915060408160051b87010192506020870160005b82811015614bd1577fffffffffffffffffffffffffffffffffffffffffffffffffffffffffffffffc0888603018452614bbf858351614b30565b94509285019290850190600101614b85565b5092979650505050505050565b600060208284031215614bf057600080fd5b813567ffffffffffffffff811115614c0757600080fd5b613f0a848285016148ad565b60008060408385031215614c2657600080fd5b8235614c31816147d9565b946020939093013593505050565b7f4e487b7100000000000000000000000000000000000000000000000000000000600052604160045260246000fd5b6040516060810167ffffffffffffffff81118282101715614c9157614c91614c3f565b60405290565b6040805190810167ffffffffffffffff81118282101715614c9157614c91614c3f565b60405160a0810167ffffffffffffffff81118282101715614c9157614c91614c3f565b604051601f8201601f1916810167ffffffffffffffff81118282101715614d0657614d06614c3f565b604052919050565b600082601f830112614d1f57600080fd5b813567ffffffffffffffff811115614d3957614d39614c3f565b614d4c6020601f19601f84011601614cdd565b818152846020838601011115614d6157600080fd5b816020850160208301376000918101602001919091529392505050565b600060608284031215614d9057600080fd5b614d98614c6e565b90508135614da5816147d9565b81526020820135614db5816147d9565b6020820152604082013567ffffffffffffffff811115614dd457600080fd5b614de084828501614d0e565b60408301525092915050565b600067ffffffffffffffff821115614e0657614e06614c3f565b5060051b60200190565b600060408284031215614e2257600080fd5b614e2a614c97565b90508135614e37816147d9565b808252506020820135602082015292915050565b600082601f830112614e5c57600080fd5b81356020614e71614e6c83614dec565b614cdd565b8083825260208201915060208460061b870101935086841115614e9357600080fd5b602086015b84811015614eb857614eaa8882614e10565b835291830191604001614e98565b509695505050505050565b600060a08284031215614ed557600080fd5b614edd614cba565b9050614ee8826147ee565b8152602082013567ffffffffffffffff80821115614f0557600080fd5b614f1185838601614d7e565b60208401526040840135915080821115614f2a57600080fd5b614f3685838601614e4b565b60408401526060840135915080821115614f4f57600080fd5b50614f5c84828501614e4b565b6060830152506080820135608082015292915050565b6000614f80614e6c84614dec565b8381529050602080820190600585811b850187811115614f9f57600080fd5b855b8181101561509857803567ffffffffffffffff80821115614fc25760008081fd5b908801906060828c031215614fd75760008081fd5b614fdf614c6e565b8235614fea816147d9565b81528287013582811115614ffe5760008081fd5b8301601f81018d136150105760008081fd5b803561501e614e6c82614dec565b81815290881b8201890190898101908f83111561503b5760008081fd5b928a01925b828410156150595783358252928a0192908a0190615040565b848b015250604091505083810135838111156150755760008081fd5b6150818e828701614d0e565b918301919091525087525050938301938301614fa1565b50505050509392505050565b600082601f8301126150b557600080fd5b61066283833560208501614f72565b600080600080600061014086880312156150dd57600080fd5b853567ffffffffffffffff808211156150f557600080fd5b61510189838a01614ec3565b9650602088013591508082111561511757600080fd5b61512389838a01614ec3565b95506151328960408a0161492e565b945061010088013591508082111561514957600080fd5b61515589838a016150a4565b935061012088013591508082111561516c57600080fd5b50615179888289016150a4565b9150509295509295909350565b6000615194614e6c84614dec565b80848252602080830192508560051b8501368111156151b257600080fd5b855b8181101561524457803567ffffffffffffffff808211156151d55760008081fd5b8189019150604082360312156151eb5760008081fd5b6151f3614c97565b8235828111156152035760008081fd5b61520f36828601614d7e565b82525085830135828111156152245760008081fd5b615230368286016150a4565b8288015250875250509382019382016151b4565b50919695505050505050565b600061034f3683614ec3565b818352818160208501375060006020828401015260006020601f19601f840116840101905092915050565b60008135615294816147d9565b6001600160a01b0390811684526020830135906152b0826147d9565b166020840152604082013536839003601e190181126152ce57600080fd5b820160208101903567ffffffffffffffff8111156152eb57600080fd5b8036038213156152fa57600080fd5b6060604086015261530f60608601828461525c565b95945050505050565b6000808335601e1984360301811261532f57600080fd5b830160208101925035905067ffffffffffffffff81111561534f57600080fd5b8060061b36038213156120c657600080fd5b8183526000602080850194508260005b858110156153a9578135615384816147d9565b6001600160a01b03168752818301358388015260409687019690910190600101615371565b509495945050505050565b60006001600160a01b0380861683528460208401526060604084015283356153db816147d9565b1660608301526020830135368490037fffffffffffffffffffffffffffffffffffffffffffffffffffffffffffffffa101811261541757600080fd5b60a0608084015261542e6101008401858301615287565b905061543d6040850185615318565b7fffffffffffffffffffffffffffffffffffffffffffffffffffffffffffffffa0808685030160a0870152615473848385615361565b93506154826060880188615318565b93509150808685030160c08701525061549c838383615361565b92505050608084013560e084015280915050949350505050565b6000808335601e198436030181126154cd57600080fd5b83018035915067ffffffffffffffff8211156154e857600080fd5b6020019150600681901b36038213156120c657600080fd5b600082357fffffffffffffffffffffffffffffffffffffffffffffffffffffffffffffffa183360301811261553457600080fd5b9190910192915050565b600061034f3683614d7e565b60006040828403121561555c57600080fd5b6106628383614e10565b60008151808452602080850194506020840160005b838110156153a957815180516001600160a01b03168852830151838801526040909601959082019060010161557b565b60006001600160a01b03808351168452602083015160a060208601528181511660a08601528160208201511660c08601526040810151915050606060e08501526155f9610100850182614b30565b9050604083015184820360408601526156128282615566565b9150506060830151848203606086015261562c8282615566565b915050608083015160808501528091505092915050565b6001600160a01b038416815282602082015260606040820152600061530f60608301846155ab565b6000808335601e1984360301811261568257600080fd5b83018035915067ffffffffffffffff82111561569d57600080fd5b6020019150368190038213156120c657600080fd5b6001600160a01b0385168152836020820152606060408201526000613acf60608301848661525c565b60006001600160a01b03808916835280881660208401525085604083015284606083015260a0608083015261571460a08301848661525c565b98975050505050505050565b60006020828403121561573257600080fd5b5051919050565b7f4e487b7100000000000000000000000000000000000000000000000000000000600052601160045260246000fd5b8082018082111561034f5761034f615739565b600082357fffffffffffffffffffffffffffffffffffffffffffffffffffffffffffffff6183360301811261553457600080fd5b7f4e487b7100000000000000000000000000000000000000000000000000000000600052603260045260246000fd5b6000808335601e198436030181126157f557600080fd5b83018035915067ffffffffffffffff82111561581057600080fd5b6020019150600581901b36038213156120c657600080fd5b6000610662368484614f72565b828482376000838201600081528351615852818360208801614b0c565b0195945050505050565b600082357fffffffffffffffffffffffffffffffffffffffffffffffffffffffffffffff8183360301811261553457600080fd5b6000608082360312156158a257600080fd5b6040516080810167ffffffffffffffff82821081831117156158c6576158c6614c3f565b8160405284359150808211156158db57600080fd5b6158e736838701614ec3565b83526020850135602084015260408501356040840152606085013591508082111561591157600080fd5b5061591e368286016150a4565b60608301525092915050565b60008151808452602080850194506020840160005b838110156153a95781518752958201959082019060010161593f565b60006001600160a01b038087168352602060808185015286516080808601526159886101008601826155ab565b90508188015160a086015260408089015160c08701526060808a01517fffffffffffffffffffffffffffffffffffffffffffffffffffffffffffffff808885030160e08901528381518086528686019150868160051b870101878401935060005b82811015615a4357601f1988830301845284518a815116835289810151878b850152615a178885018261592a565b91890151848303858b0152919050615a2f8183614b30565b968b0196958b0195935050506001016159e9565b5080995050505050505050505083604083015282606083015295945050505050565b60006101206001600160a01b0387168352806020840152615a88818401876155ab565b90508281036040840152615a9c81866155ab565b9150508235606083015260208301356080830152604083013560a0830152606083013560c0830152608083013560e083015260a083013561010083015295945050505050565b7f4e487b7100000000000000000000000000000000000000000000000000000000600052602160045260246000fd5b6001600160a01b03831681526040810160048310615b58577f4e487b7100000000000000000000000000000000000000000000000000000000600052602160045260246000fd5b8260208301529392505050565b60008282518085526020808601955060208260051b8401016020860160005b84811015615bb257601f19868403018952615ba083835161592a565b98840198925090830190600101615b84565b5090979650505050505050565b602081526001600160a01b038251166020820152602082015160408201526000604083015160e06060840152615bf9610100840182614b30565b9050606084015160808401526080840151601f19808584030160a0860152615c218383615b65565b925060a08601519150808584030160c0860152615c3e838361592a565b925060c08601519150808584030160e08601525061530f828261592a565b600082601f830112615c6d57600080fd5b81516020615c7d614e6c83614dec565b8083825260208201915060208460051b870101935086841115615c9f57600080fd5b602086015b84811015614eb85780518352918301918301615ca4565b60008060408385031215615cce57600080fd5b825167ffffffffffffffff80821115615ce657600080fd5b818501915085601f830112615cfa57600080fd5b81516020615d0a614e6c83614dec565b82815260059290921b84018101918181019089841115615d2957600080fd5b948201945b83861015615d4757855182529482019490820190615d2e565b91880151919650909350505080821115615d6057600080fd5b50615d6d85828601615c5c565b9150509250929050565b828152604060208201526000613f0a604083018461592a565b60208152600061066260208301846155ab565b6020815260006106626020830184614b30565b60007fffffffffffffffffffffffffffffffffffffffffffffffffffffffffffffffff8203615de757615de7615739565b5060010190565b6001600160a01b0383168152604060208201526000613f0a6040830184615b65565b7f4e487b7100000000000000000000000000000000000000000000000000000000600052601260045260246000fd5b600060208284031215615e5157600080fd5b8151801515811461066257600080fd5b60008251615534818460208701614b0c565b808202600082127f800000000000000000000000000000000000000000000000000000000000000084141615615eab57615eab615739565b818105831482151761034f5761034f615739565b600181815b80851115615f1857817fffffffffffffffffffffffffffffffffffffffffffffffffffffffffffffffff04821115615efe57615efe615739565b80851615615f0b57918102915b93841c9390800290615ec4565b509250929050565b600082615f2f5750600161034f565b81615f3c5750600061034f565b8160018114615f525760028114615f5c57615f78565b600191505061034f565b60ff841115615f6d57615f6d615739565b50506001821b61034f565b5060208310610133831016604e8410600b8410161715615f9b575081810a61034f565b615fa58383615ebf565b807fffffffffffffffffffffffffffffffffffffffffffffffffffffffffffffffff04821115615fd757615fd7615739565b029392505050565b60006106628383615f20565b808202811582820484141761034f5761034f615739565b828152604060208201526000613f0a6040830184614b3056fe416464726573733a206c6f772d6c6576656c2064656c65676174652063616c6c206661696c6564","linkReferences":{}},"methodIdentifiers":{"addOrder3(((address,address,bytes),(address,bytes32)[],(address,bytes32)[],bytes32,bytes32,bytes),((address,address,bytes),(address,bytes32[],bytes)[])[])":"23a455b5","clear3((address,(address,address,bytes),(address,bytes32)[],(address,bytes32)[],bytes32),(address,(address,address,bytes),(address,bytes32)[],(address,bytes32)[],bytes32),(uint256,uint256,uint256,uint256,bytes32,bytes32),(address,bytes32[],bytes)[],(address,bytes32[],bytes)[])":"fa501182","deposit3(address,bytes32,bytes32,((address,address,bytes),(address,bytes32[],bytes)[])[])":"7921a962","entask2(((address,address,bytes),(address,bytes32[],bytes)[])[])":"d7e442ec","flashFee(address,uint256)":"d9d98ce4","flashLoan(address,address,uint256,bytes)":"5cffe9de","maxFlashLoan(address)":"613255ab","multicall(bytes[])":"ac9650d8","orderExists(bytes32)":"2cb77e9f","quote2(((address,(address,address,bytes),(address,bytes32)[],(address,bytes32)[],bytes32),uint256,uint256,(address,bytes32[],bytes)[]))":"9235084d","removeOrder3((address,(address,address,bytes),(address,bytes32)[],(address,bytes32)[],bytes32),((address,address,bytes),(address,bytes32[],bytes)[])[])":"1f69cb75","supportsInterface(bytes4)":"01ffc9a7","takeOrders3((bytes32,bytes32,bytes32,((address,(address,address,bytes),(address,bytes32)[],(address,bytes32)[],bytes32),uint256,uint256,(address,bytes32[],bytes)[])[],bytes))":"d0f7a862","vaultBalance2(address,address,bytes32)":"41d1514f","withdraw3(address,bytes32,bytes32,((address,address,bytes),(address,bytes32[],bytes)[])[])":"0cb49ba3"},"id":317}