{"abi":[{"type":"function","name":"addOrder4","inputs":[{"name":"orderConfig","type":"tuple","internalType":"struct OrderConfigV4","components":[{"name":"evaluable","type":"tuple","internalType":"struct EvaluableV4","components":[{"name":"interpreter","type":"address","internalType":"contract IInterpreterV4"},{"name":"store","type":"address","internalType":"contract IInterpreterStoreV3"},{"name":"bytecode","type":"bytes","internalType":"bytes"}]},{"name":"validInputs","type":"tuple[]","internalType":"struct IOV2[]","components":[{"name":"token","type":"address","internalType":"address"},{"name":"vaultId","type":"bytes32","internalType":"bytes32"}]},{"name":"validOutputs","type":"tuple[]","internalType":"struct IOV2[]","components":[{"name":"token","type":"address","internalType":"address"},{"name":"vaultId","type":"bytes32","internalType":"bytes32"}]},{"name":"nonce","type":"bytes32","internalType":"bytes32"},{"name":"secret","type":"bytes32","internalType":"bytes32"},{"name":"meta","type":"bytes","internalType":"bytes"}]},{"name":"post","type":"tuple[]","internalType":"struct TaskV2[]","components":[{"name":"evaluable","type":"tuple","internalType":"struct EvaluableV4","components":[{"name":"interpreter","type":"address","internalType":"contract IInterpreterV4"},{"name":"store","type":"address","internalType":"contract IInterpreterStoreV3"},{"name":"bytecode","type":"bytes","internalType":"bytes"}]},{"name":"signedContext","type":"tuple[]","internalType":"struct SignedContextV1[]","components":[{"name":"signer","type":"address","internalType":"address"},{"name":"context","type":"bytes32[]","internalType":"bytes32[]"},{"name":"signature","type":"bytes","internalType":"bytes"}]}]}],"outputs":[{"name":"","type":"bool","internalType":"bool"}],"stateMutability":"nonpayable"},{"type":"function","name":"clear3","inputs":[{"name":"aliceOrder","type":"tuple","internalType":"struct OrderV4","components":[{"name":"owner","type":"address","internalType":"address"},{"name":"evaluable","type":"tuple","internalType":"struct EvaluableV4","components":[{"name":"interpreter","type":"address","internalType":"contract IInterpreterV4"},{"name":"store","type":"address","internalType":"contract IInterpreterStoreV3"},{"name":"bytecode","type":"bytes","internalType":"bytes"}]},{"name":"validInputs","type":"tuple[]","internalType":"struct IOV2[]","components":[{"name":"token","type":"address","internalType":"address"},{"name":"vaultId","type":"bytes32","internalType":"bytes32"}]},{"name":"validOutputs","type":"tuple[]","internalType":"struct IOV2[]","components":[{"name":"token","type":"address","internalType":"address"},{"name":"vaultId","type":"bytes32","internalType":"bytes32"}]},{"name":"nonce","type":"bytes32","internalType":"bytes32"}]},{"name":"bobOrder","type":"tuple","internalType":"struct OrderV4","components":[{"name":"owner","type":"address","internalType":"address"},{"name":"evaluable","type":"tuple","internalType":"struct EvaluableV4","components":[{"name":"interpreter","type":"address","internalType":"contract IInterpreterV4"},{"name":"store","type":"address","internalType":"contract IInterpreterStoreV3"},{"name":"bytecode","type":"bytes","internalType":"bytes"}]},{"name":"validInputs","type":"tuple[]","internalType":"struct IOV2[]","components":[{"name":"token","type":"address","internalType":"address"},{"name":"vaultId","type":"bytes32","internalType":"bytes32"}]},{"name":"validOutputs","type":"tuple[]","internalType":"struct IOV2[]","components":[{"name":"token","type":"address","internalType":"address"},{"name":"vaultId","type":"bytes32","internalType":"bytes32"}]},{"name":"nonce","type":"bytes32","internalType":"bytes32"}]},{"name":"clearConfig","type":"tuple","internalType":"struct ClearConfigV2","components":[{"name":"aliceInputIOIndex","type":"uint256","internalType":"uint256"},{"name":"aliceOutputIOIndex","type":"uint256","internalType":"uint256"},{"name":"bobInputIOIndex","type":"uint256","internalType":"uint256"},{"name":"bobOutputIOIndex","type":"uint256","internalType":"uint256"},{"name":"aliceBountyVaultId","type":"bytes32","internalType":"bytes32"},{"name":"bobBountyVaultId","type":"bytes32","internalType":"bytes32"}]},{"name":"aliceSignedContext","type":"tuple[]","internalType":"struct SignedContextV1[]","components":[{"name":"signer","type":"address","internalType":"address"},{"name":"context","type":"bytes32[]","internalType":"bytes32[]"},{"name":"signature","type":"bytes","internalType":"bytes"}]},{"name":"bobSignedContext","type":"tuple[]","internalType":"struct SignedContextV1[]","components":[{"name":"signer","type":"address","internalType":"address"},{"name":"context","type":"bytes32[]","internalType":"bytes32[]"},{"name":"signature","type":"bytes","internalType":"bytes"}]}],"outputs":[],"stateMutability":"nonpayable"},{"type":"function","name":"deposit4","inputs":[{"name":"token","type":"address","internalType":"address"},{"name":"vaultId","type":"bytes32","internalType":"bytes32"},{"name":"depositAmount","type":"bytes32","internalType":"Float"},{"name":"post","type":"tuple[]","internalType":"struct TaskV2[]","components":[{"name":"evaluable","type":"tuple","internalType":"struct EvaluableV4","components":[{"name":"interpreter","type":"address","internalType":"contract IInterpreterV4"},{"name":"store","type":"address","internalType":"contract IInterpreterStoreV3"},{"name":"bytecode","type":"bytes","internalType":"bytes"}]},{"name":"signedContext","type":"tuple[]","internalType":"struct SignedContextV1[]","components":[{"name":"signer","type":"address","internalType":"address"},{"name":"context","type":"bytes32[]","internalType":"bytes32[]"},{"name":"signature","type":"bytes","internalType":"bytes"}]}]}],"outputs":[],"stateMutability":"nonpayable"},{"type":"function","name":"entask2","inputs":[{"name":"post","type":"tuple[]","internalType":"struct TaskV2[]","components":[{"name":"evaluable","type":"tuple","internalType":"struct EvaluableV4","components":[{"name":"interpreter","type":"address","internalType":"contract IInterpreterV4"},{"name":"store","type":"address","internalType":"contract IInterpreterStoreV3"},{"name":"bytecode","type":"bytes","internalType":"bytes"}]},{"name":"signedContext","type":"tuple[]","internalType":"struct SignedContextV1[]","components":[{"name":"signer","type":"address","internalType":"address"},{"name":"context","type":"bytes32[]","internalType":"bytes32[]"},{"name":"signature","type":"bytes","internalType":"bytes"}]}]}],"outputs":[],"stateMutability":"nonpayable"},{"type":"function","name":"flashFee","inputs":[{"name":"","type":"address","internalType":"address"},{"name":"","type":"uint256","internalType":"uint256"}],"outputs":[{"name":"","type":"uint256","internalType":"uint256"}],"stateMutability":"pure"},{"type":"function","name":"flashLoan","inputs":[{"name":"receiver","type":"address","internalType":"contract IERC3156FlashBorrower"},{"name":"token","type":"address","internalType":"address"},{"name":"amount","type":"uint256","internalType":"uint256"},{"name":"data","type":"bytes","internalType":"bytes"}],"outputs":[{"name":"","type":"bool","internalType":"bool"}],"stateMutability":"nonpayable"},{"type":"function","name":"maxFlashLoan","inputs":[{"name":"token","type":"address","internalType":"address"}],"outputs":[{"name":"","type":"uint256","internalType":"uint256"}],"stateMutability":"view"},{"type":"function","name":"multicall","inputs":[{"name":"data","type":"bytes[]","internalType":"bytes[]"}],"outputs":[{"name":"results","type":"bytes[]","internalType":"bytes[]"}],"stateMutability":"nonpayable"},{"type":"function","name":"orderExists","inputs":[{"name":"orderHash","type":"bytes32","internalType":"bytes32"}],"outputs":[{"name":"","type":"bool","internalType":"bool"}],"stateMutability":"view"},{"type":"function","name":"quote2","inputs":[{"name":"quoteConfig","type":"tuple","internalType":"struct QuoteV2","components":[{"name":"order","type":"tuple","internalType":"struct OrderV4","components":[{"name":"owner","type":"address","internalType":"address"},{"name":"evaluable","type":"tuple","internalType":"struct EvaluableV4","components":[{"name":"interpreter","type":"address","internalType":"contract IInterpreterV4"},{"name":"store","type":"address","internalType":"contract IInterpreterStoreV3"},{"name":"bytecode","type":"bytes","internalType":"bytes"}]},{"name":"validInputs","type":"tuple[]","internalType":"struct IOV2[]","components":[{"name":"token","type":"address","internalType":"address"},{"name":"vaultId","type":"bytes32","internalType":"bytes32"}]},{"name":"validOutputs","type":"tuple[]","internalType":"struct IOV2[]","components":[{"name":"token","type":"address","internalType":"address"},{"name":"vaultId","type":"bytes32","internalType":"bytes32"}]},{"name":"nonce","type":"bytes32","internalType":"bytes32"}]},{"name":"inputIOIndex","type":"uint256","internalType":"uint256"},{"name":"outputIOIndex","type":"uint256","internalType":"uint256"},{"name":"signedContext","type":"tuple[]","internalType":"struct SignedContextV1[]","components":[{"name":"signer","type":"address","internalType":"address"},{"name":"context","type":"bytes32[]","internalType":"bytes32[]"},{"name":"signature","type":"bytes","internalType":"bytes"}]}]}],"outputs":[{"name":"","type":"bool","internalType":"bool"},{"name":"","type":"bytes32","internalType":"Float"},{"name":"","type":"bytes32","internalType":"Float"}],"stateMutability":"view"},{"type":"function","name":"removeOrder3","inputs":[{"name":"order","type":"tuple","internalType":"struct OrderV4","components":[{"name":"owner","type":"address","internalType":"address"},{"name":"evaluable","type":"tuple","internalType":"struct EvaluableV4","components":[{"name":"interpreter","type":"address","internalType":"contract IInterpreterV4"},{"name":"store","type":"address","internalType":"contract IInterpreterStoreV3"},{"name":"bytecode","type":"bytes","internalType":"bytes"}]},{"name":"validInputs","type":"tuple[]","internalType":"struct IOV2[]","components":[{"name":"token","type":"address","internalType":"address"},{"name":"vaultId","type":"bytes32","internalType":"bytes32"}]},{"name":"validOutputs","type":"tuple[]","internalType":"struct IOV2[]","components":[{"name":"token","type":"address","internalType":"address"},{"name":"vaultId","type":"bytes32","internalType":"bytes32"}]},{"name":"nonce","type":"bytes32","internalType":"bytes32"}]},{"name":"post","type":"tuple[]","internalType":"struct TaskV2[]","components":[{"name":"evaluable","type":"tuple","internalType":"struct EvaluableV4","components":[{"name":"interpreter","type":"address","internalType":"contract IInterpreterV4"},{"name":"store","type":"address","internalType":"contract IInterpreterStoreV3"},{"name":"bytecode","type":"bytes","internalType":"bytes"}]},{"name":"signedContext","type":"tuple[]","internalType":"struct SignedContextV1[]","components":[{"name":"signer","type":"address","internalType":"address"},{"name":"context","type":"bytes32[]","internalType":"bytes32[]"},{"name":"signature","type":"bytes","internalType":"bytes"}]}]}],"outputs":[{"name":"stateChanged","type":"bool","internalType":"bool"}],"stateMutability":"nonpayable"},{"type":"function","name":"supportsInterface","inputs":[{"name":"interfaceId","type":"bytes4","internalType":"bytes4"}],"outputs":[{"name":"","type":"bool","internalType":"bool"}],"stateMutability":"view"},{"type":"function","name":"takeOrders4","inputs":[{"name":"config","type":"tuple","internalType":"struct TakeOrdersConfigV5","components":[{"name":"minimumIO","type":"bytes32","internalType":"Float"},{"name":"maximumIO","type":"bytes32","internalType":"Float"},{"name":"maximumIORatio","type":"bytes32","internalType":"Float"},{"name":"IOIsInput","type":"bool","internalType":"bool"},{"name":"orders","type":"tuple[]","internalType":"struct TakeOrderConfigV4[]","components":[{"name":"order","type":"tuple","internalType":"struct OrderV4","components":[{"name":"owner","type":"address","internalType":"address"},{"name":"evaluable","type":"tuple","internalType":"struct EvaluableV4","components":[{"name":"interpreter","type":"address","internalType":"contract IInterpreterV4"},{"name":"store","type":"address","internalType":"contract IInterpreterStoreV3"},{"name":"bytecode","type":"bytes","internalType":"bytes"}]},{"name":"validInputs","type":"tuple[]","internalType":"struct IOV2[]","components":[{"name":"token","type":"address","internalType":"address"},{"name":"vaultId","type":"bytes32","internalType":"bytes32"}]},{"name":"validOutputs","type":"tuple[]","internalType":"struct IOV2[]","components":[{"name":"token","type":"address","internalType":"address"},{"name":"vaultId","type":"bytes32","internalType":"bytes32"}]},{"name":"nonce","type":"bytes32","internalType":"bytes32"}]},{"name":"inputIOIndex","type":"uint256","internalType":"uint256"},{"name":"outputIOIndex","type":"uint256","internalType":"uint256"},{"name":"signedContext","type":"tuple[]","internalType":"struct SignedContextV1[]","components":[{"name":"signer","type":"address","internalType":"address"},{"name":"context","type":"bytes32[]","internalType":"bytes32[]"},{"name":"signature","type":"bytes","internalType":"bytes"}]}]},{"name":"data","type":"bytes","internalType":"bytes"}]}],"outputs":[{"name":"totalTakerInput","type":"bytes32","internalType":"Float"},{"name":"totalTakerOutput","type":"bytes32","internalType":"Float"}],"stateMutability":"nonpayable"},{"type":"function","name":"vaultBalance2","inputs":[{"name":"owner","type":"address","internalType":"address"},{"name":"token","type":"address","internalType":"address"},{"name":"vaultId","type":"bytes32","internalType":"bytes32"}],"outputs":[{"name":"","type":"bytes32","internalType":"Float"}],"stateMutability":"view"},{"type":"function","name":"withdraw4","inputs":[{"name":"token","type":"address","internalType":"address"},{"name":"vaultId","type":"bytes32","internalType":"bytes32"},{"name":"targetAmount","type":"bytes32","internalType":"Float"},{"name":"post","type":"tuple[]","internalType":"struct TaskV2[]","components":[{"name":"evaluable","type":"tuple","internalType":"struct EvaluableV4","components":[{"name":"interpreter","type":"address","internalType":"contract IInterpreterV4"},{"name":"store","type":"address","internalType":"contract IInterpreterStoreV3"},{"name":"bytecode","type":"bytes","internalType":"bytes"}]},{"name":"signedContext","type":"tuple[]","internalType":"struct SignedContextV1[]","components":[{"name":"signer","type":"address","internalType":"address"},{"name":"context","type":"bytes32[]","internalType":"bytes32[]"},{"name":"signature","type":"bytes","internalType":"bytes"}]}]}],"outputs":[],"stateMutability":"nonpayable"},{"type":"event","name":"AddOrderV3","inputs":[{"name":"sender","type":"address","indexed":false,"internalType":"address"},{"name":"orderHash","type":"bytes32","indexed":false,"internalType":"bytes32"},{"name":"order","type":"tuple","indexed":false,"internalType":"struct OrderV4","components":[{"name":"owner","type":"address","internalType":"address"},{"name":"evaluable","type":"tuple","internalType":"struct EvaluableV4","components":[{"name":"interpreter","type":"address","internalType":"contract IInterpreterV4"},{"name":"store","type":"address","internalType":"contract IInterpreterStoreV3"},{"name":"bytecode","type":"bytes","internalType":"bytes"}]},{"name":"validInputs","type":"tuple[]","internalType":"struct IOV2[]","components":[{"name":"token","type":"address","internalType":"address"},{"name":"vaultId","type":"bytes32","internalType":"bytes32"}]},{"name":"validOutputs","type":"tuple[]","internalType":"struct IOV2[]","components":[{"name":"token","type":"address","internalType":"address"},{"name":"vaultId","type":"bytes32","internalType":"bytes32"}]},{"name":"nonce","type":"bytes32","internalType":"bytes32"}]}],"anonymous":false},{"type":"event","name":"AfterClearV2","inputs":[{"name":"sender","type":"address","indexed":false,"internalType":"address"},{"name":"clearStateChange","type":"tuple","indexed":false,"internalType":"struct ClearStateChangeV2","components":[{"name":"aliceOutput","type":"bytes32","internalType":"Float"},{"name":"bobOutput","type":"bytes32","internalType":"Float"},{"name":"aliceInput","type":"bytes32","internalType":"Float"},{"name":"bobInput","type":"bytes32","internalType":"Float"}]}],"anonymous":false},{"type":"event","name":"ClearV3","inputs":[{"name":"sender","type":"address","indexed":false,"internalType":"address"},{"name":"alice","type":"tuple","indexed":false,"internalType":"struct OrderV4","components":[{"name":"owner","type":"address","internalType":"address"},{"name":"evaluable","type":"tuple","internalType":"struct EvaluableV4","components":[{"name":"interpreter","type":"address","internalType":"contract IInterpreterV4"},{"name":"store","type":"address","internalType":"contract IInterpreterStoreV3"},{"name":"bytecode","type":"bytes","internalType":"bytes"}]},{"name":"validInputs","type":"tuple[]","internalType":"struct IOV2[]","components":[{"name":"token","type":"address","internalType":"address"},{"name":"vaultId","type":"bytes32","internalType":"bytes32"}]},{"name":"validOutputs","type":"tuple[]","internalType":"struct IOV2[]","components":[{"name":"token","type":"address","internalType":"address"},{"name":"vaultId","type":"bytes32","internalType":"bytes32"}]},{"name":"nonce","type":"bytes32","internalType":"bytes32"}]},{"name":"bob","type":"tuple","indexed":false,"internalType":"struct OrderV4","components":[{"name":"owner","type":"address","internalType":"address"},{"name":"evaluable","type":"tuple","internalType":"struct EvaluableV4","components":[{"name":"interpreter","type":"address","internalType":"contract IInterpreterV4"},{"name":"store","type":"address","internalType":"contract IInterpreterStoreV3"},{"name":"bytecode","type":"bytes","internalType":"bytes"}]},{"name":"validInputs","type":"tuple[]","internalType":"struct IOV2[]","components":[{"name":"token","type":"address","internalType":"address"},{"name":"vaultId","type":"bytes32","internalType":"bytes32"}]},{"name":"validOutputs","type":"tuple[]","internalType":"struct IOV2[]","components":[{"name":"token","type":"address","internalType":"address"},{"name":"vaultId","type":"bytes32","internalType":"bytes32"}]},{"name":"nonce","type":"bytes32","internalType":"bytes32"}]},{"name":"clearConfig","type":"tuple","indexed":false,"internalType":"struct ClearConfigV2","components":[{"name":"aliceInputIOIndex","type":"uint256","internalType":"uint256"},{"name":"aliceOutputIOIndex","type":"uint256","internalType":"uint256"},{"name":"bobInputIOIndex","type":"uint256","internalType":"uint256"},{"name":"bobOutputIOIndex","type":"uint256","internalType":"uint256"},{"name":"aliceBountyVaultId","type":"bytes32","internalType":"bytes32"},{"name":"bobBountyVaultId","type":"bytes32","internalType":"bytes32"}]}],"anonymous":false},{"type":"event","name":"ContextV2","inputs":[{"name":"sender","type":"address","indexed":false,"internalType":"address"},{"name":"context","type":"bytes32[][]","indexed":false,"internalType":"bytes32[][]"}],"anonymous":false},{"type":"event","name":"DepositV2","inputs":[{"name":"sender","type":"address","indexed":false,"internalType":"address"},{"name":"token","type":"address","indexed":false,"internalType":"address"},{"name":"vaultId","type":"bytes32","indexed":false,"internalType":"bytes32"},{"name":"depositAmountUint256","type":"uint256","indexed":false,"internalType":"uint256"}],"anonymous":false},{"type":"event","name":"MetaV1_2","inputs":[{"name":"sender","type":"address","indexed":false,"internalType":"address"},{"name":"subject","type":"bytes32","indexed":false,"internalType":"bytes32"},{"name":"meta","type":"bytes","indexed":false,"internalType":"bytes"}],"anonymous":false},{"type":"event","name":"OrderExceedsMaxRatio","inputs":[{"name":"sender","type":"address","indexed":false,"internalType":"address"},{"name":"owner","type":"address","indexed":false,"internalType":"address"},{"name":"orderHash","type":"bytes32","indexed":false,"internalType":"bytes32"}],"anonymous":false},{"type":"event","name":"OrderNotFound","inputs":[{"name":"sender","type":"address","indexed":false,"internalType":"address"},{"name":"owner","type":"address","indexed":false,"internalType":"address"},{"name":"orderHash","type":"bytes32","indexed":false,"internalType":"bytes32"}],"anonymous":false},{"type":"event","name":"OrderZeroAmount","inputs":[{"name":"sender","type":"address","indexed":false,"internalType":"address"},{"name":"owner","type":"address","indexed":false,"internalType":"address"},{"name":"orderHash","type":"bytes32","indexed":false,"internalType":"bytes32"}],"anonymous":false},{"type":"event","name":"RemoveOrderV3","inputs":[{"name":"sender","type":"address","indexed":false,"internalType":"address"},{"name":"orderHash","type":"bytes32","indexed":false,"internalType":"bytes32"},{"name":"order","type":"tuple","indexed":false,"internalType":"struct OrderV4","components":[{"name":"owner","type":"address","internalType":"address"},{"name":"evaluable","type":"tuple","internalType":"struct EvaluableV4","components":[{"name":"interpreter","type":"address","internalType":"contract IInterpreterV4"},{"name":"store","type":"address","internalType":"contract IInterpreterStoreV3"},{"name":"bytecode","type":"bytes","internalType":"bytes"}]},{"name":"validInputs","type":"tuple[]","internalType":"struct IOV2[]","components":[{"name":"token","type":"address","internalType":"address"},{"name":"vaultId","type":"bytes32","internalType":"bytes32"}]},{"name":"validOutputs","type":"tuple[]","internalType":"struct IOV2[]","components":[{"name":"token","type":"address","internalType":"address"},{"name":"vaultId","type":"bytes32","internalType":"bytes32"}]},{"name":"nonce","type":"bytes32","internalType":"bytes32"}]}],"anonymous":false},{"type":"event","name":"TakeOrderV3","inputs":[{"name":"sender","type":"address","indexed":false,"internalType":"address"},{"name":"config","type":"tuple","indexed":false,"internalType":"struct TakeOrderConfigV4","components":[{"name":"order","type":"tuple","internalType":"struct OrderV4","components":[{"name":"owner","type":"address","internalType":"address"},{"name":"evaluable","type":"tuple","internalType":"struct EvaluableV4","components":[{"name":"interpreter","type":"address","internalType":"contract IInterpreterV4"},{"name":"store","type":"address","internalType":"contract IInterpreterStoreV3"},{"name":"bytecode","type":"bytes","internalType":"bytes"}]},{"name":"validInputs","type":"tuple[]","internalType":"struct IOV2[]","components":[{"name":"token","type":"address","internalType":"address"},{"name":"vaultId","type":"bytes32","internalType":"bytes32"}]},{"name":"validOutputs","type":"tuple[]","internalType":"struct IOV2[]","components":[{"name":"token","type":"address","internalType":"address"},{"name":"vaultId","type":"bytes32","internalType":"bytes32"}]},{"name":"nonce","type":"bytes32","internalType":"bytes32"}]},{"name":"inputIOIndex","type":"uint256","internalType":"uint256"},{"name":"outputIOIndex","type":"uint256","internalType":"uint256"},{"name":"signedContext","type":"tuple[]","internalType":"struct SignedContextV1[]","components":[{"name":"signer","type":"address","internalType":"address"},{"name":"context","type":"bytes32[]","internalType":"bytes32[]"},{"name":"signature","type":"bytes","internalType":"bytes"}]}]},{"name":"input","type":"bytes32","indexed":false,"internalType":"Float"},{"name":"output","type":"bytes32","indexed":false,"internalType":"Float"}],"anonymous":false},{"type":"event","name":"WithdrawV2","inputs":[{"name":"sender","type":"address","indexed":false,"internalType":"address"},{"name":"token","type":"address","indexed":false,"internalType":"address"},{"name":"vaultId","type":"bytes32","indexed":false,"internalType":"bytes32"},{"name":"targetAmount","type":"bytes32","indexed":false,"internalType":"Float"},{"name":"withdrawAmount","type":"bytes32","indexed":false,"internalType":"Float"},{"name":"withdrawAmountUint256","type":"uint256","indexed":false,"internalType":"uint256"}],"anonymous":false},{"type":"error","name":"AddressEmptyCode","inputs":[{"name":"target","type":"address","internalType":"address"}]},{"type":"error","name":"ClearZeroAmount","inputs":[]},{"type":"error","name":"DivisionByZero","inputs":[{"name":"signedCoefficient","type":"int256","internalType":"int256"},{"name":"exponent","type":"int256","internalType":"int256"}]},{"type":"error","name":"ExponentOverflow","inputs":[{"name":"signedCoefficient","type":"int256","internalType":"int256"},{"name":"exponent","type":"int256","internalType":"int256"}]},{"type":"error","name":"FailedCall","inputs":[]},{"type":"error","name":"FlashLenderCallbackFailed","inputs":[{"name":"result","type":"bytes32","internalType":"bytes32"}]},{"type":"error","name":"InvalidSignature","inputs":[{"name":"i","type":"uint256","internalType":"uint256"}]},{"type":"error","name":"MaximizeOverflow","inputs":[{"name":"signedCoefficient","type":"int256","internalType":"int256"},{"name":"exponent","type":"int256","internalType":"int256"}]},{"type":"error","name":"MinimumIO","inputs":[{"name":"minimumIO","type":"bytes32","internalType":"Float"},{"name":"actualIO","type":"bytes32","internalType":"Float"}]},{"type":"error","name":"MulDivOverflow","inputs":[{"name":"x","type":"uint256","internalType":"uint256"},{"name":"y","type":"uint256","internalType":"uint256"},{"name":"denominator","type":"uint256","internalType":"uint256"}]},{"type":"error","name":"NegativeBounty","inputs":[]},{"type":"error","name":"NegativeFixedDecimalConversion","inputs":[{"name":"signedCoefficient","type":"int256","internalType":"int256"},{"name":"exponent","type":"int256","internalType":"int256"}]},{"type":"error","name":"NegativePull","inputs":[]},{"type":"error","name":"NegativePush","inputs":[]},{"type":"error","name":"NegativeVaultBalance","inputs":[{"name":"vaultBalance","type":"bytes32","internalType":"Float"}]},{"type":"error","name":"NegativeVaultBalanceChange","inputs":[{"name":"amount","type":"bytes32","internalType":"Float"}]},{"type":"error","name":"NoOrders","inputs":[]},{"type":"error","name":"NotOrderOwner","inputs":[{"name":"sender","type":"address","internalType":"address"},{"name":"owner","type":"address","internalType":"address"}]},{"type":"error","name":"NotRainMetaV1","inputs":[{"name":"unmeta","type":"bytes","internalType":"bytes"}]},{"type":"error","name":"OrderNoHandleIO","inputs":[]},{"type":"error","name":"OrderNoInputs","inputs":[]},{"type":"error","name":"OrderNoOutputs","inputs":[]},{"type":"error","name":"OrderNoSources","inputs":[]},{"type":"error","name":"ReentrancyGuardReentrantCall","inputs":[]},{"type":"error","name":"SafeERC20FailedOperation","inputs":[{"name":"token","type":"address","internalType":"address"}]},{"type":"error","name":"SameOwner","inputs":[]},{"type":"error","name":"TokenDecimalsReadFailure","inputs":[{"name":"token","type":"address","internalType":"address"},{"name":"tofuOutcome","type":"uint8","internalType":"enum TOFUOutcome"}]},{"type":"error","name":"TokenMismatch","inputs":[]},{"type":"error","name":"TokenSelfTrade","inputs":[]},{"type":"error","name":"UnsupportedCalculateOutputs","inputs":[{"name":"outputs","type":"uint256","internalType":"uint256"}]},{"type":"error","name":"ZeroDepositAmount","inputs":[{"name":"sender","type":"address","internalType":"address"},{"name":"token","type":"address","internalType":"address"},{"name":"vaultId","type":"bytes32","internalType":"bytes32"}]},{"type":"error","name":"ZeroMaximumIO","inputs":[]},{"type":"error","name":"ZeroVaultId","inputs":[{"name":"sender","type":"address","internalType":"address"},{"name":"token","type":"address","internalType":"address"}]},{"type":"error","name":"ZeroWithdrawTargetAmount","inputs":[{"name":"sender","type":"address","internalType":"address"},{"name":"token","type":"address","internalType":"address"},{"name":"vaultId","type":"bytes32","internalType":"bytes32"}]}],"bytecode":{"object":"0x6080604052348015600e575f80fd5b5060017f9b779b17422d0df92223018b32b4d1fa46e071723d6817e2486d003becc55f0055615cda806100405f395ff3fe608060405234801561000f575f80fd5b50600436106100f0575f3560e01c8063613255ab11610093578063ac9650d811610063578063ac9650d814610257578063d7e442ec14610277578063d9d98ce41461028a578063fa5011821461029f575f80fd5b8063613255ab146101d957806369c72856146101ec578063709fb8a5146102145780639235084d14610227575f80fd5b80632fbc4ba0116100ce5780632fbc4ba01461015157806341d1514f146101665780635cffe9de146101b357806360746119146101c6575f80fd5b806301ffc9a7146100f45780631f69cb751461011c5780632cb77e9f1461012f575b5f80fd5b6101076101023660046146d2565b6102b2565b60405190151581526020015b60405180910390f35b61010761012a366004614752565b61034a565b61010761013d3660046147bd565b5f9081526020819052604090205460011490565b61016461015f3660046147f3565b6104c6565b005b6101a5610174366004614858565b6001600160a01b039283165f9081526001602090815260408083209490951682529283528381209181529152205490565b604051908152602001610113565b6101076101c1366004614896565b610626565b6101646101d43660046147f3565b610758565b6101a56101e736600461492d565b6108fe565b6101ff6101fa36600461495e565b61097f565b60408051928352602083019190915201610113565b610107610222366004614998565b61107e565b61023a6102353660046149e2565b611382565b604080519315158452602084019290925290820152606001610113565b61026a610265366004614a19565b611443565b6040516101139190614a86565b610164610285366004614a19565b611529565b6101a5610298366004614ae8565b5f92915050565b6101646102ad366004614f5a565b611596565b5f7fffffffff0000000000000000000000000000000000000000000000000000000082167fe414309100000000000000000000000000000000000000000000000000000000148061034457507f01ffc9a7000000000000000000000000000000000000000000000000000000007fffffffff000000000000000000000000000000000000000000000000000000008316145b92915050565b5f610353611a93565b610360602085018561492d565b6001600160a01b0316336001600160a01b0316146103d05733610386602086018661492d565b6040517f4702b9140000000000000000000000000000000000000000000000000000000081526001600160a01b039283166004820152911660248201526044015b60405180910390fd5b5f6103e26103dd86615014565b611ac1565b5f818152602081905260409020549091505f1901610495575f818152602081905260408082209190915551600192507f09d18501db0080ca2d6cd7c17fa7255daff4b2d503ea93b76ff68b6752ea8e63906104429033908490899061516a565b60405180910390a160408051600281526020810183905233818301526060810190915261049590610486905b60408051600181526020810192909252818101905290565b610490858761522e565b611af0565b506104bf60017f9b779b17422d0df92223018b32b4d1fa46e071723d6817e2486d003becc55f0055565b9392505050565b6104ce611a93565b6104d8835f611cc0565b610526576040517f6dde9c300000000000000000000000000000000000000000000000000000000081523360048201526001600160a01b0386166024820152604481018590526064016103c7565b5f806105328786611cfa565b604080513381526001600160a01b038b1660208201529081018990526060810183905291935091507f7f9dfa19cf1cc2f806f2f860fbc9c056b601fb1afc0e9b843dfe5c63616268e69060800160405180910390a15f80610595338a8a8a611dec565b909250905084156105f25760408051600581526001600160a01b038b1660208201528082018a9052606081018490526080810183905260ff851660a082015260c081019091526105f2906105e89061046e565b610490878961522e565b5050505061061f60017f9b779b17422d0df92223018b32b4d1fa46e071723d6817e2486d003becc55f0055565b5050505050565b5f61063b6001600160a01b0386168786611ed7565b6040517f23e30c8b0000000000000000000000000000000000000000000000000000000081525f906001600160a01b038816906323e30c8b9061068c9033908a908a9087908b908b906004016152ee565b6020604051808303815f875af11580156106a8573d5f803e3d5ffd5b505050506040513d601f19601f820116820180604052508101906106cc9190615332565b90507f439148f0bbc682ca079e46d6e2c2f0c1e3b820f1a291b069d8882abf8cf18dd9811461072a576040517f5b62c548000000000000000000000000000000000000000000000000000000008152600481018290526024016103c7565b61074b87306107395f8961535d565b6001600160a01b038a16929190611f11565b5060019695505050505050565b610760611a93565b61076a835f611cc0565b6107b7576040517ee8e9340000000000000000000000000000000000000000000000000000000081523360048201526001600160a01b0386166024820152604481018590526064016103c7565b335f9081526001602090815260408083206001600160a01b03891684528252808320878452909152812054906107ed8583611f4d565b90505f806107fd338a8a86611f69565b915091505f8061080d8b86611fd0565b604080513381526001600160a01b038f1660208201529081018d9052606081018c90526080810188905260a0810183905291935091507f8045c25080b0868951141ed0a91720bcad09a8364a2b3109ee1fd49c1f0bc8b89060c00160405180910390a186156108cf5760408051600681526001600160a01b038d1660208201528082018c9052606081018690526080810185905260a081018b905260ff831660c082015260e081019091526108cf906108c59061046e565b610490898b61522e565b50505050505061061f60017f9b779b17422d0df92223018b32b4d1fa46e071723d6817e2486d003becc55f0055565b6040517f70a082310000000000000000000000000000000000000000000000000000000081523060048201525f906001600160a01b038316906370a0823190602401602060405180830381865afa15801561095b573d5f803e3d5ffd5b505050506040513d601f19601f820116820180604052508101906103449190615332565b5f80610989611a93565b6109966080840184615370565b90505f036109d0576040517f9c95219f00000000000000000000000000000000000000000000000000000000815260040160405180910390fd5b6109d86145fa565b6109e0614626565b5f6109ee6080870187615370565b5f8181106109fe576109fe6153b6565b9050602002810190610a1091906153ca565b610a1a90806153e8565b610a289060408101906153fc565b610a356080890189615370565b5f818110610a4557610a456153b6565b9050602002810190610a5791906153ca565b60200135818110610a6a57610a6a6153b6565b610a80926020604090920201908101915061492d565b90505f610a906080880188615370565b5f818110610aa057610aa06153b6565b9050602002810190610ab291906153ca565b610abc90806153e8565b610aca9060608101906153fc565b610ad760808a018a615370565b5f818110610ae757610ae76153b6565b9050602002810190610af991906153ca565b60400135818110610b0c57610b0c6153b6565b610b22926020604090920201908101915061492d565b905060605f610b3460808a018a615370565b6040805160206001939093018302810190915293508a01359150610b5a9050815f611cc0565b610b90576040517fc57e788c00000000000000000000000000000000000000000000000000000000815260040160405180910390fd5b5f5b610b9f60808b018b615370565b905081108015610bb45750610bb4825f611cc0565b15610f1157610bc660808b018b615370565b82818110610bd657610bd66153b6565b9050602002810190610be891906153ca565b610bf190615442565b9650865f01519550846001600160a01b03168660400151886020015181518110610c1d57610c1d6153b6565b60200260200101515f01516001600160a01b0316141580610c745750836001600160a01b03168660600151886040015181518110610c5d57610c5d6153b6565b60200260200101515f01516001600160a01b031614155b15610c925760405163936bb5ad60e01b815260040160405180910390fd5b610ca586886020015189604001516120a3565b5f610caf87611ac1565b5f81815260208190526040902054909150610d14578651604080513381526001600160a01b03909216602083015281018290527fb70c12fa453793fa6818ec07c91e74363a47aa6a6829dcd9533937fdf30314f39060600160405180910390a1610f08565b5f610d2e888a602001518b60400151338d60600151612115565b6060810151909150610d449060408e0135611cc0565b15610d9a578751604080513381526001600160a01b03909216602083015281018390527fe3151dc8cb7a54ffc4baabd28c1f241c94d510b5e5b502491ac3cad6c16316d5906060015b60405180910390a1610f06565b60408101516001600160e01b0316610df4578751604080513381526001600160a01b03909216602083015281018390527f500b713857325f9e6dcb52ae832eca9109d107ed1aae9cb4928b4c1e13f051aa90606001610d8d565b5f808d6060016020810190610e0991906154d8565b15610e42576040830151610e1d9087611f4d565b6060840151909250610e2f90836127d1565b9050610e3b8683612821565b9550610e93565b5f610e5e846040015185606001516127d190919063ffffffff16565b9050610e6a8188611f4d565b9150610e8384606001518361285190919063ffffffff16565b9250610e8f8783612821565b9650505b610e9d8c82612881565b9b50610ea98d83612881565b9c50610eb68183856128b1565b7f194f1feb3b4d7076a2c272e774e792e0c48bb8c7aa1a9a3671c1cd6da9e6b4c1338c8484604051610eeb9493929190615600565b60405180910390a15050845160010180865260200285018190525b505b50600101610b92565b505f9050610f2560808a0160608b016154d8565b610f2f5786610f31565b875b9050610f3e818a35612a79565b15610f7f576040517f573b6f4100000000000000000000000000000000000000000000000000000000815289356004820152602481018290526044016103c7565b50610f8a8288611fd0565b505f9050610f9b60a08a018a6156ea565b90501115611009573363691f9ed783858a8a610fba60a08f018f6156ea565b6040518763ffffffff1660e01b8152600401610fdb969594939291906152ee565b5f604051808303815f87803b158015610ff2575f80fd5b505af1158015611004573d5f803e3d5ffd5b505050505b6110138387611cfa565b50505f5b815181101561104a57611042828281518110611035576110356153b6565b6020026020010151612ab3565b600101611017565b50505050505061107960017f9b779b17422d0df92223018b32b4d1fa46e071723d6817e2486d003becc55f0055565b915091565b5f611087611a93565b61109460208501856153fc565b90505f036110ce576040517f6c44ef8f00000000000000000000000000000000000000000000000000000000815260040160405180910390fd5b6110db60408501856153fc565b90505f03611115576040517f540e5f0b00000000000000000000000000000000000000000000000000000000815260040160405180910390fd5b6040805160a081019091523381525f9060208101611133878061572d565b61113c90615741565b815260200186806020019061115191906153fc565b808060200260200160405190810160405280939291908181526020015f905b8282101561119c5761118d6040830286013681900381019061574c565b81526020019060010190611170565b50505091835250506020016111b460408801886153fc565b808060200260200160405190810160405280939291908181526020015f905b828210156111ff576111f06040830286013681900381019061574c565b815260200190600101906111d3565b50505050508152602001866060013581525090505f61121d82611ac1565b5f81815260208190526040902054909150158015611355575f828152602081905260409081902060019055835190517f87491344dfbcf91f6cbbc610cbbeedc85313d37a02df0c93527f7ea5f8db717f9161127b9185908790615766565b60405180910390a15f61129160a08901896156ea565b9050111561132d576112e26112a960a08901896156ea565b8080601f0160208091040260200160405190810160405280939291908181526020018383808284375f92019190915250612cf892505050565b82517fd46c2c56b35c8210e9e712ec3f02242d5fc90187c0ac8ed80cc33626846ec369908361131460a08b018b6156ea565b604051611324949392919061578d565b60405180910390a15b604080516002815260208101849052338183015260608101909152611355906105e89061046e565b925050506104bf60017f9b779b17422d0df92223018b32b4d1fa46e071723d6817e2486d003becc55f0055565b5f80808061139c61139386806153e8565b6103dd90615014565b5f818152602081905260409020549091506001146113c357505f925082915081905061143c565b6113e86113d086806153e8565b6113d990615014565b866020013587604001356120a3565b5f6114256113f687806153e8565b6113ff90615014565b602088013560408901353361141760608c018c615370565b611420916157bf565b612115565b905060018160400151826060015194509450945050505b9193909250565b604080515f8152602081019091526060908267ffffffffffffffff81111561146d5761146d614b12565b6040519080825280602002602001820160405280156114a057816020015b606081526020019060019003908161148b5790505b5091505f5b83811015611521576114fc308686848181106114c3576114c36153b6565b90506020028101906114d591906156ea565b856040516020016114e8939291906157cb565b604051602081830303815290604052612d3c565b83828151811061150e5761150e6153b6565b60209081029190910101526001016114a5565b505092915050565b611531611a93565b604080515f808252602082019092526115699161155e565b60608152602001906001900390816115495790505b50610490838561522e565b61159260017f9b779b17422d0df92223018b32b4d1fa46e071723d6817e2486d003becc55f0055565b5050565b61159e611a93565b835185516001600160a01b039182169116036115e6576040517f2a63c7cc00000000000000000000000000000000000000000000000000000000815260040160405180910390fd5b8360400151836040013581518110611600576116006153b6565b60200260200101515f01516001600160a01b0316856060015184602001358151811061162e5761162e6153b6565b60200260200101515f01516001600160a01b03161415806116a75750604085015180518435908110611662576116626153b6565b60200260200101515f01516001600160a01b03168460600151846060013581518110611690576116906153b6565b60200260200101515f01516001600160a01b031614155b156116c55760405163936bb5ad60e01b815260040160405180910390fd5b84606001518360200135815181106116df576116df6153b6565b60200260200101515f01516001600160a01b03168560400151845f01358151811061170c5761170c6153b6565b60200260200101515f01516001600160a01b03160361173e57604051631cd2f1c760e21b815260040160405180910390fd5b5f805f61174a88611ac1565b81526020019081526020015f2054036117ba577fb70c12fa453793fa6818ec07c91e74363a47aa6a6829dcd9533937fdf30314f333865f015161178c88611ac1565b604080516001600160a01b0394851681529390921660208401529082015260600160405180910390a1611a6a565b5f805f6117c687611ac1565b81526020019081526020015f205403611808577fb70c12fa453793fa6818ec07c91e74363a47aa6a6829dcd9533937fdf30314f333855f015161178c87611ac1565b7f6fa7f4c28634b0a9d6831401c45ae468195fb63aed07308935c35374ff5d9e393386868660405161183d94939291906157ee565b60405180910390a15f61185d86855f01358660200135885f015186612115565b90505f61187886866040013587606001358a5f015188612115565b90505f6118858383612e0e565b90506118998160400151825f0151856128b1565b6118ac81606001518260200151846128b1565b606081015181515f916118bf9190612821565b90505f6118dd8360400151846020015161282190919063ffffffff16565b90506118e9825f612a79565b806118f957506118f9815f612a79565b15611930576040517f0d86822100000000000000000000000000000000000000000000000000000000815260040160405180910390fd5b611964338b606001518a602001358151811061194e5761194e6153b6565b60200260200101515f01518a6080013585611dec565b505061199a338a606001518a6060013581518110611984576119846153b6565b60200260200101515f01518a60a0013584611dec565b5050604080513381528451602080830191909152850151818301529084015160608083019190915284015160808201527fd9fa84dd790c969daa5c33d8050dc06b4a9b59d5b42e2be5f5e8ae20447f618d925060a001905060405180910390a1611a0383612ab3565b611a0c82612ab3565b80516001600160e01b0316158015611a2f575060208101516001600160e01b0316155b15611a66576040517f21badf1f00000000000000000000000000000000000000000000000000000000815260040160405180910390fd5b5050505b61061f60017f9b779b17422d0df92223018b32b4d1fa46e071723d6817e2486d003becc55f0055565b611a9b612e5c565b60027f9b779b17422d0df92223018b32b4d1fa46e071723d6817e2486d003becc55f0055565b5f81604051602001611ad3919061586a565b604051602081830303815290604052805190602001209050919050565b335f8181523060209081526040808320815160a0810183528083018581526060808301879052608083018190529082528185015282518581529384018581528484019093529093909291905b8651811015611cb657868181518110611b5757611b576153b6565b602002602001015193505f845f015160400151511115611cae575f80855f01515f01516001600160a01b031663d04dfe236040518060e00160405280895f0151602001516001600160a01b031681526020018a8152602001895f01516040015181526020015f8152602001611bd08e8b60200151612eb9565b8152602001888152602001878152506040518263ffffffff1660e01b8152600401611bfb91906158d4565b5f60405180830381865afa158015611c15573d5f803e3d5ffd5b505050506040513d5f823e601f3d908101601f19168201604052611c3c91908101906159cc565b8051919350915015611cab5785516020015160405163012c676d60e21b81526001600160a01b03909116906304b19db490611c7d908b908590600401615a82565b5f604051808303815f87803b158015611c94575f80fd5b505af1158015611ca6573d5f803e3d5ffd5b505050505b50505b600101611b3c565b5050505050505050565b5f6001600160e01b03838116601b90810b9160e086811d9291861690910b9085901d611cee848484846131b4565b12979650505050505050565b5f805f80611d0786613288565b90925090506001826003811115611d2057611d20615a9a565b14158015611d3f57505f826003811115611d3c57611d3c615a9a565b14155b15611d6157858260405163ee07877f60e01b81526004016103c7929190615aae565b611d6b855f612a79565b15611da2576040517fbabbeb0c00000000000000000000000000000000000000000000000000000000815260040160405180910390fd5b5f80611dae8784613328565b9150915080611dc357611dc082615ae7565b91505b8115611dde57611dde6001600160a01b038916333085611f11565b5093509150505b9250929050565b5f80611df88382612a79565b15611e195760405163793a8f5560e01b8152600481018490526024016103c7565b6001600160a01b038087165f908152600160209081526040808320938916835292815282822087835290529081205490611e538286612881565b9050611e5f815f612a79565b15611e99576040517fc5e12af5000000000000000000000000000000000000000000000000000000008152600481018290526024016103c7565b6001600160a01b038089165f908152600160209081526040808320938b16835292815282822089835290522081905590925090505b94509492505050565b611ee48383836001613354565b611f0c57604051635274afe760e01b81526001600160a01b03841660048201526024016103c7565b505050565b611f1f8484848460016133cf565b611f4757604051635274afe760e01b81526001600160a01b03851660048201526024016103c7565b50505050565b5f611f588383612a79565b611f6257816104bf565b5090919050565b5f80611f758382612a79565b15611f965760405163793a8f5560e01b8152600481018490526024016103c7565b6001600160a01b038087165f908152600160209081526040808320938916835292815282822087835290529081205490611e538286612821565b5f805f80611fdd86613288565b90925090506001826003811115611ff657611ff6615a9a565b1415801561201557505f82600381111561201257612012615a9a565b14155b1561203757858260405163ee07877f60e01b81526004016103c7929190615aae565b612041855f612a79565b15612078576040517f5a2ce34600000000000000000000000000000000000000000000000000000000815260040160405180910390fd5b5f806120848784613328565b90925090508115611dde57611dde6001600160a01b0389163384611ed7565b826060015181815181106120b9576120b96153b6565b60200260200101515f01516001600160a01b0316836040015183815181106120e3576120e36153b6565b60200260200101515f01516001600160a01b031603611f0c57604051631cd2f1c760e21b815260040160405180910390fd5b61211d61468d565b5f61212787611ac1565b60408051600480825260a082019092529192506060915f91816020015b60608152602001906001900390816121445790505089516040805160038152602081018790526001600160a01b0392831681830152918916606083015260808201905290915081600180038151811061219f5761219f6153b6565b60200260200101819052505f806121d58b604001518b815181106121c5576121c56153b6565b60200260200101515f0151613455565b909250905060018260038111156121ee576121ee615a9a565b1415801561220d57505f82600381111561220a5761220a615a9a565b14155b1561224f578a604001518a81518110612228576122286153b6565b60200260200101515f01518260405163ee07877f60e01b81526004016103c7929190615aae565b8a516001600160a01b03165f90815260016020526040808220908d015180518391908e908110612281576122816153b6565b60200260200101515f01516001600160a01b03166001600160a01b031681526020019081526020015f205f8d604001518d815181106122c2576122c26153b6565b60200260200101516020015181526020019081526020015f2054905061236b8c604001518c815181106122f7576122f76153b6565b60200260200101515f01516001600160a01b03165f1b8360ff165f1b8e604001518e81518110612329576123296153b6565b602002602001015160200151845f801b60408051600581526020810196909652858101949094526060850192909252608084015260a083015260c08201905290565b84600160030381518110612381576123816153b6565b60200260200101819052505050505f806123aa8b606001518a815181106121c5576121c56153b6565b909250905060018260038111156123c3576123c3615a9a565b141580156123e257505f8260038111156123df576123df615a9a565b14155b156123fd578a606001518981518110612228576122286153b6565b8a516001600160a01b03165f90815260016020526040812060608d015180518391908d90811061242f5761242f6153b6565b60200260200101515f01516001600160a01b03166001600160a01b031681526020019081526020015f205f8d606001518c81518110612470576124706153b6565b60200260200101516020015181526020019081526020015f205490506124d78c606001518b815181106124a5576124a56153b6565b60200260200101515f01516001600160a01b03165f1b8360ff165f1b8e606001518d81518110612329576123296153b6565b846001600403815181106124ed576124ed6153b6565b60200260200101819052505050506125058186612eb9565b9150505f885f01516001600160a01b031690505f808a602001515f01516001600160a01b031663d04dfe236040518060e001604052808e60200151602001516001600160a01b0316815260200161256587305f9182526020526040902090565b81526020018e602001516040015181526020015f81526020018781526020015f67ffffffffffffffff81111561259d5761259d614b12565b6040519080825280602002602001820160405280156125c6578160200160208202803683370190505b5081526020015f6040519080825280602002602001820160405280156125f6578160200160208202803683370190505b508152506040518263ffffffff1660e01b815260040161261691906158d4565b5f60405180830381865afa158015612630573d5f803e3d5ffd5b505050506040513d5f823e601f3d908101601f1916820160405261265791908101906159cc565b9150915060028251101561269c5781516040517f3eee39540000000000000000000000000000000000000000000000000000000081526004016103c791815260200190565b6020828101516040808501518e516001600160a01b03165f908152600190945290832060608f01518051939492938391908f9081106126dd576126dd6153b6565b60200260200101515f01516001600160a01b03166001600160a01b031681526020019081526020015f205f8f606001518e8151811061271e5761271e6153b6565b60200260200101516020015181526020019081526020015f2054905061274d8183611f4d90919063ffffffff16565b60408051600281526020810183905280820186905260608101909152909250905086600281518110612781576127816153b6565b60200260200101819052506040518060e001604052808e81526020018c81526020018281526020018381526020018781526020018681526020018481525097505050505050505095945050505050565b5f6001600160e01b03838116601b90810b9160e086811d9291861690910b9085901d8480612801868686866134c7565b915091505f8061281184846135e6565b509b9a5050505050505050505050565b5f6001600160e01b03838116601b90810b9160e086811d9291861690910b9085901d8480612801868686866136be565b5f6001600160e01b03838116601b90810b9160e086811d9291861690910b9085901d8480612801868686866136e8565b5f6001600160e01b03838116601b90810b9160e086811d9291861690910b9085901d848061280186868686613c1b565b8281608001516003815181106128c9576128c96153b6565b60200260200101516004815181106128e3576128e36153b6565b602002602001018181525050818160800151600481518110612907576129076153b6565b6020026020010151600481518110612921576129216153b6565b6020026020010181815250506129b0815f01515f0151826080015160038151811061294e5761294e6153b6565b60200260200101515f81518110612967576129676153b6565b60200260200101515f1c8360800151600381518110612988576129886153b6565b60200260200101516002815181106129a2576129a26153b6565b602002602001015186611dec565b5050612a35815f01515f015182608001516004815181106129d3576129d36153b6565b60200260200101515f815181106129ec576129ec6153b6565b60200260200101515f1c8360800151600481518110612a0d57612a0d6153b6565b6020026020010151600281518110612a2757612a276153b6565b602002602001015185611f69565b50507f4cb6e22a3e7e651d7cf0376cff48f20f5007a54147777865be7f5f6c38c50f4a338260800151604051612a6c929190615aff565b60405180910390a1505050565b5f6001600160e01b03838116601b90810b9160e086811d9291861690910b9085901d612aa7848484846131b4565b13979650505050505050565b60c08101515115612b2d578051602090810151015160a082015160c083015160405163012c676d60e21b81526001600160a01b03909316926304b19db492612aff929091600401615a82565b5f604051808303815f87803b158015612b16575f80fd5b505af1158015612b28573d5f803e3d5ffd5b505050505b5f80825f0151602001515f01516001600160a01b031663d04dfe236040518060e00160405280865f015160200151602001516001600160a01b03168152602001612b848760a00151305f9182526020526040902090565b8152602001865f01516020015160400151815260200160018152602001866080015181526020015f67ffffffffffffffff811115612bc457612bc4614b12565b604051908082528060200260200182016040528015612bed578160200160208202803683370190505b5081526020015f604051908082528060200260200182016040528015612c1d578160200160208202803683370190505b508152506040518263ffffffff1660e01b8152600401612c3d91906158d4565b5f60405180830381865afa158015612c57573d5f803e3d5ffd5b505050506040513d5f823e601f3d908101601f19168201604052612c7e91908101906159cc565b8051919350915015611f0c578251602090810151015160a084015160405163012c676d60e21b81526001600160a01b03909216916304b19db491612cc6918590600401615a82565b5f604051808303815f87803b158015612cdd575f80fd5b505af1158015612cef573d5f803e3d5ffd5b50505050505050565b612d0181613d19565b612d3957806040517f644cc2580000000000000000000000000000000000000000000000000000000081526004016103c79190615b20565b50565b60605f612d498484613d47565b9050808015612d6a57505f3d1180612d6a57505f846001600160a01b03163b115b15612d7f57612d77613d5a565b915050610344565b8015612dc2576040517f9996b3150000000000000000000000000000000000000000000000000000000081526001600160a01b03851660048201526024016103c7565b3d15612dd557612dd0613d73565b612e07565b6040517fd6bda27500000000000000000000000000000000000000000000000000000000815260040160405180910390fd5b5092915050565b604080516080810182525f808252602082018190529181018290526060810191909152612e3b8383613d7e565b82526040820152612e4c8284613d7e565b6020830152606082015292915050565b7f9b779b17422d0df92223018b32b4d1fa46e071723d6817e2486d003becc55f0054600203612eb7576040517f3ee5aeb500000000000000000000000000000000000000000000000000000000815260040160405180910390fd5b565b60605f825167ffffffffffffffff811115612ed657612ed6614b12565b604051908082528060200260200182016040528015612eff578160200160208202803683370190505b5090505f80845111612f11575f612f17565b83516001015b85516001010190505f8167ffffffffffffffff811115612f3957612f39614b12565b604051908082528060200260200182016040528015612f6c57816020015b6060815260200190600190039081612f575790505b5090505f612f90604080516002815233602082015230818301526060810190915290565b828281518110612fa257612fa26153b6565b60200260200101819052505f5b8751811015612fff578180600101925050878181518110612fd257612fd26153b6565b6020026020010151838381518110612fec57612fec6153b6565b6020908102919091010152600101612faf565b508551156131aa57808060010191505083828281518110613022576130226153b6565b60200260200101819052505f5b86518110156131a8576130de87828151811061304d5761304d6153b6565b60200260200101515f01516130bb6130898a8581518110613070576130706153b6565b6020026020010151602001518051602090810291012090565b7f19457468657265756d205369676e6564204d6573736167653a0a3332000000005f908152601c91909152603c902090565b8984815181106130cd576130cd6153b6565b602002602001015160400151613de7565b613117576040517f52bf9848000000000000000000000000000000000000000000000000000000008152600481018290526024016103c7565b868181518110613129576131296153b6565b60200260200101515f01516001600160a01b03165f1b858281518110613151576131516153b6565b6020026020010181815250508180600101925050868181518110613177576131776153b6565b602002602001015160200151838381518110613195576131956153b6565b602090810291909101015260010161302f565b505b5095945050505050565b5f80851584151781871282861218178584141780156131d95786859250925050611ece565b505f858413156131ed575092949193919260015b8386035f8112604c8213178015613220578215613212575f8994509450505050611ece565b885f94509450505050611ece565b600a82900a8981028a82828161323857613238615b32565b0514613264578415613254575f8b965096505050505050611ece565b8a5f965096505050505050611ece565b8415613279578896509450611ece9350505050565b9550879450611ece9350505050565b6040517fb7bad1b10000000000000000000000000000000000000000000000000000000081526001600160a01b03821660048201525f90819073f66761f6b5f58202998d6cd944c81b22dc6d4f1e9063b7bad1b19060240160408051808303815f875af11580156132fb573d5f803e3d5ffd5b505050506040513d601f19601f8201168201806040525081019061331f9190615b46565b91509150915091565b5f806001600160e01b038416601b0b60e085901d613347828287613e57565b9350935050509250929050565b6040517fa9059cbb000000000000000000000000000000000000000000000000000000005f8181526001600160a01b038616600452602485905291602083604481808b5af1925060015f511483166133c35783831516156133b7573d5f823e3d81fd5b5f873b113d1516831692505b60405250949350505050565b6040517f23b872dd000000000000000000000000000000000000000000000000000000005f8181526001600160a01b038781166004528616602452604485905291602083606481808c5af1925060015f51148316613444578383151615613438573d5f823e3d81fd5b5f883b113d1516831692505b604052505f60605295945050505050565b6040517f0782d7e10000000000000000000000000000000000000000000000000000000081526001600160a01b03821660048201525f90819073f66761f6b5f58202998d6cd944c81b22dc6d4f1e90630782d7e1906024016040805180830381865afa1580156132fb573d5f803e3d5ffd5b5f80851584151780156134df575f92505f91506135dc565b6134e98487615b86565b91505f6134f588613f6f565b90505f61350187613f6f565b90505f61350e8383613f9d565b5090505f6f0785ee10d5da46d900f436a000000000821115613543576f0785ee10d5da46d900f436a000000000820491506025015b670de0b6b3a764000082111561356457670de0b6b3a7640000820491506012015b633b9aca0082111561357d57633b9aca00820491506009015b61271082111561359257612710820491506004015b81156135a657600a82049150600101613592565b6135b08187615b86565b95506135d28b8a6135cc87876135c787600a615c85565b613fb9565b8961409e565b9097509550505050505b5094509492505050565b5f601b83900b831483838261364a577d90e40fbeea1d3a4abc8955e946fe31cdcf66f634e100000000000000000086051561362a57620186a0860595506005850194505b8586601b0b1461364557600a8605955084600101945061362a565b613660565b855f0361366057505f925060019150611de59050565b848560030b146136a3575f85121561368057505f9250829150611de59050565b60405163d556b11160e01b815260048101839052602481018290526044016103c7565b50506001600160e01b03841660e084901b1791509250929050565b5f806136ca848461413e565b90945092506136db86868686613c1b565b9150915094509492505050565b5f80835f0361372d576040517f7a97930f00000000000000000000000000000000000000000000000000000000815260048101879052602481018690526044016103c7565b855f0361373e57505f905080611ece565b5f805f8061374c8a8a614193565b919b509950915061375d8888614193565b919950975090505f61376e8b613f6f565b90505f61377a8a613f6f565b90507f161bcca7119915b50764b4abe86529797775a5f1719510000000000000000000604c81831015613b1c5784156137d857507f0235fadd81c2822bb3f07877973d50f28bf22a31be8ee80000000000000000009050604b613af4565b6f4b3b4ca85a86c47a098a22400000000083101561390457678ac7230489e80000831015613868576402540be40083101561383657620186a08310156138265750620186a090506005613adf565b506402540be4009050600a613adf565b655af3107a40008310156138555750655af3107a40009050600e613adf565b50678ac7230489e8000090506013613adf565b6b204fce5e3e250261100000008310156138ba5769152d02c7e14af68000008310156138a3575069152d02c7e14af680000090506017613adf565b506b204fce5e3e250261100000009050601c613adf565b6d314dc6448d9338c15b0a000000008310156138e957506d314dc6448d9338c15b0a0000000090506021613adf565b506f4b3b4ca85a86c47a098a22400000000090506026613adf565b780197d4df19d605767337e9f14d3eec8920e4000000000000008310156139fc5773af298d050e4395d69670b12b7f41000000000000831015613997577172cb5bd86321e38cb6ce6682e8000000000083101561397857507172cb5bd86321e38cb6ce6682e800000000009050602b613adf565b5073af298d050e4395d69670b12b7f4100000000000090506030613adf565b76010b46c6cdd6e3e0828f4db456ff0c8ea00000000000008310156139d8575076010b46c6cdd6e3e0828f4db456ff0c8ea000000000000090506035613adf565b50780197d4df19d605767337e9f14d3eec8920e4000000000000009050603a613adf565b7c03b58e88c75313ec9d329eaaa18fb92f75215b17100000000000000000831015613a92577a026e4d30eccc3215dd8f3157d27e23acbdcfe68000000000000000831015613a6a57507a026e4d30eccc3215dd8f3157d27e23acbdcfe680000000000000009050603f613adf565b507c03b58e88c75313ec9d329eaaa18fb92f75215b1710000000000000000090506044613adf565b7e05a8e89d75252446eb5d5d5b1cc5edf20a1a059e10ca000000000000000000831015613adf57507e05a8e89d75252446eb5d5d5b1cc5edf20a1a059e10ca000000000000000000905060495b818311613af457600a820491505f1901613adf565b85613b1c576040516305e51ecb60e01b8152600481018f9052602481018e90526044016103c7565b80600160ff1b018d12613b3357808d039c50613b71565b600160ff1b9c90038c015f811315613b7157806001600160ff1b03038b13613b5e57998a0199613b71565b5f80995099505050505050505050611ece565b5f808e128015613b8057505f8c135b15613ba157600160ff1b8e01808d13613b99575f613b9d565b808d035b9150505b8b818f01039750613bbe8f8e613bb8888789613fb9565b8b61409e565b90995097505f811315613c0857604c811315613be8575f809a509a50505050505050505050611ece565b80600a0a8981613bfa57613bfa615b32565b059850885f03613c08575f97505b50969850949650611ece95505050505050565b5f8085158415178015613c4757865f03613c3b5784849250925050611ece565b86869250925050611ece565b613c518787614439565b9097509550613c608585614439565b909550935085841315613c74579395929492935b838603604c811115613c8d578787935093505050611ece565b80600a0a8681613c9f57613c9f615b32565b0595505086850180881860ff90811c151589881890911c15168015613d0857876001600160ff1b0303613cef5760405163d556b11160e01b8152600481018a9052602481018990526044016103c7565b600a968790059690980586019760019790970196613d0c565b8198505b5096979596505050505050565b5f600882511015613d2b57505f919050565b506008015167ffffffffffffffff1667ff0a89c674ee78741490565b5f805f835160208501865af49392505050565b6040513d81523d5f602083013e3d602001810160405290565b6040513d5f823e3d81fd5b5f80613d9b846060015185604001516127d190919063ffffffff16565b915083604001519050613dbb836040015183611cc090919063ffffffff16565b15611de55782604001519150613dde84606001518361285190919063ffffffff16565b90509250929050565b5f836001600160a01b03163b5f03613e45575f80613e058585614482565b5090925090505f816003811115613e1e57613e1e615a9a565b148015613e3c5750856001600160a01b0316826001600160a01b0316145b925050506104bf565b613e508484846144c8565b90506104bf565b5f805f851215613e9d576040517f4a7d166b00000000000000000000000000000000000000000000000000000000815260048101869052602481018590526044016103c7565b845f03613eaf57505f90506001613f67565b8460ff8416850185811215613ee15760405163d556b11160e01b815260048101889052602481018790526044016103c7565b5f805f831215613f2d57604c19831215613f04575f809550955050505050613f67565b825f03600a0a9150818481613f1b57613f1b615b32565b0495505084029091149150613f679050565b5f831315613f5c57613f4083600a615c85565b9150613f4c8285615c90565b955060019450613f679350505050565b509193506001925050505b935093915050565b5f80821215613f9457600160ff1b8203613f8e5750600160ff1b919050565b505f0390565b5090565b919050565b5f805f1983850993909202808410938190039390930393915050565b5f805f613fc68686613f9d565b91509150815f03613fea57838181613fe057613fe0615b32565b04925050506104bf565b838210614034576040517f6c59da120000000000000000000000000000000000000000000000000000000081526004810187905260248101869052604481018590526064016103c7565b5f84868809600186198101871696879004966002600389028118808a02820302808a02820302808a02820302808a02820302808a02820302808a02909103025f82900382900490920185841190960395909502919093039390930492909217029150509392505050565b5f805f858718121561411a576001600160ff1b03841115614107576140cb6001600160ff1b03600161535d565b84036140df5750600160ff1b905081611ece565b6140ea600a85615ca7565b6140f390615cc6565b6140fe846001615b86565b91509150611ece565b61411084615cc6565b8391509150611ece565b6001600160ff1b03841115614134576140f3600a85615ca7565b5082905081611ece565b5f80600160ff1b8403614189576001600160ff1b03830361417c5760405163d556b11160e01b815260048101859052602481018490526044016103c7565b600a840593508260010192505b50505f9190910391565b5f805f845f036141ab57505f91508190506001614432565b7f0235fadd81c2822bb3f07877973d50f28bf22a31be8ee800000000000000000085055f036143bf576f4b3b4ca85a86c47a098a224000000000850515801561421457507f80000000000000000000000000000000000000000000000000000000000000268412155b15614235576f4b3b4ca85a86c47a098a224000000000850294506026840393505b7728c87cb5c89a2571ebfdcb54864ada834a00000000000000850515801561427d57507f80000000000000000000000000000000000000000000000000000000000000138412155b1561429657678ac7230489e80000850294506013840393505b7b097edd871cfda3a5697758bf0e3cbb5ac5741c64000000000000000085051580156142e257507f800000000000000000000000000000000000000000000000000000000000000a8412155b156142f8576402540be40085029450600a840393505b7e3899162693736ac531a5a58f1fbb4b746504382ca7e4000000000000000000850515801561434757507f80000000000000000000000000000000000000000000000000000000000000028412155b1561435d576064850294506002840393506142f8565b7f0235fadd81c2822bb3f07877973d50f28bf22a31be8ee800000000000000000085051580156143ad57507f80000000000000000000000000000000000000000000000000000000000000018412155b156143bf57600a850294506001840393505b600a808602908105861480156143f557507f80000000000000000000000000000000000000000000000000000000000000018512155b15614404578095506001850394505b50849250839150507f0235fadd81c2822bb3f07877973d50f28bf22a31be8ee8000000000000000000820515155b9250925092565b5f805f805f6144488787614193565b92509250925080614476576040516305e51ecb60e01b815260048101889052602481018790526044016103c7565b50909590945092505050565b5f805f83516041036144b9576020840151604085015160608601515f1a6144ab88828585614532565b955095509550505050614432565b505081515f9150600290614432565b8051604080517f1626ba7e000000000000000000000000000000000000000000000000000000008082526004820186905260248201929092525f92906020820185604483015e60205f60648401838a5afa9050825f5114601f3d1116811693505050509392505050565b5f80807f7fffffffffffffffffffffffffffffff5d576e7357a4501ddfe92f46681b20a084111561456b57505f915060039050826145f0565b604080515f808252602082018084528a905260ff891692820192909252606081018790526080810186905260019060a0016020604051602081039080840390855afa1580156145bc573d5f803e3d5ffd5b5050604051601f1901519150506001600160a01b0381166145e757505f9250600191508290506145f0565b92505f91508190505b9450945094915050565b604051806080016040528061460d614626565b81526020015f81526020015f8152602001606081525090565b6040518060a001604052805f6001600160a01b0316815260200161467460405180606001604052805f6001600160a01b031681526020015f6001600160a01b03168152602001606081525090565b8152606060208201819052604082018190525f91015290565b6040518060e001604052806146a0614626565b81526020015f81526020015f80191681526020015f8019168152602001606081526020015f8152602001606081525090565b5f602082840312156146e2575f80fd5b81357fffffffff00000000000000000000000000000000000000000000000000000000811681146104bf575f80fd5b5f8083601f840112614721575f80fd5b50813567ffffffffffffffff811115614738575f80fd5b6020830191508360208260051b8501011115611de5575f80fd5b5f805f60408486031215614764575f80fd5b833567ffffffffffffffff8082111561477b575f80fd5b9085019060a0828803121561478e575f80fd5b909350602085013590808211156147a3575f80fd5b506147b086828701614711565b9497909650939450505050565b5f602082840312156147cd575f80fd5b5035919050565b6001600160a01b0381168114612d39575f80fd5b8035613f98816147d4565b5f805f805f60808688031215614807575f80fd5b8535614812816147d4565b94506020860135935060408601359250606086013567ffffffffffffffff81111561483b575f80fd5b61484788828901614711565b969995985093965092949392505050565b5f805f6060848603121561486a575f80fd5b8335614875816147d4565b92506020840135614885816147d4565b929592945050506040919091013590565b5f805f805f608086880312156148aa575f80fd5b85356148b5816147d4565b945060208601356148c5816147d4565b935060408601359250606086013567ffffffffffffffff808211156148e8575f80fd5b818801915088601f8301126148fb575f80fd5b813581811115614909575f80fd5b89602082850101111561491a575f80fd5b9699959850939650602001949392505050565b5f6020828403121561493d575f80fd5b81356104bf816147d4565b5f60c08284031215614958575f80fd5b50919050565b5f6020828403121561496e575f80fd5b813567ffffffffffffffff811115614984575f80fd5b61499084828501614948565b949350505050565b5f805f604084860312156149aa575f80fd5b833567ffffffffffffffff808211156149c1575f80fd5b6149cd87838801614948565b945060208601359150808211156147a3575f80fd5b5f602082840312156149f2575f80fd5b813567ffffffffffffffff811115614a08575f80fd5b8201608081850312156104bf575f80fd5b5f8060208385031215614a2a575f80fd5b823567ffffffffffffffff811115614a40575f80fd5b614a4c85828601614711565b90969095509350505050565b5f81518084528060208401602086015e5f602082860101526020601f19601f83011685010191505092915050565b5f60208083016020845280855180835260408601915060408160051b8701019250602087015f5b82811015614adb57603f19888603018452614ac9858351614a58565b94509285019290850190600101614aad565b5092979650505050505050565b5f8060408385031215614af9575f80fd5b8235614b04816147d4565b946020939093013593505050565b634e487b7160e01b5f52604160045260245ffd5b6040516060810167ffffffffffffffff81118282101715614b4957614b49614b12565b60405290565b6040805190810167ffffffffffffffff81118282101715614b4957614b49614b12565b60405160a0810167ffffffffffffffff81118282101715614b4957614b49614b12565b604051601f8201601f1916810167ffffffffffffffff81118282101715614bbe57614bbe614b12565b604052919050565b5f82601f830112614bd5575f80fd5b813567ffffffffffffffff811115614bef57614bef614b12565b614c02601f8201601f1916602001614b95565b818152846020838601011115614c16575f80fd5b816020850160208301375f918101602001919091529392505050565b5f60608284031215614c42575f80fd5b614c4a614b26565b90508135614c57816147d4565b81526020820135614c67816147d4565b6020820152604082013567ffffffffffffffff811115614c85575f80fd5b614c9184828501614bc6565b60408301525092915050565b5f67ffffffffffffffff821115614cb657614cb6614b12565b5060051b60200190565b5f60408284031215614cd0575f80fd5b614cd8614b4f565b90508135614ce5816147d4565b808252506020820135602082015292915050565b5f82601f830112614d08575f80fd5b81356020614d1d614d1883614c9d565b614b95565b8083825260208201915060208460061b870101935086841115614d3e575f80fd5b602086015b84811015614d6357614d558882614cc0565b835291830191604001614d43565b509695505050505050565b5f60a08284031215614d7e575f80fd5b614d86614b72565b9050614d91826147e8565b8152602082013567ffffffffffffffff80821115614dad575f80fd5b614db985838601614c32565b60208401526040840135915080821115614dd1575f80fd5b614ddd85838601614cf9565b60408401526060840135915080821115614df5575f80fd5b50614e0284828501614cf9565b6060830152506080820135608082015292915050565b5f614e25614d1884614c9d565b8381529050602080820190600585811b850187811115614e43575f80fd5b855b81811015614f3057803567ffffffffffffffff80821115614e64575f80fd5b908801906060828c031215614e77575f80fd5b614e7f614b26565b8235614e8a816147d4565b81528287013582811115614e9c575f80fd5b8301601f81018d13614eac575f80fd5b8035614eba614d1882614c9d565b81815290881b8201890190898101908f831115614ed5575f80fd5b928a01925b82841015614ef35783358252928a0192908a0190614eda565b848b01525060409150508381013583811115614f0d575f80fd5b614f198e828701614bc6565b918301919091525087525050938301938301614e45565b50505050509392505050565b5f82601f830112614f4b575f80fd5b6104bf83833560208501614e18565b5f805f805f6101408688031215614f6f575f80fd5b853567ffffffffffffffff80821115614f86575f80fd5b614f9289838a01614d6e565b96506020880135915080821115614fa7575f80fd5b614fb389838a01614d6e565b9550614fc28960408a01614948565b9450610100880135915080821115614fd8575f80fd5b614fe489838a01614f3c565b9350610120880135915080821115614ffa575f80fd5b5061500788828901614f3c565b9150509295509295909350565b5f6103443683614d6e565b81835281816020850137505f828201602090810191909152601f909101601f19169091010190565b5f8135615053816147d4565b6001600160a01b03908116845260208301359061506f826147d4565b166020840152604082013536839003601e1901811261508c575f80fd5b820160208101903567ffffffffffffffff8111156150a8575f80fd5b8036038213156150b6575f80fd5b606060408601526150cb60608601828461501f565b95945050505050565b5f808335601e198436030181126150e9575f80fd5b830160208101925035905067ffffffffffffffff811115615108575f80fd5b8060061b3603821315611de5575f80fd5b8183525f60208085019450825f5b8581101561515f57813561513a816147d4565b6001600160a01b03168752818301358388015260409687019690910190600101615127565b509495945050505050565b5f6001600160a01b038086168352846020840152606060408401528335615190816147d4565b166060830152602083013536849003605e190181126151ad575f80fd5b60a060808401526151c46101008401858301615047565b90506151d360408501856150d4565b605f19808685030160a08701526151eb848385615119565b93506151fa60608801886150d4565b93509150808685030160c087015250615214838383615119565b92505050608084013560e084015280915050949350505050565b5f61523b614d1884614c9d565b80848252602080830192508560051b850136811115615258575f80fd5b855b818110156152e257803567ffffffffffffffff80821115615279575f80fd5b81890191506040823603121561528d575f80fd5b615295614b4f565b8235828111156152a3575f80fd5b6152af36828601614c32565b82525085830135828111156152c2575f80fd5b6152ce36828601614f3c565b82880152508752505093820193820161525a565b50919695505050505050565b5f6001600160a01b03808916835280881660208401525085604083015284606083015260a0608083015261532660a08301848661501f565b98975050505050505050565b5f60208284031215615342575f80fd5b5051919050565b634e487b7160e01b5f52601160045260245ffd5b8082018082111561034457610344615349565b5f808335601e19843603018112615385575f80fd5b83018035915067ffffffffffffffff82111561539f575f80fd5b6020019150600581901b3603821315611de5575f80fd5b634e487b7160e01b5f52603260045260245ffd5b5f8235607e198336030181126153de575f80fd5b9190910192915050565b5f8235609e198336030181126153de575f80fd5b5f808335601e19843603018112615411575f80fd5b83018035915067ffffffffffffffff82111561542b575f80fd5b6020019150600681901b3603821315611de5575f80fd5b5f60808236031215615452575f80fd5b6040516080810167ffffffffffffffff828210818311171561547657615476614b12565b81604052843591508082111561548a575f80fd5b61549636838701614d6e565b8352602085013560208401526040850135604084015260608501359150808211156154bf575f80fd5b506154cc36828601614f3c565b60608301525092915050565b5f602082840312156154e8575f80fd5b813580151581146104bf575f80fd5b5f815180845260208085019450602084015f5b8381101561515f57815180516001600160a01b03168852830151838801526040909601959082019060010161550a565b5f6001600160a01b03808351168452602083015160a060208601528181511660a08601528160208201511660c08601526040810151915050606060e0850152615587610100850182614a58565b9050604083015184820360408601526155a082826154f7565b915050606083015184820360608601526155ba82826154f7565b915050608083015160808501528091505092915050565b5f815180845260208085019450602084015f5b8381101561515f578151875295820195908201906001016155e4565b5f6001600160a01b0380871683526020608081850152865160808086015261562c61010086018261553a565b90508188015160a086015260408089015160c08701526060808a0151607f198885030160e08901528381518086528686019150868160051b87010187840193505f5b828110156156c857601f1988830301845284518a815116835289810151878b85015261569c888501826155d1565b91890151848303858b01529190506156b48183614a58565b968b0196958b01959350505060010161566e565b5080995050505050505050505083604083015282606083015295945050505050565b5f808335601e198436030181126156ff575f80fd5b83018035915067ffffffffffffffff821115615719575f80fd5b602001915036819003821315611de5575f80fd5b5f8235605e198336030181126153de575f80fd5b5f6103443683614c32565b5f6040828403121561575c575f80fd5b6104bf8383614cc0565b6001600160a01b0384168152826020820152606060408201525f6150cb606083018461553a565b6001600160a01b0385168152836020820152606060408201525f6157b560608301848661501f565b9695505050505050565b5f6104bf368484614e18565b828482375f8382015f815283518060208601835e5f910190815295945050505050565b5f6101206001600160a01b03871683528060208401526158108184018761553a565b90508281036040840152615824818661553a565b9150508235606083015260208301356080830152604083013560a0830152606083013560c0830152608083013560e083015260a083013561010083015295945050505050565b602081525f6104bf602083018461553a565b5f8282518085526020808601955060208260051b840101602086015f5b848110156158c757601f198684030189526158b58383516155d1565b98840198925090830190600101615899565b5090979650505050505050565b602081526001600160a01b038251166020820152602082015160408201525f604083015160e0606084015261590d610100840182614a58565b9050606084015160808401526080840151601f19808584030160a0860152615935838361587c565b925060a08601519150808584030160c086015261595283836155d1565b925060c08601519150808584030160e0860152506150cb82826155d1565b5f82601f83011261597f575f80fd5b8151602061598f614d1883614c9d565b8083825260208201915060208460051b8701019350868411156159b0575f80fd5b602086015b84811015614d6357805183529183019183016159b5565b5f80604083850312156159dd575f80fd5b825167ffffffffffffffff808211156159f4575f80fd5b818501915085601f830112615a07575f80fd5b81516020615a17614d1883614c9d565b82815260059290921b84018101918181019089841115615a35575f80fd5b948201945b83861015615a5357855182529482019490820190615a3a565b91880151919650909350505080821115615a6b575f80fd5b50615a7885828601615970565b9150509250929050565b828152604060208201525f61499060408301846155d1565b634e487b7160e01b5f52602160045260245ffd5b6001600160a01b03831681526040810160048310615ada57634e487b7160e01b5f52602160045260245ffd5b8260208301529392505050565b5f60018201615af857615af8615349565b5060010190565b6001600160a01b0383168152604060208201525f614990604083018461587c565b602081525f6104bf6020830184614a58565b634e487b7160e01b5f52601260045260245ffd5b5f8060408385031215615b57575f80fd5b825160048110615b65575f80fd5b602084015190925060ff81168114615b7b575f80fd5b809150509250929050565b8082018281125f83128015821682158216171561152157611521615349565b600181815b80851115615bdf57815f1904821115615bc557615bc5615349565b80851615615bd257918102915b93841c9390800290615baa565b509250929050565b5f82615bf557506001610344565b81615c0157505f610344565b8160018114615c175760028114615c2157615c3d565b6001915050610344565b60ff841115615c3257615c32615349565b50506001821b610344565b5060208310610133831016604e8410600b8410161715615c60575081810a610344565b615c6a8383615ba5565b805f1904821115615c7d57615c7d615349565b029392505050565b5f6104bf8383615be7565b808202811582820484141761034457610344615349565b5f82615cc157634e487b7160e01b5f52601260045260245ffd5b500490565b5f600160ff1b8203613f8e57613f8e61534956","linkReferences":{}},"methodIdentifiers":{"addOrder4(((address,address,bytes),(address,bytes32)[],(address,bytes32)[],bytes32,bytes32,bytes),((address,address,bytes),(address,bytes32[],bytes)[])[])":"709fb8a5","clear3((address,(address,address,bytes),(address,bytes32)[],(address,bytes32)[],bytes32),(address,(address,address,bytes),(address,bytes32)[],(address,bytes32)[],bytes32),(uint256,uint256,uint256,uint256,bytes32,bytes32),(address,bytes32[],bytes)[],(address,bytes32[],bytes)[])":"fa501182","deposit4(address,bytes32,bytes32,((address,address,bytes),(address,bytes32[],bytes)[])[])":"2fbc4ba0","entask2(((address,address,bytes),(address,bytes32[],bytes)[])[])":"d7e442ec","flashFee(address,uint256)":"d9d98ce4","flashLoan(address,address,uint256,bytes)":"5cffe9de","maxFlashLoan(address)":"613255ab","multicall(bytes[])":"ac9650d8","orderExists(bytes32)":"2cb77e9f","quote2(((address,(address,address,bytes),(address,bytes32)[],(address,bytes32)[],bytes32),uint256,uint256,(address,bytes32[],bytes)[]))":"9235084d","removeOrder3((address,(address,address,bytes),(address,bytes32)[],(address,bytes32)[],bytes32),((address,address,bytes),(address,bytes32[],bytes)[])[])":"1f69cb75","supportsInterface(bytes4)":"01ffc9a7","takeOrders4((bytes32,bytes32,bytes32,bool,((address,(address,address,bytes),(address,bytes32)[],(address,bytes32)[],bytes32),uint256,uint256,(address,bytes32[],bytes)[])[],bytes))":"69c72856","vaultBalance2(address,address,bytes32)":"41d1514f","withdraw4(address,bytes32,bytes32,((address,address,bytes),(address,bytes32[],bytes)[])[])":"60746119"},"id":253}