{"abi":[{"type":"constructor","inputs":[{"name":"config","type":"tuple","internalType":"struct OrderBookV6ArbConfig","components":[{"name":"orderBook","type":"address","internalType":"address"},{"name":"task","type":"tuple","internalType":"struct TaskV2","components":[{"name":"evaluable","type":"tuple","internalType":"struct EvaluableV4","components":[{"name":"interpreter","type":"address","internalType":"contract IInterpreterV4"},{"name":"store","type":"address","internalType":"contract IInterpreterStoreV3"},{"name":"bytecode","type":"bytes","internalType":"bytes"}]},{"name":"signedContext","type":"tuple[]","internalType":"struct SignedContextV1[]","components":[{"name":"signer","type":"address","internalType":"address"},{"name":"context","type":"bytes32[]","internalType":"bytes32[]"},{"name":"signature","type":"bytes","internalType":"bytes"}]}]},{"name":"implementationData","type":"bytes","internalType":"bytes"}]}],"stateMutability":"nonpayable"},{"type":"fallback","stateMutability":"nonpayable"},{"type":"function","name":"arb4","inputs":[{"name":"orderBook","type":"address","internalType":"contract IOrderBookV6"},{"name":"takeOrders","type":"tuple[]","internalType":"struct TakeOrdersConfigV5[]","components":[{"name":"minimumIO","type":"bytes32","internalType":"Float"},{"name":"maximumIO","type":"bytes32","internalType":"Float"},{"name":"maximumIORatio","type":"bytes32","internalType":"Float"},{"name":"IOIsInput","type":"bool","internalType":"bool"},{"name":"orders","type":"tuple[]","internalType":"struct TakeOrderConfigV4[]","components":[{"name":"order","type":"tuple","internalType":"struct OrderV4","components":[{"name":"owner","type":"address","internalType":"address"},{"name":"evaluable","type":"tuple","internalType":"struct EvaluableV4","components":[{"name":"interpreter","type":"address","internalType":"contract IInterpreterV4"},{"name":"store","type":"address","internalType":"contract IInterpreterStoreV3"},{"name":"bytecode","type":"bytes","internalType":"bytes"}]},{"name":"validInputs","type":"tuple[]","internalType":"struct IOV2[]","components":[{"name":"token","type":"address","internalType":"address"},{"name":"vaultId","type":"bytes32","internalType":"bytes32"}]},{"name":"validOutputs","type":"tuple[]","internalType":"struct IOV2[]","components":[{"name":"token","type":"address","internalType":"address"},{"name":"vaultId","type":"bytes32","internalType":"bytes32"}]},{"name":"nonce","type":"bytes32","internalType":"bytes32"}]},{"name":"inputIOIndex","type":"uint256","internalType":"uint256"},{"name":"outputIOIndex","type":"uint256","internalType":"uint256"},{"name":"signedContext","type":"tuple[]","internalType":"struct SignedContextV1[]","components":[{"name":"signer","type":"address","internalType":"address"},{"name":"context","type":"bytes32[]","internalType":"bytes32[]"},{"name":"signature","type":"bytes","internalType":"bytes"}]}]},{"name":"data","type":"bytes","internalType":"bytes"}]},{"name":"exchangeData","type":"bytes","internalType":"bytes"},{"name":"task","type":"tuple","internalType":"struct TaskV2","components":[{"name":"evaluable","type":"tuple","internalType":"struct EvaluableV4","components":[{"name":"interpreter","type":"address","internalType":"contract IInterpreterV4"},{"name":"store","type":"address","internalType":"contract IInterpreterStoreV3"},{"name":"bytecode","type":"bytes","internalType":"bytes"}]},{"name":"signedContext","type":"tuple[]","internalType":"struct SignedContextV1[]","components":[{"name":"signer","type":"address","internalType":"address"},{"name":"context","type":"bytes32[]","internalType":"bytes32[]"},{"name":"signature","type":"bytes","internalType":"bytes"}]}]}],"outputs":[],"stateMutability":"payable"},{"type":"function","name":"iTaskHash","inputs":[],"outputs":[{"name":"","type":"bytes32","internalType":"bytes32"}],"stateMutability":"view"},{"type":"function","name":"onFlashLoan","inputs":[{"name":"initiator","type":"address","internalType":"address"},{"name":"","type":"address","internalType":"address"},{"name":"","type":"uint256","internalType":"uint256"},{"name":"","type":"uint256","internalType":"uint256"},{"name":"data","type":"bytes","internalType":"bytes"}],"outputs":[{"name":"","type":"bytes32","internalType":"bytes32"}],"stateMutability":"nonpayable"},{"type":"function","name":"supportsInterface","inputs":[{"name":"interfaceId","type":"bytes4","internalType":"bytes4"}],"outputs":[{"name":"","type":"bool","internalType":"bool"}],"stateMutability":"view"},{"type":"event","name":"Construct","inputs":[{"name":"sender","type":"address","indexed":false,"internalType":"address"},{"name":"config","type":"tuple","indexed":false,"internalType":"struct OrderBookV6ArbConfig","components":[{"name":"orderBook","type":"address","internalType":"address"},{"name":"task","type":"tuple","internalType":"struct TaskV2","components":[{"name":"evaluable","type":"tuple","internalType":"struct EvaluableV4","components":[{"name":"interpreter","type":"address","internalType":"contract IInterpreterV4"},{"name":"store","type":"address","internalType":"contract IInterpreterStoreV3"},{"name":"bytecode","type":"bytes","internalType":"bytes"}]},{"name":"signedContext","type":"tuple[]","internalType":"struct SignedContextV1[]","components":[{"name":"signer","type":"address","internalType":"address"},{"name":"context","type":"bytes32[]","internalType":"bytes32[]"},{"name":"signature","type":"bytes","internalType":"bytes"}]}]},{"name":"implementationData","type":"bytes","internalType":"bytes"}]}],"anonymous":false},{"type":"error","name":"BadInitiator","inputs":[{"name":"badInitiator","type":"address","internalType":"address"}]},{"type":"error","name":"CoefficientOverflow","inputs":[{"name":"signedCoefficient","type":"int256","internalType":"int256"},{"name":"exponent","type":"int256","internalType":"int256"}]},{"type":"error","name":"ExponentOverflow","inputs":[{"name":"signedCoefficient","type":"int256","internalType":"int256"},{"name":"exponent","type":"int256","internalType":"int256"}]},{"type":"error","name":"FailedCall","inputs":[]},{"type":"error","name":"FlashLoanFailed","inputs":[]},{"type":"error","name":"InsufficientBalance","inputs":[{"name":"balance","type":"uint256","internalType":"uint256"},{"name":"needed","type":"uint256","internalType":"uint256"}]},{"type":"error","name":"InvalidSignature","inputs":[{"name":"i","type":"uint256","internalType":"uint256"}]},{"type":"error","name":"LossyConversionToFloat","inputs":[{"name":"signedCoefficient","type":"int256","internalType":"int256"},{"name":"exponent","type":"int256","internalType":"int256"}]},{"type":"error","name":"NegativeFixedDecimalConversion","inputs":[{"name":"signedCoefficient","type":"int256","internalType":"int256"},{"name":"exponent","type":"int256","internalType":"int256"}]},{"type":"error","name":"NoOrders","inputs":[]},{"type":"error","name":"ReentrancyGuardReentrantCall","inputs":[]},{"type":"error","name":"SafeERC20FailedOperation","inputs":[{"name":"token","type":"address","internalType":"address"}]},{"type":"error","name":"WrongTask","inputs":[]}],"bytecode":{"object":"0x60a06040525f608052348015610013575f80fd5b50604051613ae3380380613ae383398101604081905261003291610353565b808060017f9b779b17422d0df92223018b32b4d1fa46e071723d6817e2486d003becc55f00556040517f3a5f92e1700a303557ddae1bed800da2d50036e5b24950a948611540f0928e799061008a90339084906105c1565b60405180910390a16020810151516040015151156100d1576020808201516040516100b59201610620565b60408051601f1981840301815291905280516020909101206080525b505050610639565b634e487b7160e01b5f52604160045260245ffd5b604051606081016001600160401b038111828210171561010f5761010f6100d9565b60405290565b604080519081016001600160401b038111828210171561010f5761010f6100d9565b604051601f8201601f191681016001600160401b038111828210171561015f5761015f6100d9565b604052919050565b6001600160a01b038116811461017b575f80fd5b50565b5f82601f83011261018d575f80fd5b81516001600160401b038111156101a6576101a66100d9565b6101b9601f8201601f1916602001610137565b8181528460208386010111156101cd575f80fd5b8160208501602083015e5f918101602001919091529392505050565b5f6001600160401b03821115610201576102016100d9565b5060051b60200190565b5f82601f83011261021a575f80fd5b8151602061022f61022a836101e9565b610137565b82815260059290921b8401810191818101908684111561024d575f80fd5b8286015b848110156103485780516001600160401b038082111561026f575f80fd5b908801906060828b03601f19011215610286575f80fd5b61028e6100ed565b8683015161029b81610167565b8152604083810151838111156102af575f80fd5b8401603f81018d136102bf575f80fd5b888101516102cf61022a826101e9565b81815260059190911b82018301908a8101908f8311156102ed575f80fd5b928401925b8284101561030b5783518252928b0192908b01906102f2565b858c0152505050606084015183811115610323575f80fd5b6103318d8a8388010161017e565b918301919091525085525050918301918301610251565b509695505050505050565b5f6020808385031215610364575f80fd5b82516001600160401b038082111561037a575f80fd5b908401906060828703121561038d575f80fd5b6103956100ed565b82516103a081610167565b815282840151828111156103b2575f80fd5b8301604081890312156103c3575f80fd5b6103cb610115565b8151848111156103d9575f80fd5b82016060818b0312156103ea575f80fd5b6103f26100ed565b81516103fd81610167565b81528188015161040c81610167565b81890152604082015186811115610421575f80fd5b61042d8c82850161017e565b6040830152508252508186015184811115610446575f80fd5b6104528a82850161020b565b8783015250808684015250506040830151935081841115610471575f80fd5b61047d8785850161017e565b60408201529695505050505050565b5f81518084528060208401602086015e5f602082860101526020601f19601f83011685010191505092915050565b5f604082516040855260018060a01b03808251166040870152602080830151606083821660608a01526040850151945060809150606060808a015261050260a08a018661048c565b888401518a82038b860152805180835291965084019084870190600581901b880186015f5b828110156105b057898203601f19018452845180518a168352888101518984018890528051888501819052908a01905f908a8601905b8083101561057d5783518252928c019260019290920191908c019061055d565b508e84015193508581038f870152610595818561048c565b95505050505087850194508784019350600181019050610527565b509c9b505050505050505050505050565b6001600160a01b038381168252604060208084018290528451909216908301528201516060808301525f906105f960a08401826104ba565b90506040840151603f19848303016080850152610616828261048c565b9695505050505050565b602081525f61063260208301846104ba565b9392505050565b60805161348561065e5f395f818160bd0152818161023a015261028b01526134855ff3fe60806040526004361061003e575f3560e01c806301ffc9a71461004b57806323e30c8b1461007f57806393be095e146100ac578063c55377d6146100df575b348015610049575f80fd5b005b348015610056575f80fd5b5061006a6100653660046121ab565b6100f2565b60405190151581526020015b60405180910390f35b34801561008a575f80fd5b5061009e61009936600461224f565b61018a565b604051908152602001610076565b3480156100b7575f80fd5b5061009e7f000000000000000000000000000000000000000000000000000000000000000081565b6100496100ed366004612929565b610227565b5f7fffffffff0000000000000000000000000000000000000000000000000000000082167f23e30c8b00000000000000000000000000000000000000000000000000000000148061018457507f01ffc9a7000000000000000000000000000000000000000000000000000000007fffffffff000000000000000000000000000000000000000000000000000000008316145b92915050565b5f6001600160a01b03871630146101dd576040517f8b1f7c640000000000000000000000000000000000000000000000000000000081526001600160a01b03881660048201526024015b60405180910390fd5b5f806101eb848601866129c9565b915091506101f982826108b1565b507f439148f0bbc682ca079e46d6e2c2f0c1e3b820f1a291b069d8882abf8cf18dd998975050505050505050565b61022f610dc7565b61023881612a29565b7f0000000000000000000000000000000000000000000000000000000000000000158015906102ad5750806040516020016102739190612bc7565b604051602081830303815290604052805190602001207f000000000000000000000000000000000000000000000000000000000000000014155b156102e4576040517f8812562900000000000000000000000000000000000000000000000000000000815260040160405180910390fd5b845f815181106102f6576102f6612bff565b602002602001015160800151515f148061032e57508460018151811061031e5761031e612bff565b602002602001015160800151515f145b15610365576040517f9c95219f00000000000000000000000000000000000000000000000000000000815260040160405180910390fd5b84516002146103db5760405162461bcd60e51b8152602060048201526024808201527f556e65787065637465642074616b65206f726465727320636f6e666967206c6560448201527f6e6774680000000000000000000000000000000000000000000000000000000060648201526084016101d4565b5f855f815181106103ee576103ee612bff565b6020026020010151608001515f8151811061040b5761040b612bff565b60200260200101515f015160400151865f8151811061042c5761042c612bff565b6020026020010151608001515f8151811061044957610449612bff565b6020026020010151602001518151811061046557610465612bff565b60200260200101515f015190505f8660018151811061048657610486612bff565b6020026020010151608001515f815181106104a3576104a3612bff565b60200260200101515f015160400151876001815181106104c5576104c5612bff565b6020026020010151608001515f815181106104e2576104e2612bff565b602002602001015160200151815181106104fe576104fe612bff565b60200260200101515f015190508660018151811061051e5761051e612bff565b6020026020010151608001515f8151811061053b5761053b612bff565b60200260200101515f0151606001518760018151811061055d5761055d612bff565b6020026020010151608001515f8151811061057a5761057a612bff565b6020026020010151604001518151811061059657610596612bff565b60200260200101515f01516001600160a01b0316826001600160a01b0316146106275760405162461bcd60e51b815260206004820152603660248201527f737461727420616e6420656e64206f726465727320494f20646f204e4f54206360448201527f6c6f73652074686520726f75746520636972637569740000000000000000000060648201526084016101d4565b5f61063183610df5565b90505f61063d83610df5565b6040516370a0823160e01b81526001600160a01b038c811660048301529192505f91600291908716906370a0823190602401602060405180830381865afa15801561068a573d5f803e3d5ffd5b505050506040513d601f19601f820116820180604052508101906106ae9190612c13565b6106b89190612c52565b90505f6106c58285610e8b565b90506106db6001600160a01b0387168d5f610eaf565b6106f06001600160a01b0387168d5f19610eaf565b6107178b5f8151811061070557610705612bff565b60200260200101516020015182610f2e565b1561074057808b5f8151811061072f5761072f612bff565b602002602001015160200181815250505b5f8b5f8151811061075357610753612bff565b602002602001015160600190151590811515815250505f8b8b8b60405160200161077f93929190612dfb565b60408051601f19818403018152908290527f5cffe9de00000000000000000000000000000000000000000000000000000000825291506001600160a01b038e1690635cffe9de906107da9030908b9088908790600401612e82565b6020604051808303815f875af11580156107f6573d5f803e3d5ffd5b505050506040513d601f19601f8201168201806040525081019061081a9190612ebd565b610850576040517f92111eb200000000000000000000000000000000000000000000000000000000815260040160405180910390fd5b6108646001600160a01b0388168e5f610eaf565b6108796108708a612a29565b88878988610f68565b50505050505050506108aa60017f9b779b17422d0df92223018b32b4d1fa46e071723d6817e2486d003becc55f0055565b5050505050565b5f825f815181106108c4576108c4612bff565b6020026020010151608001515f815181106108e1576108e1612bff565b60200260200101515f015160600151835f8151811061090257610902612bff565b6020026020010151608001515f8151811061091f5761091f612bff565b6020026020010151604001518151811061093b5761093b612bff565b60200260200101515f015190505f80336001600160a01b03166369c72856865f8151811061096b5761096b612bff565b60200260200101516040518263ffffffff1660e01b815260040161098f9190612ed8565b60408051808303815f875af11580156109aa573d5f803e3d5ffd5b505050506040513d601f19601f820116820180604052508101906109ce9190612eea565b85519193509150829015610bdd575f858060200190518101906109f19190612f59565b90505f5b8151811015610bda575f828281518110610a1157610a11612bff565b6020026020010151905060016003811115610a2e57610a2e61305c565b81516003811115610a4157610a4161305c565b03610a5a57610a51818589611203565b97509350610bd1565b5f81516003811115610a6e57610a6e61305c565b03610ad15760405162461bcd60e51b815260206004820152602d60248201527f7261696e64657820726f757465206c65672074797065206973206e6f7420796560448201526c1d081a5b5c1b195b595b9d1959609a1b60648201526084016101d4565b600281516003811115610ae657610ae661305c565b03610b595760405162461bcd60e51b815260206004820152602e60248201527f62616c616e63657220726f757465206c65672074797065206973206e6f74207960448201527f657420696d706c656d656e74656400000000000000000000000000000000000060648201526084016101d4565b600381516003811115610b6e57610b6e61305c565b03610bd15760405162461bcd60e51b815260206004820152602d60248201527f73746162756c6c20726f757465206c65672074797065206973206e6f7420796560448201526c1d081a5b5c1b195b595b9d1959609a1b60648201526084016101d4565b506001016109f5565b50505b5f86600181518110610bf157610bf1612bff565b6020026020010151608001515f81518110610c0e57610c0e612bff565b60200260200101515f01516040015187600181518110610c3057610c30612bff565b6020026020010151608001515f81518110610c4d57610c4d612bff565b60200260200101516020015181518110610c6957610c69612bff565b6020908102919091010151519050610c8b6001600160a01b038216335f610eaf565b610ca06001600160a01b038216335f19610eaf565b610cc887600181518110610cb657610cb6612bff565b60200260200101516020015183610f2e565b15610cf2578187600181518110610ce157610ce1612bff565b602002602001015160200181815250505b5f87600181518110610d0657610d06612bff565b602002602001015160600190151590811515815250505f80336001600160a01b03166369c728568a600181518110610d4057610d40612bff565b60200260200101516040518263ffffffff1660e01b8152600401610d649190612ed8565b60408051808303815f875af1158015610d7f573d5f803e3d5ffd5b505050506040513d601f19601f82011682018060405250810190610da39190612eea565b9092509050610dbc6001600160a01b038416335f610eaf565b505050505050505050565b610dcf611485565b60027f9b779b17422d0df92223018b32b4d1fa46e071723d6817e2486d003becc55f0055565b6040517f54636d2b0000000000000000000000000000000000000000000000000000000081526001600160a01b03821660048201525f9073f66761f6b5f58202998d6cd944c81b22dc6d4f1e906354636d2b906024016020604051808303815f875af1158015610e67573d5f803e3d5ffd5b505050506040513d601f19601f820116820180604052508101906101849190613070565b5f805f610e9885856114e2565b91509150610ea68282611546565b95945050505050565b610ebb8383835f6115a0565b610f2957610ecc83835f60016115a0565b610ef457604051635274afe760e01b81526001600160a01b03841660048201526024016101d4565b610f0183838360016115a0565b610f2957604051635274afe760e01b81526001600160a01b03841660048201526024016101d4565b505050565b5f6001600160e01b03838116601b90810b9160e086811d9291861690910b9085901d610f5c8484848461161b565b12979650505050505050565b6040805160018082528183019092525f91816020015b6060815260200190600190039081610f7e575050604080516003808252608082019092529192505f919060208201606080368337019050506040516370a0823160e01b81523060048201529091505f906001600160a01b038816906370a0823190602401602060405180830381865afa158015610ffd573d5f803e3d5ffd5b505050506040513d601f19601f820116820180604052508101906110219190612c13565b9050801561103d5761103d6001600160a01b03881633836116f8565b5f806110498389611705565b9150915081845f8151811061106057611060612bff565b602090810291909101015250506040516370a0823160e01b81523060048201525f91506001600160a01b038616906370a0823190602401602060405180830381865afa1580156110b2573d5f803e3d5ffd5b505050506040513d601f19601f820116820180604052508101906110d69190612c13565b905080156110f2576110f26001600160a01b03861633836116f8565b5f806110fe8387611705565b91509150818460018151811061111657611116612bff565b60209081029190910101525047915061113190503382611745565b61113d81601119611546565b8260028151811061115057611150612bff565b6020026020010181815250505080825f8151811061117057611170612bff565b60209081029190910101526040805160018082528183019092525f91816020015b6040805160a0810182525f918101828152606080830193909352608082018390528152602081019190915281526020019060019003908161119157905050905087815f815181106111e4576111e4612bff565b60200260200101819052506111f983826117ee565b5050505050505050565b5f805f805f87604001518060200190518101906112209190613090565b925092509250826001600160a01b0316866001600160a01b0316146112875760405162461bcd60e51b815260206004820152600e60248201527f746f6b656e206d69736d6174636800000000000000000000000000000000000060448201526064016101d4565b5f806112f289866001600160a01b031663313ce5676040518163ffffffff1660e01b8152600401602060405180830381865afa1580156112c9573d5f803e3d5ffd5b505050506040513d601f19601f820116820180604052508101906112ed9190613070565b6119cd565b915091505f846001600160a01b031663313ce5676040518163ffffffff1660e01b8152600401602060405180830381865afa158015611333573d5f803e3d5ffd5b505050506040513d601f19601f820116820180604052508101906113579190613070565b90505f8061136581846119cd565b915091508061137c5781611378816130f0565b9250505b60208d0151611396906001600160a01b038a16905f610eaf565b60208d01516113b1906001600160a01b038a16905f19610eaf565b60208d01516040517f2646478b0000000000000000000000000000000000000000000000000000000081525f916001600160a01b031690632646478b90611406908c908a908d90899030908f90600401613108565b6020604051808303815f875af1158015611422573d5f803e3d5ffd5b505050506040513d601f19601f820116820180604052508101906114469190612c13565b60208f0151909150611463906001600160a01b038b16905f610eaf565b5f61146e8286610e8b565b9b509799505050505050505050505b935093915050565b7f9b779b17422d0df92223018b32b4d1fa46e071723d6817e2486d003becc55f00546002036114e0576040517f3ee5aeb500000000000000000000000000000000000000000000000000000000815260040160405180910390fd5b565b5f805f805f6114f187876119f9565b92509250925080611538576040517fc471796600000000000000000000000000000000000000000000000000000000815260048101849052602481018390526044016101d4565b5090925090505b9250929050565b5f805f6115538585611a55565b9150915080611598576040517f22c9f7bb00000000000000000000000000000000000000000000000000000000815260048101869052602481018590526044016101d4565b509392505050565b6040517f095ea7b3000000000000000000000000000000000000000000000000000000005f8181526001600160a01b038616600452602485905291602083604481808b5af1925060015f5114831661160f578383151615611603573d5f823e3d81fd5b5f873b113d1516831692505b60405250949350505050565b5f808515841517818712828612181785841417801561164057868592509250506116ef565b505f85841315611654575092949193919260015b8386035f8112604c8213178015611687578215611679575f89945094505050506116ef565b885f945094505050506116ef565b600a82900a8981028a82828161169f5761169f612c2a565b05146116cb5784156116bb575f8b9650965050505050506116ef565b8a5f9650965050505050506116ef565b84156116e05788965094506116ef9350505050565b95508794506116ef9350505050565b94509492505050565b610f018383836001611b2d565b5f805f805f61171487876119f9565b9250925092505f806117268585611a55565b91509150818380156117355750815b9650965050505050509250929050565b80471015611788576040517fcf479181000000000000000000000000000000000000000000000000000000008152476004820152602481018290526044016101d4565b6117a1828260405180602001604052805f815250611b90565b156117aa575050565b3d156117bc576117b8611ba5565b5050565b6040517fd6bda27500000000000000000000000000000000000000000000000000000000815260040160405180910390fd5b335f8181523060209081526040808320815160a0810183528083018581526060808301879052608083018190529082528185015282518581529384018581528484019093529093909291905b86518110156111f95786818151811061185557611855612bff565b602002602001015193505f845f0151604001515111156119c5575f80855f01515f01516001600160a01b031663d04dfe236040518060e00160405280895f0151602001516001600160a01b031681526020018a8152602001895f01516040015181526020015f81526020016118ce8e8b60200151611bb0565b8152602001888152602001878152506040518263ffffffff1660e01b81526004016118f9919061319e565b5f60405180830381865afa158015611913573d5f803e3d5ffd5b505050506040513d5f823e601f3d908101601f1916820160405261193a9190810190613296565b80519193509150156119c2578551602001516040517f04b19db40000000000000000000000000000000000000000000000000000000081526001600160a01b03909116906304b19db490611994908b908590600401613342565b5f604051808303815f87803b1580156119ab575f80fd5b505af11580156119bd573d5f803e3d5ffd5b505050505b50505b60010161183a565b5f806001600160e01b038416601b0b60e085901d6119ec828287611eab565b9350935050509250929050565b5f808060ff841681037f7fffffffffffffffffffffffffffffffffffffffffffffffffffffffffffffff861115611a4457600a860460018201600a88065f1493509350935050611a4e565b8593509150600190505b9250925092565b5f601b83900b8314838382611ab9577d90e40fbeea1d3a4abc8955e946fe31cdcf66f634e1000000000000000000860515611a9957620186a0860595506005850194505b8586601b0b14611ab457600a86059550846001019450611a99565b611acf565b855f03611acf57505f92506001915061153f9050565b848560030b14611b12575f851215611aef57505f925082915061153f9050565b60405163d556b11160e01b815260048101839052602481018290526044016101d4565b50506001600160e01b03841660e084901b1791509250929050565b6040517fa9059cbb000000000000000000000000000000000000000000000000000000005f8181526001600160a01b038616600452602485905291602083604481808b5af1925060015f5114831661160f578383151615611603573d5f823e3d81fd5b5f805f83516020850186885af1949350505050565b6040513d5f823e3d81fd5b60605f825167ffffffffffffffff811115611bcd57611bcd6122c6565b604051908082528060200260200182016040528015611bf6578160200160208202803683370190505b5090505f80845111611c08575f611c0e565b83516001015b85516001010190505f8167ffffffffffffffff811115611c3057611c306122c6565b604051908082528060200260200182016040528015611c6357816020015b6060815260200190600190039081611c4e5790505b5090505f611c87604080516002815233602082015230818301526060810190915290565b828281518110611c9957611c99612bff565b60200260200101819052505f5b8751811015611cf6578180600101925050878181518110611cc957611cc9612bff565b6020026020010151838381518110611ce357611ce3612bff565b6020908102919091010152600101611ca6565b50855115611ea157808060010191505083828281518110611d1957611d19612bff565b60200260200101819052505f5b8651811015611e9f57611dd5878281518110611d4457611d44612bff565b60200260200101515f0151611db2611d808a8581518110611d6757611d67612bff565b6020026020010151602001518051602090810291012090565b7f19457468657265756d205369676e6564204d6573736167653a0a3332000000005f908152601c91909152603c902090565b898481518110611dc457611dc4612bff565b602002602001015160400151611fc0565b611e0e576040517f52bf9848000000000000000000000000000000000000000000000000000000008152600481018290526024016101d4565b868181518110611e2057611e20612bff565b60200260200101515f01516001600160a01b03165f1b858281518110611e4857611e48612bff565b6020026020010181815250508180600101925050868181518110611e6e57611e6e612bff565b602002602001015160200151838381518110611e8c57611e8c612bff565b6020908102919091010152600101611d26565b505b5095945050505050565b5f805f851215611ef1576040517f4a7d166b00000000000000000000000000000000000000000000000000000000815260048101869052602481018590526044016101d4565b845f03611f0357505f9050600161147d565b8460ff8416850185811215611f355760405163d556b11160e01b815260048101889052602481018790526044016101d4565b5f805f831215611f8157604c19831215611f58575f80955095505050505061147d565b825f03600a0a9150818481611f6f57611f6f612c2a565b049550508402909114915061147d9050565b5f831315611fb057611f9483600a613463565b9150611fa0828561346e565b95506001945061147d9350505050565b836001955095505050505061147d565b5f836001600160a01b03163b5f0361201e575f80611fde8585612033565b5090925090505f816003811115611ff757611ff761305c565b1480156120155750856001600160a01b0316826001600160a01b0316145b9250505061202c565b612029848484612079565b90505b9392505050565b5f805f835160410361206a576020840151604085015160608601515f1a61205c888285856120e3565b955095509550505050611a4e565b505081515f9150600290611a4e565b8051604080517f1626ba7e000000000000000000000000000000000000000000000000000000008082526004820186905260248201929092525f92906020820185604483015e60205f60648401838a5afa9050825f5114601f3d1116811693505050509392505050565b5f80807f7fffffffffffffffffffffffffffffff5d576e7357a4501ddfe92f46681b20a084111561211c57505f915060039050826121a1565b604080515f808252602082018084528a905260ff891692820192909252606081018790526080810186905260019060a0016020604051602081039080840390855afa15801561216d573d5f803e3d5ffd5b5050604051601f1901519150506001600160a01b03811661219857505f9250600191508290506121a1565b92505f91508190505b9450945094915050565b5f602082840312156121bb575f80fd5b81357fffffffff000000000000000000000000000000000000000000000000000000008116811461202c575f80fd5b6001600160a01b03811681146121fe575f80fd5b50565b803561220c816121ea565b919050565b5f8083601f840112612221575f80fd5b50813567ffffffffffffffff811115612238575f80fd5b60208301915083602082850101111561153f575f80fd5b5f805f805f8060a08789031215612264575f80fd5b863561226f816121ea565b9550602087013561227f816121ea565b94506040870135935060608701359250608087013567ffffffffffffffff8111156122a8575f80fd5b6122b489828a01612211565b979a9699509497509295939492505050565b634e487b7160e01b5f52604160045260245ffd5b6040516060810167ffffffffffffffff811182821017156122fd576122fd6122c6565b60405290565b6040805190810167ffffffffffffffff811182821017156122fd576122fd6122c6565b6040516080810167ffffffffffffffff811182821017156122fd576122fd6122c6565b60405160a0810167ffffffffffffffff811182821017156122fd576122fd6122c6565b60405160c0810167ffffffffffffffff811182821017156122fd576122fd6122c6565b604051601f8201601f1916810167ffffffffffffffff811182821017156123b8576123b86122c6565b604052919050565b5f67ffffffffffffffff8211156123d9576123d96122c6565b5060051b60200190565b80151581146121fe575f80fd5b803561220c816123e3565b5f67ffffffffffffffff821115612414576124146122c6565b50601f01601f191660200190565b5f82601f830112612431575f80fd5b813561244461243f826123fb565b61238f565b818152846020838601011115612458575f80fd5b816020850160208301375f918101602001919091529392505050565b5f60608284031215612484575f80fd5b61248c6122da565b90508135612499816121ea565b815260208201356124a9816121ea565b6020820152604082013567ffffffffffffffff8111156124c7575f80fd5b6124d384828501612422565b60408301525092915050565b5f82601f8301126124ee575f80fd5b813560206124fe61243f836123c0565b82815260069290921b8401810191818101908684111561251c575f80fd5b8286015b848110156125625760408189031215612537575f80fd5b61253f612303565b813561254a816121ea565b81528185013585820152835291830191604001612520565b509695505050505050565b5f82601f83011261257c575f80fd5b8135602061258c61243f836123c0565b82815260059290921b840181019181810190868411156125aa575f80fd5b8286015b8481101561256257803567ffffffffffffffff808211156125cd575f80fd5b908801906060828b03601f190112156125e4575f80fd5b6125ec6122da565b868301356125f9816121ea565b81526040838101358381111561260d575f80fd5b8401603f81018d1361261d575f80fd5b8881013561262d61243f826123c0565b81815260059190911b82018301908a8101908f83111561264b575f80fd5b928401925b828410156126695783358252928b0192908b0190612650565b858c0152505050606084013583811115612681575f80fd5b61268f8d8a83880101612422565b9183019190915250855250509183019183016125ae565b5f82601f8301126126b5575f80fd5b813560206126c561243f836123c0565b82815260059290921b840181019181810190868411156126e3575f80fd5b8286015b8481101561256257803567ffffffffffffffff80821115612706575f80fd5b90880190601f196080838c038201121561271e575f80fd5b612726612326565b8784013583811115612736575f80fd5b840160a0818e0384011215612749575f80fd5b612751612349565b925061275e898201612201565b8352604081013584811115612771575f80fd5b61277f8e8b83850101612474565b8a8501525060608082013585811115612796575f80fd5b6127a48f8c838601016124df565b6040860152506080820135858111156127bb575f80fd5b6127c98f8c838601016124df565b828601525060a0820135608085015283835260408601358a8401528086013560408401526080860135935084841115612800575f80fd5b61280e8e8b8689010161256d565b908301525086525050509183019183016126e7565b5f82601f830112612832575f80fd5b8135602061284261243f836123c0565b82815260059290921b84018101918181019086841115612860575f80fd5b8286015b8481101561256257803567ffffffffffffffff80821115612883575f80fd5b9088019060c0828b03601f190181131561289b575f80fd5b6128a361236c565b8784013581526040808501358983015260608086013582840152608091506128cc8287016123f0565b9083015260a085810135858111156128e2575f80fd5b6128f08f8c838a01016126a6565b8484015250928501359284841115612906575f80fd5b6129148e8b86890101612422565b90830152508652505050918301918301612864565b5f805f805f6080868803121561293d575f80fd5b8535612948816121ea565b9450602086013567ffffffffffffffff80821115612964575f80fd5b61297089838a01612823565b95506040880135915080821115612985575f80fd5b61299189838a01612211565b909550935060608801359150808211156129a9575f80fd5b508601604081890312156129bb575f80fd5b809150509295509295909350565b5f80604083850312156129da575f80fd5b823567ffffffffffffffff808211156129f1575f80fd5b6129fd86838701612823565b93506020850135915080821115612a12575f80fd5b50612a1f85828601612422565b9150509250929050565b5f60408236031215612a39575f80fd5b612a41612303565b823567ffffffffffffffff80821115612a58575f80fd5b612a6436838701612474565b83526020850135915080821115612a79575f80fd5b50612a863682860161256d565b60208301525092915050565b5f81518084528060208401602086015e5f602082860101526020601f19601f83011685010191505092915050565b5f6001600160a01b0380835116845280602084015116602085015250604082015160606040850152612af56060850182612a92565b949350505050565b5f815180845260208085019450602084015f5b83811015612b2c57815187529582019590820190600101612b10565b509495945050505050565b5f82825180855260208086019550808260051b8401018186015f5b84811015612bba57601f19868403018952815160606001600160a01b038251168552858201518187870152612b8982870182612afd565b91505060408083015192508582038187015250612ba68183612a92565b9a86019a9450505090830190600101612b52565b5090979650505050505050565b602081525f825160406020840152612be26060840182612ac0565b90506020840151601f19848303016040850152610ea68282612b37565b634e487b7160e01b5f52603260045260245ffd5b5f60208284031215612c23575f80fd5b5051919050565b634e487b7160e01b5f52601260045260245ffd5b634e487b7160e01b5f52601160045260245ffd5b5f82612c6c57634e487b7160e01b5f52601260045260245ffd5b500490565b5f815180845260208085019450602084015f5b83811015612b2c57815180516001600160a01b031688528301518388015260409096019590820190600101612c84565b5f60c08301825184526020808401518186015260408085015160408701526060808601511515606088015260808087015160c060808a015285815180885260e0975060e08b01915060e08160051b8c010187840193505f5b82811015612dd1578c820360df190184528451805187845280516001600160a01b0316888501528a81015160a080860152612d4b610120860182612ac0565b90508a820151607f19808784030160c0880152612d688383612c71565b92508b840151915080878403018f88015250612d848282612c71565b915050888201516101008601528b8301518c8601528a8301518b8601528983015192508481038a860152612db88184612b37565b978c0197968c0196945050506001919091019050612d0c565b5060a08b015198508b810360a08d0152612deb818a612a92565b9c9b505050505050505050505050565b5f604082016040835280865180835260608501915060608160051b860101925060208089015f5b83811015612e5057605f19888703018552612e3e868351612cb4565b95509382019390820190600101612e22565b5050858403818701528684528688828601375f848801820152601f909601601f19169092019094019695505050505050565b5f6001600160a01b03808716835280861660208401525083604083015260806060830152612eb36080830184612a92565b9695505050505050565b5f60208284031215612ecd575f80fd5b815161202c816123e3565b602081525f61202c6020830184612cb4565b5f8060408385031215612efb575f80fd5b505080516020909101519092909150565b5f82601f830112612f1b575f80fd5b8151612f2961243f826123fb565b818152846020838601011115612f3d575f80fd5b8160208501602083015e5f918101602001919091529392505050565b5f6020808385031215612f6a575f80fd5b825167ffffffffffffffff80821115612f81575f80fd5b818501915085601f830112612f94575f80fd5b8151612fa261243f826123c0565b81815260059190911b83018401908481019088831115612fc0575f80fd5b8585015b8381101561304f57805185811115612fda575f80fd5b86016060818c03601f1901811315612ff0575f80fd5b612ff86122da565b8983015160048110613008575f80fd5b8152604083810151613019816121ea565b828c015291830151918883111561302e575f80fd5b61303c8e8c85870101612f0c565b9082015285525050918601918601612fc4565b5098975050505050505050565b634e487b7160e01b5f52602160045260245ffd5b5f60208284031215613080575f80fd5b815160ff8116811461202c575f80fd5b5f805f606084860312156130a2575f80fd5b83516130ad816121ea565b60208501519093506130be816121ea565b604085015190925067ffffffffffffffff8111156130da575f80fd5b6130e686828701612f0c565b9150509250925092565b5f6001820161310157613101612c3e565b5060010190565b5f6001600160a01b038089168352876020840152808716604084015285606084015280851660808401525060c060a083015261314760c0830184612a92565b98975050505050505050565b5f8282518085526020808601955060208260051b840101602086015f5b84811015612bba57601f1986840301895261318c838351612afd565b98840198925090830190600101613170565b602081526001600160a01b038251166020820152602082015160408201525f604083015160e060608401526131d7610100840182612a92565b9050606084015160808401526080840151601f19808584030160a08601526131ff8383613153565b925060a08601519150808584030160c086015261321c8383612afd565b925060c08601519150808584030160e086015250610ea68282612afd565b5f82601f830112613249575f80fd5b8151602061325961243f836123c0565b8083825260208201915060208460051b87010193508684111561327a575f80fd5b602086015b84811015612562578051835291830191830161327f565b5f80604083850312156132a7575f80fd5b825167ffffffffffffffff808211156132be575f80fd5b818501915085601f8301126132d1575f80fd5b815160206132e161243f836123c0565b82815260059290921b840181019181810190898411156132ff575f80fd5b948201945b8386101561331d57855182529482019490820190613304565b91880151919650909350505080821115613335575f80fd5b50612a1f8582860161323a565b5f604082018483526020604060208501528185518084526060860191506020870193505f5b81811015612bba57845183529383019391830191600101613367565b600181815b808511156133bd57815f19048211156133a3576133a3612c3e565b808516156133b057918102915b93841c9390800290613388565b509250929050565b5f826133d357506001610184565b816133df57505f610184565b81600181146133f557600281146133ff5761341b565b6001915050610184565b60ff84111561341057613410612c3e565b50506001821b610184565b5060208310610133831016604e8410600b841016171561343e575081810a610184565b6134488383613383565b805f190482111561345b5761345b612c3e565b029392505050565b5f61202c83836133c5565b808202811582820484141761018457610184612c3e56","linkReferences":{}},"methodIdentifiers":{"arb4(address,(bytes32,bytes32,bytes32,bool,((address,(address,address,bytes),(address,bytes32)[],(address,bytes32)[],bytes32),uint256,uint256,(address,bytes32[],bytes)[])[],bytes)[],bytes,((address,address,bytes),(address,bytes32[],bytes)[]))":"c55377d6","iTaskHash()":"93be095e","onFlashLoan(address,address,uint256,uint256,bytes)":"23e30c8b","supportsInterface(bytes4)":"01ffc9a7"},"id":232}