{"abi":[{"type":"function","name":"buildLiteralParserFunctionPointers","inputs":[],"outputs":[{"name":"","type":"bytes","internalType":"bytes"}],"stateMutability":"pure"},{"type":"function","name":"buildOperandHandlerFunctionPointers","inputs":[],"outputs":[{"name":"","type":"bytes","internalType":"bytes"}],"stateMutability":"pure"},{"type":"function","name":"parsePragma1","inputs":[{"name":"data","type":"bytes","internalType":"bytes"}],"outputs":[{"name":"","type":"tuple","internalType":"struct PragmaV1","components":[{"name":"usingWordsFrom","type":"address[]","internalType":"address[]"}]}],"stateMutability":"pure"},{"type":"function","name":"supportsInterface","inputs":[{"name":"interfaceId","type":"bytes4","internalType":"bytes4"}],"outputs":[{"name":"","type":"bool","internalType":"bool"}],"stateMutability":"view"},{"type":"function","name":"unsafeParse","inputs":[{"name":"data","type":"bytes","internalType":"bytes"}],"outputs":[{"name":"","type":"bytes","internalType":"bytes"},{"name":"","type":"bytes32[]","internalType":"bytes32[]"}],"stateMutability":"view"},{"type":"error","name":"BadDynamicLength","inputs":[{"name":"dynamicLength","type":"uint256","internalType":"uint256"},{"name":"standardOpsLength","type":"uint256","internalType":"uint256"}]},{"type":"error","name":"BadSubParserResult","inputs":[{"name":"bytecode","type":"bytes","internalType":"bytes"}]},{"type":"error","name":"CoefficientOverflow","inputs":[{"name":"signedCoefficient","type":"int256","internalType":"int256"},{"name":"exponent","type":"int256","internalType":"int256"}]},{"type":"error","name":"DanglingSource","inputs":[]},{"type":"error","name":"DuplicateLHSItem","inputs":[{"name":"errorOffset","type":"uint256","internalType":"uint256"}]},{"type":"error","name":"ExcessLHSItems","inputs":[{"name":"offset","type":"uint256","internalType":"uint256"}]},{"type":"error","name":"ExcessRHSItems","inputs":[{"name":"offset","type":"uint256","internalType":"uint256"}]},{"type":"error","name":"ExpectedLeftParen","inputs":[{"name":"offset","type":"uint256","internalType":"uint256"}]},{"type":"error","name":"ExpectedOperand","inputs":[]},{"type":"error","name":"ExponentOverflow","inputs":[{"name":"signedCoefficient","type":"int256","internalType":"int256"},{"name":"exponent","type":"int256","internalType":"int256"}]},{"type":"error","name":"HexLiteralOverflow","inputs":[{"name":"offset","type":"uint256","internalType":"uint256"}]},{"type":"error","name":"InvalidSubParser","inputs":[{"name":"offset","type":"uint256","internalType":"uint256"}]},{"type":"error","name":"LossyConversionFromFloat","inputs":[{"name":"signedCoefficient","type":"int256","internalType":"int256"},{"name":"exponent","type":"int256","internalType":"int256"}]},{"type":"error","name":"MalformedCommentStart","inputs":[{"name":"offset","type":"uint256","internalType":"uint256"}]},{"type":"error","name":"MalformedHexLiteral","inputs":[{"name":"offset","type":"uint256","internalType":"uint256"}]},{"type":"error","name":"MaxSources","inputs":[]},{"type":"error","name":"MissingFinalSemi","inputs":[{"name":"offset","type":"uint256","internalType":"uint256"}]},{"type":"error","name":"NegativeFixedDecimalConversion","inputs":[{"name":"signedCoefficient","type":"int256","internalType":"int256"},{"name":"exponent","type":"int256","internalType":"int256"}]},{"type":"error","name":"NoWhitespaceAfterUsingWordsFrom","inputs":[{"name":"offset","type":"uint256","internalType":"uint256"}]},{"type":"error","name":"NotAcceptingInputs","inputs":[{"name":"offset","type":"uint256","internalType":"uint256"}]},{"type":"error","name":"OddLengthHexLiteral","inputs":[{"name":"offset","type":"uint256","internalType":"uint256"}]},{"type":"error","name":"OpcodeIOOverflow","inputs":[{"name":"offset","type":"uint256","internalType":"uint256"}]},{"type":"error","name":"OperandOverflow","inputs":[]},{"type":"error","name":"OperandValuesOverflow","inputs":[{"name":"offset","type":"uint256","internalType":"uint256"}]},{"type":"error","name":"ParenOverflow","inputs":[]},{"type":"error","name":"ParseStackOverflow","inputs":[]},{"type":"error","name":"ParseStackUnderflow","inputs":[]},{"type":"error","name":"ParserOutOfBounds","inputs":[]},{"type":"error","name":"SourceIndexOutOfBounds","inputs":[{"name":"sourceIndex","type":"uint256","internalType":"uint256"},{"name":"bytecode","type":"bytes","internalType":"bytes"}]},{"type":"error","name":"StringTooLong","inputs":[{"name":"offset","type":"uint256","internalType":"uint256"}]},{"type":"error","name":"SubParseableMissingDispatch","inputs":[{"name":"offset","type":"uint256","internalType":"uint256"}]},{"type":"error","name":"UnclosedComment","inputs":[{"name":"offset","type":"uint256","internalType":"uint256"}]},{"type":"error","name":"UnclosedLeftParen","inputs":[{"name":"offset","type":"uint256","internalType":"uint256"}]},{"type":"error","name":"UnclosedOperand","inputs":[{"name":"offset","type":"uint256","internalType":"uint256"}]},{"type":"error","name":"UnclosedStringLiteral","inputs":[{"name":"offset","type":"uint256","internalType":"uint256"}]},{"type":"error","name":"UnclosedSubParseableLiteral","inputs":[{"name":"offset","type":"uint256","internalType":"uint256"}]},{"type":"error","name":"UnexpectedComment","inputs":[{"name":"offset","type":"uint256","internalType":"uint256"}]},{"type":"error","name":"UnexpectedLHSChar","inputs":[{"name":"offset","type":"uint256","internalType":"uint256"}]},{"type":"error","name":"UnexpectedOperand","inputs":[]},{"type":"error","name":"UnexpectedOperandValue","inputs":[]},{"type":"error","name":"UnexpectedRHSChar","inputs":[{"name":"offset","type":"uint256","internalType":"uint256"}]},{"type":"error","name":"UnexpectedRightParen","inputs":[{"name":"offset","type":"uint256","internalType":"uint256"}]},{"type":"error","name":"UnknownWord","inputs":[{"name":"word","type":"string","internalType":"string"}]},{"type":"error","name":"UnsupportedLiteralType","inputs":[{"name":"offset","type":"uint256","internalType":"uint256"}]},{"type":"error","name":"WordSize","inputs":[{"name":"word","type":"string","internalType":"string"}]},{"type":"error","name":"ZeroLengthHexLiteral","inputs":[{"name":"offset","type":"uint256","internalType":"uint256"}]}],"bytecode":{"object":"0x6080604052348015600f57600080fd5b5061428a8061001f6000396000f3fe608060405234801561001057600080fd5b50600436106100675760003560e01c80637764fd9c116100505780637764fd9c146100b4578063ccf44775146100d5578063d6d8c9a8146100ea57600080fd5b806301ffc9a71461006c5780635514ca2014610094575b600080fd5b61007f61007a366004613b3b565b6100f2565b60405190151581526020015b60405180910390f35b6100a76100a2366004613c05565b61018b565b60405161008b9190613c85565b6100c76100c2366004613c05565b61023d565b60405161008b929190613d3b565b6100dd61025d565b60405161008b9190613d92565b6100dd61026c565b60007fffffffff0000000000000000000000000000000000000000000000000000000082167f1a2c8edd00000000000000000000000000000000000000000000000000000000148061018557507f01ffc9a7000000000000000000000000000000000000000000000000000000007fffffffff000000000000000000000000000000000000000000000000000000008316145b92915050565b60408051602081019091526060815260006101e9836101a8610276565b6101b0610297565b60408051808201909152600881527f152317551798183600000000000000000000000000000000000000000000000060208201526102b7565b9050600060208401905060006102028580510160200190565b905061020f8383836104a7565b915061021c83838361050b565b915060405180602001604052806102328561063d565b905295945050505050565b60608061025461024f846101a8610276565b61069c565b91509150915091565b60606102676107c4565b905090565b6060610267610811565b606060405180610100016040528060c281526020016141c860c29139905090565b606060405180608001604052806050815260200161417860509139905090565b610352604051806102600160405280600081526020016000815260200160008152602001600081526020016000815260200160008152602001600080191681526020016000815260200160008152602001600081526020016000815260200160008152602001600080191681526020016060815260200160608152602001606081526020016000815260200160608152602001606081525090565b60006040518061026001604052806000815260200160008152602001600081526020016000815260200160008152602001600081526020016000801b815260200160008152602001600481526020016000815260200160008152602001600081526020016000801b8152602001848152602001858152602001600467ffffffffffffffff8111156103e5576103e5613b7d565b60405190808252806020026020018201604052801561040e578160200160208202803683370190505b5081526000602080830182905260408084018b905260609384018a90528051601f01601f1916828152808301825283517fffffffffffffffffffffffffffffffffffffffffffffffffffffffffffff00001681178452855290840182905283018190529082018190526080820181905260a082018190526101208201819052610140820181905261020082015290505b95945050505050565b60005b81831015610501578251600160009190911a1b6401000026008116156104dc576104d58585856109d4565b93506104fb565b658000000000008116156104f5576104d58585856109fb565b50610501565b506104aa565b50815b9392505050565b815160408051808201909152601081527f7573696e672d776f7264732d66726f6d0000000000000000000000000000000060208201526000919061054e90613da5565b7fffffffffffffffffffffffffffffffff0000000000000000000000000000000082161461057f5783915050610504565b5060109290920180519092906001600091821a1b90640100002600821690036105ec576102208501518403601f19016040517fe3e4992d0000000000000000000000000000000000000000000000000000000081526004016105e391815260200190565b60405180910390fd5b836001019350505b81831015610501576106078484846104a7565b9250600080610617868686610b4e565b90965090925090508161062b575050610501565b610636868683610c3f565b50506105f4565b60c08101516040516060919073ffffffffffffffffffffffffffffffffffffffff6020820160005b841561068657848316825260f09490941c5193602090910190600101610665565b835260405261069482610cbe565b509392505050565b60608060008361022001515111156107b15760006106bf84610220015160200190565b905060006106d585610220015180510160200190565b90506106e28583836104a7565b91506106ef85838361050b565b91505b80821015610726576107058583836104a7565b9150610712858383610cee565b915061071f858383610f18565b91506106f2565b80821461075f576040517f7d565df600000000000000000000000000000000000000000000000000000000815260040160405180910390fd5b610100850151600816156107ae576102208501518203601f19016040517ff06f54cf0000000000000000000000000000000000000000000000000000000081526004016105e391815260200190565b50505b6102546107bd8461139d565b84906114b7565b6040805160a0810182526004808252611523602083015261175592820192909252611798606082810191909152611836608083015291908190805b6108088161194a565b94505050505090565b6060613b3160006028905080915060006040518061052001604052808467ffffffffffffffff1667ffffffffffffffff1681526020016119db81526020016119db81526020016119db8152602001611ab08152602001611bc78152602001611bc78152602001611bc78152602001611ab08152602001611ab081526020016119db81526020016119db81526020016119db8152602001611bc78152602001611bc78152602001611bc78152602001611bc78152602001611bc78152602001611bc78152602001611bc78152602001611bc78152602001611bc78152602001611bc78152602001611bc78152602001611bc78152602001611bc78152602001611bc78152602001611bc78152602001611bc78152602001611bc78152602001611bc78152602001611bc78152602001611bc78152602001611bc78152602001611bc78152602001611bc78152602001611bc78152602001611bc781526020016119db8152602001611bc78152602001611bc78152509050606081905060288151146107ff5780516040517fc8b569010000000000000000000000000000000000000000000000000000000081526004810191909152602481018490526044016105e3565b6101008301805160011916905260006109f38383640100002600611c0c565b949350505050565b610100830180516001179052600060048301821015610a56576102208401518303601f19015b6040517f25a764680000000000000000000000000000000000000000000000000000000081526004016105e391815260200190565b825160f01c612f2a8114610aa5576102208501518403601f19016040517f3e47169c0000000000000000000000000000000000000000000000000000000081526004016105e391815260200190565b60038401935060005b83851015610b2e57845160001a7fffffffffffffffffffffffffffffffffffffffffffffffffffffffffffffffd18101610b225760001986015160f01c7fffffffffffffffffffffffffffffffffffffffffffffffffffffffffffffd5d18101610b2057505050600193840193610b2e565b505b85600101955050610aae565b80610b44576102208601518503601f1901610a21565b5092949350505050565b8151600090819081908190600181831a1b6703ff200000000000811615610bb257600182811a1b7ffffffffffffffffffffffffffffffffffeffffffffffffffffff00000000000082821701610ba75760009350610bac565b600193505b50610bf8565b640400000000811615610bc85760029250610bf8565b6b080000000000000000000000811615610be55760039250610bf8565b5060009450869350849250610c36915050565b5060009050610c27888888610c1f83876101a09190910151600291820201015161ffff1690565b63ffffffff16565b90975060019550879450925050505b93509350939050565b73ffffffffffffffffffffffffffffffffffffffff811115610c9c576102208301518203601f19016040517f9d7e517e0000000000000000000000000000000000000000000000000000000081526004016105e391815260200190565b60c09092018051604080516020810190915290815260f01b9290921790915250565b60208101602082510282015b80821015610ce9578151815183528152602090910190601f1901610cca565b505050565b60005b81831015610501578251600090600190821a1b6f07fffffe800000000000000000000000811615610e4e5761010086015160011615610d6c576102208601518503601f19015b6040517f5520a5170000000000000000000000000000000000000000000000000000000081526004016105e391815260200190565b6f07fffffe000000000000000000000000811615610e0357610d9f85856f07fffffe0000000003ff200000000000611c38565b9095509150600080610db18885611cea565b915091508115610dfc576102208801518703601f19016040517f53e6feba0000000000000000000000000000000000000000000000000000000081526004016105e391815260200190565b5050610e24565b610e2160018601856f07fffffe0000000003ff200000000000611c0c565b94505b604086018051600190810190915260a0870180519091019052610100860180516009179052610f11565b640100002600811615610e8257610e6e6001860185640100002600611c0c565b610100870180516001191690529450610f11565b670400000000000000811615610eb05750506101008401805160081760011916905260019290920191610501565b65800000000000811615610f00576102208601518503601f19015b6040517fedad0c580000000000000000000000000000000000000000000000000000000081526004016105e391815260200190565b6102208601518503601f1901610d37565b5050610cf1565b60005b81831015610501578251600090600190821a1b6f07fffffe0000000000000000000000008116156110ff5761010086015160011615610f96576102208601518503601f19015b6040517f4e803df60000000000000000000000000000000000000000000000000000000081526004016105e391815260200190565b84610fb281866f07fffffe0000000003ff200000000000611c38565b8094508197505050600080610fcc89610240015186611d61565b91509150811561100e57610fe1898989611e1b565b97506000610fef8a83611fcd565b9050610ffc8a8383611ff4565b506101008901805160021790526110eb565b611018898661213a565b9092509050811561103d5761102f89600083611ff4565b611038896121b5565b6110eb565b60006060848a03600581016110538d8d8d611e1b565b9b508c6101e0015151602002602001810190506000600590506040519350602082018401604052828185015281845283945061109c8860056110958760200190565b0185612218565b5050506101e08b01518051600101906110cf906110c9836110c08680510160200190565b90602002900390565b83612260565b506110dc8b60ff84611ff4565b50506101008901805160021790525b505050610100860180516001179052611396565b610100860151600216156111e05765010000000000811660000361115e576102208601518503601f19016040517f23b5c6ea0000000000000000000000000000000000000000000000000000000081526004016105e391815260200190565b60608601805160001a60030190819053603b8111156111a9576040517f6232f2d900000000000000000000000000000000000000000000000000000000815260040160405180910390fd5b50610100860180517ffffffffffffffffffffffffffffffffffffffffffffffffffffffffffffffffc169052600190940193611396565b6502000000000081161561129a576000606087015160001a905080600003611243576102208701518603601f19016040517f7f9db5420000000000000000000000000000000000000000000000000000000081526004016105e391815260200190565b7ffffffffffffffffffffffffffffffffffffffffffffffffffffffffffffffffd01606087018181538160048201015160001a8260028301015160f01c600101535061128e876121b5565b50600190940193611396565b6401000026008116156112ce576112ba6001860185640100002600611c0c565b610100870180516001191690529450611396565b6b0800000003ff200400000000811615611309576112ed868686612282565b94506112f8866121b5565b610100860180516001179052611396565b6510000000000081161561132e57611321868661236e565b5050600190920191610501565b67080000000000000081161561136657611348868661236e565b6113518661264d565b50506004610100850152600190920191610501565b65800000000000811615611385576102208601518503601f1901610ecb565b6102208601518503601f1901610f61565b5050610f1b565b60e08101518151516060919060f082901c90602081146113e9576040517f858f2dcf00000000000000000000000000000000000000000000000000000000815260040160405180910390fd5b604051935060208401601083046000818353506001600885048301810192839101600080805b888110156114485789811c61ffff81165163ffff0000601092831b16811760e01b8786015284019360f08390031b92909217910161140f565b5082511790915287820301601f198181018952908801601f011660405260005b828110156114ab576002810288016003015161ffff90811683018051602060f082901c019260e09190911c16906114a0838284612218565b505050600101611468565b50505050505050919050565b60608060006114c5846128da565b905060005b8181101561150b5760006114de86836128f8565b600401905060006114ef8784612929565b60040282019050611501888383612942565b50506001016114ca565b508361151686612beb565b92509250505b9250929050565b600080808080611534888888612c42565b985090925090508181036040811115611588576102208901518303601f19016040517fff2f59490000000000000000000000000000000000000000000000000000000081526004016105e391815260200190565b806000036115d1576102208901518303601f19016040517fc75cd5090000000000000000000000000000000000000000000000000000000081526004016105e391815260200190565b6002810660010361161d576102208901518303601f19016040517fd76d9b570000000000000000000000000000000000000000000000000000000081526004016105e391815260200190565b60018203975060005b838910611744578851600090811a906001821b906703ff00000000000082161561167357507fffffffffffffffffffffffffffffffffffffffffffffffffffffffffffffffd0820161172c565b6c7e0000000000000000000000008216156116b157507fffffffffffffffffffffffffffffffffffffffffffffffffffffffffffffffa9820161172c565b687e00000000000000008216156116eb57507fffffffffffffffffffffffffffffffffffffffffffffffffffffffffffffffc9820161172c565b6102208d01518c03601f19016040517f69f1e3e60000000000000000000000000000000000000000000000000000000081526004016105e391815260200190565b600019909b019a831b96909617955050600401611626565b50509350909150505b935093915050565b6000806000806000806117688888612c94565b9296509094509250905061177d89848661304b565b826117888383613092565b9550955050505050935093915050565b60008080806117a88787876130e6565b601f1983018051848403825291995092945090925060009161182681601f90810151600019600160087f1fffffffffffffffffffffffffffffffffffffffffffffffffffffffffffffff84811660001a909503021b011916167f80000000000000000000000000000000000000000000000000000000000000001790565b9190529698969750505050505050565b6001909101906000808361185b81856fffffffffdffffffffffffffeffffd9ff611c0c565b9450848181036118a6576102208701518603601f19016040517ff73a1aa80000000000000000000000000000000000000000000000000000000081526004016105e391815260200190565b6118b18787876109d4565b9550856118cf81876fffffffffdfffffffffffffffffffffff611c0c565b805190975087906001600091821a1b906b20000000000000000000000082169003611935576102208a01518903601f19016040517fc4b191350000000000000000000000000000000000000000000000000000000081526004016105e391815260200190565b50600190970196876117888a86868686613204565b60606000825160020267ffffffffffffffff81111561196b5761196b613b7d565b6040519080825280601f01601f191660200182016040528015611995576020820181803683370190505b50905061ffff80196020850160208651028101600285015b818310156119cf578051835186169085161781526020909201916002016119ad565b50939695505050505050565b60008151600103611a68575060208101517bffffffffffffffffffffffffffffffffffffffffffffffffffffffff8116601b0b60e082901d6000611a20838383613323565b905061ffff811115611a5e576040517f7938075c00000000000000000000000000000000000000000000000000000000815260040160405180910390fd5b9250611aab915050565b8151600003611a7957506000919050565b6040517f1ac6690800000000000000000000000000000000000000000000000000000000815260040160405180910390fd5b919050565b60008151600203611b8b57602082015160408301517bffffffffffffffffffffffffffffffffffffffffffffffffffffffff8216601b0b60e083901d6000611af9838383613323565b7bffffffffffffffffffffffffffffffffffffffffffffffffffffffff8516601b0b935060e085901d925090506000611b33848483613323565b905060ff821180611b44575060ff81115b15611b7b576040517f7938075c00000000000000000000000000000000000000000000000000000000815260040160405180910390fd5b60081b179450611aab9350505050565b600282511015611a79576040517ff16066b000000000000000000000000000000000000000000000000000000000815260040160405180910390fd5b60008151600014611c04576040517f9f16b02000000000000000000000000000000000000000000000000000000000815260040160405180910390fd5b506000919050565b60005b6000826001865160001a1b16118385101615611c3057600184019350611c0f565b509192915050565b6000808060018187870360208111611c505780611c53565b60205b915050875192505b8519600184841a1b16158183101615611c7957600182019150611c5b565b9681019660208290036008810293841c90931b92611cdd5760408051602081018590520160408051601f19818403018152908290527fe47fe8b70000000000000000000000000000000000000000000000000000000082526105e391600401613d92565b5095969095509350505050565b600080611cf7848461213a565b90925090508161151c57506101208301805160408051948552602080862092865285018152909401517fffffffffffffffffffffffffffffffffffffffffffffffffffffffff00000000909416601085901b62ff000016179092179091529160ff90911660010190565b600182810180516000928392600560ff93909316602102870192830192909101835b81831015611e0b576001830151602190930180519093600090819060ff168180611dad838e613381565b91509150600087611dc26001850389166133a3565b016004028b015195505062ffffff9081169350841683039150611df69050575060019750601c1a955061151c945050505050565b611dff836133a3565b84019350505050611d83565b5060009788975095505050505050565b81516101e0840151600080825291600190831a1b907ffffffffffffffffffffffffffffffffffffffffffffffffff0000000000000008201610b4457611e6085613e2a565b6101008701805160011916905280519095506001600091821a1b9250805b85871015611fab578651600160009190911a1b9350640100002600841615611eb257611eab8888886109d4565b9650611e7e565b674000000000000000841615611ed657611ecb87613e2a565b965060019050611fab565b600188610100015116600003611f695760048203611f2f576102208801518703601f19016040517f8c9fdbb30000000000000000000000000000000000000000000000000000000081526004016105e391815260200190565b6000611f3c89898961345e565b60208581028701018190526101008b01805160011790529098509050611f6183613e2a565b925050611e7e565b6102208801518703601f19015b6040517f722cd24a0000000000000000000000000000000000000000000000000000000081526004016105e391815260200190565b80611fc1576102208801518703601f1901611f76565b50905250919392505050565b6101c08201516002828102820101516101e084015160009261ffff909216919061049e9083565b611ffd83613489565b610100830180517ffffffffffffffffffffffffffffffffffffffffffffffffffffffffffffffffb1660081790526020830151600090811a840160210180519091600191901a018153508251805160608501516061600091821a8701018051929361ffff8516939092601c600886048503019291901a6001018153600060038201537fffffffffffffffffffffffffffffffffffffffffffffffffffffffffffffffe30180517fffffffffffffffffffffffffffffffffffffffffffffffffffffffffffff0000169091179052602090920183821b176018820185901b178083529160e08290036121325760408051601083901b6020908117601f909201601f1916918252810190915281517fffffffffffffffffffffffffffffffffffffffffffffffffffffffffffff0000168117825286525b505050505050565b61012082015161014083015160008381526020808220919384939290911c91600160ff84161b808216156121a05761ffff83165b801561219e578360201c8503612191576001965061ffff8460101c16955061219e565b51925061ffff831661216e565b505b17610140909601959095525090939092509050565b6000606082015160001a9050806000036122145760208201805160001a600101908181535080603f03610ce9576040517fe826b5f600000000000000000000000000000000000000000000000000000000815260040160405180910390fd5b5050565b6020810680820384015b8085101561223d578451845260209485019490930192612222565b50801561225a57600019600882021c808451168119865116178452505b50505050565b8060200283015b8084101561225a578351835260209384019390920191612267565b60008080612291868686610b4e565b90965092509050806122df576102208601518503601f19015b6040517fb0e4e5b30000000000000000000000000000000000000000000000000000000081526004016105e391815260200190565b6000806122eb846134dc565b610180890151161561232c5761016088015160101c5b801580159061230e575082155b1561232a57602081015190519085149250600190910190612301565b505b61016088015161ffff16612352600184612346578261234a565b8383035b8b9190611ff4565b50816123625761236288856134f4565b50949695505050505050565b606082015160001a80156123bd576102208301518203601f19016040517f6fb11cdc0000000000000000000000000000000000000000000000000000000081526004016105e391815260200190565b506123c782613489565b61010082018051600416600890811790915260a0830151602084015160ff8083169360f89290921c9290911c168103600081900361247b57600485610100015116600003612450576102208501518403601f19016040517fab1d3ea70000000000000000000000000000000000000000000000000000000081526004016105e391815260200190565b90820160f881901b60208601526102008501519091906124709084613546565b610200860152612516565b600181111561251657808310156124cd576102208501518403601f19016040517f78ef27820000000000000000000000000000000000000000000000000000000081526004016105e391815260200190565b80831115612516576102208501518403601f19016040517f43168e680000000000000000000000000000000000000000000000000000000081526004016105e391815260200190565b8082036001016020601083028101905b818110156126395760a08801516020848a01015190821c61ffff169060001a60015b8181116126285760208306601c0361256157915160f01c915b82516102008c015160019190911a9061257a908261358e565b6102008d0152600082841480156125915750886001145b61259c57600161259e565b8a5b6102008e01519091506125b190826135d5565b6102008e0152600f8111806125c65750600f82115b1561260c576102208d01518c03601f19016040517f7ea1869f0000000000000000000000000000000000000000000000000000000081526004016105e391815260200190565b818160041b176001860153505060049290920191600101612548565b505060019093019250601001612526565b5050505060081b60a0909301929092525050565b60e0810151602082015160f082811c9160001a6001019082900361269d576040517fa806284100000000000000000000000000000000000000000000000000000000815260040160405180910390fd5b61020084015184518051600092919060101c61ffff165b80156126cb57805190915060101c61ffff166126b4565b50604051602188018051919450601c830192916004916024870191600090811a805b8a8310156127b35760048202860195506004878903045b8082111561272257965161ffff16601c810198509690036007612704565b506004810297889003805186529794909401938103865b600782111561277e575160101c61ffff1680518652601c909501947ffffffffffffffffffffffffffffffffffffffffffffffffffffffffffffffff990910190612739565b8115612799575160101c61ffff168051865260048202909501945b505050600191820180519092919091019060001a806126ed565b5050508287525060048087018051919093046000190160181b86177fffffffffffffffffffffffffffffffffffffffffffffffffffffffff0000000090911617909152601f19601f9091011660405250612810600180871b613e44565b861683861b60f0612822886010613e57565b901b171760e0880152610100870180517ffffffffffffffffffffffffffffffffffffffffffffffffffffffffffffffff7169052604080516020601f909101601f19168181528082018352600080517fffffffffffffffffffffffffffffffffffffffffffffffffffffffffffff00001682178152908a52908901819052908801819052606088018190526080880181905260a088018190526101208801819052610140880181905261020088015250505050505050565b600081516000036128ed57506000919050565b506020015160001a90565b600080612904846128da565b60020260010190506000612918858561360d565b949091019093016020019392505050565b60008061293684846128f8565b5160001a949350505050565b80821015610ce95781517fffffffffffffffffffffffffffffffffffffffffffffffffffffffffffffff0160f882901c01612b645760c08401515b8015612b625760f081901c5161016086015161ffff60e085901c1660208101805160089390931b62ffff0016600187901a1760e81b7cffffffffffffffffffffffffffffffffffffffffffffffffffffffffff909316929092179091526040517f570c7a630000000000000000000000000000000000000000000000000000000081529192916000908190819073ffffffffffffffffffffffffffffffffffffffff86169063570c7a6390612a36908790600401613d92565b600060405180830381865afa158015612a53573d6000803e3d6000fd5b505050506040513d6000823e601f3d908101601f19168201604052612a7b9190810190613e7a565b9250925092508215612b58578151600414612ac457816040517fbe2d187d0000000000000000000000000000000000000000000000000000000081526004016105e39190613d92565b60208201517fffffffff00000000000000000000000000000000000000000000000000000000167bffffffffffffffffffffffffffffffffffffffffffffffffffffffff881617895260005b8151811015612b4d57612b45828281518110612b2e57612b2e613f92565b60200260200101518c6134f490919063ffffffff16565b600101612b10565b505050505050612b62565b505050505061297d565b505b5081517fffffffffffffffffffffffffffffffffffffffffffffffffffffffffffffff0160f882901c01612bdf57606061ffff8260e01c16905060006003820152600581019050806040517faedfba2f0000000000000000000000000000000000000000000000000000000081526004016105e39190613d92565b50600482019150612942565b6101608101516040805161ffff8316808252602080820283019081019093529092909160109190911c90835b80821115612c395760208301518252915161ffff1691601f1990910190612c17565b50505050919050565b6000808080612c52866002613e57565b9050806c7e0000007e03ff0000000000005b868210816001845160001a1b1615151615612c8457600182019150612c64565b5090979096508695509350505050565b6000828180612caa838665200000000000611c0c565b92508583141583612cc481886703ff000000000000611c0c565b9450808503612cff57507f34bd2069000000000000000000000000000000000000000000000000000000009450600092508291506130429050565b600080612d0c8a88613664565b90925090507fffffffff00000000000000000000000000000000000000000000000000000000821615612d4b5750955060009350839250613042915050565b865190955065400000000000600160009290921a9190911b161515888710169150508015612f515750600190930192600084612d9081896703ff000000000000611c0c565b9550808603612dcc57507f7bfa48af00000000000000000000000000000000000000000000000000000000955060009350839250613042915050565b855b60001981018051908a11600160009290921a9190911b660100000000000016151516600103612e005760001901612dce565b818114612e5957600080612e148484613664565b90925090507fffffffff00000000000000000000000000000000000000000000000000000000821615612e5557509750600095508594506130429350505050565b9350505b6000831215612e9657507f7bfa48af0000000000000000000000000000000000000000000000000000000096506000945084935061304292505050565b8315612ea3578260000392505b8082039450600085900360438110801590612ebd57508615155b15612ef757507f32b8b8be000000000000000000000000000000000000000000000000000000009750600095508594506130429350505050565b600a0a86810287828281612f0d57612f0d613dcc565b0514612f4957507f32b8b8be00000000000000000000000000000000000000000000000000000000985060009650869550613042945050505050565b840196505050505b84516c20000000200000000000000000600160009290921a9190911b16151587861016801561303e5760019095019485612f92818a65200000000000611c0c565b965086612fa8818b6703ff000000000000611c0c565b9750808803612fe657507f013b2aaa000000000000000000000000000000000000000000000000000000009750600095508594506130429350505050565b50600080612ff4838a613664565b90925090507fffffffff0000000000000000000000000000000000000000000000000000000082161561303557509750600095508594506130429350505050565b95860195925050505b5050505b92959194509250565b7fffffffff00000000000000000000000000000000000000000000000000000000811615610ce9576102208301516000908303601f19019050816000528060045260246000fd5b60008060006130a18585613794565b9150915080610694576040517f22c9f7bb00000000000000000000000000000000000000000000000000000000815260048101869052602481018590526044016105e3565b600080806001850181806f7ffffffffffffffffffffffb0000000081806000198b8b03016020808210156131175750805b875193505b84600185851a1b161515818410161561313a5760018301925061311c565b505080602003613185576102208c01518b03601f19016040517f30515bda0000000000000000000000000000000000000000000000000000000081526004016105e391815260200190565b858101805190955060001a6001811b6404000000001615806131a65750858b145b156131ec576102208d01518603601f19016040517f04022fbf0000000000000000000000000000000000000000000000000000000081526004016105e391815260200190565b50949b939a505060018a019850919650505050505050565b6040805183830386860381810183810160229081019095526002848101839052018352600093830191613238898484612218565b6132458783850183612218565b50505060c08701515b80156133125760f081901c516040517fc6c0cbb6000000000000000000000000000000000000000000000000000000008152909190600090819073ffffffffffffffffffffffffffffffffffffffff84169063c6c0cbb6906132b4908890600401613d92565b6040805180830381865afa1580156132d0573d6000803e3d6000fd5b505050506040513d601f19601f820116820180604052508101906132f49190613fc1565b91509150811561330a57945061049e9350505050565b50505061324e565b6102208801518703601f19016122aa565b6000806000613333868686613868565b9150915080613378576040517f05e4767800000000000000000000000000000000000000000000000000000000815260048101879052602481018690526044016105e3565b50949350505050565b60008082600052836020536021600020905060018160001a1b91509250929050565b600060001982036133b75750610100919050565b507f0f0f0f0f0f0f0f0f0f0f0f0f0f0f0f0f0f0f0f0f0f0f0f0f0f0f0f0f0f0f0f0f7f5555555555555555555555555555555555555555555555555555555555555555600183901c16909103600281901c7f3333333333333333333333333333333333333333333333333333333333333333908116911601600481901c01167f01010101010101010101010101010101010101010101010101010101010101010260f81c90565b6000806000806000613471888888610b4e565b925092509250821561331257909350915061174d9050565b60008160000151905060208201805160001a6001810182015160001a61225a57825160a085018051600861ffff9390931692909204602003850160106001601e85901a860301021b909117905250505050565b60006134ea61010083613fed565b6001901b92915050565b6101608201805160408051808201909152601091821c808252602082018590528351600161ffff909116019282901b92909217909252613533836134dc565b6101809094018051909417909352505050565b600061355283836135d5565b9250507fffffffffffffffffffffffffffffffffffffffffffffffffffffffffffff00ff821660ff600884811c919091168301901b1792915050565b600060ff8316828110156135ce576040517f23b49a2a00000000000000000000000000000000000000000000000000000000815260040160405180910390fd5b5050900390565b600060ff808416830190600885901c16601085901c808311156135f55750815b601081901b600883901b841717935050505092915050565b6000613618836128da565b82106136545781836040517ffcfaeff10000000000000000000000000000000000000000000000000000000081526004016105e3929190614028565b50600202016003015161ffff1690565b8151600090819065200000000000600191831a9190911b1615158385101680850190828061369284886139bd565b90925090507fffffffff000000000000000000000000000000000000000000000000000000008216156136ce575093506000925061151c915050565b82600003613733577f7fffffffffffffffffffffffffffffffffffffffffffffffffffffffffffffff8111613704576000613726565b7f0fdc2635000000000000000000000000000000000000000000000000000000005b9550935061151c92505050565b7f80000000000000000000000000000000000000000000000000000000000000008111613761576000613783565b7f0fdc2635000000000000000000000000000000000000000000000000000000005b955060000393505050509250929050565b6000601b83900b8314806137f2577d90e40fbeea1d3a4abc8955e946fe31cdcf66f634e10000000000000000008405156137d757620186a0840593506005830192505b8384601b0b146137f257600a840593508260010192506137d7565b828360030b14613838576040517fd556b11100000000000000000000000000000000000000000000000000000000815260048101859052602481018490526044016105e3565b7bffffffffffffffffffffffffffffffffffffffffffffffffffffffff9390931660e09290921b91909117929050565b60008060008512156138b0576040517f4a7d166b00000000000000000000000000000000000000000000000000000000815260048101869052602481018590526044016105e3565b846000036138c4575060009050600161174d565b8460ff841685018581121561390f576040517fd556b11100000000000000000000000000000000000000000000000000000000815260048101889052602481018790526044016105e3565b600080600083121561397d577fffffffffffffffffffffffffffffffffffffffffffffffffffffffffffffffb383121561395357600080955095505050505061174d565b82600003600a0a915081848161396b5761396b613dcc565b049550508402909114915061174d9050565b60008313156139ad5761399183600a614125565b915061399d8285614131565b95506001945061174d9350505050565b836001955095505050505061174d565b6000808284106139f257507f34bd2069000000000000000000000000000000000000000000000000000000009050600061151c565b603060006000198501815b878210158015613a0d5750604d83105b15613a33578151600184019360001990930192600a0a60009190911a85900302016139fd565b878210613b2257815160001a8490036001811115613a7d57507f0fdc26350000000000000000000000000000000000000000000000000000000095506000945061151c9350505050565b600a84900a8102828101831115613ac157507f0fdc26350000000000000000000000000000000000000000000000000000000096506000955061151c945050505050565b919091019050600019909101905b878210613b2257815160001a60308114613b1557507f0fdc26350000000000000000000000000000000000000000000000000000000095506000945061151c9350505050565b5060001990910190613acf565b60009890975095505050505050565b613b39614148565b565b600060208284031215613b4d57600080fd5b81357fffffffff000000000000000000000000000000000000000000000000000000008116811461050457600080fd5b7f4e487b7100000000000000000000000000000000000000000000000000000000600052604160045260246000fd5b604051601f8201601f1916810167ffffffffffffffff81118282101715613bd557613bd5613b7d565b604052919050565b600067ffffffffffffffff821115613bf757613bf7613b7d565b50601f01601f191660200190565b600060208284031215613c1757600080fd5b813567ffffffffffffffff811115613c2e57600080fd5b8201601f81018413613c3f57600080fd5b8035613c52613c4d82613bdd565b613bac565b818152856020838501011115613c6757600080fd5b81602084016020830137600091810160200191909152949350505050565b6020808252825182820182905280516040840181905260009291820190839060608601905b80831015613ce057835173ffffffffffffffffffffffffffffffffffffffff168252928401926001929092019190840190613caa565b509695505050505050565b60005b83811015613d06578181015183820152602001613cee565b50506000910152565b60008151808452613d27816020860160208601613ceb565b601f01601f19169290920160200192915050565b604081526000613d4e6040830185613d0f565b82810360208481019190915284518083528582019282019060005b81811015613d8557845183529383019391830191600101613d69565b5090979650505050505050565b6020815260006105046020830184613d0f565b80516020808301519190811015613dc6576000198160200360031b1b821691505b50919050565b7f4e487b7100000000000000000000000000000000000000000000000000000000600052601260045260246000fd5b7f4e487b7100000000000000000000000000000000000000000000000000000000600052601160045260246000fd5b60006000198203613e3d57613e3d613dfb565b5060010190565b8181038181111561018557610185613dfb565b8082018082111561018557610185613dfb565b80518015158114611aab57600080fd5b600080600060608486031215613e8f57600080fd5b613e9884613e6a565b925060208085015167ffffffffffffffff80821115613eb657600080fd5b818701915087601f830112613eca57600080fd5b8151613ed8613c4d82613bdd565b8181528985838601011115613eec57600080fd5b613efb82868301878701613ceb565b604089015190965092505080821115613f1357600080fd5b818701915087601f830112613f2757600080fd5b815181811115613f3957613f39613b7d565b8060051b9150613f4a848301613bac565b818152918301840191848101908a841115613f6457600080fd5b938501935b83851015613f8257845182529385019390850190613f69565b8096505050505050509250925092565b7f4e487b7100000000000000000000000000000000000000000000000000000000600052603260045260246000fd5b60008060408385031215613fd457600080fd5b613fdd83613e6a565b9150602083015190509250929050565b600082614023577f4e487b7100000000000000000000000000000000000000000000000000000000600052601260045260246000fd5b500690565b8281526040602082015260006109f36040830184613d0f565b600181815b8085111561407c57816000190482111561406257614062613dfb565b8085161561406f57918102915b93841c9390800290614046565b509250929050565b60008261409357506001610185565b816140a057506000610185565b81600181146140b657600281146140c0576140dc565b6001915050610185565b60ff8411156140d1576140d1613dfb565b50506001821b610185565b5060208310610133831016604e8410600b84101617156140ff575081810a610185565b6141098383614041565b806000190482111561411d5761411d613dfb565b029392505050565b60006105048383614084565b808202811582820484141761018557610185613dfb565b7f4e487b7100000000000000000000000000000000000000000000000000000000600052605160045260246000fdfe19db19db19db1ab01bc71bc71bc71ab01ab019db19db19db1bc71bc71bc71bc71bc71bc71bc71bc71bc71bc71bc71bc71bc71bc71bc71bc71bc71bc71bc71bc71bc71bc71bc71bc71bc719db1bc71bc7010e000088000004102c00000c8880800d24a0148109008880010000140554a010000d1dbb6302525f2211999fd50f6c01da1871b5110a2139801a69a80f00a4ed3f27ba92e12348361e2628c11e089ebd5e07e235981bb5fc9e24d9ace210e92356163994150b7dfb1509bb6451066c83bf215797780c4960e303fa47a905e82f0c1d4efea02224d7751fbfd64115d6a860135832fd1cb8491f20be2c7c01d81c842562708d0efdd5d8142466661747b9490477ee181251471f19e0ddd31e3436fb","linkReferences":{}},"methodIdentifiers":{"buildLiteralParserFunctionPointers()":"ccf44775","buildOperandHandlerFunctionPointers()":"d6d8c9a8","parsePragma1(bytes)":"5514ca20","supportsInterface(bytes4)":"01ffc9a7","unsafeParse(bytes)":"7764fd9c"},"id":137}