{"abi":[{"type":"constructor","inputs":[{"name":"config","type":"tuple","internalType":"struct RainterpreterExpressionDeployerConstructionConfigV2","components":[{"name":"interpreter","type":"address","internalType":"address"},{"name":"store","type":"address","internalType":"address"},{"name":"parser","type":"address","internalType":"address"}]}],"stateMutability":"nonpayable"},{"type":"function","name":"buildIntegrityFunctionPointers","inputs":[],"outputs":[{"name":"","type":"bytes","internalType":"bytes"}],"stateMutability":"view"},{"type":"function","name":"describedByMetaV1","inputs":[],"outputs":[{"name":"","type":"bytes32","internalType":"bytes32"}],"stateMutability":"pure"},{"type":"function","name":"iInterpreter","inputs":[],"outputs":[{"name":"","type":"address","internalType":"contract IInterpreterV4"}],"stateMutability":"view"},{"type":"function","name":"iParser","inputs":[],"outputs":[{"name":"","type":"address","internalType":"contract RainterpreterParser"}],"stateMutability":"view"},{"type":"function","name":"iStore","inputs":[],"outputs":[{"name":"","type":"address","internalType":"contract IInterpreterStoreV2"}],"stateMutability":"view"},{"type":"function","name":"parse2","inputs":[{"name":"data","type":"bytes","internalType":"bytes"}],"outputs":[{"name":"","type":"bytes","internalType":"bytes"}],"stateMutability":"view"},{"type":"function","name":"parsePragma1","inputs":[{"name":"data","type":"bytes","internalType":"bytes"}],"outputs":[{"name":"","type":"tuple","internalType":"struct PragmaV1","components":[{"name":"usingWordsFrom","type":"address[]","internalType":"address[]"}]}],"stateMutability":"view"},{"type":"function","name":"supportsInterface","inputs":[{"name":"interfaceId","type":"bytes4","internalType":"bytes4"}],"outputs":[{"name":"","type":"bool","internalType":"bool"}],"stateMutability":"view"},{"type":"error","name":"BadDynamicLength","inputs":[{"name":"dynamicLength","type":"uint256","internalType":"uint256"},{"name":"standardOpsLength","type":"uint256","internalType":"uint256"}]},{"type":"error","name":"BadOpInputsLength","inputs":[{"name":"opIndex","type":"uint256","internalType":"uint256"},{"name":"calculatedInputs","type":"uint256","internalType":"uint256"},{"name":"bytecodeInputs","type":"uint256","internalType":"uint256"}]},{"type":"error","name":"BadOpOutputsLength","inputs":[{"name":"opIndex","type":"uint256","internalType":"uint256"},{"name":"calculatedOutputs","type":"uint256","internalType":"uint256"},{"name":"bytecodeOutputs","type":"uint256","internalType":"uint256"}]},{"type":"error","name":"CallOutputsExceedSource","inputs":[{"name":"sourceOutputs","type":"uint256","internalType":"uint256"},{"name":"outputs","type":"uint256","internalType":"uint256"}]},{"type":"error","name":"NotAnExternContract","inputs":[{"name":"extern","type":"address","internalType":"address"}]},{"type":"error","name":"OutOfBoundsConstantRead","inputs":[{"name":"opIndex","type":"uint256","internalType":"uint256"},{"name":"constantsLength","type":"uint256","internalType":"uint256"},{"name":"constantRead","type":"uint256","internalType":"uint256"}]},{"type":"error","name":"OutOfBoundsStackRead","inputs":[{"name":"opIndex","type":"uint256","internalType":"uint256"},{"name":"stackTopIndex","type":"uint256","internalType":"uint256"},{"name":"stackRead","type":"uint256","internalType":"uint256"}]},{"type":"error","name":"SourceIndexOutOfBounds","inputs":[{"name":"sourceIndex","type":"uint256","internalType":"uint256"},{"name":"bytecode","type":"bytes","internalType":"bytes"}]},{"type":"error","name":"StackAllocationMismatch","inputs":[{"name":"stackMaxIndex","type":"uint256","internalType":"uint256"},{"name":"bytecodeAllocation","type":"uint256","internalType":"uint256"}]},{"type":"error","name":"StackOutputsMismatch","inputs":[{"name":"stackIndex","type":"uint256","internalType":"uint256"},{"name":"bytecodeOutputs","type":"uint256","internalType":"uint256"}]},{"type":"error","name":"StackSizingsNotMonotonic","inputs":[{"name":"bytecode","type":"bytes","internalType":"bytes"},{"name":"relativeOffset","type":"uint256","internalType":"uint256"}]},{"type":"error","name":"StackUnderflow","inputs":[{"name":"opIndex","type":"uint256","internalType":"uint256"},{"name":"stackIndex","type":"uint256","internalType":"uint256"},{"name":"calculatedInputs","type":"uint256","internalType":"uint256"}]},{"type":"error","name":"StackUnderflowHighwater","inputs":[{"name":"opIndex","type":"uint256","internalType":"uint256"},{"name":"stackIndex","type":"uint256","internalType":"uint256"},{"name":"stackHighwater","type":"uint256","internalType":"uint256"}]},{"type":"error","name":"TruncatedBitwiseEncoding","inputs":[{"name":"startBit","type":"uint256","internalType":"uint256"},{"name":"length","type":"uint256","internalType":"uint256"}]},{"type":"error","name":"TruncatedHeader","inputs":[{"name":"bytecode","type":"bytes","internalType":"bytes"}]},{"type":"error","name":"TruncatedHeaderOffsets","inputs":[{"name":"bytecode","type":"bytes","internalType":"bytes"}]},{"type":"error","name":"TruncatedSource","inputs":[{"name":"bytecode","type":"bytes","internalType":"bytes"}]},{"type":"error","name":"UnexpectedInterpreterBytecodeHash","inputs":[{"name":"expectedBytecodeHash","type":"bytes32","internalType":"bytes32"},{"name":"actualBytecodeHash","type":"bytes32","internalType":"bytes32"}]},{"type":"error","name":"UnexpectedParserBytecodeHash","inputs":[{"name":"expectedBytecodeHash","type":"bytes32","internalType":"bytes32"},{"name":"actualBytecodeHash","type":"bytes32","internalType":"bytes32"}]},{"type":"error","name":"UnexpectedSources","inputs":[{"name":"bytecode","type":"bytes","internalType":"bytes"}]},{"type":"error","name":"UnexpectedStoreBytecodeHash","inputs":[{"name":"expectedBytecodeHash","type":"bytes32","internalType":"bytes32"},{"name":"actualBytecodeHash","type":"bytes32","internalType":"bytes32"}]},{"type":"error","name":"UnexpectedTrailingOffsetBytes","inputs":[{"name":"bytecode","type":"bytes","internalType":"bytes"}]},{"type":"error","name":"UnsupportedBitwiseShiftAmount","inputs":[{"name":"shiftAmount","type":"uint256","internalType":"uint256"}]},{"type":"error","name":"ZeroLengthBitwiseEncoding","inputs":[]}],"bytecode":{"object":"0x60e060405234801561001057600080fd5b50604051611d47380380611d4783398101604081905261002f91610156565b8051602082015160408301516001600160a01b0380841660805280831660a052811660c052823f600080516020611ce783398151915281146100a057604051630fc2051760e11b8152600080516020611ce78339815191526004820152602481018290526044015b60405180910390fd5b823f600080516020611d0783398151915281146100e7576040516348616a9b60e01b8152600080516020611d07833981519152600482015260248101829052604401610097565b823f600080516020611d27833981519152811461012e57604051630941d86960e21b8152600080516020611d27833981519152600482015260248101829052604401610097565b505050505050506101cf565b80516001600160a01b038116811461015157600080fd5b919050565b60006060828403121561016857600080fd5b604051606081016001600160401b038111828210171561019857634e487b7160e01b600052604160045260246000fd5b6040526101a48361013a565b81526101b26020840161013a565b60208201526101c36040840161013a565b60408201529392505050565b60805160a05160c051611adc61020b6000396000818160ba0152818161032b01526103ca0152600061017c015260006101a30152611adc6000f3fe608060405234801561001057600080fd5b50600436106100885760003560e01c8063a3869e141161005b578063a3869e141461014f578063b92d75531461016f578063c19423bc14610177578063f0cfdd371461019e57600080fd5b806301ffc9a71461008d57806324376855146100b55780635514ca20146101015780636f5aa28d14610121575b600080fd5b6100a061009b3660046114aa565b6101c5565b60405190151581526020015b60405180910390f35b6100dc7f000000000000000000000000000000000000000000000000000000000000000081565b60405173ffffffffffffffffffffffffffffffffffffffff90911681526020016100ac565b61011461010f3660046114ec565b6102f6565b6040516100ac919061155e565b6040517fa584ea21441427aadd44a19078a8f80abb0563d43e8da2bb0aab9f02a120539881526020016100ac565b61016261015d366004611675565b6103c3565b6040516100ac9190611745565b6101626104d3565b6100dc7f000000000000000000000000000000000000000000000000000000000000000081565b6100dc7f000000000000000000000000000000000000000000000000000000000000000081565b60007fffffffff0000000000000000000000000000000000000000000000000000000082167f6f5aa28d00000000000000000000000000000000000000000000000000000000148061025857507fffffffff0000000000000000000000000000000000000000000000000000000082167fa3869e1400000000000000000000000000000000000000000000000000000000145b806102a457507fffffffff0000000000000000000000000000000000000000000000000000000082167f5514ca2000000000000000000000000000000000000000000000000000000000145b806102f057507f01ffc9a7000000000000000000000000000000000000000000000000000000007fffffffff000000000000000000000000000000000000000000000000000000008316145b92915050565b604080516020810182526060815290517f5514ca200000000000000000000000000000000000000000000000000000000081527f000000000000000000000000000000000000000000000000000000000000000073ffffffffffffffffffffffffffffffffffffffff1690635514ca20906103779086908690600401611758565b600060405180830381865afa158015610394573d6000803e3d6000fd5b505050506040513d6000823e601f3d908101601f191682016040526103bc91908101906117ab565b9392505050565b60606000807f000000000000000000000000000000000000000000000000000000000000000073ffffffffffffffffffffffffffffffffffffffff16637764fd9c856040518263ffffffff1660e01b81526004016104219190611745565b600060405180830381865afa15801561043e573d6000803e3d6000fd5b505050506040513d6000823e601f3d908101601f191682016040526104669190810190611893565b915091506000610480838351905160406020909202010190565b604080516020838201810190925282815291925081016104a18186866104e2565b60006104c6604051806080016040528060508152602001611a8c605091398787610525565b5091979650505050505050565b60606104dd61088c565b905090565b80600182510160200281015b808210156105095781518552602094850194909101906104ee565b50506105206105158390565b848451602001610a61565b505050565b6060600061053284610ac7565b90506020850161054185610ae5565b8160020267ffffffffffffffff81111561055d5761055d6115c4565b6040519080825280601f01601f191660200182016040528015610587576020820181803683370190505b5092506020830160005b83811015610881576000806105a68984610d04565b9150915081845380600185015360028401935060006105c68a848b610d29565b9050600060186105d68c87610d95565b03905060006105e58c87610dc6565b600402820190505b808210156107cb5781516002601c82901a0289015162ffffff821691601d1a600f81169160049190911c9060f01c600080610626898785565b9150915084821461067f5760808901516040517fddf56071000000000000000000000000000000000000000000000000000000008152600481019190915260248101839052604481018690526064015b60405180910390fd5b8381146106cf5760808901516040517ffc8b560300000000000000000000000000000000000000000000000000000000815260048101919091526024810182905260448101859052606401610676565b885182111561072157608089015189516040517f2cab6bff0000000000000000000000000000000000000000000000000000000081526004810192909252602482015260448101839052606401610676565b8851829003808a5260408a0151111561078357608089015189516040808c015190517f1bc5ab0f000000000000000000000000000000000000000000000000000000008152600481019390935260248301919091526044820152606401610676565b88518101808a5260208a0151101561079d57885160208a01525b60018111156107ae57885160408a01525b5050506080860180516001019052505050600491909101906105ed565b6107d58c87610ddf565b8360200151146108295782602001516107ee8d88610ddf565b6040517f4d9c18dc00000000000000000000000000000000000000000000000000000000815260048101929092526024820152604401610676565b825184146108705782516040517f4689f0b3000000000000000000000000000000000000000000000000000000008152600481019190915260248101859052604401610676565b505060019093019250610591915050565b505050509392505050565b60606114a060006028905080915060006040518061052001604052808467ffffffffffffffff1667ffffffffffffffff168152602001610df88152602001610e768152602001610eda8152602001611054815260200161105e815260200161105e81526020016110688152602001611071815260200161108c81526020016111328152602001611132815260200161118e81526020016112068152602001611213815260200161105e81526020016110688152602001611213815260200161105e8152602001611068815260200161105e81526020016110688152602001611054815260200161105481526020016110548152602001611054815260200161121d815260200161105e815260200161105e815260200161105e815260200161105e81526020016110548152602001611227815260200161124f815260200161122781526020016110548152602001611227815260200161124f815260200161124f8152602001611068815260200161121d815250905060608190506028815114610a4f5780516040517fc8b56901000000000000000000000000000000000000000000000000000000008152600481019190915260248101849052604401610676565b610a5881611269565b94505050505090565b6020810680820384015b80851015610a86578451845260209485019490930192610a6b565b508015610ac1577fffffffffffffffffffffffffffffffffffffffffffffffffffffffffffffffff600882021c808451168119865116178452505b50505050565b60008151600003610ada57506000919050565b506020015160001a90565b6000610af082610ac7565b90508015610cc25781516001600283020190811115610b3d57826040517f17f4bc5e0000000000000000000000000000000000000000000000000000000081526004016106769190611745565b82516020828501810191850101602160027fffffffffffffffffffffffffffffffffffffffffffffffffffffffffffffffff860102860181019086015b808210610c7e57815160f01c8481016004810185811115610bc857896040517e39ba560000000000000000000000000000000000000000000000000000000081526004016106769190611745565b8151600081901a90600181901a90600281901a9060031a80821180610bec57508281115b15610c27578d876040517feaf45f4f00000000000000000000000000000000000000000000000000000000815260040161067692919061198c565b505050600481028201878114610c6b578b6040517ffbb8027a0000000000000000000000000000000000000000000000000000000081526004016106769190611745565b8397506002870396505050505050610b7a565b838314610cb957866040517fde67b29a0000000000000000000000000000000000000000000000000000000081526004016106769190611745565b50505050505050565b600182511115610d0057816040517fd013da5d0000000000000000000000000000000000000000000000000000000081526004016106769190611745565b5050565b6000806000610d138585610d95565b51600281901a9660039190911a95509350505050565b610d626040518060c001604052806000815260200160008152602001600081526020016060815260200160008152602001606081525090565b506040805160c081018252838152602081018490529081019290925260608201526000608082015260a081019190915290565b600080610da184610ac7565b60020260010190506000610db585856112fa565b949091019093016020019392505050565b600080610dd38484610d95565b5160001a949350505050565b600080610dec8484610d95565b5160011a949350505050565b8151600090819061ffff8416908110610e5457608085015185516040517feaa16f330000000000000000000000000000000000000000000000000000000081526004810192909252602482015260448101829052606401610676565b8460400151811115610e6857604085018190525b506000946001945092505050565b606082015151600090819061ffff8416908110610e685760808501516060860151516040517feb7894540000000000000000000000000000000000000000000000000000000081526004810192909252602482015260448101829052606401610676565b60608201518051600091829161ffff851691839183908110610efe57610efe6119ae565b60200260200101519050600080610f18839060a082901c90565b91509150610f46827f18003f8e00000000000000000000000000000000000000000000000000000000611351565b610f94576040517f23016c8900000000000000000000000000000000000000000000000000000000815273ffffffffffffffffffffffffffffffffffffffff83166004820152602401610676565b6040517f40c04edc00000000000000000000000000000000000000000000000000000000815260048101829052600f601089901c81166024830181905260148a901c90911660448301819052909173ffffffffffffffffffffffffffffffffffffffff8516906340c04edc906064016040805180830381865afa15801561101f573d6000803e3d6000fd5b505050506040513d601f19601f8201168201806040525081019061104391906119dd565b975097505050505050509250929050565b5060009160019150565b5060029160019150565b50600191829150565b60008061107e848461108c565b506001958695509350505050565b60008060ff83811690600885901c168083036110d4576040517f46f0ca6900000000000000000000000000000000000000000000000000000000815260040160405180910390fd5b6101006110e18284611a01565b1115611123576040517f8abcdd3f0000000000000000000000000000000000000000000000000000000081526004810183905260248101829052604401610676565b50600295600195509350505050565b60008061ffff831660ff811180611147575080155b15611181576040517fc1be16a100000000000000000000000000000000000000000000000000000000815260048101829052602401610676565b5060019485945092505050565b60a0820151600090819061ffff841690601485901c90839081906111b29085610d04565b91509150828110156111fa576040517fff1371080000000000000000000000000000000000000000000000000000000081526004810182905260248101849052604401610676565b50969095509350505050565b60101c600f169160019150565b5060039160019150565b5060029160009150565b600080601083901c600f1660018111611241576002611243565b805b95600195509350505050565b600080600f601084901c1660018111611241576002611243565b60606000825160020267ffffffffffffffff81111561128a5761128a6115c4565b6040519080825280601f01601f1916602001820160405280156112b4576020820181803683370190505b50905061ffff80196020850160208651028101600285015b818310156112ee578051835186169085161781526020909201916002016112cc565b50939695505050505050565b600061130583610ac7565b82106113415781836040517ffcfaeff1000000000000000000000000000000000000000000000000000000008152600401610676929190611a3b565b50600202016003015161ffff1690565b600061135c8361136d565b80156103bc57506103bc83836113d1565b6000611399827f01ffc9a7000000000000000000000000000000000000000000000000000000006113d1565b80156102f057506113ca827fffffffff000000000000000000000000000000000000000000000000000000006113d1565b1592915050565b604080517fffffffff000000000000000000000000000000000000000000000000000000008316602480830191909152825180830390910181526044909101909152602080820180517bffffffffffffffffffffffffffffffffffffffffffffffffffffffff167f01ffc9a700000000000000000000000000000000000000000000000000000000178152825160009392849283928392918391908a617530fa92503d91506000519050828015611489575060208210155b80156114955750600081115b979650505050505050565b6114a8611a5c565b565b6000602082840312156114bc57600080fd5b81357fffffffff00000000000000000000000000000000000000000000000000000000811681146103bc57600080fd5b600080602083850312156114ff57600080fd5b823567ffffffffffffffff8082111561151757600080fd5b818501915085601f83011261152b57600080fd5b81358181111561153a57600080fd5b86602082850101111561154c57600080fd5b60209290920196919550909350505050565b6020808252825182820182905280516040840181905260009291820190839060608601905b808310156115b957835173ffffffffffffffffffffffffffffffffffffffff168252928401926001929092019190840190611583565b509695505050505050565b7f4e487b7100000000000000000000000000000000000000000000000000000000600052604160045260246000fd5b6040516020810167ffffffffffffffff81118282101715611616576116166115c4565b60405290565b604051601f8201601f1916810167ffffffffffffffff81118282101715611645576116456115c4565b604052919050565b600067ffffffffffffffff821115611667576116676115c4565b50601f01601f191660200190565b60006020828403121561168757600080fd5b813567ffffffffffffffff81111561169e57600080fd5b8201601f810184136116af57600080fd5b80356116c26116bd8261164d565b61161c565b8181528560208385010111156116d757600080fd5b81602084016020830137600091810160200191909152949350505050565b60005b838110156117105781810151838201526020016116f8565b50506000910152565b600081518084526117318160208601602086016116f5565b601f01601f19169290920160200192915050565b6020815260006103bc6020830184611719565b60208152816020820152818360408301376000818301604090810191909152601f909201601f19160101919050565b600067ffffffffffffffff8211156117a1576117a16115c4565b5060051b60200190565b600060208083850312156117be57600080fd5b825167ffffffffffffffff808211156117d657600080fd5b81850191508282870312156117ea57600080fd5b6117f26115f3565b82518281111561180157600080fd5b80840193505086601f84011261181657600080fd5b825191506118266116bd83611787565b82815260059290921b8301840191848101908884111561184557600080fd5b938501935b8385101561188657845173ffffffffffffffffffffffffffffffffffffffff811681146118775760008081fd5b8252938501939085019061184a565b8252509695505050505050565b600080604083850312156118a657600080fd5b825167ffffffffffffffff808211156118be57600080fd5b818501915085601f8301126118d257600080fd5b815160206118e26116bd8361164d565b82815288828487010111156118f657600080fd5b611905838383018488016116f5565b8782015190965093508284111561191b57600080fd5b838701935087601f85011261192f57600080fd5b8351925061193f6116bd84611787565b83815260059390931b840181019281810192508884111561195f57600080fd5b938101935b8385101561197d57845183529381019391810191611964565b80955050505050509250929050565b60408152600061199f6040830185611719565b90508260208301529392505050565b7f4e487b7100000000000000000000000000000000000000000000000000000000600052603260045260246000fd5b600080604083850312156119f057600080fd5b505080516020909101519092909150565b808201808211156102f0577f4e487b7100000000000000000000000000000000000000000000000000000000600052601160045260246000fd5b828152604060208201526000611a546040830184611719565b949350505050565b7f4e487b7100000000000000000000000000000000000000000000000000000000600052605160045260246000fdfe0df80e760eda1054105e105e10681071108c11321132118e12061213105e10681213105e1068105e10681054105410541054121d105e105e105e105e10541227124f122710541227124f124f1068121da6b8194695aec2caaf40b73cd4e492ee12c82b68f6cb09e771bcd016eb1c1830a66c486a555262ed1b34cb7407fc94fb6a0af167388d748403b0d1ef8d6572866f543e4dfa04d86b7bb9adbd4f2daf59cafd956a3d1f4d295cb680b8c286ac04","linkReferences":{}},"methodIdentifiers":{"buildIntegrityFunctionPointers()":"b92d7553","describedByMetaV1()":"6f5aa28d","iInterpreter()":"f0cfdd37","iParser()":"24376855","iStore()":"c19423bc","parse2(bytes)":"a3869e14","parsePragma1(bytes)":"5514ca20","supportsInterface(bytes4)":"01ffc9a7"},"id":136}