{"abi":[{"type":"function","name":"buildOpcodeFunctionPointers","inputs":[],"outputs":[{"name":"","type":"bytes","internalType":"bytes"}],"stateMutability":"view"},{"type":"function","name":"eval4","inputs":[{"name":"eval","type":"tuple","internalType":"struct EvalV4","components":[{"name":"store","type":"address","internalType":"contract IInterpreterStoreV3"},{"name":"namespace","type":"uint256","internalType":"FullyQualifiedNamespace"},{"name":"bytecode","type":"bytes","internalType":"bytes"},{"name":"sourceIndex","type":"uint256","internalType":"SourceIndexV2"},{"name":"context","type":"bytes32[][]","internalType":"bytes32[][]"},{"name":"inputs","type":"bytes32[]","internalType":"StackItem[]"},{"name":"stateOverlay","type":"bytes32[]","internalType":"bytes32[]"}]}],"outputs":[{"name":"","type":"bytes32[]","internalType":"StackItem[]"},{"name":"","type":"bytes32[]","internalType":"bytes32[]"}],"stateMutability":"view"},{"type":"function","name":"supportsInterface","inputs":[{"name":"interfaceId","type":"bytes4","internalType":"bytes4"}],"outputs":[{"name":"","type":"bool","internalType":"bool"}],"stateMutability":"view"},{"type":"error","name":"BadDynamicLength","inputs":[{"name":"dynamicLength","type":"uint256","internalType":"uint256"},{"name":"standardOpsLength","type":"uint256","internalType":"uint256"}]},{"type":"error","name":"BadOutputsLength","inputs":[{"name":"expectedLength","type":"uint256","internalType":"uint256"},{"name":"actualLength","type":"uint256","internalType":"uint256"}]},{"type":"error","name":"CoefficientOverflow","inputs":[{"name":"signedCoefficient","type":"int256","internalType":"int256"},{"name":"exponent","type":"int256","internalType":"int256"}]},{"type":"error","name":"ExponentOverflow","inputs":[{"name":"signedCoefficient","type":"int256","internalType":"int256"},{"name":"exponent","type":"int256","internalType":"int256"}]},{"type":"error","name":"InputsLengthMismatch","inputs":[{"name":"expected","type":"uint256","internalType":"uint256"},{"name":"actual","type":"uint256","internalType":"uint256"}]},{"type":"error","name":"LossyConversionToFloat","inputs":[{"name":"signedCoefficient","type":"int256","internalType":"int256"},{"name":"exponent","type":"int256","internalType":"int256"}]},{"type":"error","name":"SourceIndexOutOfBounds","inputs":[{"name":"sourceIndex","type":"uint256","internalType":"uint256"},{"name":"bytecode","type":"bytes","internalType":"bytes"}]}],"bytecode":{"object":"0x6080604052348015600f57600080fd5b50612f3f8061001f6000396000f3fe608060405234801561001057600080fd5b50600436106100415760003560e01c806301ffc9a714610046578063514b5d4f1461006e578063d04dfe2314610083575b600080fd5b61005961005436600461288e565b6100a4565b60405190151581526020015b60405180910390f35b61007661013d565b6040516100659190612916565b610096610091366004612929565b61014c565b6040516100659291906129a0565b60007fffffffff0000000000000000000000000000000000000000000000000000000082167fd04dfe2300000000000000000000000000000000000000000000000000000000148061013757507f01ffc9a7000000000000000000000000000000000000000000000000000000007fffffffff000000000000000000000000000000000000000000000000000000008316145b92915050565b60606101476102d3565b905090565b60608060006101e684830135602086018035906101699088612a1c565b6101766080890189612a39565b61017f91612b25565b604051806080016040528060508152602001612eef605091396101a560408b018b612bf0565b8080601f01602080910402602001604051908101604052809392919081815260200183838082843760009201919091525092979695949392505061046e9050565b905060005b6101f860c0860186612a39565b905081101561027b5760608201516102649061021760c0880188612a39565b8481811061022757610227612c55565b90506020020135878060c0019061023e9190612a39565b610249866001612cb3565b81811061025857610258612c55565b905060200201356105bf565b6060830152610274600282612cb3565b90506101eb565b506102c961028c60a0860186612a39565b8080602002602001604051908101604052809392919081815260200183836020028082843760009201919091525085939250600019915050610651565b9250925050915091565b6040805161052081018252602880825261075b602083015261078d928201929092526107b160608281019190915261093d6080830152610a0660a0830152610a1860c0830152610a2a60e0830152610a43610100830152610a67610120830152610a9b610140830152610aac610160830152610abd610180830152610b5f6101a0830152610b7e6101c0830152610c3c6101e0830152610cec610200830152610d70610220830152610eb2610240830152610fe56102608301526110de6102808301526111806102a08301526111f86102c08301526112096102e083015261121a610300830181905261032083015261122b6103408301526112b86103608301526112d16103808301526112e56103a08301526112fe6103c08301526113176103e083015261132a61040083015261138c6104208301526113da6104408301526114286104608301526114596104808301526114a76104a08301526114f56104c08301526115436104e083015261162a610500830152919081908061045c565b60405180910390fd5b6104658161165d565b94505050505090565b6104d36040518061012001604052806060815260200160608152602001600081526020016000815260200160008152602001600073ffffffffffffffffffffffffffffffffffffffff1681526020016060815260200160608152602001606081525090565b602087810180516040600191820184028b01818101518251600091821a808252948501870281019093526041808301968381019593600285020190910191908401905b8381101561055457875160f01c83015160408051600192831a8082528301602090810290910191829052908452600290990198929092019101610516565b505050506040518061012001604052808281526020018481526020018b8152602001600081526020018a81526020018973ffffffffffffffffffffffffffffffffffffffff168152602001888152602001838152602001878152509450505050509695505050505050565b6000826000526010600f6020600020060261ffff85821c16805b80156105f057805186146105f057604001516105d9565b8015801561063e5760405191506060820160405286825285602083015282604083015260028860f01c0161ffff60f01b1989168160f01b1798505061ffff841b19881682851b179750610645565b8560208301525b50959695505050505050565b6060806000806106698760e0015188604001516116ee565b91509150600080886000015189604001518151811061068a5761068a612c55565b602002602001015191508190506000885111156106c45760006020895102820391506020890190506106be81838b51611713565b5061070b565b8388511461070b5787516040517fd628439f000000000000000000000000000000000000000000000000000000008152610453918691600401918252602082015260400190565b61071b898a60400151838561173b565b9050600083881061072c578361072e565b875b90506060602083039050818152806107498c606001516119d2565b97509750505050505050935093915050565b60408301518351602060019283018102919091015161ffff851690920102900351601f19909101908152809392505050565b60208084015161ffff84166001019091020151601f19909101908152809392505050565b6020830151805160009161ffff851691600f601087901c811692601488901c90911691859190859081106107e7576107e7612c55565b60200260200101519050600080610801839060a082901c90565b601f198a0180518882526040517f58c071520000000000000000000000000000000000000000000000000000000081529395509193509160009073ffffffffffffffffffffffffffffffffffffffff8616906358c07152906108699087908790600401612cc6565b600060405180830381865afa158015610886573d6000803e3d6000fd5b505050506040513d6000823e601f3d908101601f191682016040526108ae9190810190612ce7565b9050805187146108f75780516040517fc3385cb0000000000000000000000000000000000000000000000000000000008152610453918991600401918252602082015260400190565b818352602088028b019a50602081016020880281015b8082101561092a5760208d039c5081518d5260208201915061090d565b509a9d9c50505050505050505050505050565b600060ff83811690600885901c1660208410156109b6576040517f08c379a000000000000000000000000000000000000000000000000000000000815260206004820152600f60248201527f737461636b20756e646572666c6f7700000000000000000000000000000000006044820152606401610453565b60008660c0015183815181106109ce576109ce612c55565b602002602001015182815181106109e7576109e7612c55565b6020908102919091010151601f19909501948552509295945050505050565b60208101805182511681529392505050565b60208101805182511781529392505050565b8051600090610a3881611c46565b835250909392505050565b80516001600884901c60ff9081169190911b6000190193161c919091168152919050565b80516020909101805160ff600885901c811660020a60001901941684811b199091169390921690911b919091178152919050565b805160ff83161b8152809392505050565b805160ff83161c8152809392505050565b8251600161ffff84169081016020908102830151600093601087901c600f1692601488901c92908190850288015b80891015610b085760208203915088518252602089019850610aeb565b5060408a01805190879052610b1f8b82848661173b565b60408c0182905260208602998a9003999092508201895b81841015610b4e578351815260209384019301610b36565b50989b9a5050505050505050505050565b60109190911c600f16602002808220601f199190920101908152919050565b805160208201516040928301805193517fdd62ed3e00000000000000000000000000000000000000000000000000000000815273ffffffffffffffffffffffffffffffffffffffff80841660048301528086166024830152919460009493929091859185169063dd62ed3e90604401602060405180830381865afa158015610c0a573d6000803e3d6000fd5b505050506040513d601f19601f82011682018060405250810190610c2e9190612d6d565b865250939695505050505050565b8051602090910180516040517f70a0823100000000000000000000000000000000000000000000000000000000815273ffffffffffffffffffffffffffffffffffffffff8083166004830152929360009390929184918416906370a0823190602401602060405180830381865afa158015610cbb573d6000803e3d6000fd5b505050506040513d601f19601f82011682018060405250810190610cdf9190612d6d565b8552509295945050505050565b6000808251905060008173ffffffffffffffffffffffffffffffffffffffff166318160ddd6040518163ffffffff1660e01b8152600401602060405180830381865afa158015610d40573d6000803e3d6000fd5b505050506040513d601f19601f82011682018060405250810190610d649190612d6d565b84525091949350505050565b805160208201516040928301805193517fdd62ed3e00000000000000000000000000000000000000000000000000000000815273ffffffffffffffffffffffffffffffffffffffff80841660048301528086166024830152919460009493929091859185169063dd62ed3e90604401602060405180830381865afa158015610dfc573d6000803e3d6000fd5b505050506040513d601f19601f82011682018060405250810190610e209190612d6d565b905060008473ffffffffffffffffffffffffffffffffffffffff1663313ce5676040518163ffffffff1660e01b8152600401602060405180830381865afa158015610e6f573d6000803e3d6000fd5b505050506040513d601f19601f82011682018060405250810190610e939190612d86565b90506000610ea18383611d01565b508852509598975050505050505050565b8051602090910180516040517f70a0823100000000000000000000000000000000000000000000000000000000815273ffffffffffffffffffffffffffffffffffffffff8083166004830152929360009390929184918416906370a0823190602401602060405180830381865afa158015610f31573d6000803e3d6000fd5b505050506040513d601f19601f82011682018060405250810190610f559190612d6d565b905060008373ffffffffffffffffffffffffffffffffffffffff1663313ce5676040518163ffffffff1660e01b8152600401602060405180830381865afa158015610fa4573d6000803e3d6000fd5b505050506040513d601f19601f82011682018060405250810190610fc89190612d86565b90506000610fd68383611d46565b87525094979650505050505050565b6000808251905060008173ffffffffffffffffffffffffffffffffffffffff166318160ddd6040518163ffffffff1660e01b8152600401602060405180830381865afa158015611039573d6000803e3d6000fd5b505050506040513d601f19601f8201168201806040525081019061105d9190612d6d565b905060008273ffffffffffffffffffffffffffffffffffffffff1663313ce5676040518163ffffffff1660e01b8152600401602060405180830381865afa1580156110ac573d6000803e3d6000fd5b505050506040513d601f19601f820116820180604052508101906110d09190612d86565b90506000610c2e8383611d46565b8051602090910180516040517f6352211e000000000000000000000000000000000000000000000000000000008152600481018290529192600092909190839073ffffffffffffffffffffffffffffffffffffffff841690636352211e90602401602060405180830381865afa15801561115c573d6000803e3d6000fd5b505050506040513d601f19601f82011682018060405250810190610cdf9190612da9565b6000808251905060008173ffffffffffffffffffffffffffffffffffffffff16638da5cb5b6040518163ffffffff1660e01b8152600401602060405180830381865afa1580156111d4573d6000803e3d6000fd5b505050506040513d601f19601f82011682018060405250810190610d649190612da9565b43601f199190910190815292915050565b46601f199190910190815292915050565b42601f199190910190815292915050565b805160208083015160408051808201825260008082529381018490527f1fffffffffffffffffffffffffffffffffffffffffffffffffffffffffffffff8316601f820152940193919291826112ad576040517f08c379a00000000000000000000000000000000000000000000000000000000081526004016104539190612916565b509295945050505050565b805160209091018051909160009182610cdf8383611d6c565b805160209091018051909114815292915050565b805160209091018051909160009182610cdf8383611dbb565b805160209091018051909160009182610cdf8383611e0b565b600019601f199190910190815292915050565b80516020820151604090920191600091906113458282611e5b565b9150601085901c600f1660025b81811015611378578551925060208601955061136e8484611e5b565b9350600101611352565b505050601f19929092019182525092915050565b80516020820151604090920191600091906113a78282611ec2565b9150600f601086901c1660025b8181101561137857855192506020860195506113d08484611ec2565b93506001016113b4565b80516020820151604090920191600091906113f58282611f08565b9150601085901c600f1660025b81811015611378578551925060208601955061141e8484611f08565b9350600101611402565b7f7fffffff7fffffffffffffffffffffffffffffffffffffffffffffffffffffff601f199190910190815292915050565b80516020820151604090920191600091906114748282611f27565b9150601085901c600f1660025b81811015611378578551925060208601955061149d8484611f27565b9350600101611481565b80516020820151604090920191600091906114c28282611f33565b9150600f601086901c1660025b8181101561137857855192506020860195506114eb8484611f33565b93506001016114cf565b80516020820151604090920191600091906115108282611f79565b9150600f601086901c1660025b8181101561137857855192506020860195506115398484611f79565b935060010161151d565b80516060840151600091908290819061155c9084611fbf565b9150915081600003610d645760a087015160808801516040517f295f36d700000000000000000000000000000000000000000000000000000000815260048101919091526024810185905260009173ffffffffffffffffffffffffffffffffffffffff169063295f36d790604401602060405180830381865afa1580156115e7573d6000803e3d6000fd5b505050506040513d601f19601f8201168201806040525081019061160b9190612d6d565b606089015190915061161e9085836105bf565b606089015285526112ad565b805160208201516060850151604090930192600092919061164c9083836105bf565b606087015250829150509392505050565b60606000825160020267ffffffffffffffff81111561167e5761167e612aa1565b6040519080825280601f01601f1916602001820160405280156116a8576020820181803683370190505b50905061ffff80196020850160208651028101600285015b818310156116e2578051835186169085161781526020909201916002016116c0565b50939695505050505050565b60008060006116fd8585612009565b51600281901a9660039190911a95509350505050565b8060200283015b8084101561173557835183526020938401939092019161171a565b50505050565b60008085604001519050600080600080600060028b6101000151516117609190612df5565b60e08c01516101008d0151602080830151600261ffff9b909b168b8102850160219081015160f01c600093841a9d909d029095019b909b019384015160258086019b50600791831a91821691829003600402909501909401985092965001935090915061288490805b8688101561194c57875190506002848260001a060285015160f01c925062ffffff8160e01c1691506118008e838e8663ffffffff16565b9b506002848260041a060285015160f01c925062ffffff8160c01c16915061182d8e838e8663ffffffff16565b9b506002848260081a060285015160f01c925062ffffff8160a01c16915061185a8e838e8663ffffffff16565b9b5060028482600c1a060285015160f01c925062ffffff8160801c1691506118878e838e8663ffffffff16565b9b506002848260101a060285015160f01c925062ffffff8160601c1691506118b48e838e8663ffffffff16565b9b506002848260141a060285015160f01c925062ffffff8160401c1691506118e18e838e8663ffffffff16565b9b506002848260181a060285015160f01c925062ffffff8160201c16915061190e8e838e8663ffffffff16565b9b5060028482601c1a060285015160f01c925062ffffff811691506119388e838e8663ffffffff16565b9b50611945602089612cb3565b97506117c9565b611957601c89612e30565b9750611964866004612e43565b61196e9089612cb3565b96505b868810156119b45750508551601c81901a83900660020284015160f01c915062ffffff8116906119a08e838e86565b9b506119ad600489612cb3565b9750611971565b6119c08d8a8e8e61203a565b50999c9b505050505050505050505050565b6040805160f083901c602081810283010190925290815261ffff63ffffffff67ffffffffffffffff6fffffffffffffffffffffffffffffffff611a3f565b60005b8215611a3957825182526020830151602083015260408301519250604082019150611a13565b50919050565b602085018660101b60901c8015611b2f578060401c8015611aad578060201c8015611a7157611a6e8185611a10565b93505b508086168015611aab578060101c8015611a9257611a8f8186611a10565b94505b508088168015611aa957611aa68186611a10565b94505b505b505b508084168015611b2d578060201c8015611af1578060101c8015611ad857611ad58186611a10565b94505b508088168015611aef57611aec8186611a10565b94505b505b508086168015611b2b578060101c8015611b1257611b0f8186611a10565b94505b508088168015611b2957611b268186611a10565b94505b505b505b505b508682168015611c3b578060401c8015611bb9578060201c8015611b7d578060101c8015611b6457611b618186611a10565b94505b508088168015611b7b57611b788186611a10565b94505b505b508086168015611bb7578060101c8015611b9e57611b9b8186611a10565b94505b508088168015611bb557611bb28186611a10565b94505b505b505b508084168015611c39578060201c8015611bfd578060101c8015611be457611be18186611a10565b94505b508088168015611bfb57611bf88186611a10565b94505b505b508086168015611c37578060101c8015611c1e57611c1b8186611a10565b94505b508088168015611c3557611c328186611a10565b94505b505b505b505b505050505050919050565b60006000198203611c5a5750610100919050565b507f0f0f0f0f0f0f0f0f0f0f0f0f0f0f0f0f0f0f0f0f0f0f0f0f0f0f0f0f0f0f0f0f7f5555555555555555555555555555555555555555555555555555555555555555600183901c16909103600281901c7f3333333333333333333333333333333333333333333333333333333333333333908116911601600481901c01167f01010101010101010101010101010101010101010101010101010101010101010260f81c90565b6000806000806000611d1387876120a6565b925092509250600080611d268585612104565b9150915081838015611d355750815b9650965050505050505b9250929050565b6000806000611d5585856121d8565b91509150611d63828261223d565b95945050505050565b60007bffffffffffffffffffffffffffffffffffffffffffffffffffffffff838116601b90810b9160e086811d9291861690910b9085901d611db084848484612299565b979650505050505050565b60007bffffffffffffffffffffffffffffffffffffffffffffffffffffffff838116601b90810b9160e086811d9291861690910b9085901d611dff848484846122b1565b12979650505050505050565b60007bffffffffffffffffffffffffffffffffffffffffffffffffffffffff838116601b90810b9160e086811d9291861690910b9085901d611e4f848484846122b1565b13979650505050505050565b60007bffffffffffffffffffffffffffffffffffffffffffffffffffffffff838116601b90810b9160e086811d9291861690910b9085901d8480611ea186868686612395565b91509150600080611eb28484612104565b509b9a5050505050505050505050565b60007bffffffffffffffffffffffffffffffffffffffffffffffffffffffff838116601b90810b9160e086811d9291861690910b9085901d8480611ea18686868661242b565b6000611f148383611dbb565b611f1e5781611f20565b825b9392505050565b6000611f148383611e0b565b60007bffffffffffffffffffffffffffffffffffffffffffffffffffffffff838116601b90810b9160e086811d9291861690910b9085901d8480611ea1868686866124a1565b60007bffffffffffffffffffffffffffffffffffffffffffffffffffffffff838116601b90810b9160e086811d9291861690910b9085901d8480611ea186868686612515565b600080826000526010600f6020600020060261ffff85821c165b80156120005780518503611ff7576001935060208101519250612000565b60400151611fd9565b50509250929050565b60008061201584612540565b60020260010190506000612029858561255e565b949091019093016020019392505050565b601f1982018051601086901b851782527f312f5ae588c6ff62cd3f006af06cd48c98d7321649db7d8b2c396a81a204655591906000808686036004017ffffffffffffffffffffffffffffffffffffffffffffffffffffffffffffffffc8801865afa5090525050505050565b6000808060ff841681037f7fffffffffffffffffffffffffffffffffffffffffffffffffffffffffffffff8611156120f357600a860460018201600a8806600014935093509350506120fd565b8593509150600190505b9250925092565b6000601b83900b831480612162577d90e40fbeea1d3a4abc8955e946fe31cdcf66f634e100000000000000000084051561214757620186a0840593506005830192505b8384601b0b1461216257600a84059350826001019250612147565b828360030b146121a8576040517fd556b1110000000000000000000000000000000000000000000000000000000081526004810185905260248101849052604401610453565b7bffffffffffffffffffffffffffffffffffffffffffffffffffffffff9390931660e09290921b91909117929050565b60008060008060006121ea87876120a6565b92509250925080612231576040517fc47179660000000000000000000000000000000000000000000000000000000081526004810184905260248101839052604401610453565b50909590945092505050565b600080600061224c8585612104565b9150915080612291576040517f22c9f7bb0000000000000000000000000000000000000000000000000000000081526004810186905260248101859052604401610453565b509392505050565b60006122a7858585856122b1565b1495945050505050565b600080851584151781871282861218178584141780156122d7578685925092505061238c565b506000858413156122ec575092949193919260015b83860360008112604c8213178015612322578215612313576000899450945050505061238c565b8860009450945050505061238c565b600a82900a8981028a82828161233a5761233a612dc6565b05146123685784156123575760008b96509650505050505061238c565b8a600096509650505050505061238c565b841561237d57889650945061238c9350505050565b955087945061238c9350505050565b94509492505050565b600080851584151780156123c357866000036123b7578484925092505061238c565b8686925092505061238c565b6123cd87876125b5565b90975095506123dc85856125b5565b9095509350858413156123f0579395929492935b6000848703602581111561240c5788889450945050505061238c565b600a0a905061241b8189612e5a565b9095019793965092945050505050565b60008061243886866125b5565b909650945061244784846125b5565b90945092506000846f4b3b4ca85a86c47a098a22400000000088028161246f5761246f612dc6565b0597939095037fffffffffffffffffffffffffffffffffffffffffffffffffffffffffffffffda019550919350505050565b6000808584028082036124bb57600080925092505061238c565b858401878205861415878203861415178015612507576124db89896125b5565b90995097506124ea87876125b5565b90975095506124fb898989896124a1565b9450945050505061238c565b509097909650945050505050565b60008061252284846127df565b909450925061253386868686612395565b9150915094509492505050565b6000815160000361255357506000919050565b506020015160001a90565b600061256983612540565b82106125a55781836040517ffcfaeff1000000000000000000000000000000000000000000000000000000008152600401610453929190612ea6565b50600202016003015161ffff1690565b60008082158415166f0785ee10d5da46d900f436a000000000850515156f4b3b4ca85a86c47a098a2240000000008605151617156125f7575082905081611d3f565b8360000361260a57506000905080611d3f565b7f400000000000000000000000000000000000000000000000000000000000000083051561266e576040517fd556b1110000000000000000000000000000000000000000000000000000000081526004810185905260248101849052604401610453565b6f4b3b4ca85a86c47a098a22400000000084051561273a577704140c78940f6a24fdffc78873d4490d21000000000000008405156126ba57678ac7230489e80000840593506013830192505b7301c06a5ec5433c60ddaa16406f5a4000000000008405156126e657633b9aca00840593506009830192505b7002f050fe938943acc45f65568000000000840515612710576064840593506002830192506126e6565b6f4b3b4ca85a86c47a098a22400000000084051561273557600a840593506001830192505b6127d7565b670de0b6b3a7640000840560000361276057678ac7230489e80000840293506013830392505b6b204fce5e3e25026110000000840560000361278657633b9aca00840293506009830392505b6ec097ce7bc90715b34b9f100000000084056000036127b057606484029350600283039250612786565b6f0785ee10d5da46d900f436a00000000084056000036127d757600a840293506001830392505b509192909150565b6000807f80000000000000000000000000000000000000000000000000000000000000008403612879577f7fffffffffffffffffffffffffffffffffffffffffffffffffffffffffffffff830361286c576040517fd556b1110000000000000000000000000000000000000000000000000000000081526004810185905260248101849052604401610453565b600a840593508260010192505b505060009190910391565b61288c612ebf565b565b6000602082840312156128a057600080fd5b81357fffffffff0000000000000000000000000000000000000000000000000000000081168114611f2057600080fd5b6000815180845260005b818110156128f6576020818501810151868301820152016128da565b506000602082860101526020601f19601f83011685010191505092915050565b602081526000611f2060208301846128d0565b60006020828403121561293b57600080fd5b813567ffffffffffffffff81111561295257600080fd5b820160e08185031215611f2057600080fd5b60008151808452602080850194506020840160005b8381101561299557815187529582019590820190600101612979565b509495945050505050565b6040815260006129b36040830185612964565b82810360208481019190915284518083528582019282019060005b818110156129ea578451835293830193918301916001016129ce565b5090979650505050505050565b73ffffffffffffffffffffffffffffffffffffffff81168114612a1957600080fd5b50565b600060208284031215612a2e57600080fd5b8135611f20816129f7565b60008083357fffffffffffffffffffffffffffffffffffffffffffffffffffffffffffffffe1843603018112612a6e57600080fd5b83018035915067ffffffffffffffff821115612a8957600080fd5b6020019150600581901b3603821315611d3f57600080fd5b7f4e487b7100000000000000000000000000000000000000000000000000000000600052604160045260246000fd5b604051601f8201601f1916810167ffffffffffffffff81118282101715612af957612af9612aa1565b604052919050565b600067ffffffffffffffff821115612b1b57612b1b612aa1565b5060051b60200190565b6000612b38612b3384612b01565b612ad0565b83815260208082019190600586811b860136811115612b5657600080fd5b865b81811015612be357803567ffffffffffffffff811115612b785760008081fd5b880136601f820112612b8a5760008081fd5b8035612b98612b3382612b01565b81815290851b82018601908681019036831115612bb55760008081fd5b928701925b82841015612bd357833582529287019290870190612bba565b8952505050948301948301612b58565b5092979650505050505050565b60008083357fffffffffffffffffffffffffffffffffffffffffffffffffffffffffffffffe1843603018112612c2557600080fd5b83018035915067ffffffffffffffff821115612c4057600080fd5b602001915036819003821315611d3f57600080fd5b7f4e487b7100000000000000000000000000000000000000000000000000000000600052603260045260246000fd5b7f4e487b7100000000000000000000000000000000000000000000000000000000600052601160045260246000fd5b8082018082111561013757610137612c84565b828152604060208201526000612cdf6040830184612964565b949350505050565b60006020808385031215612cfa57600080fd5b825167ffffffffffffffff811115612d1157600080fd5b8301601f81018513612d2257600080fd5b8051612d30612b3382612b01565b81815260059190911b82018301908381019087831115612d4f57600080fd5b928401925b82841015611db057835182529284019290840190612d54565b600060208284031215612d7f57600080fd5b5051919050565b600060208284031215612d9857600080fd5b815160ff81168114611f2057600080fd5b600060208284031215612dbb57600080fd5b8151611f20816129f7565b7f4e487b7100000000000000000000000000000000000000000000000000000000600052601260045260246000fd5b600082612e2b577f4e487b7100000000000000000000000000000000000000000000000000000000600052601260045260246000fd5b500490565b8181038181111561013757610137612c84565b808202811582820484141761013757610137612c84565b808202600082127f800000000000000000000000000000000000000000000000000000000000000084141615612e9257612e92612c84565b818105831482151761013757610137612c84565b828152604060208201526000612cdf60408301846128d0565b7f4e487b7100000000000000000000000000000000000000000000000000000000600052605160045260246000fdfe075b078d07b1093d0a060a180a2a0a430a670a9b0aac0abd0b5f0b7e0c3c0cec0d700eb20fe510de118011f81209121a121a122b12b812d112e512fe1317132a138c13da1428145914a714f51543162a","linkReferences":{}},"methodIdentifiers":{"buildOpcodeFunctionPointers()":"514b5d4f","eval4((address,uint256,bytes,uint256,bytes32[][],bytes32[],bytes32[]))":"d04dfe23","supportsInterface(bytes4)":"01ffc9a7"},"id":135}