{"abi":[{"type":"function","name":"get","inputs":[{"name":"namespace","type":"uint256","internalType":"FullyQualifiedNamespace"},{"name":"key","type":"bytes32","internalType":"bytes32"}],"outputs":[{"name":"","type":"bytes32","internalType":"bytes32"}],"stateMutability":"view"},{"type":"function","name":"set","inputs":[{"name":"namespace","type":"uint256","internalType":"StateNamespace"},{"name":"kvs","type":"bytes32[]","internalType":"bytes32[]"}],"outputs":[],"stateMutability":"nonpayable"},{"type":"function","name":"supportsInterface","inputs":[{"name":"interfaceId","type":"bytes4","internalType":"bytes4"}],"outputs":[{"name":"","type":"bool","internalType":"bool"}],"stateMutability":"view"},{"type":"event","name":"Set","inputs":[{"name":"namespace","type":"uint256","indexed":false,"internalType":"FullyQualifiedNamespace"},{"name":"key","type":"bytes32","indexed":false,"internalType":"bytes32"},{"name":"value","type":"bytes32","indexed":false,"internalType":"bytes32"}],"anonymous":false},{"type":"error","name":"OddSetLength","inputs":[{"name":"length","type":"uint256","internalType":"uint256"}]}],"bytecode":{"object":"0x6080604052348015600f57600080fd5b506103b98061001f6000396000f3fe608060405234801561001057600080fd5b50600436106100415760003560e01c806301ffc9a71461004657806304b19db41461006e578063295f36d714610083575b600080fd5b610059610054366004610265565b6100ba565b60405190151581526020015b60405180910390f35b61008161007c3660046102ae565b610153565b005b6100ac61009136600461032d565b60009182526020828152604080842092845291905290205490565b604051908152602001610065565b60007fffffffff0000000000000000000000000000000000000000000000000000000082167f2deeab6300000000000000000000000000000000000000000000000000000000148061014d57507f01ffc9a7000000000000000000000000000000000000000000000000000000007fffffffff000000000000000000000000000000000000000000000000000000008316145b92915050565b61015e60028261034f565b1561019c576040517f01c71f3d0000000000000000000000000000000000000000000000000000000081526004810182905260240160405180910390fd5b60008381523360205260408120905b8281101561025e5760008484838181106101c7576101c761038a565b90506020020135905060008585846001018181106101e7576101e761038a565b9050602002013590507f245edc72356e0d4eee6c8edc5e2f5cbe7cc71f347769147ef686bc681845da87848383604051610234939291909283526020830191909152604082015260600190565b60405180910390a160008481526020818152604080832094835293905291909120556002016101ab565b5050505050565b60006020828403121561027757600080fd5b81357fffffffff00000000000000000000000000000000000000000000000000000000811681146102a757600080fd5b9392505050565b6000806000604084860312156102c357600080fd5b83359250602084013567ffffffffffffffff808211156102e257600080fd5b818601915086601f8301126102f657600080fd5b81358181111561030557600080fd5b8760208260051b850101111561031a57600080fd5b6020830194508093505050509250925092565b6000806040838503121561034057600080fd5b50508035926020909101359150565b600082610385577f4e487b7100000000000000000000000000000000000000000000000000000000600052601260045260246000fd5b500690565b7f4e487b7100000000000000000000000000000000000000000000000000000000600052603260045260246000fd","linkReferences":{}},"methodIdentifiers":{"get(uint256,bytes32)":"295f36d7","set(uint256,bytes32[])":"04b19db4","supportsInterface(bytes4)":"01ffc9a7"},"id":141}