{"abi":[{"type":"constructor","inputs":[{"name":"config","type":"tuple","internalType":"struct OrderBookV5ArbConfig","components":[{"name":"orderBook","type":"address","internalType":"address"},{"name":"task","type":"tuple","internalType":"struct TaskV2","components":[{"name":"evaluable","type":"tuple","internalType":"struct EvaluableV4","components":[{"name":"interpreter","type":"address","internalType":"contract IInterpreterV4"},{"name":"store","type":"address","internalType":"contract IInterpreterStoreV3"},{"name":"bytecode","type":"bytes","internalType":"bytes"}]},{"name":"signedContext","type":"tuple[]","internalType":"struct SignedContextV1[]","components":[{"name":"signer","type":"address","internalType":"address"},{"name":"context","type":"bytes32[]","internalType":"bytes32[]"},{"name":"signature","type":"bytes","internalType":"bytes"}]}]},{"name":"implementationData","type":"bytes","internalType":"bytes"}]}],"stateMutability":"nonpayable"},{"type":"fallback","stateMutability":"nonpayable"},{"type":"function","name":"arb4","inputs":[{"name":"orderBook","type":"address","internalType":"contract IOrderBookV5"},{"name":"takeOrders","type":"tuple","internalType":"struct TakeOrdersConfigV4","components":[{"name":"minimumInput","type":"bytes32","internalType":"Float"},{"name":"maximumInput","type":"bytes32","internalType":"Float"},{"name":"maximumIORatio","type":"bytes32","internalType":"Float"},{"name":"orders","type":"tuple[]","internalType":"struct TakeOrderConfigV4[]","components":[{"name":"order","type":"tuple","internalType":"struct OrderV4","components":[{"name":"owner","type":"address","internalType":"address"},{"name":"evaluable","type":"tuple","internalType":"struct EvaluableV4","components":[{"name":"interpreter","type":"address","internalType":"contract IInterpreterV4"},{"name":"store","type":"address","internalType":"contract IInterpreterStoreV3"},{"name":"bytecode","type":"bytes","internalType":"bytes"}]},{"name":"validInputs","type":"tuple[]","internalType":"struct IOV2[]","components":[{"name":"token","type":"address","internalType":"address"},{"name":"vaultId","type":"bytes32","internalType":"bytes32"}]},{"name":"validOutputs","type":"tuple[]","internalType":"struct IOV2[]","components":[{"name":"token","type":"address","internalType":"address"},{"name":"vaultId","type":"bytes32","internalType":"bytes32"}]},{"name":"nonce","type":"bytes32","internalType":"bytes32"}]},{"name":"inputIOIndex","type":"uint256","internalType":"uint256"},{"name":"outputIOIndex","type":"uint256","internalType":"uint256"},{"name":"signedContext","type":"tuple[]","internalType":"struct SignedContextV1[]","components":[{"name":"signer","type":"address","internalType":"address"},{"name":"context","type":"bytes32[]","internalType":"bytes32[]"},{"name":"signature","type":"bytes","internalType":"bytes"}]}]},{"name":"data","type":"bytes","internalType":"bytes"}]},{"name":"task","type":"tuple","internalType":"struct TaskV2","components":[{"name":"evaluable","type":"tuple","internalType":"struct EvaluableV4","components":[{"name":"interpreter","type":"address","internalType":"contract IInterpreterV4"},{"name":"store","type":"address","internalType":"contract IInterpreterStoreV3"},{"name":"bytecode","type":"bytes","internalType":"bytes"}]},{"name":"signedContext","type":"tuple[]","internalType":"struct SignedContextV1[]","components":[{"name":"signer","type":"address","internalType":"address"},{"name":"context","type":"bytes32[]","internalType":"bytes32[]"},{"name":"signature","type":"bytes","internalType":"bytes"}]}]}],"outputs":[],"stateMutability":"payable"},{"type":"function","name":"iStabullRouter","inputs":[],"outputs":[{"name":"","type":"address","internalType":"contract IStabullRouter"}],"stateMutability":"view"},{"type":"function","name":"iTaskHash","inputs":[],"outputs":[{"name":"","type":"bytes32","internalType":"bytes32"}],"stateMutability":"view"},{"type":"function","name":"onTakeOrders2","inputs":[{"name":"inputToken","type":"address","internalType":"address"},{"name":"outputToken","type":"address","internalType":"address"},{"name":"inputAmountSent","type":"bytes32","internalType":"Float"},{"name":"totalOutputAmount","type":"bytes32","internalType":"Float"},{"name":"takeOrdersData","type":"bytes","internalType":"bytes"}],"outputs":[],"stateMutability":"nonpayable"},{"type":"function","name":"supportsInterface","inputs":[{"name":"interfaceId","type":"bytes4","internalType":"bytes4"}],"outputs":[{"name":"","type":"bool","internalType":"bool"}],"stateMutability":"view"},{"type":"event","name":"Construct","inputs":[{"name":"sender","type":"address","indexed":false,"internalType":"address"},{"name":"config","type":"tuple","indexed":false,"internalType":"struct OrderBookV5ArbConfig","components":[{"name":"orderBook","type":"address","internalType":"address"},{"name":"task","type":"tuple","internalType":"struct TaskV2","components":[{"name":"evaluable","type":"tuple","internalType":"struct EvaluableV4","components":[{"name":"interpreter","type":"address","internalType":"contract IInterpreterV4"},{"name":"store","type":"address","internalType":"contract IInterpreterStoreV3"},{"name":"bytecode","type":"bytes","internalType":"bytes"}]},{"name":"signedContext","type":"tuple[]","internalType":"struct SignedContextV1[]","components":[{"name":"signer","type":"address","internalType":"address"},{"name":"context","type":"bytes32[]","internalType":"bytes32[]"},{"name":"signature","type":"bytes","internalType":"bytes"}]}]},{"name":"implementationData","type":"bytes","internalType":"bytes"}]}],"anonymous":false},{"type":"error","name":"CoefficientOverflow","inputs":[{"name":"signedCoefficient","type":"int256","internalType":"int256"},{"name":"exponent","type":"int256","internalType":"int256"}]},{"type":"error","name":"ExponentOverflow","inputs":[{"name":"signedCoefficient","type":"int256","internalType":"int256"},{"name":"exponent","type":"int256","internalType":"int256"}]},{"type":"error","name":"InvalidSignature","inputs":[{"name":"i","type":"uint256","internalType":"uint256"}]},{"type":"error","name":"NegativeFixedDecimalConversion","inputs":[{"name":"signedCoefficient","type":"int256","internalType":"int256"},{"name":"exponent","type":"int256","internalType":"int256"}]},{"type":"error","name":"NoOrders","inputs":[]},{"type":"error","name":"WrongTask","inputs":[]}],"bytecode":{"object":"0x60c0604052600060805234801561001557600080fd5b506040516131d93803806131d983398101604081905261003491610396565b808060016000819055507f3a5f92e1700a303557ddae1bed800da2d50036e5b24950a948611540f0928e79338260405161006f92919061060f565b60405180910390a16020810151516040015151156100b65760208082015160405161009a920161066f565b60408051601f1981840301815291905280516020909101206080525b5050600081604001518060200190518101906100d29190610689565b6001600160a01b031660a052506106a69050565b634e487b7160e01b600052604160045260246000fd5b604051606081016001600160401b038111828210171561011e5761011e6100e6565b60405290565b604080519081016001600160401b038111828210171561011e5761011e6100e6565b604051601f8201601f191681016001600160401b038111828210171561016e5761016e6100e6565b604052919050565b6001600160a01b038116811461018b57600080fd5b50565b60005b838110156101a9578181015183820152602001610191565b50506000910152565b600082601f8301126101c357600080fd5b81516001600160401b038111156101dc576101dc6100e6565b6101ef601f8201601f1916602001610146565b81815284602083860101111561020457600080fd5b61021582602083016020870161018e565b949350505050565b60006001600160401b03821115610236576102366100e6565b5060051b60200190565b600082601f83011261025157600080fd5b815160206102666102618361021d565b610146565b82815260059290921b8401810191818101908684111561028557600080fd5b8286015b8481101561038b5780516001600160401b03808211156102a857600080fd5b908801906060828b03601f190112156102c15760008081fd5b6102c96100fc565b868301516102d681610176565b8152604083810151838111156102ec5760008081fd5b8401603f81018d136102fe5760008081fd5b8881015161030e6102618261021d565b81815260059190911b82018301908a8101908f83111561032e5760008081fd5b928401925b8284101561034c5783518252928b0192908b0190610333565b858c01525050506060840151838111156103665760008081fd5b6103748d8a838801016101b2565b918301919091525085525050918301918301610289565b509695505050505050565b600060208083850312156103a957600080fd5b82516001600160401b03808211156103c057600080fd5b90840190606082870312156103d457600080fd5b6103dc6100fc565b82516103e781610176565b815282840151828111156103fa57600080fd5b83016040818903121561040c57600080fd5b610414610124565b81518481111561042357600080fd5b82016060818b03121561043557600080fd5b61043d6100fc565b815161044881610176565b81528188015161045781610176565b8189015260408201518681111561046d57600080fd5b6104798c8285016101b2565b604083015250825250818601518481111561049357600080fd5b61049f8a828501610240565b87830152508086840152505060408301519350818411156104bf57600080fd5b6104cb878585016101b2565b60408201529695505050505050565b600081518084526104f281602086016020860161018e565b601f01601f19169290920160200192915050565b6000604082516040855260018060a01b03808251166040870152602080830151606083821660608a015260408501519450606060808a015261054b60a08a01866104da565b888401518a82038b86015280518083529196508401925083860190600581901b870185016000805b838110156105fd57898303601f19018552865180518a168452888101518985018890528051888601819052908a0190849060808701905b808310156105ca5783518252928c019260019290920191908c01906105aa565b508e84015193508681038f8801526105e281856104da565b96505050505087870196508785019450600181019050610573565b50909c9b505050505050505050505050565b6001600160a01b0383811682526040602080840182905284519092169083015282015160608083015260009061064860a0840182610506565b90506040840151603f1984830301608085015261066582826104da565b9695505050505050565b6020815260006106826020830184610506565b9392505050565b60006020828403121561069b57600080fd5b815161068281610176565b60805160a051612ae56106f460003960008181610124015281816105480152818161057d015281816106e3015261076301526000818160e20152818161020e015261025f0152612ae56000f3fe60806040526004361061005a5760003560e01c8063691f9ed711610043578063691f9ed7146100b057806393be095e146100d0578063b8757e06146101125761005a565b806301ffc9a7146100685780634ed394611461009d575b34801561006657600080fd5b005b34801561007457600080fd5b50610088610083366004611b3d565b61015e565b60405190151581526020015b60405180910390f35b6100666100ab366004611b86565b6101fb565b3480156100bc57600080fd5b506100666100cb366004611c0b565b610539565b3480156100dc57600080fd5b506101047f000000000000000000000000000000000000000000000000000000000000000081565b604051908152602001610094565b34801561011e57600080fd5b506101467f000000000000000000000000000000000000000000000000000000000000000081565b6040516001600160a01b039091168152602001610094565b60006001600160e01b031982167f691f9ed70000000000000000000000000000000000000000000000000000000014806101c157506001600160e01b031982167f4ed3946100000000000000000000000000000000000000000000000000000000145b806101f557507f01ffc9a7000000000000000000000000000000000000000000000000000000006001600160e01b03198316145b92915050565b610203610797565b61020c81611f33565b7f0000000000000000000000000000000000000000000000000000000000000000158015906102815750806040516020016102479190612081565b604051602081830303815290604052805190602001207f000000000000000000000000000000000000000000000000000000000000000014155b156102b8576040517f8812562900000000000000000000000000000000000000000000000000000000815260040160405180910390fd5b6102c56060840184612160565b9050600003610300576040517f9c95219f00000000000000000000000000000000000000000000000000000000815260040160405180910390fd5b600061030f6060850185612160565b6000818110610320576103206121aa565b905060200281019061033291906121c0565b61033c90806121e0565b61034a9060408101906121f6565b6103576060870187612160565b6000818110610368576103686121aa565b905060200281019061037a91906121c0565b6020013581811061038d5761038d6121aa565b6103a39260206040909202019081019150612240565b905060006103b46060860186612160565b60008181106103c5576103c56121aa565b90506020028101906103d791906121c0565b6103e190806121e0565b6103ef9060608101906121f6565b6103fc6060880188612160565b600081811061040d5761040d6121aa565b905060200281019061041f91906121c0565b60400135818110610432576104326121aa565b6104489260206040909202019081019150612240565b905061045f6001600160a01b0383168760006107f5565b6104756001600160a01b038316876000196107f5565b600080876001600160a01b031663d0f7a862886040518263ffffffff1660e01b81526004016104a491906124af565b60408051808303816000875af11580156104c2573d6000803e3d6000fd5b505050506040513d601f19601f820116820180604052508101906104e6919061268f565b90925090506105006001600160a01b0385168960006107f5565b61052561050c87611f33565b8561051687610976565b8661052088610976565b610a10565b50505050506105346001600055565b505050565b61056e6001600160a01b0387167f000000000000000000000000000000000000000000000000000000000000000060006107f5565b6105a46001600160a01b0387167f00000000000000000000000000000000000000000000000000000000000000006000196107f5565b60006105b282840184612240565b9050600080610622878a6001600160a01b031663313ce5676040518163ffffffff1660e01b8152600401602060405180830381865afa1580156105f9573d6000803e3d6000fd5b505050506040513d601f19601f8201168201806040525081019061061d91906126b3565b610cba565b9150915060008061066b888b6001600160a01b031663313ce5676040518163ffffffff1660e01b8152600401602060405180830381865afa1580156105f9573d6000803e3d6000fd5b9150915080610682578161067e816126ec565b9250505b6040517f9d73b3250000000000000000000000000000000000000000000000000000000081526001600160a01b0386811660048301528c811660248301528b81166044830152606482018690526084820184905260001960a48301526000917f000000000000000000000000000000000000000000000000000000000000000090911690639d73b3259060c4016020604051808303816000875af115801561072e573d6000803e3d6000fd5b505050506040513d601f19601f820116820180604052508101906107529190612705565b90506107896001600160a01b038d167f000000000000000000000000000000000000000000000000000000000000000060006107f5565b505050505050505050505050565b6002600054036107ee5760405162461bcd60e51b815260206004820152601f60248201527f5265656e7472616e637947756172643a207265656e7472616e742063616c6c0060448201526064015b60405180910390fd5b6002600055565b80158061088857506040517fdd62ed3e0000000000000000000000000000000000000000000000000000000081523060048201526001600160a01b03838116602483015284169063dd62ed3e90604401602060405180830381865afa158015610862573d6000803e3d6000fd5b505050506040513d601f19601f820116820180604052508101906108869190612705565b155b6108fa5760405162461bcd60e51b815260206004820152603660248201527f5361666545524332303a20617070726f76652066726f6d206e6f6e2d7a65726f60448201527f20746f206e6f6e2d7a65726f20616c6c6f77616e63650000000000000000000060648201526084016107e5565b6040516001600160a01b0383166024820152604481018290526105349084907f095ea7b300000000000000000000000000000000000000000000000000000000906064015b60408051601f198184030181529190526020810180516001600160e01b03166001600160e01b031990931692909217909152610ce8565b6040517f54636d2b0000000000000000000000000000000000000000000000000000000081526001600160a01b0382166004820152600090734f1c29faab7eddf8d7794695d8259996734cc665906354636d2b906024016020604051808303816000875af11580156109ec573d6000803e3d6000fd5b505050506040513d601f19601f820116820180604052508101906101f591906126b3565b604080516001808252818301909252600091816020015b6060815260200190600190039081610a27575050604080516003808252608082019092529192506000919060208201606080368337019050506040516370a0823160e01b81523060048201529091506000906001600160a01b038816906370a0823190602401602060405180830381865afa158015610aaa573d6000803e3d6000fd5b505050506040513d601f19601f82011682018060405250810190610ace9190612705565b90508015610aea57610aea6001600160a01b0388163383610dd0565b600080610af78389610e19565b915091508184600081518110610b0f57610b0f6121aa565b602090810291909101015250506040516370a0823160e01b8152306004820152600091506001600160a01b038616906370a0823190602401602060405180830381865afa158015610b64573d6000803e3d6000fd5b505050506040513d601f19601f82011682018060405250810190610b889190612705565b90508015610ba457610ba46001600160a01b0386163383610dd0565b600080610bb18387610e19565b915091508184600181518110610bc957610bc96121aa565b602090810291909101015250479150610be490503382610e5d565b610bf081601119610f76565b82600281518110610c0357610c036121aa565b602002602001018181525050508082600081518110610c2457610c246121aa565b6020908102919091010152604080516001808252818301909252600091816020015b6040805160a08101825260009181018281526060808301939093526080820183905281526020810191909152815260200190600190039081610c465790505090508781600081518110610c9b57610c9b6121aa565b6020026020010181905250610cb08382610fd2565b5050505050505050565b6000806001600160e01b038416601b0b60e085901d610cda8282876111c3565b9350935050505b9250929050565b6000610d3d826040518060400160405280602081526020017f5361666545524332303a206c6f772d6c6576656c2063616c6c206661696c6564815250856001600160a01b03166112e49092919063ffffffff16565b9050805160001480610d5e575080806020019051810190610d5e919061271e565b6105345760405162461bcd60e51b815260206004820152602a60248201527f5361666545524332303a204552433230206f7065726174696f6e20646964206e60448201527f6f7420737563636565640000000000000000000000000000000000000000000060648201526084016107e5565b6040516001600160a01b0383166024820152604481018290526105349084907fa9059cbb000000000000000000000000000000000000000000000000000000009060640161093f565b6000806000806000610e2b87876112fb565b925092509250600080610e3e8585611359565b9150915081838015610e4d5750815b9650965050505050509250929050565b80471015610ead5760405162461bcd60e51b815260206004820152601d60248201527f416464726573733a20696e73756666696369656e742062616c616e636500000060448201526064016107e5565b6000826001600160a01b03168260405160006040518083038185875af1925050503d8060008114610efa576040519150601f19603f3d011682016040523d82523d6000602084013e610eff565b606091505b50509050806105345760405162461bcd60e51b815260206004820152603a60248201527f416464726573733a20756e61626c6520746f2073656e642076616c75652c207260448201527f6563697069656e74206d6179206861766520726576657274656400000000000060648201526084016107e5565b6000806000610f858585611359565b9150915080610fca576040517f22c9f7bb00000000000000000000000000000000000000000000000000000000815260048101869052602481018590526044016107e5565b509392505050565b3360008181523060209081526040808320815160a0810183528083018581526060808301879052608083018190529082528185015282518581529384018581528484019093529093909291905b8651811015610cb05786818151811061103a5761103a6121aa565b6020026020010151935060008460000151604001515111156111bb576000808560000151600001516001600160a01b031663d04dfe236040518060e001604052808960000151602001516001600160a01b031681526020018a81526020018960000151604001518152602001600081526020016110bb8e8b60200151611436565b8152602001888152602001878152506040518263ffffffff1660e01b81526004016110e6919061279a565b600060405180830381865afa158015611103573d6000803e3d6000fd5b505050506040513d6000823e601f3d908101601f1916820160405261112b919081019061289f565b80519193509150156111b8578551602001516040517f04b19db40000000000000000000000000000000000000000000000000000000081526001600160a01b03909116906304b19db490611185908b90859060040161295b565b600060405180830381600087803b15801561119f57600080fd5b505af11580156111b3573d6000803e3d6000fd5b505050505b50505b60010161101f565b600080600085121561120b576040517f4a7d166b00000000000000000000000000000000000000000000000000000000815260048101869052602481018590526044016107e5565b8460000361121f57506000905060016112dc565b8460ff84168501858112156112515760405163d556b11160e01b815260048101889052602481018790526044016107e5565b60008060008312156112a157604c198312156112775760008095509550505050506112dc565b82600003600a0a915081848161128f5761128f612974565b04955050840290911491506112dc9050565b60008313156112d1576112b583600a612a6e565b91506112c18285612a7a565b9550600194506112dc9350505050565b509193506001925050505b935093915050565b60606112f3848460008561173c565b949350505050565b6000808060ff841681037f7fffffffffffffffffffffffffffffffffffffffffffffffffffffffffffffff86111561134857600a860460018201600a880660001493509350935050611352565b8593509150600190505b9250925092565b6000601b83900b83148383826113be577d90e40fbeea1d3a4abc8955e946fe31cdcf66f634e100000000000000000086051561139e57620186a0860595506005850194505b8586601b0b146113b957600a8605955084600101945061139e565b6113d6565b856000036113d657506000925060019150610ce19050565b848560030b1461141b5760008512156113f8575060009250829150610ce19050565b60405163d556b11160e01b815260048101839052602481018290526044016107e5565b50506001600160e01b03841660e084901b1791509250929050565b60606000825167ffffffffffffffff81111561145457611454611cb5565b60405190808252806020026020018201604052801561147d578160200160208202803683370190505b509050600080845111611491576000611497565b83516001015b855160010101905060008167ffffffffffffffff8111156114ba576114ba611cb5565b6040519080825280602002602001820160405280156114ed57816020015b60608152602001906001900390816114d85790505b5090506000611512604080516002815233602082015230818301526060810190915290565b828281518110611524576115246121aa565b602002602001018190525060005b8751811015611582578180600101925050878181518110611555576115556121aa565b602002602001015183838151811061156f5761156f6121aa565b6020908102919091010152600101611532565b50855115611732578080600101915050838282815181106115a5576115a56121aa565b602002602001018190525060005b8651811015611730576116648782815181106115d1576115d16121aa565b60200260200101516000015161164161160e8a85815181106115f5576115f56121aa565b6020026020010151602001518051602090810291012090565b7f19457468657265756d205369676e6564204d6573736167653a0a3332000000006000908152601c91909152603c902090565b898481518110611653576116536121aa565b60200260200101516040015161182e565b61169d576040517f52bf9848000000000000000000000000000000000000000000000000000000008152600481018290526024016107e5565b8681815181106116af576116af6121aa565b6020026020010151600001516001600160a01b031660001b8582815181106116d9576116d96121aa565b60200260200101818152505081806001019250508681815181106116ff576116ff6121aa565b60200260200101516020015183838151811061171d5761171d6121aa565b60209081029190910101526001016115b3565b505b5095945050505050565b6060824710156117b45760405162461bcd60e51b815260206004820152602660248201527f416464726573733a20696e73756666696369656e742062616c616e636520666f60448201527f722063616c6c000000000000000000000000000000000000000000000000000060648201526084016107e5565b600080866001600160a01b031685876040516117d09190612a91565b60006040518083038185875af1925050503d806000811461180d576040519150601f19603f3d011682016040523d82523d6000602084013e611812565b606091505b50915091506118238783838761188f565b979650505050505050565b600080600061183d8585611908565b9092509050600081600481111561185657611856612aa3565b1480156118745750856001600160a01b0316826001600160a01b0316145b80611885575061188586868661194a565b9695505050505050565b606083156118fe5782516000036118f7576001600160a01b0385163b6118f75760405162461bcd60e51b815260206004820152601d60248201527f416464726573733a2063616c6c20746f206e6f6e2d636f6e747261637400000060448201526064016107e5565b50816112f3565b6112f38383611a4f565b600080825160410361193e5760208301516040840151606085015160001a61193287828585611a79565b94509450505050610ce1565b50600090506002610ce1565b6000806000856001600160a01b0316631626ba7e60e01b8686604051602401611974929190612ab9565b60408051601f198184030181529181526020820180516001600160e01b03166001600160e01b03199094169390931790925290516119b29190612a91565b600060405180830381855afa9150503d80600081146119ed576040519150601f19603f3d011682016040523d82523d6000602084013e6119f2565b606091505b5091509150818015611a0657506020815110155b8015611885575080517f1626ba7e0000000000000000000000000000000000000000000000000000000090611a449083016020908101908401612705565b149695505050505050565b815115611a5f5781518083602001fd5b8060405162461bcd60e51b81526004016107e59190612ad2565b6000807f7fffffffffffffffffffffffffffffff5d576e7357a4501ddfe92f46681b20a0831115611ab05750600090506003611b34565b6040805160008082526020820180845289905260ff881692820192909252606081018690526080810185905260019060a0016020604051602081039080840390855afa158015611b04573d6000803e3d6000fd5b5050604051601f1901519150506001600160a01b038116611b2d57600060019250925050611b34565b9150600090505b94509492505050565b600060208284031215611b4f57600080fd5b81356001600160e01b031981168114611b6757600080fd5b9392505050565b6001600160a01b0381168114611b8357600080fd5b50565b600080600060608486031215611b9b57600080fd5b8335611ba681611b6e565b9250602084013567ffffffffffffffff80821115611bc357600080fd5b9085019060a08288031215611bd757600080fd5b90925060408501359080821115611bed57600080fd5b50840160408187031215611c0057600080fd5b809150509250925092565b60008060008060008060a08789031215611c2457600080fd5b8635611c2f81611b6e565b95506020870135611c3f81611b6e565b94506040870135935060608701359250608087013567ffffffffffffffff80821115611c6a57600080fd5b818901915089601f830112611c7e57600080fd5b813581811115611c8d57600080fd5b8a6020828501011115611c9f57600080fd5b6020830194508093505050509295509295509295565b634e487b7160e01b600052604160045260246000fd5b6040516060810167ffffffffffffffff81118282101715611cee57611cee611cb5565b60405290565b6040805190810167ffffffffffffffff81118282101715611cee57611cee611cb5565b604051601f8201601f1916810167ffffffffffffffff81118282101715611d4057611d40611cb5565b604052919050565b600082601f830112611d5957600080fd5b813567ffffffffffffffff811115611d7357611d73611cb5565b611d86601f8201601f1916602001611d17565b818152846020838601011115611d9b57600080fd5b816020850160208301376000918101602001919091529392505050565b600067ffffffffffffffff821115611dd257611dd2611cb5565b5060051b60200190565b600082601f830112611ded57600080fd5b81356020611e02611dfd83611db8565b611d17565b82815260059290921b84018101918181019086841115611e2157600080fd5b8286015b84811015611f2857803567ffffffffffffffff80821115611e4557600080fd5b908801906060828b03601f19011215611e5e5760008081fd5b611e66611ccb565b86830135611e7381611b6e565b815260408381013583811115611e895760008081fd5b8401603f81018d13611e9b5760008081fd5b88810135611eab611dfd82611db8565b81815260059190911b82018301908a8101908f831115611ecb5760008081fd5b928401925b82841015611ee95783358252928b0192908b0190611ed0565b858c0152505050606084013583811115611f035760008081fd5b611f118d8a83880101611d48565b918301919091525085525050918301918301611e25565b509695505050505050565b600060408236031215611f4557600080fd5b611f4d611cf4565b823567ffffffffffffffff80821115611f6557600080fd5b818501915060608236031215611f7a57600080fd5b611f82611ccb565b8235611f8d81611b6e565b81526020830135611f9d81611b6e565b6020820152604083013582811115611fb457600080fd5b611fc036828601611d48565b60408301525083526020850135915080821115611fdc57600080fd5b50611fe936828601611ddc565b60208301525092915050565b60005b83811015612010578181015183820152602001611ff8565b50506000910152565b60008151808452612031816020860160208601611ff5565b601f01601f19169290920160200192915050565b60008151808452602080850194506020840160005b838110156120765781518752958201959082019060010161205a565b509495945050505050565b6000602080835260608451604080848701526001600160a01b03808351166060880152808584015116608088015260408301519250606060a08801526120ca60c0880184612019565b85890151601f19898303810160408b015281518084529295509087019185880190600581901b8701890160005b8281101561214f578489830301845285518781511683528b8101518b8d8501526121238c850182612045565b918a0151848303858c015291905061213b8183612019565b978d0197958d0195935050506001016120f7565b509c9b505050505050505050505050565b6000808335601e1984360301811261217757600080fd5b83018035915067ffffffffffffffff82111561219257600080fd5b6020019150600581901b3603821315610ce157600080fd5b634e487b7160e01b600052603260045260246000fd5b60008235607e198336030181126121d657600080fd5b9190910192915050565b60008235609e198336030181126121d657600080fd5b6000808335601e1984360301811261220d57600080fd5b83018035915067ffffffffffffffff82111561222857600080fd5b6020019150600681901b3603821315610ce157600080fd5b60006020828403121561225257600080fd5b8135611b6781611b6e565b6000808335601e1984360301811261227457600080fd5b830160208101925035905067ffffffffffffffff81111561229457600080fd5b8060051b3603821315610ce157600080fd5b60008235605e198336030181126122bc57600080fd5b90910192915050565b6000808335601e198436030181126122dc57600080fd5b830160208101925035905067ffffffffffffffff8111156122fc57600080fd5b803603821315610ce157600080fd5b81835281816020850137506000828201602090810191909152601f909101601f19169091010190565b6000808335601e1984360301811261234b57600080fd5b830160208101925035905067ffffffffffffffff81111561236b57600080fd5b8060061b3603821315610ce157600080fd5b8183526000602080850194508260005b858110156120765781356123a081611b6e565b6001600160a01b0316875281830135838801526040968701969091019060010161238d565b818352602080840193600091600585811b830182018585805b898110156124a057868403601f19018b526123f9838a6122a6565b6060813561240681611b6e565b6001600160a01b0316865261241d8289018361225d565b828a8901528083890152608092507f07ffffffffffffffffffffffffffffffffffffffffffffffffffffffffffffff811115612457578586fd5b881b808289850137870190506040612471848201856122c5565b94508389840301828a0152612489848401868361230b565b9f8b019f98505050948801945050506001016123de565b50919998505050505050505050565b6000602080835260c0830184358285015260408286013581860152606081870135818701526124e08188018861225d565b60a060808901528481865260e08901905060e08260051b8a010195508260005b83811015612662578a880360df19018352813536869003607e1901811261252657600080fd5b8501803536829003609e1901811261253d57600080fd5b60808a528101803561254e81611b6e565b6001600160a01b0380821660808d015261256a8d8401846122a6565b915060a0808d0152813561257d81611b6e565b81166101208d0152818d013561259281611b6e565b166101408c01526125a5818b01826122c5565b9150896101608d01526125bd6101808d01838361230b565b9150506125cc8a830183612334565b607f19808e85030160c08f01526125e484838561237d565b93506125f28c860186612334565b93509150808e85030160e08f01525061260c83838361237d565b9250505060808201356101008c01528b8301358c8c0152898301358a8c01526126378984018461225d565b935091508a8103898c015261264d8184846123c5565b9a505050928901925090880190600101612500565b5050505050505061267660808601866122c5565b858303601f190160a0870152925061188582848361230b565b600080604083850312156126a257600080fd5b505080516020909101519092909150565b6000602082840312156126c557600080fd5b815160ff81168114611b6757600080fd5b634e487b7160e01b600052601160045260246000fd5b6000600182016126fe576126fe6126d6565b5060010190565b60006020828403121561271757600080fd5b5051919050565b60006020828403121561273057600080fd5b81518015158114611b6757600080fd5b60008282518085526020808601955060208260051b8401016020860160005b8481101561278d57601f1986840301895261277b838351612045565b9884019892509083019060010161275f565b5090979650505050505050565b602081526001600160a01b038251166020820152602082015160408201526000604083015160e060608401526127d4610100840182612019565b9050606084015160808401526080840151601f19808584030160a08601526127fc8383612740565b925060a08601519150808584030160c08601526128198383612045565b925060c08601519150808584030160e0860152506128378282612045565b95945050505050565b600082601f83011261285157600080fd5b81516020612861611dfd83611db8565b8083825260208201915060208460051b87010193508684111561288357600080fd5b602086015b84811015611f285780518352918301918301612888565b600080604083850312156128b257600080fd5b825167ffffffffffffffff808211156128ca57600080fd5b818501915085601f8301126128de57600080fd5b815160206128ee611dfd83611db8565b82815260059290921b8401810191818101908984111561290d57600080fd5b948201945b8386101561292b57855182529482019490820190612912565b9188015191965090935050508082111561294457600080fd5b5061295185828601612840565b9150509250929050565b8281526040602082015260006112f36040830184612045565b634e487b7160e01b600052601260045260246000fd5b600181815b808511156129c55781600019048211156129ab576129ab6126d6565b808516156129b857918102915b93841c939080029061298f565b509250929050565b6000826129dc575060016101f5565b816129e9575060006101f5565b81600181146129ff5760028114612a0957612a25565b60019150506101f5565b60ff841115612a1a57612a1a6126d6565b50506001821b6101f5565b5060208310610133831016604e8410600b8410161715612a48575081810a6101f5565b612a52838361298a565b8060001904821115612a6657612a666126d6565b029392505050565b6000611b6783836129cd565b80820281158282048414176101f5576101f56126d6565b600082516121d6818460208701611ff5565b634e487b7160e01b600052602160045260246000fd5b8281526040602082015260006112f36040830184612019565b602081526000611b67602083018461201956","linkReferences":{}},"methodIdentifiers":{"arb4(address,(bytes32,bytes32,bytes32,((address,(address,address,bytes),(address,bytes32)[],(address,bytes32)[],bytes32),uint256,uint256,(address,bytes32[],bytes)[])[],bytes),((address,address,bytes),(address,bytes32[],bytes)[]))":"4ed39461","iStabullRouter()":"b8757e06","iTaskHash()":"93be095e","onTakeOrders2(address,address,bytes32,bytes32,bytes)":"691f9ed7","supportsInterface(bytes4)":"01ffc9a7"},"id":126}